:020000023000CC
:10E000000D9472F00D9493F00D9493F00D9493F0A1
:10E010000D9493F00D9493F00D9493F00D9493F070
:10E020000D9493F00D9493F00D9493F00D9493F060
:10E030000D9493F00D9493F00D9493F00D9493F050
:10E040000D9493F00D9493F00D9493F00D9493F040
:10E050000D9493F00D9493F00D9493F00D9493F030
:10E060000D9493F00D9493F00D9493F00D9493F020
:10E070000D9493F00D9493F00D9493F00D9493F010
:10E080000D9493F00D9493F00D9493F00D9493F000
:10E090000D9493F00D9493F00D9493F00D9493F0F0
:10E0A0000D9493F00D9493F00D9493F00D9493F0E0
:10E0B0000D9493F00D9493F00D9493F00D9493F0D0
:10E0C0000D9493F00D9493F00D9493F00D9493F0C0
:10E0D0000D9493F00D9493F00D9493F00D9493F0B0
:10E0E0000D9493F011241FBECFEFD1E2DEBFCDBF60
:10E0F00001E00CBF12E0A0E0B2E0ECE6FEEE03E0CF
:10E100000BBF02C007900D92AE32B107D9F70F9442
:10E11000E8F00D9434F701E20EBF0FEF0DBF1124AC
:10E120001FBE0D94E8F00D9400F08093C60080911E
:10E13000C00086FFFCCF8091C00080648093C00047
:10E1400008954398429A98E020E8322F382311F03E
:10E15000419A01C041984298429A26959150A9F758
:10E16000439A089547980F94A1F0479A0895479AC3
:10E170000D94A1F020E030E008C0EFECF7E031971B
:10E18000F1F700C000002F5F3F4F28173907A9F7AC
:10E190000895CF93DF93C82F85E10F94B2F080E00C
:10E1A0000F94B2F08FE30F94B2F085E70F94B2F0C2
:10E1B0008C2F0F94B2F08C2F0F94B2F0C0E4D0E00B
:10E1C0008FEF0F94B7F02197D9F7DF91CF91089592
:10E1D000CF93DF93CDB7DEB7CB52D1400FB6F894D3
:10E1E000DEBF0FBECDBF80910101877F809301010B
:10E1F00088E080930201809108018061809308018A
:10E200008091C00082608093C00080E18093C40050
:10E2100088E18093C10000008EEA87B98FE99FE012
:10E220000197F1F700C00000439A4798419842983F
:10E230004598EFE9FFE03197F1F700C00000459AFB
:10E2400085E10F94B2F080E00F94B2F08FE30F9469
:10E25000B2F085E70F94B2F080E00F94B2F08FE354
:10E260000F94B2F081E80F94B2F086E60F94B2F00A
:10E2700086E80F94B2F080EA0F94B2F082E50F9432
:10E28000B2F081EA0F94B2F080E00F94B2F082EA2B
:10E290000F94B2F08CE40F94B2F084EA0F94B2F0D1
:10E2A00088EA0F94B2F08FE30F94B2F081EB0F94F1
:10E2B000B2F088EA0F94B2F082EB0F94B2F086E4E9
:10E2C0000F94B2F083EB0F94B2F081EF0F94B2F0A1
:10E2D0008FEB0F94B2F08DE00F94B2F08EEB0F94B1
:10E2E000B2F082E00F94B2F08CEB0F94B2F088E3BE
:10E2F0000F94B2F088EB0F94B2F081E00F94B2F07B
:10E3000081E10F94B2F082E20F94B2F082E30F94B5
:10E31000B2F083E40F94B2F084E50F94B2F085E696
:10E320000F94B2F086E70F94B2F08DEA0F94B2F03A
:10E3300082E00F94B2F08FEA0F94B2F085E10F946F
:10E34000B2F080E00F94B2F08FE70F94B2F085E75F
:10E350000F94B2F080E00F94B2F08FE30F94B2F01C
:10E3600000E010E180E00F94B7F001501109D1F7FF
:10E3700081E089831A8288E08B8381E48C8386E53F
:10E380008D8382E58E8389E48F8383E5888780E5AA
:10E3900089878FE58A8782E38B878BE10F9495F0DD
:10E3A00081E00F9495F080E00F9495F08BE00F944E
:10E3B00095F08EE00F9495F08E010F5F1F4F9FE157
:10E3C000792E7E01FCE0EF0EF11CF801D1908F0157
:10E3D0008D2D0F9495F07D240E151F05B1F7872D17
:10E3E0000F9495F040E050E0BA0115C0F5E0FA95C1
:10E3F000F1F700008091000183FF04C04F5F5F4F81
:10E400006F4F7F4FA1E0B0E0413900ED500703E0CE
:10E410006007710510F4A0E0B0E08091C00087FFB4
:10E4200003C01196C1F303C0109701F3FACFA130D6
:10E43000B10509F0CAC4B2C4A0E0B0E01197C9F4B4
:10E440001FC09FEFC91AD90AE90AF90AA1E0CA1642
:10E45000A2E1DA06AAE7EA06F10470F0CC5DDE4F2D
:10E46000E881F981C452D140319619F0EE27FF2797
:10E470000994C12CD12C76019091C00097FFE1CF77
:10E480009091C6008330E1F020F4813061F098F47F
:10E4900007C0853009F1C0F0863009F064C02CC097
:10E4A0009B3151F6A0C4913011F09113A2C479268A
:10E4B000192F82E0C1CF792F60E0792683E0BCCFAD
:10E4C000692B792684E0B8CF9E3009F092C4792672
:10E4D000212C312C85E0B0CFE1E0F0E0EC0FFD1F06
:10E4E000E20DF31D9083AFEF2A1A3A0A7926261619
:10E4F000370609F0A1CF7BC497117BC4E981E331D2
:10E5000009F43FC2B8F4E63009F428C250F4E2300E
:10E5100009F435C2E33009F4C9C1E13009F06DC333
:10E52000AEC1E13109F4CFC108F010C2E03109F009
:10E5300064C325C2E83109F4E3C148F4E53109F4C4
:10E5400020C208F4FBC2E63109F057C3F7C2EA3132
:10E5500009F4C9C108F4E8C1EB3109F4B7C1ED31E0
:10E5600009F04BC303C0873049F266CFED80E0E38A
:10E57000EE1278C18F81811171C187E3C85DDE4FD2
:10E580002883C852D140C75DDE4F3883C952D1407D
:10E59000C65DDE4F4883CA52D140C55DDE4F588309
:10E5A000CB52D1400F94C9F08BE30F94C9F085E1B1
:10E5B0000F94B2F080E00F94B2F080E00F94B2F0CC
:10E5C00085E70F94B2F088E30F94B2F08AE30F94DA
:10E5D000B2F080EF0F94B7F080EF0F94B7F080EFB8
:10E5E0000F94B7F085E10F94B2F08FE30F94B2F07F
:10E5F00080E40F94B2F085E70F94B2F088E30F94B3
:10E60000B2F08AE30F94B2F08FE00F94B7F08FE08E
:10E610000F94B7F08FE00F94B7F00FE0F12C95E076
:10E62000C85DDE4F2881C852D140C75DDE4F3881BA
:10E63000C952D140C65DDE4F4881CA52D140C55D46
:10E64000DE4F5881CB52D1401AC0813071F09F2DDE
:10E650009150923060F0843061F0853061F0883004
:10E6600051F0863051F093E009C096E007C090E089
:10E6700005C091E003C094E001C092E0F82E85E16E
:10E68000C85DDE4F2883C852D140C75DDE4F388356
:10E69000C952D140C65DDE4F4883CA52D140C55DE4
:10E6A000DE4F5883CB52D140CA5DDE4F9883C652AD
:10E6B000D1400F94B2F0802F0F94B2F0802F8E5F74
:10E6C0000F94B2F085E70F94B2F08FE20F94B2F09E
:10E6D00084E30F94B2F0CA5DDE4F9881C652D140F8
:10E6E000C92ECC0CC90ECC0C86E0D82EDC0CC55D36
:10E6F000DE4F5881CB52D140C65DDE4F4881CA52B1
:10E70000D140C75DDE4F3881C952D140C85DDE4F70
:10E710002881C852D140EC2DF0E0ED5FFD4F7080B4
:10E72000C39477FC02C080E001C080EF76FC8F606C
:10E73000C85DDE4F2883C852D140C75DDE4F3883A5
:10E74000C952D140C65DDE4F4883CA52D140C55D33
:10E75000DE4F5883CB52D1400F94B7F0C85DDE4FE7
:10E760002881C852D140C75DDE4F3881C952D1409F
:10E77000C65DDE4F4881CA52D140C55DDE4F58812B
:10E78000CB52D14075FE02C080EF01C080E074FC26
:10E790008F60C85DDE4F2883C852D140C75DDE4F11
:10E7A0003883C952D140C65DDE4F4883CA52D1403A
:10E7B000C55DDE4F5883CB52D1400F94B7F0C85D92
:10E7C000DE4F2881C852D140C75DDE4F3881C95223
:10E7D000D140C65DDE4F4881CA52D140C55DDE4F93
:10E7E0005881CB52D14073FE02C080EF01C080E05F
:10E7F00072FC8F60C85DDE4F2883C852D140C75D70
:10E80000DE4F3883C952D140C65DDE4F4883CA52BD
:10E81000D140C55DDE4F5883CB52D1400F94B7F045
:10E82000C85DDE4F2881C852D140C75DDE4F3881B8
:10E83000C952D140C65DDE4F4881CA52D140C55D44
:10E84000DE4F5881CB52D140CD1065CF0D5F8F2D5B
:10E850008F5F0A3209F0F9CE8EE107C0813021F4D2
:10E8600088E903C080E001C081E01A821B82EC824B
:10E870001D828E831F8200E067E070E0C3C11A82B0
:10E8800088E08B8381E48C8386E58D8382E58E83AB
:10E8900089E48F8383E5888780E589878FE58A8788
:10E8A00082E38B8700E06BE070E0ACC1EA81E05965
:10E8B000E33028F4F0E0E050FE4F808101C080E0BA
:10E8C0001A828B833FC01A8201E09AC18D8188230E
:10E8D00021F0813021F488E903C08EE101C081E09C
:10E8E0001A828B8308C01A82E1E0F0E089E080930D
:10E8F0005700E491EB831C8200E064E070E082C189
:10E900008B81803549F48C81883019F4E2E0F0E0A5
:10E9100005C0E0E0F0E002C0E3E0F0E089E08093D1
:10E920005700E4911A82E6CF8D81836C99E0E1E093
:10E93000F0E0082E90935700E89507B600FCFDCF55
:10E940001A821B8200E063E070E05CC11A8200E082
:10E9500062E070E0812C912C540154C18A812B819A
:10E96000422F50E060E070E033272227582B8D8142
:10E97000282B8C81382B220F331F441F551F1A82DE
:10E980003EC1FA81C15EDE4FF883CF51D140C25EF5
:10E99000DE4F1882CE51D1408B81C25EDE4F68813E
:10E9A0007981CE51D140682BCB01E33109F09AC077
:10E9B000811470EC970673E0A706B10470F463E06D
:10E9C000F401A0925B0060935700E89507B600FC45
:10E9D000FDCFAFEF9A1AAA0ABA0A6B85DE011D961F
:10E9E00069017A0101E0FD0131977081CF5DDE4F51
:10E9F0007883C152D140C05EDE4F1882C052D140F0
:10EA0000C05EDE4FE881F981C052D140E62BBF01E4
:10EA10000B01F601E0925B0000935700E89511248A
:10EA2000F2E0CF0ED11CE11CF11C029719F06C91A1
:10EA30001296D9CF85E0F90140935B00809357008F
:10EA4000E89585E1C85DDE4F2883C852D140C75D97
:10EA5000DE4F3883C952D140C65DDE4F4883CA526B
:10EA6000D140C55DDE4F5883CB52D1400F94B2F0F8
:10EA7000ACE7B0E0C85DDE4F2881C852D140C75D29
:10EA8000DE4F3881C952D140C65DDE4F4881CA523F
:10EA9000D140C55DDE4F5881CB52D1400F94FBF67B
:10EAA00020E030E847E050E00F9406F7022F0F5FB8
:10EAB000802F0F94B2F0802F0F94B2F085E70F945F
:10EAC000B2F089E30F94B2F089E30F94B2F08FEFC4
:10EAD0000F94B7F007B600FCFDCF81E1809357009B
:10EAE000E89528C0BC0169017A01FE013B96C1BCD2
:10EAF0004D2C5E2C6F2C772442BC0FEFC01AD00A2D
:10EB0000E00AF00AA191A0BDFA9AF99AF999FECF0C
:10EB10006150710961F76C0161E0C61AD108E12CFE
:10EB2000F12C7FEFC71AD70AE70AF70AC20ED31EE5
:10EB3000E41EF51E1A82A701960161C08A81CD5D8F
:10EB4000DE4F8883C352D140CE5DDE4F1882C25261
:10EB5000D1408B81CE5DDE4F68817981C252D14038
:10EB6000682BCB016D5F7F4F1A82E431C9F47E01BF
:10EB7000A4E0EA0EF11CDE0113964BBFF901C79029
:10EB8000D690CC92F701D08212962E5F3F4F4F4F16
:10EB90005F4F0297F2E0EF0EF11C009771F72AC069
:10EBA000FC0169017A01DE011396C1BC4D2C5E2C7B
:10EBB0006F2C772442BC0FEFC01AD00AE00AF00A8B
:10EBC000F89A00B50D93319781F76C01A1E0CA1A4C
:10EBD000D108E12CF12CEFEFCE1ADE0AEE0AFE0A84
:10EBE0002C0D3D1D4E1D5F1DA3E0B0E0AC0FBD1F01
:10EBF000A80FB91F1C9200E005C080EC8A8300E0DA
:10EC000062E070E08BE1C85DDE4F2883C852D140DE
:10EC1000C75DDE4F3883C952D140C65DDE4F4883A1
:10EC2000CA52D140C55DDE4F5883CB52D140CA5D38
:10EC3000DE4F6883C652D140C95DDE4F7883C7522C
:10EC4000D1400F9495F0812F0F9495F0C95DDE4F60
:10EC50007881C752D140F72E872F0F9495F0CA5D67
:10EC6000DE4F6881C652D140E62E862F0F9495F074
:10EC70008EE00F9495F095E1792E71267E247F2405
:10EC8000CA5DDE4F6881C652D140C95DDE4F7881D2
:10EC9000C752D140CC24C394D12CCC0EDD1EC60E5D
:10ECA000D71EEE24E394F12CEC0EFD1EC85DDE4F62
:10ECB0002881C852D140C75DDE4F3881C952D1404A
:10ECC000C65DDE4F4881CA52D140C55DDE4F5881D6
:10ECD000CB52D1402FC0F70161907F01862DC85DD6
:10ECE000DE4F2883C852D140C75DDE4F3883C952FA
:10ECF000D140C65DDE4F4883CA52D140C55DDE4F6C
:10ED00005883CB52D1400F9495F07624C55DDE4FE9
:10ED10005881CB52D140C65DDE4F4881CA52D140A6
:10ED2000C75DDE4F3881C952D140C85DDE4F2881B2
:10ED3000C852D140EC14FD0471F6872DC85DDE4F3A
:10ED40002883C852D140C75DDE4F3883C952D140B5
:10ED5000C65DDE4F4883CA52D140C55DDE4F588341
:10ED6000CB52D1400F9495F01F5FA0E0B0E0C85D9A
:10ED7000DE4F2881C852D140C75DDE4F3881C9526D
:10ED8000D140C65DDE4F4881CA52D140C55DDE4FDD
:10ED90005881CB52D1400023A1F017C012E0212CA2
:10EDA000312C812C912C540120E030E0A901ABBE24
:10EDB000F40167917691CC5DDE4F79836883C4520C
:10EDC000D14060E070E080E039CB00008091C0006D
:10EDD0008D7F8093C00081E180935700E895EE27F6
:10EDE000FF270994FFCF8BE1782E81E025CB86E0C9
:10EDF00023CB80E021CB0F9428F7A59F900DB49FE3
:10EE0000900DA49F800D911D11240895A1E21A2E4A
:10EE1000AA1BBB1BFD010DC0AA1FBB1FEE1FFF1FBE
:10EE2000A217B307E407F50720F0A21BB30BE40B0E
:10EE3000F50B661F771F881F991F1A9469F7609555
:10EE40007095809590959B01AC01BD01CF0108950F
:10EE5000A29FB001B39FC001A39F01D0B29F700DCC
:0CEE6000811D1124911D0895F894FFCF2E
:10EE6C000F020AF880E08080F8F088888888F0F833
:10EE7C0020202020F888C8A8988888F88888888856
:0EEE8C00F8F880F80808F8F088F88080800018
:040000033000E000E9
:00000001FF
