:020000023000CC
:10E000000D9472F00D9493F00D9493F00D9493F0A1
:10E010000D9493F00D9493F00D9493F00D9493F070
:10E020000D9493F00D9493F00D9493F00D9493F060
:10E030000D9493F00D9493F00D9493F00D9493F050
:10E040000D9493F00D9493F00D9493F00D9493F040
:10E050000D9493F00D9493F00D9493F00D9493F030
:10E060000D9493F00D9493F00D9493F00D9493F020
:10E070000D9493F00D9493F00D9493F00D9493F010
:10E080000D9493F00D9493F00D9493F00D9493F000
:10E090000D9493F00D9493F00D9493F00D9493F0F0
:10E0A0000D9493F00D9493F00D9493F00D9493F0E0
:10E0B0000D9493F00D9493F00D9493F00D9493F0D0
:10E0C0000D9493F00D9493F00D9493F00D9493F0C0
:10E0D0000D9493F00D9493F00D9493F00D9493F0B0
:10E0E0000D9493F011241FBECFEFD1E2DEBFCDBF60
:10E0F00001E00CBF12E0A0E0B2E0EAE4F8EE03E0D9
:10E100000BBF02C007900D92A431B107D9F70F944D
:10E11000B0F00D9423F401E20EBF0FEF0DBF1124F8
:10E120001FBE0D94B0F00D9400F08093C600809156
:10E13000C00086FFFCCF8091C00080648093C00047
:10E14000089520E030E008C0EFECF7E03197F1F7F8
:10E1500000C000002F5F3F4F28173907A8F308952C
:10E160002F923F924F925F926F927F928F929F92E7
:10E17000AF92BF92CF92DF92EF92FF920F931F93D5
:10E18000DF93CF93CDB7DEB7C752D1400FB6F89427
:10E19000DEBF0FBECDBF0998119A8091C00082608A
:10E1A0008093C00080E18093C40088E18093C10027
:10E1B00000008FE39FE10197F1F700C000001A8291
:10E1C00088E08B8381E48C8386E58D8382E58E8372
:10E1D00089E48F8383E5888780E589878FE58A874F
:10E1E00082E38B878BE10F9495F081E00F9495F09B
:10E1F00080E00F9495F08BE00F9495F08EE00F94F3
:10E2000095F08E01045F1F4F7E010894E11CF11C04
:10E210009FE1892EF701C1907F018C2D0F9495F01D
:10E220008C24E016F106B1F7882D0F9495F080E06C
:10E2300090E0DC0113C0F5E0FA95F1F70000019BD6
:10E2400003C00196A11DB11D21E030E0813940EDF0
:10E25000940743E0A40740E0B40710F420E030E066
:10E260004091C00047FD03C02115310521F32F5F08
:10E270003F4F2130310509F0C3C2442455243201F7
:10E28000EE24FF24870182E0982E222433246BBEE3
:10E29000F20187919691CC5DDE4F99838883C452B9
:10E2A000D140AAC220E030E021303105D1F420C0B5
:10E2B0002F5F3F4F4F4F5F4F213092E139079AE771
:10E2C000490790E0590780F0CC5DDE4FE881F98185
:10E2D000C452D1402FEFEF3FF20719F0EE27FF278E
:10E2E000099420E030E0A9019091C00097FFE0CFB1
:10E2F0002091C6008330F9F0843028F4813069F031
:10E300008230A0F407C0853029F18530D8F08630FE
:10E31000A9F530C02B3131F68EC2213019F0291504
:10E3200009F08DC28226922E82E0BCCF722F60E06F
:10E33000822683E0B7CF822F90E0682B792B82264C
:10E3400084E0B0CF2E3009F07AC282262224332412
:10E3500085E0A8CFE1E0F0E0EC0FFD1FE20DF31D3A
:10E3600020830894211C311C82262616370609F0CA
:10E3700099CF67C2281509F062C203C0873009F03F
:10E3800091CF4981433109F4F2C04431C0F44630A1
:10E3900009F4C1C0473048F4423069F1433009F410
:10E3A0005EC0413009F0D1C142C0413109F464C0BE
:10E3B000423108F0A7C0403109F0C7C11CC0483144
:10E3C00009F476C0493150F4453109F4D0C04531E3
:10E3D00008F461C1463109F0B8C15DC14A3109F4A0
:10E3E00059C04A3108F47BC04B3109F448C04D3163
:10E3F00009F0ABC102C090E040C09D81903339F478
:10E400008F81882331F0813031F488E905C080E0C4
:10E4100003C08EE101C081E01A821B829C831D82B1
:10E420008E831F8290E0B7E0CB2ED12C94C11A824C
:10E4300088E08B8381E48C8386E58D8382E58E83FF
:10E4400089E48F8383E5888780E589878FE58A87DC
:10E4500082E38B8790E0ABE0CA2ED12C7CC1EA81AD
:10E46000E058E33128F4F0E0E050FE4F808101C035
:10E4700080E01A828B8341C091E01A8269C18D814C
:10E48000882321F0813021F488E926C08EE124C060
:10E4900081E022C01A82E1E0F0E089E08093570039
:10E4A000E491EB831C8290E0F4E0CF2ED12C53C199
:10E4B0008B81803559F48C81883021F489E0E2E049
:10E4C000F0E007C089E0E0E0F0E003C0E3E0F0E066
:10E4D00089E08093570084911A828B83E3CF8D81EA
:10E4E000836C99E0E1E0F0E0082E90935700E89506
:10E4F00007B600FCFDCF1A821B8290E0E3E0CE2E2F
:10E50000D12C29C11A8290E072E0C72ED12C44246C
:10E510005524320120C1EA80FF2400E010E01E2DC6
:10E520000027FF24EE248B8190E0A0E0B0E0DC0126
:10E5300099278827E82AF92A0A2B1B2B8D8190E03E
:10E54000A0E0B0E0E82AF92A0A2B1B2B8C8190E08E
:10E55000A0E0B0E0BA2FA92F982F8827E82AF92A3F
:10E560000A2B1B2BEE0CFF1C001F111F92C0FA81FF
:10E57000C15EDE4FF883CF51D140C25EDE4F1882BC
:10E58000CE51D1408B8190E0C25EDE4F288139812F
:10E59000CE51D140822B932B433109F058C030E04B
:10E5A000431630EC530633E0630630E0730690F414
:10E5B00043E0F20160925B0040935700E89507B694
:10E5C00000FCFDCF20E031E040E050E0420E531E61
:10E5D000641E751EB801A701DE011B962C911196D1
:10E5E0003C9111971296CF5DDE4F3883C152D140D6
:10E5F000C05EDE4F1882C052D14030E0C05EDE4FB8
:10E60000E881F981C052D1402E2B3F2BDD24D394D9
:10E610000901FA0160935B00D0925700E89511243C
:10E620004E5F5F4F6F4F7F4F0297C1F625E0F701B6
:10E6300000935B0020935700E89507B600FCFDCFE0
:10E6400031E130935700E8957A018B0122C00197A0
:10E65000A0E0B0E00196A11DB11D8E0D9F1DA01F71
:10E66000B11FFE013B96E1BC5527412F302F2F2DC6
:10E6700022BD0894E11CF11C011D111D219120BD3A
:10E68000FA9AF99AF999FECFE816F9060A071B07D4
:10E6900051F71A825CC05A81CD5DDE4F5883C35258
:10E6A000D140CE5DDE4F1882C252D1402B8130E086
:10E6B000CE5DDE4F88819981C252D140282B392B03
:10E6C00073E0C72ED12CC20ED31E1A824431C1F47E
:10E6D000DE011396AD01D801C701ABBFFC01679104
:10E6E0007691FA01608371834E5F5F4F0296A11DA0
:10E6F000B11D2250304089F77C018D01DA0122C022
:10E70000FE0133962150304040E050E02F5F3F4FF4
:10E710004F4F5F4F2E0D3F1D401F511FE1BCBB27C8
:10E72000A12F902F8F2D82BD0894E11CF11C011D9B
:10E73000111DF89A80B58193DF01E216F3060407F4
:10E74000150761F71C9290E006C0F0ECFA8390E0A8
:10E7500022E0C22ED12C8BE1C95DDE4F9883C752D7
:10E76000D1400F9495F0892D0F9495F08D2D0F9435
:10E7700095F08C2D0F9495F08EE00F9495F095E127
:10E78000892E89248C248D245E010894A11CB11C3F
:10E7900019C0F50121915F01822FCA5DDE4F2883E8
:10E7A000C652D140C95DDE4F9883C752D1400F9405
:10E7B00095F0CA5DDE4F2881C652D140822608946A
:10E7C000C108D108C95DDE4F9881C752D140C1143C
:10E7D000D104F9F6882DC95DDE4F9883C752D14028
:10E7E0000F9495F0C95DDE4F9881C752D1409923AF
:10E7F00039F4939420E030E060E070E080E054CDA4
:10E800008AE60F9495F08DE00F9495F08AE00F94CE
:10E8100095F084E690E00F94A1F000008091C00094
:10E820008D7F8093C00081E180935700E895EE27AB
:10E83000FF270994FFCF8BE1882E81E033CD80E064
:0AE8400031CD86E02FCDF894FFCF14
:10E84A0000000000000000000000000000000000BE
:04E85A000F020A009F
:040000033000E000E9
:00000001FF
