:1000000012C0A0C1E9C12AC029C028C076C226C03A
:1000100025C011C123C0FCC721C020C01FC01EC005
:100020001DC01CC01BC011241FBECFE5D4E0DEBF25
:10003000CDBF10E0A0E6B0E0E6E3F7E102C0059036
:100040000D92AE3BB107D9F711E0AEEBB0E001C0C5
:100050001D92AB30B107E1F70BD06BCBD1CFF6D10E
:1000600069D776D080E0F9D12BD27894DED008958C
:10007000CF93DF93F4DFC1E0D0E08091BE0081FF39
:10008000FCCF8091EB008D3661F58091BE008D7FB5
:100090008093BE008091EC0090E0C097EDEEF0E020
:1000A0000FC09C01220F331F53E0880F991F5A95F0
:1000B000E1F7280F391F842F90E0C097820F931F1C
:1000C0004191442371F727E0813D92071CF497FD8D
:1000D00004C005C080ED97E002C080E090E08AD4C3
:1000E000CCCF893789F484E234D789E732D780913D
:1000F000C8009091C900805D2CD78AE22AD710925F
:10010000C9001092C8001EC0803761F484E221D774
:1001100080E71FD78091E7009091E80030D78AE20E
:1001200018D710C0823709F0A8CF8091EC00803337
:1001300029F41092D5001092D40004C0D093D500B9
:10014000C093D4008091BE008D7F8093BE0095CF78
:1001500080EE81BB87E182BB85B7856085BF85B7AF
:10016000857F85BF8BB7806C8BBF1092CD001092BE
:10017000CC001092CF001092CE001092DB001092B3
:10018000DA001092D1001092D0001092CB001092A1
:10019000CA0081E090E09093D5008093D400109243
:1001A000D9001092D8001092D3001092D200109271
:1001B000C9001092C8001092D7001092D60008957E
:1001C0002091D4003091D5002115310509F1F89422
:1001D000A59AAD988130910511F48B9A9398969ACF
:1001E0002FEF30E742E0215030404040E1F700C0BF
:1001F0000000A598AD9A8130910541F48FE097E217
:100200000197F1F700C00000939A8B989698789424
:100210001092CF001092CE001092CD001092CC0020
:100220001092CB001092CA00089583E083BF89B773
:10023000816089BF08951F920F920FB60F9211240B
:100240002F933F934F935F936F937F938F939F93DE
:10025000AF93BF93CF93DF93EF93FF938091D4003D
:100260009091D500009709F45AC08091CC009091EC
:10027000CD0084369105D4F08091D0009091D100CA
:100280000097A1F48091D6009091D7008B30910512
:100290006CF081E090E09093D1008093D00090DFEB
:1002A00082E090E09093C9008093C8008091CE00D6
:1002B0009091CF0023E1883892079CF08091CA008A
:1002C0009091CB00009769F4C1E0D0E0D093CB00CF
:1002D000C093CA0081E090E073DFD093C900C0935F
:1002E000C8008091D0009091D1000097C1F4809116
:1002F000CA009091CB00009791F48091CC0090912E
:10030000CD0001969093CD008093CC008091CE00DB
:100310009091CF0001969093CF008093CE00FF91F3
:10032000EF91DF91CF91BF91AF919F918F917F918D
:100330006F915F914F913F912F910F900FBE0F9052
:100340001F9018951F920F920FB60F9211248F9342
:100350009F938091D6009091D7008B3091054CF4FB
:100360008091D6009091D70001969093D70080930A
:10037000D60082990CC08091D2009091D300009752
:1003800031F097981092D3001092D2000FC0829B48
:100390001CC08091D2009091D3000097B1F4979A3D
:1003A00081E090E09093D3008093D2001092CD0032
:1003B0001092CC008091D0009091D10081309105B5
:1003C00021F41092D1001092D0009F918F910F9044
:1003D0000FBE0F901F9018951F920F920FB60F929D
:1003E00011248F939F9383990CC08091D800909192
:1003F000D900009731F0959A1092D9001092D80048
:100400000FC0839B1CC08091D8009091D9000097A9
:10041000B1F4959881E090E09093D9008093D80052
:100420001092CF001092CE008091CA009091CB0024
:100430008130910521F41092CB001092CA009F9157
:100440008F910F900FBE0F901F90189585B3807FEE
:1004500085BB84B38F6084BB0895E0E6F0E0E80FCD
:10046000F11D808125B3982F9F70922B95BB95B37A
:10047000806F892385BB08951F932091BF00309121
:10048000C0009091C100882341F421503040309346
:10049000C0002093BF00915007C02F5F3F4F3093A3
:1004A000C0002093BF009F5F9093C1001091C100D6
:1004B00017701093C100812FD0DF812F1F910895F5
:1004C0008091DC00887F8093DC001092E80010921D
:1004D000E7008091DC0088608093DC008091DC0084
:1004E00080618093DC001092E6001092E50088E0C5
:1004F0008EBD89B7806189BF08951F920F920FB694
:100500000F921124AF92BF92CF92DF92EF92FF929F
:100510000F931F932F933F934F935F936F937F930B
:100520008F939F93AF93BF93EF93FF93DF93CF93FB
:10053000CDB7DEB76497DEBFCDBF8091DD0090916F
:10054000DE009BBD8ABD0CED10E08091DC00877061
:1005500090E081309105E1F1823091051CF4009723
:1005600051F0D9C18230910509F446C1833091051B
:1005700009F0D1C1E0C01092C3001092C2008EB544
:100580008C7F8EBD8091E7009091E80000D000D074
:1005900000D0EDB7FEB731969E012F5F3F4FADB74C
:1005A000BEB712963C932E93119728E630E0338322
:1005B000228395838483EED5F801128611868DB748
:1005C0009EB706960FB6F8949EBF0FBE8DBFA3C10F
:1005D0008091DC0086958695869581704DDF8091AF
:1005E000E5009091E60001969093E6008093E50087
:1005F0008091DC0083FD12C08091E7009091E800BB
:1006000018161906DCF48091E7009091E800019734
:10061000D8011C969C938E931B9710C08091E70085
:100620009091E800BEE480329B0744F48091E7009B
:100630009091E8000196F801948783870091DD008E
:100640001091DE006091DD007091DE00A090C2008C
:10065000B090C300CC24DD24E090E500F090E600EB
:1006600080E090E02EEF3FEF4FEF5FEF10D56A197B
:100670007B098C099D09EE0CFF1CEE0CFF1C0894F5
:10068000E11CF11C9701442737FD4095542F67D595
:10069000020F131F6091DD007091DE002091E500D4
:1006A0003091E60080E090E0660F771F881F991F69
:1006B0006A0D7B1D8C1D9D1D220F331F220F331FC2
:1006C0002F5F3F4F442737FD4095542F48D57093F7
:1006D000C3006093C2002091E7003091E800809150
:1006E000DF009091E0002817390761F48091E50060
:1006F0009091E600909581959F4F9093E6008093AE
:10070000E50075C08091E3009091E40080179107A7
:1007100008F403C11093C5000093C4000091E300E6
:100720001091E4001092C3001092C2008091DC008E
:10073000887F8360EDC08091DC00869586958695E4
:1007400081709ADE8091DC0083FD12C08091E70009
:100750009091E80018161906DCF48091E70090915A
:10076000E8000197D8011C969C938E931B9710C0AC
:100770008091E7009091E800BEE480329B0744F44A
:100780008091E7009091E8000196F80194878387B3
:100790000091E3001091E4008091DC0083FF0BC026
:1007A0002091E7003091E8008091DF009091E00017
:1007B0002817390780F48091DC0083FDAEC02091BA
:1007C000E7003091E8008091DF009091E00082170F
:1007D000930708F4A2C08091E1009091E200909309
:1007E000E6008093E5000091C4001091C50080915F
:1007F000DC00887F82608CC08091DC0086958695C5
:100800008695817039DE8091DC0083FD12C0809175
:10081000E7009091E80018161906DCF48091E700D3
:100820009091E8000197D8011C969C938E931B979A
:1008300010C08091E7009091E800BEE480329B07F1
:1008400044F48091E7009091E8000196F8019487C4
:1008500083878091E5009091E60001969093E600F1
:100860008093E5000091DD001091DE006091DD00D5
:100870007091DE00A090C200B090C300CC24DD24B3
:10088000E090E500F090E60080E090E02EEF3FEF92
:100890004FEF5FEFFCD36A197B098C099D09EE0CC1
:1008A000FF1CEE0CFF1C0894E11CF11C970144276F
:1008B00037FD4095542F53D4020F131F6091DD0074
:1008C0007091DE002091E5003091E60080E090E03C
:1008D000660F771F881F991F6A0D7B1D8C1D9D1D3C
:1008E000220F331F220F331F2F5F3F4F442737FD47
:1008F0004095542F34D47093C3006093C20080910C
:10090000E5009091E60097FD08C08091DC00887FAB
:100910008093DC0002C000E010E01093DE00009342
:10092000DD006496DEBFCDBFCF91DF91FF91EF91E7
:10093000BF91AF919F918F917F916F915F914F91F7
:100940003F912F911F910F91FF90EF90DF90CF90EB
:10095000BF90AF900F900FBE0F901F901895AF9261
:10096000BF92CF92DF92EF92FF920F931F93E0E13D
:10097000F0E0A12CB12CC12C20E4D22E20E030E0FC
:10098000A90186017501E20EF31E041F151F6E15E5
:100990007F058007910730F06E197F09800B910B5E
:1009A000A1E001C0A0E05695479537952795AA2369
:1009B00021F02A0D3B1D4C1D5D1D12E0D694C794FD
:1009C000B794A7941A95D1F73197D9F62617370718
:1009D0004807590720F42F5F3F4F4F4F5F4FB90132
:1009E000CA011F910F91FF90EF90DF90CF90BF90C1
:1009F000AF9008958F929F92AF92BF92CF92DF9265
:100A0000EF92FF920F931F93DF93CF93CDB7DEB793
:100A1000C255D0400FB6F894DEBF0FBECDBF8C01DB
:100A20002EE48132920724F41816190624F405C026
:100A300000E21EE402C000E010E08091E700909127
:100A4000E8000817190794F48091DC008F7E8093EA
:100A5000DC00E090E700F090E800E01AF10A209155
:100A6000E7003091E800201B310B13C08091DC00BF
:100A700080618093DC008091E7009091E80078012C
:100A8000E81AF90A8091E7009091E8009801281B84
:100A9000390B220F331F43E0213234077CF454E634
:100AA000E516F10470F061E02C3236070CF43CC21C
:100AB00071E0243F37070CF43AC221C020E233E052
:100AC00002C02BE430E081E0E816F10499F48FEFE6
:100AD0009FEF9093E6008093E5008091DC00887F93
:100AE00082608093DC0088EE93E0ECEDF0E092838E
:100AF0008183FFC092E0E916F10408F4CAC1809135
:100B0000DC00877009F0FDC09091DC00969598702C
:100B10008091DC00877F892B8093DC008091E70047
:100B20009091E800ADB7BEB718970FB6F894BEBF66
:100B30000FBEADBFEDB7FEB731964E010894811CD4
:100B4000911C12969C928E92119742E750E053832B
:100B50004283158304839783868362962FAF6297BF
:100B600063963FAF639716D362962FAD62976396F5
:100B70003FAD63975901CC24B7FCC094DC2C61E3F2
:100B80007DE888E190E0A6019501E9D23093E40088
:100B90002093E3002DB73EB7285F3F4F0FB6F89480
:100BA0003EBF0FBE2DBF6AE67DE185E090E0D7DE57
:100BB00020EA39E640E050E06AD224E630E040E046
:100BC00050E0ABD23093DE002093DD00C601B501CA
:100BD000A60195015CD220EC30E040E050E0BFD2AD
:100BE00059016DB77EB7685070400FB6F8947EBF5C
:100BF0000FBE6DBFEDB7FEB73196ADB7BEB712965B
:100C00009C928E9211978BE790E093838283358339
:100C10002483F782E682BED2C501880F991F2DB7C3
:100C20003EB7285F3F4F0FB6F8943EBF0FBE2DBFB3
:100C30008E159F0558F0C7019695879590958195DB
:100C40009F4F9093E2008093E10008C0B094A1947C
:100C5000B108B394B092E200A092E1008091DC0070
:100C600083FF0DC02091E7003091E8008091E10002
:100C70009091E200820F931F8E0D9F1D0CC08091FA
:100C8000E7009091E8002091E1003091E2008E1998
:100C90009F09821B930B9093E0008093DF0080916B
:100CA000E1009091E200009731F48FEF9FEF909375
:100CB000E2008093E1002091DD003091DE00809120
:100CC000E3009091E4008217930768F08091E300BD
:100CD0009091E4009093DE008093DD008091DC0031
:100CE000887F836004C08091DC00887F816080936E
:100CF000DC008AE090E09BBD8ABD8EB581608EBD30
:100D0000C8C08091DC008770833009F0C2C04427DE
:100D100037FD4095542F61E37DE888E190E01FD2D4
:100D20008091E3009091E400A901481B590BCA018E
:100D300057FF03C0909581959F4F853691054CF0E4
:100D40003093E4002093E3008091DC00887F80935F
:100D5000DC008091DC0083FF42C08091E70090912D
:100D6000E8002091E1003091E200821B930B801794
:100D7000910774F18091DC00887F82608093DC00B1
:100D80008091E1009091E2009093E6008093E5006D
:100D90002091E5003091E6008091E7009091E80015
:100DA0006DB77EB76A5070400FB6F8947EBF0FBE25
:100DB0006DBFEDB7FEB73196AE014F5F5F4FADB778
:100DC000BEB712965C934E93119748E850E042C02C
:100DD0008091E1009091E200800F911F56C0209118
:100DE000E7003091E8008091E1009091E200820FED
:100DF000931F081719070CF440C08091DC00887F0E
:100E000082608093DC008091E1009091E2009093F9
:100E1000E6008093E5002091E5003091E6008091A6
:100E2000E7009091E8004DB75EB74A5050400FB6CA
:100E3000F8945EBF0FBE4DBFEDB7FEB73196AE0161
:100E40004F5F5F4FADB7BEB712965C934E9311974D
:100E500045E950E053834283358324839783868317
:100E60001187008797D12DB73EB7265F3F4F0FB64A
:100E7000F8943EBF0FBE2DBF0CC08091E100909151
:100E8000E200A801481B590BCA019093E00080932F
:100E9000DF004091DF005091E0002091E1003091AF
:100EA000E2008091E7009091E8006DB77EB76C504A
:100EB00070400FB6F8947EBF0FBE6DBFEDB7FEB7A2
:100EC0003196BE01615E7F4FADB7BEB712967C937F
:100ED0006E93119762EA70E07383628315830483D3
:100EE00057834683318720879387828753D12DB7D5
:100EF0003EB7245F3F4F0FB6F8943EBF0FBE2DBFE5
:100F0000CE5ADF4F0FB6F894DEBF0FBECDBFCF91E4
:100F1000DF911F910F91FF90EF90DF90CF90BF90E6
:100F2000AF909F908F90089524E630E0E8CD26E9B9
:100F300030E0E5CD10BC8CE089B98AB188698AB906
:100F40001092EA001092C6001092C7001092E900B9
:100F500008955D9BFECF8CB908951F93CF93DF93C7
:100F6000EC0110E002C01F5FF4DFFE01E10FF11D94
:100F700080818823C1F7DF91CF911F910895AF92AF
:100F8000BF92DF92EF92FF920F931F93DF93CF9365
:100F90000F92CDB7DEB78C0197FF05C01095019574
:100FA0001F4F8DE2D6DF24E030E090E1A92E97E2DA
:100FB000B92EEAE0F0E007C0C501BF0187D05B01B0
:100FC0002150304019F00A151B05B0F38AE0E82ED5
:100FD000F12CC801B5017AD0D82E6E547F4FFB0199
:100FE00080819983B6DF0D2D9981192FC501B70135
:100FF0006DD05B016115710561F70F90CF91DF91A5
:101000001F910F91FF90EF90DF90BF90AF900895E8
:101010001F920F920FB60F9211242F935F936F932D
:101020007F938F939F93AF93BF93EF93FF932CB1D5
:101030008091BE00243219F41092EA0019C02A32BD
:1010400031F48091BE0082608093BE0011C0809117
:10105000EA0090E0FC01E551FF4F20830196FC017E
:10106000E551FF4F10826FE170E044D08093EA00B9
:10107000FF91EF91BF91AF919F918F917F916F9170
:101080005F912F910F900FBE0F901F901895629F48
:10109000D001739FF001829FE00DF11D649FE00D70
:1010A000F11D929FF00D839FF00D749FF00D659FD1
:1010B000F00D9927729FB00DE11DF91F639FB00DD0
:1010C000E11DF91FBD01CF0111240895AA1BBB1B0F
:1010D00051E107C0AA1FBB1FA617B70710F0A61B38
:1010E000B70B881F991F5A95A9F780959095BC0159
:1010F000CD01089597FB092E07260AD077FD04D06D
:10110000E5DF06D000201AF4709561957F4F0895B1
:10111000F6F7909581959F4F0895A1E21A2EAA1B8C
:10112000BB1BFD010DC0AA1FBB1FEE1FFF1FA21797
:10113000B307E407F50720F0A21BB30BE40BF50B94
:10114000661F771F881F991F1A9469F7609570951D
:10115000809590959B01AC01BD01CF01089597FB4F
:10116000092E05260ED057FD04D0D7DF0AD0001C6B
:1011700038F450954095309521953F4F4F4F5F4F34
:101180000895F6F790958095709561957F4F8F4FF4
:101190009F4F0895AEE0B0E0EFECF8E0A1C20D89FA
:1011A0001E8986E08C831A8309838FEF9FE79E83D5
:1011B0008D839E01275E3F4FCE0101966F89788D0A
:1011C000A90108D0EF81F885E00FF11F10822E965B
:1011D000E4E0A2C2ACE0B0E0EFEEF8E073C26C0174
:1011E0001B018A01FC0117821682838181FFC4C121
:1011F0002E010894411C511CF6019381F10193FDCD
:10120000859193FF81911F01882309F4B1C1853233
:1012100039F493FD859193FF81911F01853221F46B
:1012200090E0B601C5D1E8CFEE24FF2420E02032C3
:10123000B0F48B3269F08C3228F4803251F0833272
:1012400071F40BC08D3239F0803349F421602CC029
:101250002260246029C0286027C0206125C027FDA6
:101260002CC0382F30533A3098F426FF08C08E2D0A
:10127000880FE82EEE0CEE0CE80EE30E15C08F2D55
:10128000880FF82EFF0CFF0CF80EF30E20620CC036
:101290008E3221F426FD6CC1206406C08C3611F418
:1012A000206802C0883649F4F10193FD859193FFCF
:1012B00081911F01882309F0BACF982F955493305C
:1012C00018F09052933028F40C5F1F4FFFE3F9831E
:1012D0000DC0833631F0833771F0833509F05CC07F
:1012E00021C0F801808189830E5F1F4F420171E0A8
:1012F000A72EB12C15C062E0662E712C600E711EF7
:10130000F8018080918026FF03C06E2D70E002C03E
:101310006FEF7FEFC4012C8740D15C0183012C85E6
:101320002F7716C052E0652E712C600E711EF801E9
:101330008080918026FF03C06E2D70E002C06FEFA9
:101340007FEFC4012C871ED15C012C8520688301AE
:1013500023FD1EC007C080E290E0B6012C8728D193
:10136000FA942C858F2D90E0A816B906A0F310C032
:10137000F40127FD859127FF81914F0190E0B6018F
:101380002C8716D12C85F110FA940894A108B10885
:10139000A114B10469F7E9C0843611F0893641F52A
:1013A00027FF08C0F80160817181828193810C5F01
:1013B0001F4F09C0F80160817181882777FD8095F2
:1013C000982F0E5F1F4F4FE6B42EB22297FF09C031
:1013D00090958095709561957F4F8F4F9F4FF0E866
:1013E000BF2AA2012AE030E00FD1782E741844C041
:1013F000853731F43FEEB32EB2222AE030E025C02B
:1014000099EFB92EB2228F36C1F0803720F488359B
:1014100009F0AEC00DC0803721F0883709F0A8C0B0
:1014200002C020E1B22AB4FE0BC084E0B82A08C092
:10143000B4FE09C0E6E0BE2A06C028E030E005C0E0
:1014400020E130E002C020E132E0B7FE08C0F80140
:1014500060817181828193810C5F1F4F07C0F80109
:101460006081718180E090E00E5F1F4FA201CCD0BF
:10147000782E7418FFE7BF22B6FE0BC02EEFB22203
:101480007E1438F4B4FE07C0B2FC05C08FEEB8225B
:1014900002C0A72C01C0AE2C8B2D90E0B4FE0DC075
:1014A000FE01E70DF11D2081203319F4E9EEBE2283
:1014B00009C0A394B2FE06C004C08678907000975D
:1014C00009F0A3948B2C9924B3FC13C0B0FE0EC07A
:1014D000AF1428F4E72CEF0CEA18AF2C07C0E72C68
:1014E00005C080E290E0B60163D0A394AF14C8F3C6
:1014F00004C0AF1410F4FA1801C0FF2484FE0EC01B
:1015000080E390E0B60154D082FE1DC081FE03C08E
:1015100088E590E010C088E790E00DC0C4018678AF
:101520009070009781F081FC02C080E201C08BE2E4
:10153000B7FC8DE290E0B6013BD005C080E390E0BF
:10154000B60136D0EA947E14C8F37A94F201E70D1E
:10155000F11D808190E0B6012BD07720B1F705C056
:1015600080E290E0B60124D0FA94FF20C9F744CE7F
:10157000F6012681378102C02FEF3FEFC9012C967B
:10158000E2E1BCC0FC010590615070400110D8F749
:10159000809590958E0F9F1F0895FC0161507040BB
:1015A00001900110D8F7809590958E0F9F1F089598
:1015B0000F931F93CF93DF938C01EB018B8181FFFE
:1015C0001BC082FF0DC02E813F818C819D81281719
:1015D000390764F4E881F9810193F983E88306C04F
:1015E000E885F985802F0995009731F48E819F81D8
:1015F00001969F838E8302C00FEF1FEFC801DF911A
:10160000CF911F910F910895FA01AA27283051F127
:10161000203181F1E8946F936E7F6E5F7F4F8F4F23
:101620009F4FAF4FB1E03ED0B4E03CD0670F781F82
:10163000891F9A1FA11D680F791F8A1F911DA11D67
:101640006A0F711D811D911DA11D20D009F46894A0
:101650003F912AE0269F11243019305D3193DEF648
:10166000CF010895462F4770405D4193B3E00FD0FE
:10167000C9F7F6CF462F4F70405D4A3318F0495DE9
:1016800031FD4052419302D0A9F7EACFB4E0A695CC
:101690009795879577956795BA95C9F700976105EE
:1016A000710508959B01AC010A2E06945795479544
:1016B00037952795BA95C9F7620F731F841F951F39
:1016C000A01D08952F923F924F925F926F927F924A
:1016D0008F929F92AF92BF92CF92DF92EF92FF9242
:1016E0000F931F93CF93DF93CDB7DEB7CA1BDB0BEE
:1016F0000FB6F894DEBF0FBECDBF09942A88398893
:1017000048885F846E847D848C849B84AA84B98499
:10171000C884DF80EE80FD800C811B81AA81B981A5
:10172000CE0FD11D0FB6F894DEBF0FBECDBFED01B9
:061730000895F894FFCFBC
:10173600080A02060405010953746F702C25690D09
:101746000A0025693C2D25690D0A006229302920E9
:1017560025692025690D0A00313A25692C25692C51
:1017660025690D0A00323A25692C25692C25690D53
:101776000A00412925692C25692C25692C25690D26
:0E1786000A003031323334353637383900003E
:00000001FF
