:1000000012C00FC258C22AC029C028C0E5C226C0EB
:1000100025C080C123C089C721C020C01FC01EC009
:100020001DC01CC01BC011241FBECFE5D4E0DEBF25
:10003000CDBF10E0A0E6B0E0E0E5F6E102C005903B
:100040000D92A238B107D9F710E0A2E8B0E001C0E4
:100050001D92A23DB107E1F746D0F8CAD1CF109268
:10006000A0001092950017BA14BA11BA5ED2EBD65E
:10007000E1D080E061D293D2789446D108958499FA
:1000800003C080E690E0F6D60895849925C080915B
:1000900083008F5F8093830084E2E8D680918300A1
:1000A0008B3000F185E2E2D68BB78F738BBF89B7B7
:1000B0008E7F89BFD7D617BA18BA11BA12BA81E0A3
:1000C0008093A0008AEF90E09093AF008093AE0001
:1000D00080E090E055D40895109283008091A000B4
:1000E0008111BDDF0895CF93DF93B9DFC1E0D0E088
:1000F000CCDF8091820081FFFBCF8091B2008D36F2
:1001000061F5809182008D7F809382008091B300A1
:1001100090E0C097E4EBF0E00FC09C01220F331F8A
:1001200073E0880F991F7A95E1F7280F391F842F04
:1001300090E0C097820F931F4191442371F727E00D
:10014000813D92071CF497FD04C005C080ED97E047
:1001500002C080E090E014D4CBCF893789F484E2E8
:1001600085D689E783D680918D0090918E00805D41
:100170007DD68AE27BD610928E0010928D001DC033
:10018000803761F484E272D680E770D68091AE0049
:100190009091AF0081D68AE269D60FC0823799F478
:1001A0008091B300803329F410929B0010929A0042
:1001B00004C0D0939B00C0939A00809182008D7FF1
:1001C0008093820095CF8F3609F092CF8091820084
:1001D0008D7F809382008091B30090E0C097E4EB24
:1001E000F0E00FC09C01220F331F53E0880F991FCE
:1001F0005A95E1F7280F391F842F90E0C097820F9E
:10020000931F4191442371F727E0813D92071CF42D
:1002100097FD04C005C080ED97E002C080E090E04B
:100220002091A300277009F063CF9093AF008093D3
:10023000AE005ECF80EE81BB12BA85B7856085BF08
:1002400085B7857F85BF8BB7806C8BBF109292007E
:100250001092910010929400109293001092A200BC
:100260001092A100109297001092960010929000A8
:1002700010928F0010929B0010929A0010929F0093
:1002800010929E00109299001092980010928E0089
:1002900010928D0010929D0010929C000895209164
:1002A0009A0030919B002115310509F1F894A59A27
:1002B000AD988130910511F48B9A9398969A2FEF0F
:1002C00030E742E0215030404040E1F700C00000FC
:1002D000A598AD9A8130910541F48FE097E201979E
:1002E000F1F700C00000939A8B989698789410923A
:1002F000940010929300109292001092910010922C
:10030000900010928F00089583E083BF89B78160C9
:1003100089BF08951F920F920FB60F9211242F9349
:100320003F934F935F936F937F938F939F93AF937D
:10033000BF93CF93DF93EF93FF9380919A009091B7
:100340009B00009709F45AC080919100909192000F
:1003500084359105D4F08091960090919700009794
:10036000A1F480919C0090919D008B3091056CF0E0
:1003700081E090E0909397008093960090DF82E078
:1003800090E090938E0080938D00809193009091E7
:1003900094002EE0863A92079CF080918F00909115
:1003A0009000009769F4C1E0D0E0D0939000C09332
:1003B0008F0081E090E073DFD0938E00C0938D00BA
:1003C00080919600909197000097C1F480918F00E2
:1003D00090919000009791F48091910090919200FB
:1003E0000196909392008093910080919300909158
:1003F000940001969093940080939300FF91EF9165
:10040000DF91CF91BF91AF919F918F917F916F912C
:100410005F914F913F912F910F900FBE0F901F90C2
:1004200018951F920F920FB60F9211248F939F93DE
:1004300080919C0090919D008B3091054CF48091AF
:100440009C0090919D00019690939D0080939C004C
:1004500082990CC08091980090919900009731F09A
:10046000979810929900109298000FC0829B1CC020
:1004700080919800909199000097B1F4979A81E04B
:1004800090E09093990080939800109292001092BF
:10049000910080919600909197008130910521F410
:1004A00010929700109296009F918F910F900FBE1F
:1004B0000F901F9018951F920F920FB60F92112454
:1004C0008F939F9383990CC080919E0090919F0081
:1004D000009731F0959A10929F0010929E000FC0E5
:1004E000839B1CC080919E0090919F000097B1F467
:1004F000959881E090E090939F0080939E001092E9
:1005000094001092930080918F0090919000813020
:10051000910521F41092900010928F009F918F917D
:100520000F900FBE0F901F90189585B3807F85BBED
:1005300084B38F6084BB0895E2E6F0E0E80FF11D1C
:10054000808125B3982F9F70922B95BB95B3806FB8
:10055000892385BB08951F932091860030918700E1
:1005600090918800882341F42150304030938700D7
:1005700020938600915007C02F5F3F4F3093870034
:10058000209386009F5F90938800109188001770D9
:1005900010938800812FD0DF812F1F9108958091C3
:1005A000A300887F8093A3001092AF001092AE004A
:1005B0008091A30088608093A3008091A300806154
:1005C0008093A3001092AD001092AC0088E08EBD25
:1005D00089B7806189BF08951F920F920FB60F925D
:1005E00011240F931F932F933F934F935F936F9318
:1005F0007F938F939F93AF93BF93CF93DF93EF93AB
:10060000FF938091A4009091A5009BBD8ABDC3EA91
:10061000D0E08091A300877090E081309105A9F02F
:10062000823091051CF4009751F044C1823091054D
:1006300009F4E3C08330910509F03CC183C08EB555
:10064000887F8EBD1A86198635C18091A300869554
:100650008695869581707FDF8091AC009091AD008A
:1006600001969093AD008093AC008091A30083FD30
:100670000DC08091AE009091AF0018161906ACF431
:100680008091AE009091AF0001970DC08091AE00B7
:100690009091AF002EE4803292073CF48091AE003E
:1006A0009091AF0001969C878B87C091A400D09158
:1006B000A5006091A4007091A5000091AC0010917C
:1006C000AD0080E090E02EEF3FEF4FEF5FEF6CD496
:1006D000000F111F000F111F0F5F1F4F98014427BC
:1006E00037FD4095542FC8D4C20FD31F2091AE00C0
:1006F0003091AF008091A6009091A700281739078C
:1007000061F48091AC009091AD00909581959F4FE0
:100710009093AD008093AC006BC08091AA00909143
:10072000AB008C179D0708F4C7C0D0938A00C09314
:100730008900C091AA00D091AB008091A300887F6E
:100740008360B5C08091A30086958695869581705B
:1007500002DF8091A30083FD0DC08091AE009091D7
:10076000AF0018161906ACF48091AE009091AF005E
:1007700001970DC08091AE009091AF002EE48032C1
:1007800092073CF48091AE009091AF0001969C8757
:100790008B87C091AA00D091AB008091A30083FF0A
:1007A0000BC02091AE003091AF008091A6009091D7
:1007B000A7002817390780F48091A30083FD7CC02F
:1007C0002091AE003091AF008091A6009091A700DB
:1007D0008217930708F470C08091A8009091A90037
:1007E0009093AD008093AC00C0918900D0918A00B5
:1007F0008091A300887F82605AC08091A300869573
:10080000869586958170A7DE8091A30083FD0DC03B
:100810008091AE009091AF0018161906ACF480914B
:10082000AE009091AF0001970DC08091AE00909105
:10083000AF002EE4803292073CF48091AE0090919C
:10084000AF0001969C878B878091AC009091AD00A2
:1008500001969093AD008093AC00C091A400D0911C
:10086000A5006091A4007091A5000091AC001091CA
:10087000AD0080E090E02EEF3FEF4FEF5FEF94D3BD
:10088000000F111F000F111F0F5F1F4F980144270A
:1008900037FD4095542FF0D3C20FD31F8091AC0089
:1008A0009091AD0097FD08C08091A300887F809350
:1008B000A30002C0C0E0D0E0D093A500C093A40084
:1008C000FF91EF91DF91CF91BF91AF919F918F9168
:1008D0007F916F915F914F913F912F911F910F9158
:1008E0000F900FBE0F901F901895AF92BF92CF92AE
:1008F000DF92EF92FF920F931F93E0E1F0E0A12CC3
:10090000B12CC12C10E4D12E20E030E0A9018601E9
:100910007501E20EF31E041F151F6E157F0580077B
:10092000910730F06E197F09800B910BA1E001C097
:10093000A0E05695479537952795AA2321F02A0DD3
:100940003B1D4C1D5D1DA2E0D694C794B794A7949F
:10095000AA95D1F73197D9F62617370748075907CF
:1009600020F42F5F3F4F4F4F5F4FB901CA011F91D6
:100970000F91FF90EF90DF90CF90BF90AF900895D0
:10098000CF92DF92EF92FF920F931F93DF93CF935B
:10099000CDB7DEB7AB970FB6F894DEBF0FBECDBFB5
:1009A0007C01DE011196E3EAF0E08DE001900D920A
:1009B0008150E1F741E2E4164EE4F40624F41E14FB
:1009C0001F0434F407C020E2E22E2EE4F22E02C00F
:1009D000EE24FF248C859D85E816F90664F4898150
:1009E0008F7E89830C851D850E191F09CC84DD84BB
:1009F000CE18DF080DC08981806189838C859D8533
:100A00008701081B190B8C859D856701C81AD90AB7
:100A1000CC0CDD1C56E0C516D10454F081E2C8169A
:100A200083E0D80644F080E2C82E83E0D82E03C0CD
:100A3000B6E0CB2ED12C0130110569F48FEF9FEF7A
:100A40009B878A878981887F8260898388EE93E08B
:100A50009B838A8381C00230110508F4DAC1898141
:100A6000877009F081C09981969598708981877FF8
:100A7000892B8983EE24D7FCE094FE2C69EF73ED7B
:100A800082E090E0A7019601F7D2398728876DEAC6
:100A900073EA80E090E029DF2AE23CE040E050E0A9
:100AA00083D220EF30E040E050E0C4D23B832A8381
:100AB000C701B601A701960177D220E036E040E0F9
:100AC00050E0DAD22115310511F421E030E0C901FE
:100AD000880F991F8017910748F0C8019695879550
:100AE000909581959F4F9F838E8305C0309521956A
:100AF0003F4F3F832E83898183FF09C02C853D852D
:100B00008E819F81820F931F800F911F08C08C855B
:100B10009D852E813F81801B910B821B930B9D83B2
:100B20008C838E819F81009721F48FEF9FEF9F83AD
:100B30008E832A813B81888599858217930740F0AF
:100B4000888599859B838A838981887F836003C098
:100B50008981887F816089838AE090E09BBD8ABD1E
:100B60008EB582608EBD55C189818770823009F053
:100B700087C08E819F812C813D818E0D9F1D2817FE
:100B8000390718F4898183FD0DC08E819F812C81E6
:100B90003D818E0D9F1D8217930708F03AC1898110
:100BA00083FD37C19601442737FD4095542F69EFE7
:100BB00073ED82E090E060D239872887C60161EE4C
:100BC00070E011D26C9DC0016D9D900D7C9D900DCB
:100BD0001124009711F481E090E04A855B859C0127
:100BE000220F331F240F351F2017310748F08A8545
:100BF0009B85800F911F96958795801B910B03C055
:100C0000909581959F4F9F838E83898184FF09C032
:100C10002C853D858E819F81820F931F800F911FB0
:100C200008C08C859D852E813F81801B910B821B86
:100C3000930B9D838C838A859B85909581959F4F8F
:100C40009B878A871B861A868E819F81009721F455
:100C50008FEF9FEF9F838E832A813B8188859985C3
:100C60008217930740F0888599859B838A838981C1
:100C7000887F836003C08981887F81608983C9C040
:100C800089818770833009F0C4C09601442737FDFD
:100C90004095542F69EF73ED82E090E0EDD18885A7
:100CA0009985D901A81BB90BCD01B7FF03C0909559
:100CB00081959F4F853691050CF44AC03987288766
:100CC000C60161EE70E08FD16C9D90016D9D300D7D
:100CD0007C9D300D11244A855B85C901880F991FC1
:100CE000841B950B8017910760F08A859B85800F88
:100CF000911F96958795909581959F4F9F838E83A1
:100D000005C0309521953F4F3F832E83898184FF15
:100D100009C02C853D858E819F81820F931F800F96
:100D2000911F08C08C859D852E813F81801B910B72
:100D3000821B930B9D838C838E819F81009721F46E
:100D40008FEF9FEF9F838E838981887F8160898366
:100D5000898183FF46C08C859D852E813F81821BC2
:100D6000930B8E159F05B4F18981887F82608983FA
:100D70008E819F819B878A872A853B858C859D856F
:100D80004DB75EB74A5050400FB6F8945EBF0FBEE5
:100D90004DBFEDB7FEB73196AE01425F5F4FADB7C5
:100DA000BEB712965C934E9311974AE650E0538378
:100DB00042833583248397838683F186E08677D1C7
:100DC0004DB75EB7465F5F4F0FB6F8945EBF0FBE7C
:100DD0004DBF1FC08E819F818E0D9F1D9D838C8373
:100DE00018C02C853D858E819F81820F931FE81648
:100DF000F9064CF08981887F826089838E819F818A
:100E00009B878A8706C08E819F81E81AF90AFD8236
:100E1000EC82F894A3EAB0E0FE0131968DE00190F7
:100E20000D928150E1F77894AB960FB6F894DEBF3F
:100E30000FBECDBFCF91DF911F910F91FF90EF902B
:100E4000DF90CF90089510BC8CE089B98AB1886991
:100E50008AB91092B10010928B0010928C001092FF
:100E6000B000089510BC19B81AB808955D9BFECF64
:100E70008CB908951F93CF93DF93EC0110E002C06B
:100E80001F5FF4DFFE01E10FF11D80818823C1F7B0
:100E9000DF91CF911F910895AF92BF92DF92EF92B1
:100EA000FF920F931F93DF93CF930F92CDB7DEB7CF
:100EB0008C0197FF05C0109501951F4F8DE2D6DF7D
:100EC00024E030E090E1A92E97E2B92EEAE0F0E0CC
:100ED00007C0C501BF0187D05B012150304019F028
:100EE0000A151B05B0F38AE0E82EF12CC801B50104
:100EF0007AD0D82E69587F4FFB0180819983B6DF65
:100F00000D2D9981192FC501B7016DD05B016115B8
:100F1000710561F70F90CF91DF911F910F91FF90B5
:100F2000EF90DF90BF90AF9008951F920F920FB691
:100F30000F9211242F935F936F937F938F939F93BF
:100F4000AF93BF93EF93FF932CB180918200243233
:100F500019F41092B10019C02A3231F48091820044
:100F600082608093820011C08091B10090E0FC010A
:100F7000EE54FF4F20830196FC01EE54FF4F108288
:100F80006FE170E044D08093B100FF91EF91BF9189
:100F9000AF919F918F917F916F915F912F910F9062
:100FA0000FBE0F901F901895629FD001739FF001A4
:100FB000829FE00DF11D649FE00DF11D929FF00DE9
:100FC000839FF00D749FF00D659FF00D9927729F20
:100FD000B00DE11DF91F639FB00DE11DF91FBD01AB
:100FE000CF0111240895AA1BBB1B51E107C0AA1F02
:100FF000BB1FA617B70710F0A61BB70B881F991FBA
:101000005A95A9F780959095BC01CD01089597FB5D
:10101000092E07260AD077FD04D0E5DF06D0002090
:101020001AF4709561957F4F0895F6F79095819524
:101030009F4F0895A1E21A2EAA1BBB1BFD010DC0F4
:10104000AA1FBB1FEE1FFF1FA217B307E407F50778
:1010500020F0A21BB30BE40BF50B661F771F881F54
:10106000991F1A9469F760957095809590959B01EA
:10107000AC01BD01CF01089597FB092E05260ED0C6
:1010800057FD04D0D7DF0AD0001C38F450954095A6
:10109000309521953F4F4F4F5F4F0895F6F790954C
:1010A0008095709561957F4F8F4F9F4F0895AEE06B
:1010B000B0E0ECE5F8E0A1C20D891E8986E08C83E2
:1010C0001A8309838FEF9FE79E838D839E01275E9E
:1010D0003F4FCE0101966F89788DA90108D0EF812D
:1010E000F885E00FF11F10822E96E4E0A2C2ACE07A
:1010F000B0E0ECE7F8E073C26C011B018A01FC016F
:1011000017821682838181FFC4C12E010894411C7D
:10111000511CF6019381F10193FD859193FF81911B
:101120001F01882309F4B1C1853239F493FD8591FB
:1011300093FF81911F01853221F490E0B601C5D162
:10114000E8CFEE24FF2420E02032B0F48B3269F0A7
:101150008C3228F4803251F0833271F40BC08D321E
:1011600039F0803349F421602CC02260246029C00A
:10117000286027C0206125C027FD2CC0382F3053A0
:101180003A3098F426FF08C08E2D880FE82EEE0C1A
:10119000EE0CE80EE30E15C08F2D880FF82EFF0C15
:1011A000FF0CF80EF30E20620CC08E3221F426FDE7
:1011B0006CC1206406C08C3611F4206802C08836E9
:1011C00049F4F10193FD859193FF81911F018823DB
:1011D00009F0BACF982F9554933018F0905293306D
:1011E00028F40C5F1F4FFFE3F9830DC0833631F005
:1011F000833771F0833509F05CC021C0F80180812C
:1012000089830E5F1F4F420171E0A72EB12C15C0DC
:1012100062E0662E712C600E711EF8018080918054
:1012200026FF03C06E2D70E002C06FEF7FEFC40198
:101230002C8740D15C0183012C852F7716C052E0AA
:10124000652E712C600E711EF8018080918026FF42
:1012500003C06E2D70E002C06FEF7FEFC4012C87DA
:101260001ED15C012C852068830123FD1EC007C0B0
:1012700080E290E0B6012C8728D1FA942C858F2D3E
:1012800090E0A816B906A0F310C0F40127FD8591DF
:1012900027FF81914F0190E0B6012C8716D12C8554
:1012A000F110FA940894A108B108A114B10469F7E7
:1012B000E9C0843611F0893641F527FF08C0F801EE
:1012C00060817181828193810C5F1F4F09C0F80199
:1012D00060817181882777FD8095982F0E5F1F4F61
:1012E0004FE6B42EB22297FF09C090958095709575
:1012F00061957F4F8F4F9F4FF0E8BF2AA2012AE0F0
:1013000030E00FD1782E741844C0853731F43FEEA9
:10131000B32EB2222AE030E025C099EFB92EB222D6
:101320008F36C1F0803720F4883509F0AEC00DC08B
:10133000803721F0883709F0A8C002C020E1B22A26
:10134000B4FE0BC084E0B82A08C0B4FE09C0E6E0D1
:10135000BE2A06C028E030E005C020E130E002C02F
:1013600020E132E0B7FE08C0F8016081718182811E
:1013700093810C5F1F4F07C0F8016081718180E08D
:1013800090E00E5F1F4FA201CCD0782E7418FFE7BB
:10139000BF22B6FE0BC02EEFB2227E1438F4B4FE8C
:1013A00007C0B2FC05C08FEEB82202C0A72C01C056
:1013B000AE2C8B2D90E0B4FE0DC0FE01E70DF11DAB
:1013C0002081203319F4E9EEBE2209C0A394B2FEB5
:1013D00006C004C086789070009709F0A3948B2C07
:1013E0009924B3FC13C0B0FE0EC0AF1428F4E72C50
:1013F000EF0CEA18AF2C07C0E72C05C080E290E0A4
:10140000B60163D0A394AF14C8F304C0AF1410F4B2
:10141000FA1801C0FF2484FE0EC080E390E0B601FC
:1014200054D082FE1DC081FE03C088E590E010C04C
:1014300088E790E00DC0C40186789070009781F035
:1014400081FC02C080E201C08BE2B7FC8DE290E03B
:10145000B6013BD005C080E390E0B60136D0EA94F7
:101460007E14C8F37A94F201E70DF11D808190E0BB
:10147000B6012BD07720B1F705C080E290E0B6012D
:1014800024D0FA94FF20C9F744CEF6012681378193
:1014900002C02FEF3FEFC9012C96E2E1BCC0FC0176
:1014A0000590615070400110D8F7809590958E0F8F
:1014B0009F1F0895FC016150704001900110D8F702
:1014C000809590958E0F9F1F08950F931F93CF9334
:1014D000DF938C01EB018B8181FF1BC082FF0DC06C
:1014E0002E813F818C819D812817390764F4E88122
:1014F000F9810193F983E88306C0E885F985802F97
:101500000995009731F48E819F8101969F838E8388
:1015100002C00FEF1FEFC801DF91CF911F910F9114
:101520000895FA01AA27283051F1203181F1E89479
:101530006F936E7F6E5F7F4F8F4F9F4FAF4FB1E0C6
:101540003ED0B4E03CD0670F781F891F9A1FA11DC1
:10155000680F791F8A1F911DA11D6A0F711D811DC2
:10156000911DA11D20D009F468943F912AE0269F87
:1015700011243019305D3193DEF6CF010895462FE6
:101580004770405D4193B3E00FD0C9F7F6CF462FC7
:101590004F70405D4A3318F0495D31FD4052419330
:1015A00002D0A9F7EACFB4E0A695979587957795ED
:1015B0006795BA95C9F700976105710508959B0174
:1015C000AC010A2E06945795479537952795BA95FD
:1015D000C9F7620F731F841F951FA01D08952F92D6
:1015E0003F924F925F926F927F928F929F92AF92B3
:1015F000BF92CF92DF92EF92FF920F931F93CF9300
:10160000DF93CDB7DEB7CA1BDB0B0FB6F894DEBF96
:101610000FBECDBF09942A88398848885F846E84BC
:101620007D848C849B84AA84B984C884DF80EE8006
:10163000FD800C811B81AA81B981CE0FD11D0FB60F
:10164000F894DEBF0FBECDBFED010895F894FFCF33
:101650002400080A020604050109313A25692C25EF
:10166000692C25690D0A003031323334353637386C
:0216700039003F
:00000001FF
