:100000000C94EE140D944D160D947E160D94AF16AF
:100010000D94E0160D9411170D9442170D9473175B
:100020000D94A4170C941F150C947EE50C941F15C9
:100030000C941F150C941F150C941F150C941F1570
:100040000C941F150C941F150C941F150C941F1560
:100050000C941F150C941F150C941F150D94D51797
:100060000C941F150D943C1B0C941F150C941F151C
:100070000C941F150C941F150C941F150C941F1530
:100080000C941F150C941F150C941F150C942655D9
:100090000C94AD9C0C941F150C941F150C941F15FB
:1000A0000C941F150C941F150C941F150C941F1500
:1000B0000C941F150C941F150C941F150C941F15F0
:1000C0000C941F150C941F150C941F150D94671B91
:1000D0000C941F150C941F150D94921B0C941F1556
:1000E0000C941F15036EDB363D9A9999993DABAA86
:1000F000AA2A3E000000803F072C7AA5BA6CC59062
:10010000DA3B9365FC8BBC53F810FD3C5692834D53
:10011000BD879D3AB63DCBC9BF5BBE73DA0FC93F01
:1001200005A84CCDB2D44EB93836A9020C50B991BD
:100130008688083CA6AAAA2ABE000000803F076362
:100140004236B79BD8A71A39685618AEBAAB558C49
:100150001D3CB7CC5763BD6DEDFD753EF617723192
:10016000BF000000803F08000000BE922449123EFC
:10017000ABAAAA2ABECDCCCC4C3E00000080BEABC0
:10018000AAAAAA3E00000000BF000000803F0000B5
:10019000000000084178D3BB4387D1133D190E3CC2
:1001A000C3BD4282AD2B3E68EC8276BED98FE1A9F9
:1001B0003E4C80EFFFBE01C4FF7F3F000000000007
:1001C0004E6F206572726F7220666F756E642E00BE
:1001D00043616E2774206F70656E20726F6F74209C
:1001E0006469726563746F72792E00496E76616C12
:1001F000696420666F726D61742C207265666F721F
:100200006D61742053442E004E6F20636172642C24
:100210002077726F6E6720636869702073656C6504
:1002200063742070696E2C206F72205350492070C7
:10023000726F626C656D3F0043616E27742061636D
:100240006365737320534420636172642E20446F8E
:10025000206E6F74207265666F726D61742E00651A
:1002600072726F723A20006572726F723A20005398
:1002700044206572726F72436F64653A2030580093
:100280000D0A007C3C3E5E2B3D3F2F5B5D3B2C2AE4
:10029000225C0066616C736500747275650042498A
:1002A0004720464C540066616C7365007472756536
:1002B0000000002100240027002A002D0030003318
:1002C0000001010000040107010A010000220025CD
:1002D0000028002B002E0031003400020100000530
:1002E0000108010B01000020002300260029002C3A
:1002F000002F003200000100000301060109010582
:10030000050505070508080808020202020A0A088E
:1003100008040404040101010101010101030303B4
:100320000303030303040707070C0C0C0C0C0C0C51
:100330000C0202020206060606060606060B0B0B58
:100340000B0B0B0B0B010210202008081020401093
:100350002040800201020108040201010204081089
:1003600020408080402010080402018004020180A7
:1003700040201008040201080402010102040810D0
:1003800020408001020408102040800000090A0279
:10039000080B0C0D0706030401000000000000001C
:1003A000000000000000000000000000000000004D
:1003B00000000000000000100F0E00000000000010
:1003C000000000000000000000000000000000002D
:1003D00000000000000000000010101010100010BD
:1003E0000050500000000000000050F850F850008D
:1003F000002078A07028F8200000C8D0202058984D
:10040000006090A0789098E8002020000000000094
:10041000001020202020201000201010101010208C
:100420000020A87070A8200000002020F8202000E4
:10043000000000000000202000000000F800000084
:100440000000000000000020000000081020408094
:100450000070D8888888D87000E02020202020F8FC
:1004600000708808102040F80070880870088870B4
:10047000001030505090F81000F08080F00808F024
:1004800000384080F088887000F808101020202084
:10049000007088887088887000708888780810E0FC
:1004A00000000020000020000000002000002020AC
:1004B00000001860C0601800000000F800F800009C
:1004C0000000C0301830C0000070880810200020E4
:1004D000007088B8A8B88060002070D888F8888834
:1004E00000F08888F88888F00070888080808870A4
:1004F00000E09088888890E000F88080F88080F89C
:1005000000F88080F88080800070888098888870EB
:1005100000888888F8888888007020202020207033
:100520000038080808088870008890A0C0A090884B
:1005300000808080808080F80088D8F8A88888882B
:100540000088C8C8A89898880070D8888888D8700B
:1005500000F08888F08080800070D88888D8701873
:1005600000F08888F0A090880070888070088870FB
:1005700000F8202020202020008888888888887023
:1005800000888888505020200088A8A8A8A8D850A3
:10059000008850202050888800885050202020203B
:1005A00000F80810204080F8006040404040406063
:1005B00000000080402010080060202020202060E3
:1005C000003048000000000000000000000000F8BB
:1005D00000202000000000000000007008F898E8EB
:1005E000008080B0C888C8B0000000708880887023
:1005F00000080868988898680000007088F880787B
:1006000000182020F82020200000788888780870C2
:10061000008080B0C888888800200060202020707A
:10062000001000301010507000808090A0C0A0908A
:1006300000C0404040404030000000F8A8A8A8A8F2
:10064000000000B0C8888888000000708888887022
:10065000000000F088F080800000007888780808AA
:10066000000000B0C880808000000078807008F032
:10067000004040F040404030000000888888986882
:10068000000000888850502000000088A8A8F8507A
:100690000000008850205088000000885020204032
:1006A000000000F8102040F8003828380000000052
:1006B0000020202020202020002070F82020202052
:1006C000002060F868280808002030F8B0A080807A
:1006D00000000000000000000010101010100010BA
:1006E0000050500000000000000050F850F850008A
:1006F0000020F880F808F8200000C8D02020589882
:10070000006090A0789098E8002020000000000091
:100710000010202020202010002010101010102089
:10072000000020F82050000000002020F8202000C9
:10073000000000000000202000000000F800000081
:100740000000000000000020000000081020408091
:100750000000F888888888F8000030101010101009
:100760000000F808F88080F80000F808380808F859
:1007700000008888F80808080000F880F80808F8E1
:100780000000F880F88888F80000F80808080808D1
:100790000000F888F88888F80000F888F808080849
:1007A00000000020000020000000002000002020A9
:1007B0000000102040201000000000F800F80000A9
:1007C00000004020102040000000F80808380020F9
:1007D0000000F888B8A8B8000000F888F888888871
:1007E0000000F088F88888F00000F880808080F8A9
:1007F0000000F088888888F00000F880E08080F8A9
:100800000000F880E08080800000F880B88888F8D8
:1008100000008888F88888880000F820202020F8C8
:1008200000000808080888F800008890E090888890
:1008300000008080808080F8000088D8A8888888A0
:10084000000088C8A89888880000F888888888F8F8
:100850000000F088F88080800000F88888A8F820E0
:100860000000F088F89088880000F880F80808F800
:100870000000F8202020202000008888888888F840
:1008800000008888888850200000888888A8D88838
:10089000000088502020508800008888F820202000
:1008A0000000F810204080F80000604040404060A8
:1008B0000000008040201008000060202020206000
:1008C000002050000000000000000000000000F8C0
:1008D0000020200000000000000000F888F8888850
:1008E000000000F888F088F8000000F8808080F8A8
:1008F000000000F0888888F0000000F880E080F8B0
:10090000000000F880E08080000000F880B888F8DF
:100910000000008888F8888800000020202020201F
:1009200000000008080888F80000008890E090881F
:1009300000000080808080F8000000F8A8A8A8A827
:10094000000000F888888888000000F8888888F807
:10095000000000F888F88080000000F888A8F820DF
:10096000000000F888F89088000000F880F808F887
:10097000000000F82020202000000088888888F8E7
:100980000000008888885020000000A8A8A8A8F8C7
:10099000000000885020508800000088502020204F
:1009A000000000F8102040F800382838000000004F
:1009B0000020202020202020002070F8202020204F
:1009C000002060F868280808002030F8B0A0808077
:1009D00000007E0003FFC007FFE00FC3F00F00F030
:1009E0001E00781E00783C003C3C003C3C003C78FB
:1009F000001E78001E78001E78001E78001E780009
:100A00001E78001E78001E78001E78001E78001EDA
:100A100078001E3C003C3C003C3C003C1E00781E24
:100A200000780F00F00FC3F007FFE003FFC0007E67
:100A30000000000000FC000FFC003FFC003F3C00F9
:100A4000303C00003C00003C00003C00003C00004A
:100A50003C00003C00003C00003C00003C00003C2E
:100A600000003C00003C00003C00003C00003C005A
:100A7000003C00003C00003C00003C00003C00004A
:100A80003C00003C00003C001FFFF81FFFF81FFF68
:100A9000F803FC003FFF807FFFC07E07E07001F09D
:100AA0004000F00000780000780000780000780036
:100AB00000780000F80000F80001F00001F00003E9
:100AC000E00007C0000FC0001F80003F00007E0054
:100AD00000FC0001F80003F00007E0000FC0001F59
:100AE00080003F00007E00007FFFF87FFFF87FFF5F
:100AF000F807FE003FFF803FFFE03C03F02001F0DD
:100B00000000F8000078000078000078000078000D
:100B100000F00000F00003E003FFC003FF0003FF4C
:100B2000C00003F00000F800007800007C00003CEA
:100B300000003C00003C00003C00003C00007C4009
:100B400000786000F87C07F07FFFE03FFF8007FC43
:100B500000000000000FC0000FC0001FC0003FC019
:100B6000003BC0007BC000F3C000E3C001E3C00352
:100B7000C3C00383C00783C00F03C00E03C01E039E
:100B8000C03C03C03803C07803C0F003C0F003C00A
:100B9000FFFFFCFFFFFCFFFFFC0003C00003C000E1
:100BA00003C00003C00003C00003C00003C0000373
:100BB000C00000003FFFE03FFFE03FFFE03C0000DF
:100BC0003C00003C00003C00003C00003C00003CBD
:100BD00000003FFC003FFF003FFFC0380FE0200354
:100BE000E00001F00000F0000078000078000078DC
:100BF0000000780000780000780000780000F00025
:100C000001F04003E0780FE07FFFC07FFF001FF896
:100C100000003FE000FFF803FFF807E0380F80080E
:100C20000F00001E00001E00003C00003C00003CC5
:100C30000000787F0079FFC07BFFF07FC1F87F0064
:100C40007C7E003C7E003C7C001E7C001E7C001EE6
:100C50007C001E3C001E3C001E3C001E1E003C1E74
:100C6000003C0F00780FC1F807FFF001FFC0007FC4
:100C7000000000007FFFF87FFFF87FFFF80000F022
:100C80000000F00001F00001E00003E00003C000FC
:100C900003C00007C0000780000F80000F00000F96
:100CA00000001E00001E00003E00003C00003C0052
:100CB00000780000780000F80000F00000F000016B
:100CC000E00001E00003E00003C00003C000078073
:100CD0000000FF0003FFE00FFFF01F81F81E007807
:100CE0003E007C3C003C3C003C3C003C3C003C1E4C
:100CF00000781E00780F81F007FFE001FF8007FFFA
:100D0000E01F81F81E00783C003C7C003E78001E0D
:100D100078001E78001E78001E78001E7C003E3C85
:100D2000003C3E007C1F81F80FFFF007FFE000FF52
:100D30000000FE0003FF800FFFE01F83F01E00F0A5
:100D40003C00783C007878003C78003C78003C78A7
:100D5000003E78003E78003E78003E3C007E3C003D
:100D60007E3E00FE1F83FE0FFFDE03FF9E00FE1E81
:100D700000003C00003C00003C00007800007800CF
:100D800000F01001F01C07E01FFFC01FFF0007FC70
:100D900000000000000000000010101010100010F3
:100DA0000050500000000000005050F850F8505023
:100DB000002078A07028F02000C0C81020409818AB
:100DC000006090A040A890680060204000000000F3
:100DD0000010204040402010004020101010204003
:100DE000000020A870A8200000002020F82020008B
:100DF000000000000060204000000000F80000003B
:100E0000000000000000606000000008102040802A
:100E100000708898A8C8887000206020202020706A
:100E200000708808102040F800F8102070088870C2
:100E30000010305090F8101000F880F0080888700A
:100E400000304080F088887000F808102040404052
:100E500000708888708888700070888878081060B2
:100E60000000606000606000000060600060204082
:100E70000010204080402010000000F800F8000022
:100E80000080402010204080007088081020002042
:100E9000007088B8A8B880700070888888F8888842
:100EA00000F08888F08888F00070888080808870E2
:100EB00000E09088888890E000F88080F08080F8DA
:100EC00000F88080F080808000708880B888887802
:100ED00000888888F888888800702020202020706A
:100EE0000038101010109060008890A0C0A090886A
:100EF00000808080808080F80088D8A8A8888888B2
:100F0000008888C8A8988888007088888888887031
:100F100000F08888F08080800070888888A89068B9
:100F200000F08888F0A0908800788080700808F031
:100F300000F8202020202020008888888888887059
:100F4000008888888888502000888888A8A8A850A9
:100F50000088885020508888008888885020202069
:100F600000F80810204080F8007040404040407079
:100F70000000008040201008007010101010107049
:100F8000002050880000000000000000000000F871
:100F90000030201000000000000000700878887801
:100FA000008080B0C88888F0000000708080887061
:100FB00000080868988888780000007088F88070B9
:100FC00000304840F04040400000007088F8087051
:100FD000008080B0C88888880020006020202070B1
:100FE000001000301010906000808090A0C0A09091
:100FF0000060202020202070000000D0A8A8888851
:10100000000000B0C8888888000000708888887058
:10101000000000F088F080800000006898780808E0
:10102000000000B0C880808000000070807008F070
:101030000040E040404048300000008888889868C0
:1010400000000088888850200000008888A8A850E8
:1010500000000088502050880000008888780870C0
:10106000000000F8102040F80010281000000000D8
:101070000020202020202020002070F82020202088
:10108000002060F868280808002030F8B0A08080B0
:10109000006661696C65642C20686D6D6D004F4B56
:1010A00000446561637469766174696E6720726576
:1010B00073706F6E7365004F4B0053657474696E87
:1010C000672050494E20436F6465004F4B004163D9
:1010D0007469766174696E6720726573706F6E7380
:1010E0006573004F4B004641494C4544004F4B004F
:1010F000436865636B696E6720636F6E6E656374CA
:10110000696F6E005245545259494E47004F4B008B
:101110004241534943205345545550004F4B0054CE
:101120005259494E472031393230302042415544DE
:10113000004641494C454400436865636B696E67EE
:1011400020636F6E6E656374696F6E0020446F6E0E
:101150006500416B746F72656E20696E6974202E34
:101160002E2E00436865636B696E67205661723A84
:101170002050617373656400566172206368656313
:101180006B206661696C656400426C696E6B6572A8
:10119000206661696C656400426C696E6B657220E3
:1011A000696E697420646F6E6500436C6F636B20B9
:1011B000696E697420646F6E6500446F6E65004CE3
:1011C00061646520454550524F4D2E2E2E20006201
:1011D000745F70696E006C65645F6D6F646500724A
:1011E00067625F6F75745F647A5F656E645F6200EB
:1011F0007267625F6F75745F647A5F656E645F6764
:10120000007267625F6F75745F647A5F656E645FBA
:1012100072007267625F6F75745F647A5F73746186
:1012200072745F62007267625F6F75745F647A5F89
:1012300073746172745F67007267625F6F75745F69
:10124000647A5F73746172745F72007267625F6F59
:1012500075745F6B6D685F656E645F620072676274
:101260005F6F75745F6B6D685F656E645F6700725A
:1012700067625F6F75745F6B6D685F656E645F72E8
:10128000007267625F6F75745F6B6D685F73746126
:1012900072745F62007267625F6F75745F6B6D6816
:1012A0005F73746172745F67007267625F6F7574F9
:1012B0005F6B6D685F73746172745F7200726762F6
:1012C0005F6F75745F77617465725F656E645F628E
:1012D000007267625F6F75745F77617465725F65D6
:1012E0006E645F67007267625F6F75745F776174C9
:1012F00065725F656E645F72007267625F6F7574BE
:101300005F77617465725F73746172745F6200729B
:1013100067625F6F75745F77617465725F73746124
:1013200072745F67007267625F6F75745F77617474
:1013300065725F73746172745F72007267625F6F6F
:1013400075745F6F696C5F656E645F62007267627F
:101350005F6F75745F6F696C5F656E645F67007265
:1013600067625F6F75745F6F696C5F656E645F72F3
:10137000007267625F6F75745F6F696C5F73746131
:1013800072745F62007267625F6F75745F6F696C21
:101390005F73746172745F67007267625F6F757408
:1013A0005F6F696C5F73746172745F720072676201
:1013B0005F6F75745F7374617469635F62007267F5
:1013C000625F6F75745F7374617469635F670072E5
:1013D00067625F6F75745F7374617469635F7200D5
:1013E0007267625F666C6173685F62007267625FFA
:1013F000666C6173685F67007267625F666C6173D9
:10140000685F72006B6D685F6D6178006B6D685F1F
:101410006D696E0077617465725F6D6178007761E8
:101420007465725F6D696E006F696C5F6D617800E5
:101430006F696C5F6D696E00647A5F6D61780064DE
:101440007A5F6D696E006F696C5F7761726E696E4D
:10145000670077617465725F7761726E696E6700AD
:10146000647A5F666C6173685F656E00647A5F665C
:101470006C6173680064656661756C745F666F6E3D
:1014800074006675656C5F7769646765742E666F56
:101490006E74006675656C5F7769646765742E733A
:1014A000796D626F6C006675656C5F7769646765FE
:1014B000742E79006675656C5F7769646765742E54
:1014C0007800676561725F7769646765742E666F1F
:1014D0006E7400676561725F7769646765742E7901
:1014E00000676561725F7769646765742E78006371
:1014F0006C6F636B5F7769646765742E666F6E747B
:1015000000636C6F636B5F7769646765742E7379D2
:101510006D626F6C00636C6F636B5F7769646765A6
:10152000742E7900636C6F636B5F776964676574B1
:101530002E7800616464696E666F325F77696467F4
:1015400065742E666F6E7400616464696E666F32D6
:101550005F7769646765742E7900616464696E669B
:101560006F325F7769646765742E780061646469BF
:101570006E666F5F7769646765742E666F6E740060
:10158000616464696E666F5F7769646765742E79FC
:1015900000616464696E666F5F7769646765742E65
:1015A00078006770735F7769646765742E666F6E25
:1015B00074006770735F7769646765742E7900677C
:1015C00070735F7769646765742E7800647A5F77FB
:1015D00069646765742E666F6E7400647A5F7769FC
:1015E000646765742E7900647A5F776964676574EF
:1015F0002E78006172726F775F7769646765742E09
:1016000079006172726F775F7769646765742E78AD
:10161000006B6D68636861725F7769646765742EDB
:10162000666F6E74006B6D68636861725F77696482
:101630006765742E79006B6D68636861725F7769A6
:10164000646765742E78006B6D685F7769646765A1
:10165000742E666F6E74006B6D685F776964676582
:10166000742E79006B6D685F7769646765742E7896
:10167000006169725F7769646765742E666F6E7466
:10168000006169725F7769646765742E73796D6252
:101690006F6C006169725F7769646765742E7900A9
:1016A0006169725F7769646765742E780077617429
:1016B00065725F7769646765742E666F6E74007714
:1016C000617465725F7769646765742E73796D62A2
:1016D0006F6C0077617465725F7769646765742EFB
:1016E000790077617465725F7769646765742E78D5
:1016F000006F696C5F7769646765742E666F6E74DE
:10170000006F696C5F7769646765742E73796D62C9
:101710006F6C006F696C5F7769646765742E790020
:101720006F696C5F7769646765742E7800726566AF
:10173000726573685F63796C65006770735F74616D
:101740006B656F7665720072656966656E5F756D53
:1017500066616E67006675656C5F626C696E6B5F73
:1017600066726571006675656C5F626C696E6B5F51
:10177000737461727400626C696E6B65725F686924
:10178000676800626C696E6B6572006F696C5F649C
:1017900069737400736B696E5F66696C6500616381
:1017A000746976655F6E6176695F66696C65007302
:1017B000746172747570004D616C6C6F632066614A
:1017C000696C656400446F6E650021212046696C78
:1017D00065206F70656E206661696C6564202121EB
:1017E0000021212046696C65206F70656E2066615E
:1017F000696C6564202121004D616C6C6F6320660B
:1018000061696C6564006F70656E207375626469F0
:1018100072202F636F6E666967206661696C65640C
:1018200000202E2E2E200052656164696E673A20DA
:101830000062745F70696E3D006F696C5F77617202
:101840006E696E673D0077617465725F7761726E75
:10185000696E673D007267625F666C6173685F62A4
:101860003D007267625F666C6173685F673D00721E
:1018700067625F666C6173685F723D006C65645F90
:101880006D6F64653D007267625F6F75745F77614D
:101890007465725F656E645F623D007267625F6F60
:1018A00075745F77617465725F656E645F673D0034
:1018B0007267625F6F75745F77617465725F656E82
:1018C000645F723D007267625F6F75745F77617409
:1018D00065725F73746172745F623D007267625F0C
:1018E0006F75745F77617465725F73746172745F32
:1018F000673D007267625F6F75745F7761746572D0
:101900005F73746172745F723D007267625F6F75BE
:10191000745F6F696C5F656E645F623D00726762E1
:101920005F6F75745F6F696C5F656E645F673D00C4
:101930007267625F6F75745F6F696C5F656E645F1D
:10194000723D007267625F6F75745F6F696C5F7381
:10195000746172745F623D007267625F6F75745F7D
:101960006F696C5F73746172745F673D0072676268
:101970005F6F75745F6F696C5F73746172745F72AF
:101980003D007267625F6F75745F6B6D685F656E57
:10199000645F623D007267625F6F75745F6B6D6854
:1019A0005F656E645F673D007267625F6F75745F4D
:1019B0006B6D685F656E645F723D007267625F6F3A
:1019C00075745F6B6D685F73746172745F623D0004
:1019D0007267625F6F75745F6B6D685F737461725D
:1019E000745F673D007267625F6F75745F6B6D68EF
:1019F0005F73746172745F723D007267625F6F75CE
:101A0000745F647A5F656E645F623D007267625FF7
:101A10006F75745F647A5F656E645F673D007267BF
:101A2000625F6F75745F647A5F656E645F723D00BC
:101A30007267625F6F75745F647A5F7374617274EA
:101A40005F623D007267625F6F75745F647A5F7397
:101A5000746172745F673D007267625F6F75745F77
:101A6000647A5F73746172745F723D007267625F63
:101A70006F75745F7374617469635F623D00726750
:101A8000625F6F75745F7374617469635F673D0053
:101A90007267625F6F75745F7374617469635F729C
:101AA0003D006B6D685F6D61783D006B6D685F6DCB
:101AB000696E3D0077617465725F6D61783D007796
:101AC000617465725F6D696E3D006F696C5F6D6119
:101AD000783D006F696C5F6D696E3D00647A5F6D83
:101AE00061783D00647A5F6D696E3D00647A5F667F
:101AF0006C6173685F656E3D00647A5F666C6173EC
:101B0000683D006F696C5F646973743D00736B6955
:101B10006E5F66696C653D006163746976655F6ED2
:101B20006176695F66696C653D00726566726573B2
:101B3000685F63796C653D006770735F74616B65A6
:101B40006F7665723D0072656966656E5F756D667C
:101B5000616E673D006675656C5F626C696E6B5F98
:101B6000667265713D006675656C5F626C696E6B6F
:101B70005F73746172743D00626C696E6B65725F55
:101B8000686967683D00626C696E6B65723D0073E1
:101B90007461727475703D002354686973206973B1
:101BA00020616E206175746F2D67656E657261745A
:101BB00065642066696C652066726F6D20284D6FC4
:101BC0006E4461792920006F70656E2073756264C0
:101BD0006972202F636F6E666967206661696C6544
:101BE00064006F70656E20737562646972202F6384
:101BF0006F6E666967206661696C6564002354686E
:101C0000697320697320616E206175746F2D67653B
:101C10006E6572617465642066696C652066726FBA
:101C20006D20284D6F6E4461792920006F70656EBC
:101C300020737562646972202F636F6E6669672016
:101C40006661696C65640023546869732069732058
:101C5000616E206175746F2D67656E657261746564
:101C6000642066696C652066726F6D20284D6F6E0A
:101C70004461792920006F70656E20737562646914
:101C800072202F636F6E666967206661696C656498
:101C90000020427974652068656170206672656510
:101CA00000446F6E65002121205741524E494E4736
:101CB00020212100616C6C206D61782076616C754B
:101CC00065733D3D2D39390053442061636365736D
:101CD0007320737472616E67650021212057415231
:101CE0004E494E47202121002121205741524E4983
:101CF0004E4720212100746869732077696C6C203D
:101D000074616B652061206D696E00636F6C642087
:101D1000666978696E67206E6F770047505320427E
:101D2000617420656D707479002121205741524EF5
:101D3000494E4720212100446973706C6179206904
:101D40006E6974202E2E2E20004D616C6C6F632006
:101D50006661696C65640066616C736368652061C7
:101D60006E7A61686C20616E206B6F6D6D6174615D
:101D7000004D616C6C6F63206661696C6564004442
:101D80005A206661696C6564006675656C206661E1
:101D9000696C65640056616C75653A007E2063610C
:101DA0006E63656C202020202020202073617665E2
:101DB0000066617374657220616E6420736C6F7766
:101DC000657200446F6E7420736869667421212007
:101DD0004472697665004F6C642056616C75653A93
:101DE00000476561720067656172206661696C65B4
:101DF00064004D616C6C6F63206661696C656400A2
:101E00006F70656E20737562646972202F636F6EE8
:101E1000666967206661696C6564004D616C6C6F12
:101E200063206661696C65640047505320696E6980
:101E30007420646F6E65003D3D3D20536574757080
:101E40002066696E6973686564203D3D3D002048E9
:101E5000573A0076302E332E362D3132332D6732FD
:101E6000316262313462003D3D3D205370656564EE
:101E70006F696E6F203D3D3D00312E2053706565CA
:101E8000646F696E6F00322E20537072696E742019
:101E9000636C6F636B00332E20546F75722D41732A
:101EA00073697374656E7400342E202D00352E20F6
:101EB000457874656E64656420696E666F00362EC1
:101EC00020437573746F6D697A6500372E20426107
:101ED00073696320536574757000382E20547269DD
:101EE0007020417667204D617800392E205265665A
:101EF00075656C696E6700791E861E961EA81EADFC
:101F00001EBE1ECB1EDA1EEA1E312E2047656172F0
:101F10002063616C69622E00322E20537065656407
:101F20002063616C69622E00332E20446973706CEB
:101F3000617920736574757000342E205265736565
:101F400074206D656D6F727900352E204461796C57
:101F50006967687420736176696E6700362E204267
:101F60005420526573657420737461746500372E54
:101F70002057617465722074656D70207761726E90
:101F80002E00382E204F696C2074656D70207761AB
:101F9000726E2E00392E202D00091F181F281F39A0
:101FA0001F491F5C1F6E1F821F941F312E204C6F14
:101FB000616420536B696E00322E2053686F776E18
:101FC000207472697000332E2053686966742D4C3A
:101FD0006967687400342E202D00352E20537065FB
:101FE00065646F2D436F6C6F7200362E202D0037A5
:101FF0002E205365742042542050494E00382E2024
:102000002D00392E202D00AB1FB81FC61FD51FDA9B
:102010001FEA1FEF1FFD1F0220312E205374617431
:10202000696320636F6C6F7200322E205370656598
:102030006420626173656400332E2052504D20622B
:102040006173656400342E204F696C2074656D7077
:1020500020626173656400352E20576174657220BB
:1020600074656D7020626173656400362E202D00EA
:10207000372E202D00382E202D00392E202D00192E
:102080002029203820452057206B20702075207A89
:1020900020312E2047505320696E666F7320312FF8
:1020A0003200322E2047505320696E666F73203203
:1020B0002F3200332E2053656E736F727300342EEF
:1020C000202D00352E202D00362E205465737420CF
:1020D0005761746368646F6700372E2053686F77A9
:1020E00020416E696D6174696F6E00382E20416207
:1020F0006F757400392E20546574726973009120D5
:10210000A220B320BE20C320C820D920EB20F42079
:10211000312E2053686F7720696E20537065656497
:102120006F00322E2053657420706F696E74657273
:1021300000332E205365742066696C6500342E20B0
:10214000436865636B2077726974657300352E2070
:102150002D00362E202D00372E202D00382E202D3C
:1021600000392E202D001021222131213D214D2129
:10217000522157215C2161213D204D61696E206D06
:10218000656E75203D0000003D204E6176696761F7
:1021900074696F6E203D00003D20496E666F726D60
:1021A0006174696F6E203D003D20437573746F6DDF
:1021B000697A65203D003D205365747570203D00AF
:1021C0003D2053746F72616765203D2000007821C7
:1021D00086218721882197219821A821B621C02115
:1021E000CD21546F74616C004E6F6E5065726D61DD
:1021F0006E656E740044617900546F75720051759C
:1022000069636B004675656C004F696C65720053BD
:102210006169736F6E00426F61726400E221E821B0
:10222000F521F921FE21042209220F2216225265EE
:1022300064202020477265656E202020426C756501
:102240000052656420477265656E20426C756500BA
:1022500052656420477265656E20426C7565004D5D
:102260006178696D616C2076616C756573004D698C
:102270006E696D616C2076616C75657300215344E5
:10228000204552524F5221005361766564004D61E2
:102290006C6C6F63206661696C6564203200582045
:1022A0006E6F2020202020202020202020207965F3
:1022B0007320580073746F7265616765732072656F
:1022C000736574656400416C6C204675656C0041F3
:1022D00064646564206675656C20616D6F756E74ED
:1022E0003A007761726E696E67206C6576656C0086
:1022F00074656D706572617475726500536574758F
:1023000070206F696C005361766564007761726E4E
:10231000696E67206C6576656C0074656D706572BA
:1023200061747572650053657475702077617465AA
:102330007200536176656400706F77657200446F58
:10234000776E203D20696E61637469766500425442
:102350002D5265736574005570203D20616374696A
:10236000766500446F776E203D20696E6163746905
:102370007665004461796C69676874207361766979
:102380006E67005570203D20616374697665006852
:102390006173206265656E207265736574005468B0
:1023A00065206D656D6F72790043686F6F7365208E
:1023B00072656620560043686F6F736520706861B0
:1023C000736500736176656400536176656400200F
:1023D00020636F6E74696E756500214B65657020B2
:1023E00064726976696E6721004368616E67652073
:1023F000476561722075702F646F776E0043616C62
:102400006962726174652047656172006C6561760E
:1024100065206D656E7520746F207361766500436D
:1024200068616E67652042542050494E004F4B0052
:102430005361766520746F20534420636172640099
:10244000544D5000576174657200544D50004F69EF
:102450006C0052504D0052504D2A313030006B6D9F
:10246000680053706565640000537461746963208B
:10247000636F6C6F72000053686966742D4C6967F6
:10248000687400696E61637469766500616374697C
:1024900076650061637469766500746F2061646AB3
:1024A00075737420636F6C6F7200666F722053686F
:1024B0006966746C696768740053656C6563742041
:1024C0007468652052504D00746F2061646A7573A2
:1024D00074206C6576656C00446F776E203D2069D2
:1024E0006E616374697665005570203D2061637488
:1024F00069766500445A20466C61736865720053C2
:102500006176656400507265766965770046696C2E
:1025100065206E6F7420666F756E64004E6F206666
:1025200069727374206C696E6520636F6D6D656E82
:1025300074004D616C6C6F63206661696C6564202A
:1025400031005220676F20666F72206974004C2042
:102550005175697400416C6578656A2050616473D7
:10256000636869746E6F7700696E20747269627552
:102570007420746F00546574726973004B4B6F6FF5
:102580006C6C6A6A616140676D61696C2E636F6D26
:1025900000636F6E74616374206D652061740076F2
:1025A000302E332E362D3132332D67323162623187
:1025B00034620048572076657273696F6E3A00473F
:1025C0004E55202D204C6963656E73656400537011
:1025D0006565646F696E6F00666F72207265736502
:1025E00074005741495420333020736563004164BF
:1025F000646974696F6E616C20696E666F00436F09
:10260000756E746572004750535F73617473004751
:1026100050535F7370656564004750535F616C741D
:1026200069004750535F6C617469004750535F6C99
:102630006F6E67004750535F646174650047505385
:102640005F74696D6500506F696E7473207772698D
:102650007474656E0046696C65206E6F7420666FD9
:10266000756E64004E6F206669727374206C696EBB
:102670006520636F6D6D656E74004E6176692054E0
:102680007261636B20506F696E74657200446F777E
:102690006E203D20696E616374697665004E6176D7
:1026A00069676174696F6E005570203D20616374C5
:1026B000697665004D616C6C6F63206661696C655D
:1026C000642033006F696C6572206661696C6564B3
:1026D000004F696C657220696E697420646F6E6565
:1026E00000526573657420696E697420646F6E654D
:1026F0002E205374617475732000766F6C756D6550
:102700002E696E6974206661696C6564006361722C
:10271000642E696E6974206661696C6564002C00C2
:102720005344206572726F723A20006572726F7244
:102730003A2000566F6C74616765200053656E73B4
:102740006F727320696E697420646F6E6500446FE8
:102750006E650D0A53656E736F722073696E676CD8
:10276000652072656164202E2E2E20446F6E6500F8
:10277000446F6E650D0A52656164696E673A205652
:102780006F6C7461676573202E2E2E2000446F6E6F
:10279000650D0A52656164696E673A204F696C6520
:1027A00072202E2E2E2000446F6E650D0A52656138
:1027B00064696E673A2057617465722074656D7044
:1027C000202E2E2E2000446F6E650D0A5265616426
:1027D000696E673A204F696C2074656D70202E2EEB
:1027E0002E2000446F6E650D0A52656164696E6744
:1027F0003A204169722074656D70202E2E2E2000C3
:10280000446F6E650D0A52656164696E673A2047D0
:102810005053202E2E2E200052656164696E673A57
:1028200020636C6F636B202E2E2E200053656E7319
:102830006F722073696E676C652072656164202E0B
:102840002E2E200021212121205741524E494E4752
:10285000202121212100534420616363657373208B
:10286000737472616E6765002121212120574152E6
:102870004E494E4720212121210053706565642077
:10288000757021004E6F20475053210073706565AD
:10289000646F206661696C65640020202020202020
:1028A0002020202020202020202020202020202028
:1028B00000534420616363657373206661696C65CE
:1028C0006400526565642073656E736F7220657273
:1028D000726F720057617465722072656164206660
:1028E00061696C6564004F696C2072656164206683
:1028F00061696C6564004E6F2047505300426C69FB
:102900006E6B65722076657267657373656E0077AE
:10291000617465722074656D70207761726E696E86
:1029200067006F696C2074656D70207761726E69E5
:102930006E67004D6F746F72206E6F6368206B61FD
:102940006C74006B6D2F68004D616C6C6F6320665A
:1029500061696C6564004D616C6C6F6320666169D0
:102960006C65640074656D70206661696C656400F7
:102970004C696E65733A20004C6576656C3A2000B0
:102980004E6578740054657472697300676F65737F
:10299000200053706565646F696E6F005220526548
:1029A000747279004C205175697400596F75206CF0
:1029B0006F6F736500000D94A11D0D94B41D0D94EF
:1029C000401D0D94951D0D946D1D0D94521E0D947A
:1029D000531D0D946A1E391A94AEDD1411241FBEC6
:1029E000CFEFD1E2DEBFCDBF00E00CBF1CE0A0E026
:1029F000B2E0EEE6F8E602E00BBF02C007900D92EF
:102A0000AC31B107D9F710E1ACE1BCE001C01D92D7
:102A1000AF34B107E1F719E2CCEDD9E200E006C02E
:102A200022970109FE010BBF0F943134C63DD10737
:102A300080E00807A9F70E94EBAC0D94DC2A0C9407
:102A40000000CB010D94EC31CB01642F0D94F431D7
:102A50000895589A599AE9EBF0E080818E7F80833F
:102A600080818D7F808388E48093B80084E48093A4
:102A7000BC0008951092BC0008957093210C6093DF
:102A8000200C0895662311F488E401C08CE0809343
:102A9000B8000895662319F0589A599A08955898DD
:102AA0005998089580911D0C089530911D0C209126
:102AB0001F0C231B20931E0C332321F410921E0C99
:102AC00080E00895315030931D0CFC01E20FF11DA0
:102AD00082810895EF92FF920F931F930F941D1818
:102AE0007B018C0184EA8093BC001AC00097E1F05E
:102AF0000F941D186E197F09800B910B2091200CEB
:102B00003091210C40E050E062177307840795076D
:102B100038F01092BC0084E48093BC0081E021C0B6
:102B20008091200C9091210C2091BC0027FFDECFDA
:102B30008091B900887F883099F08091B900887FB2
:102B40008031A1F40DC08091B900887F1092BC0043
:102B500094E49093BC0005C08091B900887F01C0C7
:102B600080E01F910F91FF90EF9008958091B90040
:102B7000887F883389F7E7CFDF92EF92FF920F9338
:102B80001F93D62E0F941D187B018C01DD2011F0B0
:102B900084EC01C084E88093BC001AC00097E1F087
:102BA0000F941D186E197F09800B910B2091200C3A
:102BB0003091210C40E050E06217730784079507BD
:102BC00038F01092BC0084E48093BC0081E019C00E
:102BD0008091200C9091210C2091BC0027FFDECF2A
:102BE0008091B900887F883349F48091B900887F4B
:102BF0001092BC0094E49093BC0003C08091B90093
:102C0000887F1F910F91FF90EF90DF900895EF92D2
:102C1000FF920F931F930F941D187B018C0184E981
:102C20008093BC001AC00097E1F00F941D186E1934
:102C30007F09800B910B2091200C3091210C40E0FA
:102C400050E0621773078407950738F01092BC00B4
:102C500084E48093BC0081E009C08091200C9091B5
:102C6000210C2091BC0024FDDECF80E01F910F914C
:102C7000FF90EF900895EF92FF920F931F93CF93E1
:102C8000DF93EC016093BB000F941D187B018C0156
:102C900084E88093BC001AC00097E1F00F941D18DF
:102CA0006E197F09800B910B2091200C3091210C23
:102CB00040E050E0621773078407950738F01092E0
:102CC000BC0084E48093BC0011E01FC08091200C04
:102CD0009091210C2091BC0027FFDECF8091B9009C
:102CE000887F883289F01091B900187F8091B900EF
:102CF000887F803319F4CE018ADF07C01092BC00B0
:102D000084E48093BC0001C010E0812FDF91CF915B
:102D10001F910F91FF90EF900895EF92FF920F9304
:102D20001F93CF93DF93EC016093BB000F941D18AA
:102D30007B018C0184E88093BC001AC00097E1F00D
:102D40000F941D186E197F09800B910B2091200C98
:102D50003091210C40E050E062177307840795071B
:102D600038F01092BC0084E48093BC0011E01CC0D9
:102D70008091200C9091210C2091BC0027FFDECF88
:102D80008091B900887F883171F08091B900887F87
:102D9000803491F408C08091B900887F8834A9F408
:102DA000CE0135DF01C010E0812FDF91CF911F915F
:102DB0000F91FF90EF9008951091B900187F8091C6
:102DC000B900887F803239F7EBCF1092BC0084E4E1
:102DD0008093BC00E9CFAF92BF92DF92EF92FF9257
:102DE0000F931F93DF93CF930F92CDB7DEB75C01A4
:102DF000F42EE22E10921D0C10921E0C222311F4C0
:102E0000EE24E3948E2D8150F50181831082C5015B
:102E1000698360DEF50180836981882309F066C0DB
:102E2000D62EDD0CC5016D2D78DFF501808388235A
:102E300021F0813009F05AC04EC0C5016F2D1BDF53
:102E4000F5018083882321F0813009F04FC045C00F
:102E5000C50140DEF5018083882321F0813009F02F
:102E600045C03DC06D2D6F5FC50157DFF501808303
:102E7000882311F4FF2424C08130C1F532C0F5014C
:102E80008181F81651F4C50160E076DEF50180839A
:102E9000813049F1883551F029C0C50161E06CDE0F
:102EA000F50180838130F9F0803501F58091BB0018
:102EB000F80181938F01F394F0921D0CF0921F0C96
:102EC000FE14E8F2C501A3DEF5018083882371F0CA
:102ED000813061F40AC082E009C083E007C084E069
:102EE00005C085E003C086E001C087E00F90CF9168
:102EF000DF911F910F91FF90EF90DF90BF90AF9007
:102F00000895CF92DF92EF92FF920F931F93DF937A
:102F1000CF930F92CDB7DEB76C01F42E022FE32EC4
:102F200010921D0C10921E0C442311F4FF24F394F4
:102F30008F2D8150F60181831082C6016983CADD1D
:102F4000F60180836981882309F03FC0660F6F5FB7
:102F5000C601E3DEF6018083882319F41E2DEE24DA
:102F600024C0813091F52CC0F6018181E81651F41E
:102F7000C60160E001DEF6018083813019F18835F9
:102F800051F023C0C60161E0F7DDF6018083813096
:102F9000C9F08035D1F48091BB00F80181938F0195
:102FA000E394E0921D0CE0921F0CEF14E8F2C601CE
:102FB0002EDEF6018083882341F0813031F404C095
:102FC00085E003C086E001C087E00F90CF91DF91DC
:102FD0001F910F91FF90EF90DF90CF900895CF92C7
:102FE000DF92EF92FF920F931F93DF93CF930F9295
:102FF000CDB7DEB76C01042FE22E10921D0C10929B
:103000001E0C222311F4EE24E3948E2D8150F60140
:1030100081831082C60169835DDDF6018083698149
:10302000882309F069C0F62EFF0CC6016F2D75DEEE
:10303000F6018083882321F0813009F05DC051C002
:10304000C601602F18DEF6018083882321F08130CD
:1030500009F052C048C0C6013DDDF60180838823D7
:1030600021F0813009F048C040C06F2D6F5FC6016C
:1030700054DEF6018083882329F486010E5F1F4FFA
:10308000FF2424C08130C1F532C0F6018181F816D9
:1030900051F4C60160E070DDF6018083813049F1B2
:1030A000883551F029C0C60161E066DDF6018083F4
:1030B0008130F9F0803501F58091BB00F8018193F2
:1030C0008F01F394F0921D0CF0921F0CFE14E8F2A5
:1030D000C6019DDDF6018083882371F0813061F4A3
:1030E0000AC082E009C083E007C084E005C085E033
:1030F00003C086E001C087E00F90CF91DF911F9160
:103100000F91FF90EF90DF90CF90089568CFCF920E
:10311000DF92EF92FF920F931F93DF93CF930F9263
:10312000CDB7DEB76C01E42E10921D0C10921E0C70
:10313000442311F4EE24E3948E2D8150F601818313
:103140001082C6016983C6DCF60180836981882309
:1031500009F041C0660F6F5FC601DFDDF6018083B5
:10316000882329F486010E5F1F4FFF2424C081307D
:1031700091F52CC0F6018181F81651F4C60160E08A
:10318000FBDCF6018083813019F1883551F023C0D2
:10319000C60161E0F1DCF60180838130C9F0803541
:1031A000D1F48091BB00F80181938F01F394F092E8
:1031B0001D0CF0921F0CFE14E8F2C60128DDF6018A
:1031C0008083882341F0813031F404C085E003C05E
:1031D00086E001C087E00F90CF91DF911F910F91A2
:1031E000FF90EF90DF90CF90089591CFCF92DF9234
:1031F000EF92FF920F931F93DF93CF930F92CDB770
:10320000DEB76C01E42E122FF32EFC0110826983CD
:1032100061DCF60180836981882389F5660FC60128
:103220007CDDF6018083882319F0813041F522C0CE
:10323000C6016E2D20DDF6018083882359F4E12E2E
:103240000CC0F70161917F01C60115DDF601808395
:10325000882319F0813099F40FC08E2D811B8017BF
:1032600080F3C601D4DCF6018083882341F08130ED
:1032700031F404C082E003C083E001C087E00F9016
:10328000CF91DF911F910F91FF90EF90DF90CF9042
:1032900008950F93CF93DF93EC01F9010190002083
:1032A000E9F73197E21BF30B18820E2F9FDF88831B
:1032B000DF91CF910F910895FF920F931F93CF93BA
:1032C000DF93EC01062F142FF22E188203DC888383
:1032D000882331F5602F660FCE011FDD8883882398
:1032E00019F08130E9F417C0CE01612FC4DC888366
:1032F000882331F4CE016F2DBEDC8883882319F03A
:10330000813071F40AC0CE0182DC8883882341F0C9
:10331000813031F404C082E003C083E001C087E063
:10332000DF91CF911F910F91FF900895C5CFEF923C
:10333000FF921F93DF93CF930F92CDB7DEB77C013F
:10334000142FFC0110826983C5DBF701808369813A
:10335000882311F5660FC701E0DCF701808388231D
:1033600019F08130C9F413C0C701612F84DCF70163
:103370008083882319F0813079F40BC0C70147DCC2
:10338000F7018083882341F0813031F404C082E06A
:1033900003C083E001C087E00F90CF91DF911F91C0
:1033A000FF90EF900895C3CFEF92FF920F931F937A
:1033B000CF93DF93EC010091200C1091210C80E55C
:1033C00090E09093210C8093200C81E190E160E0EB
:1033D00072E00F94262081E190E10F94D91FFF2421
:1033E000EE241882CE0176DB8883882329F46F2DA2
:1033F000660FCE0192DC88838881882339F0813082
:10340000C9F481E190E163E272E020C081E190E1E2
:103410006CE572E00F94891E81E190E167E772E04C
:103420000F94891E81E190E16F2D40E150E00F94EF
:103430000E20E394CE01EBDBF3948F2D803889F6D8
:10344000EE2031F481E190E16BE772E00F942620E9
:103450001093210C0093200CDF91CF911F910F91BD
:10346000FF90EF900895ECEBF0E0108284E480830D
:1034700008950895282F30E0A90155954795406596
:103480004CBD80FD03C091E0863009F490E09DBD05
:1034900008958FEF8EBD0DB407FEFDCF8EB5089554
:1034A0008EBD0DB407FEFDCF0895FC01808161E063
:1034B0000D94F819CF93DF93EC018A81DBDF8881CB
:1034C00060E00F94F819DF91CF910895CF93DF93C7
:1034D000EC019A012150304041155105C9F08FEFA0
:1034E0008EBDFB0180E090E04FEF07C00DB407FEFA
:1034F000FDCF5EB551934EBD019682179307B0F391
:103500000DB407FEFDCF8EB5620F731FFB018083E4
:10351000C0DFBFDFCE01C9DFDF91CF910895FC018D
:10352000673020F086E1818380E00895628381E046
:1035300008950F931F93CF93DF93EB010F941D1802
:103540008B0107C00F941D18601B710B6C177D0752
:1035500028F49FDF8F3FB1F781E001C080E0DF9169
:10356000CF911F910F910895AF92BF92CF92DF92AA
:10357000EF92FF921F93CF93DF93EC01162F590127
:103580006A0198DFCE016CE271E0D3DF812F8064A5
:1035900087DF28E1E22EF12CD601C5010E2C04C0F4
:1035A000B695A795979587950A94D2F779DF88EF16
:1035B0009FEFE80EF91E98EFE9169FEFF90661F705
:1035C000112321F0183021F08FEF03C085E901C0ED
:1035D00087E866DF10E05DDF8B8387FF02C0115054
:1035E000D1F7DF91CF911F91FF90EF90DF90CF90B7
:1035F000BF90AF900895CF92DF92EF92FF921F930A
:10360000CF93DF93EC01162F69017A0167E320E085
:1036100030E0A901A9DFCE01612FA7019601A4DF47
:10362000DF91CF911F91FF90EF90DF90CF900895A1
:10363000BF92CF92DF92EF92FF920F931F93CF939F
:10364000DF93EC01B62E1C82198248830F941D185B
:103650006B01888161E00F94D219CE0126DF82E3ED
:1036600060E00F94D21983E361E00F94D21984E3F0
:1036700061E00F94D21985E361E00F94D21985E3DC
:1036800061E00F94F81985E08A83F4DE1AE08FEF89
:1036900007DF1150E1F70AC00F941D186C197D095E
:1036A00087E0613D780710F081E04BC0CE0160E01B
:1036B00020E030E0A90158DF182F8B83813061F7BB
:1036C000CE0168E02AEA31E040E050E04DDF82FFC1
:1036D00002C01C830BC014E0DCDE8B831150E1F7C9
:1036E0008A3A11F082E02DC082E08C838C81823096
:1036F00031F4E12CF12C012D30E4132F0EC0EE2417
:10370000FF2487010AC00F941D186C197D0987E0FA
:10371000613D780710F088E014C0CE0169E2A8018D
:10372000970169DF8B83882371F78C818230B1F434
:10373000CE016AE320E030E0A90116DF882329F0FA
:1037400086E08983CE01B1DE14C0A3DE807C803C9C
:1037500011F483E08C839DDE9CDE9BDECE01A5DE32
:103760008B2D873018F086E1898303C0BA8281E00F
:1037700001C080E0DF91CF911F910F91FF90EF90FA
:10378000DF90CF90BF9008950F931F93CF93DF9357
:10379000EC010F941D188B010AC00F941D18601BBB
:1037A000710B81E06D32780710F08FE007C071DE99
:1037B0008B838F3F91F38E3F31F08DE08983CE0173
:1037C00074DE80E001C081E0DF91CF911F910F9105
:1037D00008950F931F93CF93DF93EC018A0120E0AC
:1037E00030E0A901C1DE882319F08EE089830BC087
:1037F000CE01CADF882339F0CE01B80140E150E0A4
:1038000065DE81E003C0CE0150DE80E0DF91CF9124
:103810001F910F910895AB0169E0DBCFDF93CF9348
:10382000CDB7DEB760970FB6F894DEBF0FBECDBF41
:10383000BE016F5F7F4FEFDF882319F09B8581E02A
:1038400096FF80E060960FB6F894DEBF0FBECDBF46
:10385000CF91DF9108956F927F928F929F92AF9256
:10386000BF92CF92DF92EF92FF920F931F93DF935D
:10387000CF93CDB7DEB760970FB6F894DEBF0FBE1B
:10388000CDBF7C015A016B0138014901BE016F5F58
:103890007F4FC1DF882309F452C02B8526FD1DC050
:1038A000D401C3010196A11DB11D8A299B29AC2910
:1038B000BD292F73220F3C85331F3327331F232B42
:1038C00030E040E050E082239323A423B523009707
:1038D000A105B10511F08BE02BC0F7018481833085
:1038E00071F059E0AA0CBB1CCC1CDD1C5A95D1F719
:1038F00049E0660C771C881C991C4A95D1F7C701D2
:1039000060E2A601950130DE882379F4C70161E207
:10391000A401930129DE882341F4C70166E220E077
:1039200030E0A90121DE882311F18AE001C08CE09A
:10393000F701818304C0C701B8DD81E003C0C7017E
:10394000B4DD80E060960FB6F894DEBF0FBECDBF49
:10395000CF91DF911F910F91FF90EF90DF90CF906B
:10396000BF90AF909F908F907F906F900895C70108
:1039700060E177E2DEDD8823D1F2DDCF0F931F9384
:10398000DF93CF93CDB7DEB760970FB6F894DEBF65
:103990000FBECDBF8C01BE016F5F7F4F3CDF882320
:1039A00009F45FC08981807C81F52F812370922F7B
:1039B000990F990F80E0288530E0220F331F220FE6
:1039C000331F282B392B89858295869586958370A0
:1039D00090E0282B392B2F5F3F4F40E050E08E8145
:1039E0008F7090E007976A856370660F7B85771FFD
:1039F0007727771F672B860F911D04C0220F331F77
:103A0000441F551F8A95D2F72FC0803439F5288579
:103A10002695269530E040E050E0A9013327222783
:103A20008A8590E0A0E0B0E0282B392B4A2B5B2B55
:103A3000998580E0AA2797FDA095BA2F282B392BCE
:103A40004A2B5B2B2F5F3F4F4F4F5F4F6AE0220F98
:103A5000331F441F551F6A95D1F706C089E0F8014E
:103A6000818320E030E0A901B901CA0160960FB658
:103A7000F894DEBF0FBECDBFCF91DF911F910F91A4
:103A80000895CF92DF92EF92FF920F931F93CF93FF
:103A9000DF93EC017A018B0169018C81833039F06D
:103AA000F9E0EE0CFF1C001F111FFA95D1F7CE01B3
:103AB00061E1A801970158DD882319F083E089832B
:103AC0000BC0CE0161DE882339F0CE01B60140E0A3
:103AD00052E0FCDC81E003C0CE01E7DC80E0DF9156
:103AE000CF911F910F91FF90EF90DF90CF900895AD
:103AF000CF93DF93EC016EBDE42FF52F80E090E0D3
:103B00000DB407FEFDCF20812EBD0DB407FEFDCF05
:103B100021812EBD0296329622E08030920781F7F5
:103B20000DB407FEFDCF8FEFBBDC8FEFB9DCB1DC4E
:103B30008B838F71853031F081E18983CE01B5DCD3
:103B400080E001C081E0DF91CF9108950F931F9332
:103B5000CF93DF93EC018B01ADDCCE0168E572E021
:103B6000E8DC882351F0CE016CEFA801C1DF882387
:103B700021F0CE019ADC81E005C083E18983CE018A
:103B800094DC80E0DF91CF911F910F910895CF9247
:103B9000DF92EF92FF920F931F93CF93DF93EC018D
:103BA0007A018B0169018C81833039F0A9E0EE0C38
:103BB000FF1C001F111FAA95D1F7CE0168E1A801D3
:103BC0009701D2DC882311F084E01AC0CE016EEF99
:103BD000A6018EDF8823A9F0CE0168E572E0A9DC9A
:103BE000882311F485E10CC0CE016DE020E030E0C7
:103BF000A901BADC882319F44CDC882371F084E134
:103C00008983CE0152DC80E0DF91CF911F910F912B
:103C1000FF90EF90DF90CF900895CE0146DC81E0D9
:103C2000F3CFCF92DF92EF92FF920F931F93CF9338
:103C3000DF93EC016A017B01A901980167E1DBDCFC
:103C4000882311F087E012C08C81833039F0B9E00D
:103C5000CC0CDD1CEE1CFF1CBA95D1F7CE0169E13E
:103C6000A701960181DC882331F085E08983CE01AC
:103C70001CDC80E003C0CE0118DC81E0DF91CF9135
:103C80001F910F91FF90EF90DF90CF900895CF9309
:103C9000DF93EC010FDCCE0168E572E04ADC88239B
:103CA00061F08DEFFDDBCE0168E572E042DC882338
:103CB00021F0CE01FADB81E005C080E18983CE01ED
:103CC000F4DB80E0DF91CF9108950F931F93CF93A2
:103CD000DF93EC018B0141E00E94123A882331F41A
:103CE000CE01B80140E00E94123A01C081E0DF91AC
:103CF000CF911F910F91089520E932E0FC013183AB
:103D000020832581222311F00C94E92808950F9334
:103D10001F93CF93DF938C01EC01A396D093450CB6
:103D2000C093440CCE010E94E928B8016B5F7F4F1D
:103D3000CE015FD4DF91CF911F910F9108950F9322
:103D40001F93DF93CF93CDB7DEB76D970FB6F8947F
:103D5000DEBF0FBECDBF8C0180E992E09A838983DC
:103D60001B821E82FB0180818F3239F4818188237E
:103D700021F4C801CCDF082F43C0CE01019641E0F9
:103D80000E949E2F8823D9F18E818230C0F19B81C1
:103D9000F80195A39C8196A39D8197A380A78F810D
:103DA0009885A985BA8581A792A7A3A7B4A78B8573
:103DB0009C85AD85BE8585A796A7A7A7B0AB8F8547
:103DC0009889A989BA8981AB92ABA3ABB4AB8B8933
:103DD00085AB8C899D89AE89BF8986AB97ABA0AF37
:103DE000B1AF888D998DAA8DBB8D82AF93AFA4AFF3
:103DF000B5AF8C8D9D8D97AF86AF01E001C000E01F
:103E0000CE01019679DF802F6D960FB6F894DEBF54
:103E10000FBECDBFCF91DF911F910F910895CF932A
:103E2000DF93EC018981882371F08FE692E0A1D1C4
:103E300081E190E1698140E150E00F946F1F81E1E1
:103E400090E10F94D91FDF91CF910895E8DFFFCF64
:103E50000F931F93CF93DF93EC018B0187E692E0E2
:103E600088D181E190E1B8010F942620CE01D7DFFF
:103E7000DF91CF911F910F910895EADFFFCF0F934C
:103E80001F93CF93DF93EC018B018FE592E071D10B
:103E9000C80173D1CE01C3DFDF91CF911F910F9184
:103EA0000895EDDFFFCF83960C94AE2FEF92FF9233
:103EB000CF93DF93EC017E019F2DBADB882349F07D
:103EC000CE010596BE0101DF882319F0CE011FDF68
:103ED00001C080E0DF91CF91FF90EF900895CF93E4
:103EE000DF93EC018981882361F088E392E045D17A
:103EF0008981813019F488E092E03FD1CE018FDFD3
:103F00000FC08C8D882319F48BEE91E008C088A532
:103F1000882319F480ED91E002C080EC91E02DD16E
:103F2000DF91CF910895DBDFFFCF462F839661E1CC
:103F300070E120E00C94592C839620E00C94592CCD
:103F4000FF920F931F93DF93CF93CDB7DEB76D979B
:103F50000FB6F894DEBF0FBECDBFFB01242F60E982
:103F600072E07A8369831B821E82BC016D5D7F4F84
:103F70008E010F5F1F4FC801AF010E94E230F82E83
:103F8000C801BADE8F2D6D960FB6F894DEBF0FBE56
:103F9000CDBFCF91DF911F910F91FF900895839630
:103FA0000C946C2FCF92DF92EF92FF920F931F939E
:103FB000DF93CF93CDB7DEB76D970FB6F894DEBF22
:103FC0000FBECDBF6C017A0180E992E09A838983AC
:103FD0001B821E828E010F5F1F4FC80141E00E94AD
:103FE0009E2F882349F0B6016D5D7F4FC801A70160
:103FF0000E94BA31082F01C000E0CE0101967CDE9C
:10400000802F6D960FB6F894DEBF0FBECDBFCF9157
:10401000DF911F910F91FF90EF90DF90CF90089567
:104020000F931F93DF93CF93CDB7DEB76D970FB686
:10403000F894DEBF0FBECDBF80E992E09A838983FA
:104040001B821E828E010F5F1F4FC80141E00E943C
:104050009E2F882329F0C8010E94662A082F01C0DC
:1040600000E0CE01019648DE802F6D960FB6F894E1
:10407000DEBF0FBECDBFCF91DF911F910F9108958D
:10408000CF92DF92EF92FF920F931F93DF93CF9324
:10409000CDB7DEB76D970FB6F894DEBF0FBECDBFBC
:1040A00069017A0180E992E09A8389831B821E82EA
:1040B0008E010F5F1F4FC80142E00E949E2F882390
:1040C00039F0C801B701A6010E949829082F01C044
:1040D00000E0CE01019610DE802F6D960FB6F894A9
:1040E000DEBF0FBECDBFCF91DF911F910F91FF902B
:1040F000EF90DF90CF900895DF93CF930F920F92C0
:10410000CDB7DEB780914B1090914C109E012F5F80
:104110003F4F009719F42F54304102C0281B390B30
:104120003A83298389819A810F900F90CF91DF91F3
:1041300008950F931F93CF93DF938C01EB0106C07B
:10414000C80140E050E00F946F1F2196FE0164917A
:104150006623B1F7DF91CF911F910F910895CF930F
:10416000DF93EC01E6DFCE010F94D91FDF91CF91F1
:104170000895BC0181E190E1DCCFBC0181E190E1D7
:10418000EECF1F93CF93DF93EC01162F6A3028F404
:1041900060E340E050E00F94C61FCE01612F4AE07B
:1041A00050E00F946F1FDF91CF911F9108950F93EF
:1041B0001F930FEF1FEF2FEF3FE00E9470371F910B
:1041C0000F910895CF93DF93EC019C012A5F3F4F3D
:1041D0008B8D9C8D41E050E060E070E00E940E38D5
:1041E0008823A1F08F89988DA98DBA8D0097A1059C
:1041F000B10571F48E819F81A885B9858F8B988FC9
:10420000A98FBA8F8B8180688B8302C080E001C048
:1042100081E0DF91CF910895DF92EF92FF920F93AB
:104220001F93CF93DF93EC018B899C89AD89BE8965
:10423000803E2FEF92072FE1A20720E0B20708F09F
:104240006FC0CE01BFDF882309F46AC00E94FE352B
:10425000882309F465C0EB8DFC8DEE80FF80088516
:1042600019858EEF9FEFAFEFBFEFE80EF91E0A1F23
:104270001B1F058404C0EE0CFF1C001F111F0A94B5
:10428000D2F786859785A089B189E80EF91E0A1FA5
:104290001B1F81E080934C0EE0929602F0929702F1
:1042A000009398021093990280E092E0EAE4FCE027
:1042B000DF019C011D9221503040E1F7DD24D394B1
:1042C00010C0B801A7014D0D511D611D711D8091D8
:1042D0004A0E90914B0E2AE43CE059DC882301F110
:1042E000D394EB8DFC8D8481D81658F320E032E016
:1042F00040E050E0058404C0220F331F441F551FC7
:104300000A94D2F78B899C89AD89BE89820F931F4D
:10431000A41FB51F8B8B9C8BAD8BBE8B81E001C026
:1043200080E0DF91CF911F910F91FF90EF90DF9090
:104330000895CF93DF93EC01462F8E859F85A88942
:10434000B989BC01CD010E943B36882351F02A89EE
:1043500030E085E0220F331F8A95E1F7265B334F6B
:1043600002C020E030E0C901DF91CF9108956F9243
:104370007F928F929F92AF92BF92CF92DF92EF92F5
:10438000FF920F931F93DF93CF9300D00F92CDB77F
:10439000DEB78C014B013A01FC01C788D08CE18C5F
:1043A000F28CC114D104E104F10421F47EC06C014B
:1043B0007D0104C05E010894A11CB11CF801838D2D
:1043C000948DB701A60195010E947D36882309F4DA
:1043D0006CC089819A81AB81BC81A70196012F5F56
:1043E0003F4F4F4F5F4F82179307A407B507F9F26E
:1043F000F801638D748DFB012789203149F4883FD2
:10440000FFEF9F07F0E0AF07F0E0BF0750F44DC0AB
:10441000883F2FEF92072FEFA2072FE0B20708F493
:1044200044C0F8018789908DA18DB28D0297A109B2
:10443000B109FB01058404C0880F991FAA1FBB1F87
:104440000A94D2F72685378540895189820F931FB8
:10445000A41FB51FF40180839183A283B383FB0162
:1044600086859785A089B1890197A109B109248121
:10447000820F911DA11DB11DA70196012250304050
:1044800040405040058404C0220F331F441F551F75
:104490000A94D2F7820F931FA41FB51FF3018083E4
:1044A0009183A283B38381E001C080E00F900F90DD
:1044B0000F900F90CF91DF911F910F91FF90EF9090
:1044C000DF90CF90BF90AF909F908F907F906F9034
:1044D0000895E82FF92F90E080E02EE2308130320D
:1044E00069F0983029F4DB01A80FB11D2C938F5F80
:1044F000DB01A80FB11D30813C938F5F9F5F319628
:104500009B3061F7680F711DFB0110820895CF93F6
:10451000DF93EB01FC012581222379F02250223028
:1045200020F48FE28883198206C060E002DF0097E2
:1045300021F0BE01CEDF81E001C080E0DF91CF91AC
:104540000895CF93DF93FC01EB01228533854485E9
:104550005585288339834A835B8386819781A0852B
:10456000B1858C839D83AE83BF83DF91CF91089506
:10457000CF93DF93EA01FB012BE030E2319321502E
:10458000E9F7A82FB92F30E047E01CC04A3069F1A5
:1045900038E04AE017C0E21741F1FC010196E491CE
:1045A000EE23C9F7431708F12132F8F02F37E8F46A
:1045B000FB01E30FF11D822F81568A3108F420524E
:1045C00020833F5F9A2F8B2F2D91222339F02F329A
:1045D00029F02E32D9F283E892E0DFCF98838983E5
:1045E00081E0FB019081903209F480E0DF91CF916E
:1045F00008950F931F93CF93DF93EC018B018D816F
:10460000882309F040C0FB018789803109F041C04F
:1046100082E08D831F8A188E198E1A8E808D918D5F
:10462000A0E0B0E025E0880F991FAA1FBB1F2A95C4
:10463000D1F78B8B9C8BAD8BBE8B13C083E08D83AE
:10464000F801428D538D648D758D4F8B588F698F16
:104650007A8F9E012D5E3F4FC8010E94FD36882350
:1046600091F01C8F0B8F81E08B831E821F82188636
:1046700019861A861B861C861D861E861F86188A2A
:10468000198A1A8A01C080E0DF91CF911F910F91A2
:1046900008958032C1F7D2CFAF92BF92CF92DF920E
:1046A000EF92FF920F931F93CF93DF938C017B01C7
:1046B000D42EA22EEB01BB24CC248881803289F039
:1046C0008B2D883039F4C8016EE240E050E00F9441
:1046D000C61FC394C801688140E050E00F946F1F6B
:1046E000C394B3942196EB2DEB3039F7F701838512
:1046F0008871803161F4AA2051F0C8016FE202C0D4
:10470000C80160E240E050E00F94C61FC394CD148E
:10471000B8F3DF91CF911F910F91FF90EF90DF9051
:10472000CF90BF90AF900895FC01362F242F81E1E8
:1047300090E1BF01432FB0CF0F931F93CF93DF932F
:10474000EC018B01672F772766956454784F4AE018
:1047500050E00F945F1FCE016DE240E050E00F94F7
:10476000C61FB80135E0769567953A95E1F76F7009
:10477000CE0107DDCE016DE240E050E00F94C61F90
:10478000602F6F71CE01FDDCDF91CF911F910F91F2
:104790000895BC0181E190E1CFCF0F931F93CF9398
:1047A000DF93EC018B01612F669566956695E9DCD8
:1047B000CE016AE340E050E00F94C61FB80155E017
:1047C000769567955A95E1F76F73CE01DADCCE01E5
:1047D0006AE340E050E00F94C61F602F6F71660FD0
:1047E000CE01CFDCDF91CF911F910F910895BC01D5
:1047F00081E190E1D2CF0F931F93DF93CF93CDB799
:10480000DEB72D970FB6F894DEBF0FBECDBF8E0179
:104810000F5F1F4FB8017BDE882339F081E190E103
:10482000B8010F94891E81E001C080E02D960FB67B
:10483000F894DEBF0FBECDBFCF91DF911F910F91D6
:1048400008952F923F924F925F926F927F928F9234
:104850009F92AF92BF92CF92DF92EF92FF920F930F
:104860001F93DF93CF9300D00F92CDB7DEB79C8319
:104870008B832A01DC0115968C911597882309F406
:10488000D4C013968C91139780FFCFC0E8C02C0141
:104890004E185F08862E972E7201EB81FC813696AA
:1048A000FA83E983212CF2E03F2EB9C0AB81BC81B1
:1048B0001A962D913D914D915C911D97EFEF6E2EC3
:1048C000E1E07E2E6222732215966C9115975901B4
:1048D0006A0179E0D694C794B794A7947A95D1F7F2
:1048E0005B968D919C915C97623051F4FC01428DF6
:1048F000538D648D758D4A0D5B1D6C1D7D1D4EC0E5
:10490000DC0114960C91149701500A216114710472
:1049100009F50023F9F4211531054105510559F434
:10492000EB81FC818789908DA18DB28D86839783E1
:10493000A087B1870FC0AB81BC8116964D915D9168
:104940006D917C91199729813A810E947D36882347
:1049500009F46BC0AB81BC815B96ED91FC915C97D7
:1049600016964D915D916D917C91199742505040F2
:1049700060407040058404C0440F551F661F771FB8
:104980000A94D2F786859785A089B189480F591F67
:104990006A1F7B1F400F511D611D711DC1018619CA
:1049A000970987018E159F0508F48C01B2E000304D
:1049B0001B0709F06EC08091960290919702A0911A
:1049C0009802B0919902481759076A077B0709F4C2
:1049D00060C080914A0E90914B0E940152D888236A
:1049E00049F423C09301265B334FC401B901A801E8
:1049F0000F94262B800E911E980140E050E0EB8131
:104A0000FC8182859385A485B585820F931FA41FA1
:104A1000B51F82879387A487B587E01AF10AE1144E
:104A2000F10409F043CF920102C02FEF3FEFC9011B
:104A30000F900F900F900F90CF91DF911F910F91DA
:104A4000FF90EF90DF90CF90BF90AF909F908F90AE
:104A50007F906F905F904F903F902F900895EB81E3
:104A6000FC8183899489A589B689E284F3840485CD
:104A700015855A01CC24DD249C01AD012E193F0976
:104A8000400B510BA216B306C406D50608F0FFCEA4
:104A900001CFCB01BA0140E00E943B36882309F0E8
:104AA000A1CFC3CFDF93CF930F92CDB7DEB7BE01B7
:104AB0006F5F7F4F41E050E0C4DE8130910519F413
:104AC000298130E002C02FEF3FEFC9010F90CF9155
:104AD000DF910895AF92BF92CF92DF92EF92FF9253
:104AE0000F931F93CF93DF93EC01EA84FB840C8533
:104AF0001D85AE80BF80C884D984D4DF9C0197FD1A
:104B000008C0EA86FB860C871D87AE82BF82C886F6
:104B1000D986C901DF91CF911F910F91FF90EF903E
:104B2000DF90CF90BF90AF900895AF92BF92CF9299
:104B3000DF92EF92FF920F931F93DF93CF93CDB746
:104B4000DEB7A0970FB6F894DEBF0FBECDBF6C01E5
:104B50008B01B42EA22E7E010894E11CF11CC6012B
:104B6000B70140E250E06DDE8032910509F089C066
:104B70008981882309F485C0853E89F38E3279F3D3
:104B80008C8583FDECCFEE2407C0C80160E240E0D5
:104B900050E00F94C61FE394EA14B8F37E01089422
:104BA000E11CF11CAA24CC24F7018081803291F011
:104BB000FA2DF83039F4C8016EE240E050E00F946D
:104BC000C61FC394C801F701608140E050E00F9414
:104BD0006F1FC394A3940894E11CF11CFA2DFB30C1
:104BE00019F78C858871803139F4C8016FE240E093
:104BF00050E00F94C61FC394EB2CFF24C7018370B1
:104C00009070009759F007C0C80160E240E050E0A2
:104C10000F94C61FC3948C2D8E30B0F3E0FE14C0E9
:104C2000C80160E240E050E00F94C61F698D7A8DA4
:104C3000C80182DDC80160E240E050E00F94C61F69
:104C40006F89788DC801A9DD8C858871803189F0E4
:104C5000E1FE0FC0C80160E240E050E00F94C61FC3
:104C60004D8D5E8D6F8D78A1C8012AE030E00F94E4
:104C7000521FC8010F94D91F8C85887121F481E0DF
:104C800003C080E001C082E0A0960FB6F894DEBFBA
:104C90000FBECDBFCF91DF911F910F91FF90EF908D
:104CA000DF90CF90BF90AF9008956F927F928F92D8
:104CB0009F92AF92BF92CF92DF92EF92FF920F93AB
:104CC0001F93DF93CF93CDB7DEB7A0970FB6F894BD
:104CD000DEBF0FBECDBF4C017B013A01590100E0A0
:104CE00010E06E010894C11CD11C16C0C401B601AD
:104CF00040E250E0A6DD8032910509F048C089818C
:104D0000882309F444C0853E89F38E3279F38C857B
:104D100083FDECCF0F5F1F4F601671063CF78C854B
:104D200090E088719070FE01319630E020E05EE204
:104D30004191403241F0A22FBB27A7FDB095AE0DA7
:104D4000BF1D4C932F5F373051F4009741F4A22FD1
:104D5000BB27A7FDB095AE0DBF1D5C932F5F3F5FD6
:104D60003B3031F78D8D9E8DAF8DB8A1F5018083DD
:104D70009183A283B383E22FFF27E7FDF095EE0D29
:104D8000FF1D10828C85887121F481E003C080E0D2
:104D900001C082E0A0960FB6F894DEBF0FBECDBF73
:104DA000CF91DF911F910F91FF90EF90DF90CF9007
:104DB000BF90AF909F908F907F906F9008952F92AB
:104DC0003F924F925F926F927F928F929F92AF929B
:104DD000BF92CF92DF92EF92FF920F931F93DF93D8
:104DE000CF930F92CDB7DEB72C014B011A015901B9
:104DF000CC24CA94DC2CEE24FF243E010894611CD0
:104E0000711C13C0F401EE0DFF1D6083A114B104E9
:104E100019F46A3049F41DC0C50170E00F94412BAC
:104E2000009711F016C08701780187010F5F1F4FAF
:104E30000215130554F5C201B30141E050E001DD54
:104E40006C0181E0C816D10401F569816D30D1F69D
:104E5000EACFF401E00FF11F108202C00FEF1FEF45
:104E6000C8010F90CF91DF911F910F91FF90EF90AC
:104E7000DF90CF90BF90AF909F908F907F906F907A
:104E80005F904F903F902F900895D7FCE7CF870118
:104E9000E0CF0F931F93CF93DF938C01EB01FC01C5
:104EA0008581823018F182859385A485B5858F71BF
:104EB0009070A070B0700097A105B105B9F4C80159
:104EC000BE0140E250E0BDDC8032910519F0009750
:104ED00069F40EC08881882359F0853E81F38E32B3
:104EE00071F38B8583FDEBCF80E203C08FEF01C0B0
:104EF00080E0DF91CF911F910F910895EF92FF9283
:104F00000F931F93CF93DF93EC018D81823038F1A3
:104F1000EA84FB840C851D85CE01C4DD97FD1FC08E
:104F20008A859B85AC85BD854F96A11DB11D8A875D
:104F30009B87AC87BD87D801C70115E0B695A795BB
:104F4000979587951A95D1F78F70282F30E0A5E0B7
:104F5000220F331FAA95E1F7265B334F02C020E0F2
:104F600030E0C901DF91CF911F910F91FF90EF9039
:104F700008958F929F92AF92BF92CF92DF92EF925D
:104F8000FF920F931F93CF93DF93EC015A016B01B4
:104F90002D81222309F477C08B899C89AD89BE8934
:104FA00084179507A607B70708F46DC07AC0A11447
:104FB000B104C104D10449F41E821F8218861986E7
:104FC0001A861B861C861D865CC04A855B856C859F
:104FD0007D85EB8DFC8D258530E0275F3F4FDB0124
:104FE000CA010197A109B109022E04C0B695A7957F
:104FF000979587950A94D2F7860175010894E10880
:10500000F1080109110904C016950795F794E79472
:105010002A95D2F7E816F9060A071B0728F041156A
:1050200051056105710549F48F89988DA98DBA8D57
:105030008E839F83A887B98716C0E81AF90A0A0BDE
:105040001B0B11C04E815F81688579858B8D9C8D8E
:1050500094010E947D360894E108F10801091109C4
:10506000882331F410C086E0882E912C8C0E9D1E72
:10507000E114F1040105110529F7AA86BB86CC8647
:10508000DD8681E001C080E0DF91CF911F910F911B
:10509000FF90EF90DF90CF90BF90AF909F908F9058
:1050A0000895223009F083CFE8CF0F931F93FC01BE
:1050B0000389148925893689400F511F621F731F88
:1050C00058DF1F910F91089540E050E0BA0151CF91
:1050D000FC01DB012D913D914D915C91139722874D
:1050E00033874487558714962D913D914D915C915E
:1050F0001797268337834087518708950F931F930F
:10510000CF93DF938C01FC0185818823C1F18381DA
:1051100087FF32C0C80161E00CD9EC01009779F13A
:105120008881853E61F1F8018581823040F4838970
:105130009489A589B6898C8F9D8FAE8FBF8FF8011A
:105140008789908DA18DB28D9B8F8A8FBD8BAC8B03
:10515000E091460CF091470C309751F0BE016A5E29
:105160007F4FCE0148961995888D998D9B8B8A8BA0
:10517000F80183818F7783830E94FE3504C081E02C
:10518000F801828380E0DF91CF911F910F91089504
:105190000F931F93CF93DF93EC01162F072FAEDFF2
:1051A000882389F0CE0160E0C4D8009761F0A8019F
:1051B000252F342FD901FC0180E201900D928150FE
:1051C000E1F781E001C080E0DF91CF911F910F9165
:1051D0000895CF93DF93EC0191DF882319F01D82AE
:1051E00081E001C080E0DF91CF91089520E932E0B5
:1051F000FC01318320832581222309F0EACF089521
:105200006F927F928F929F92AF92BF92CF92DF92D6
:10521000EF920F931F93DF93CF930F92CDB7DEB72B
:105220004C01162F3A01DC0115968C9115978823B5
:1052300009F464C0B7E04C3B5B0708F45FC0E8E0EA
:105240004C335E0708F05AC0222309F457C02D30B2
:1052500008F054C0002309F451C0003208F04EC0D9
:10526000FE2DF83108F04AC08C2D8C3308F046C072
:10527000AA2DAC3308F042C051C0802F90E0A301AA
:105280004C5B5740542F4427550F842B952B30E00F
:1052900065E0220F331F6A95E1F7822B932BBB2425
:1052A000DD2455E0CC0CDD1C5A95E1F73E2D330F83
:1052B000330F330F20E0C22AD32A95013595279565
:1052C000C22AD32A10FF02C0938B828B11FF0AC01F
:1052D000918B808BD786C686A0FE02C024E601C0D3
:1052E00020E0258712FF04C0918F808FD78AC68A5D
:1052F00081E080934C0EC40101DF01C080E00F907B
:10530000CF91DF911F910F91EF90DF90CF90BF90E1
:10531000AF909F908F907F906F900895C40161E04F
:10532000298307D8FC012981009709F0A6CFE6CF91
:105330008F929F92AF92BF92CF92DF92EF92FF92A5
:105340000F931F93DF93CF9300D00F92CDB7DEB7AB
:105350008C016A017B01FC018581813009F07EC0EE
:10536000838181FF7BC08CC00097A105B10509F442
:1053700073C0F80182849384A484B584C801B70102
:10538000A601F7DD882309F469C0F801838D948DA7
:10539000C114D104E104F10479F44789508D618D81
:1053A000728D0E941D39882309F458C0F801178AAC
:1053B000108E118E128E38C0F8014681578160859B
:1053C00071859E012F5F3F4F0E947D36882309F42F
:1053D00045C0F801838D948D49815A816B817C8110
:1053E000FC012789203149F4483FFFEF5F07F0E0D7
:1053F0006F07F0E07F07C0F408C0483F2FEF520767
:105400002FEF62072FE0720778F40E941D3988237E
:1054100029F1F8014681578160857185838D948DCE
:105420000E94D7208823D1F0F801C38AD48AE58A64
:10543000F68A838180688383C80160DE882371F0E7
:10544000B701A6018C149D04AE04BF0410F4B5018D
:10545000A401C8018EDD03C081E001C080E00F908F
:105460000F900F900F90CF91DF911F910F91FF90B0
:10547000EF90DF90CF90BF90AF909F908F90089566
:10548000F80183899489A589B68984179507A607A9
:10549000B70708F069CFE2CFCF93DF93EC0140E08C
:1054A00050E0BA0145DF882369F0CE0161E00E9437
:1054B0009921009739F025EEFC0120831D820E947E
:1054C000FE3501C080E0DF91CF910895CF93DF9347
:1054D000EC018D818430C1F5E091440CF091450CD4
:1054E0003097B1F12789308D418D528D8F89988DFC
:1054F000A98DBA8D281739074A075B0749F524C0DB
:10550000CE01FCDCFC010097F9F080818823A1F03A
:10551000853E29F08E3219F0838583FF15C02A85D8
:105520003B854C855D858B899C89AD89BE89281713
:1055300039074A075B0720F381E08D838B81826006
:105540008B83CE01A9DF01C080E0DF91CF91089568
:10555000CE01BADDE4CF1F93CF93DF93EC01142F7C
:10556000E62FF0E0DF0145E0AA0FBB1F4A95E1F707
:10557000A65BB34F1B968C911B97817121F0812FF5
:10558000827109F064C08091960290919702A09177
:105590009802B09199028E879F87A88BB98B6A8BEE
:1055A00035E0EE0FFF1F3A95E1F7E65BF34F848994
:1055B0009589A0E0B0E0DC01992788278F8B988F30
:1055C000A98FBA8F428D538D60E070E0482B592B24
:1055D0006A2B7B2B4F8B588F698F7A8F838590E056
:1055E00088719070009751F4848D958DA68DB78D3C
:1055F0008B8B9C8BAD8BBE8B81E00DC08031910578
:1056000031F59E012D5E3F4F8B8D9C8D0E94FD36A6
:105610008823E9F084E08D83812F8F708B831E8235
:105620001F82188619861A861B861C861D8614FF03
:1056300014C0CE0140E050E0BA017ADE882341F088
:105640000CC0CE0140E050E0BA012FDD02C01D8247
:1056500080E0DF91CF911F91089515FDF2CF81E099
:10566000F8CFEF92FF920F931F93DF93CF930F9298
:105670000F92CDB7DEB77C018B016115710591F1F9
:10568000DC0115968C911597882361F5FB01838DBC
:10569000948D5C969C938E935B97D8011A966D912E
:1056A0007D918D919C911D9755E096958795779565
:1056B00067955A95D1F76F70C8014A8369831EDCDC
:1056C000FC014A816981009769F08081882351F04B
:1056D000853E19F38E3209F3838583FDDECFC70142
:1056E0003ADF01C080E00F900F90CF91DF911F91C2
:1056F0000F91FF90EF900895CF92DF92FF920F935A
:105700001F93CF93DF938C01EB016A01F22E8B8DF7
:105710009C8DF801948F838F8581882309F52097CC
:1057200041F51EC0A60165E0440F551F6A95E1F7DB
:1057300060E070E0CE011DDC882391F0CE01DEDB5D
:10574000009771F0FC018081882351F0853E41F083
:105750008E3231F06C2D6F70C8014F2DFCDE01C010
:1057600080E0DF91CF911F910F91FF90DF90CF905C
:10577000089527FFD7CFF4CF8F929F92AF92BF9219
:10578000CF92DF92EF92FF920F931F93DF93CF930D
:10579000CDB7DEB76D970FB6F894DEBF0FBECDBFA5
:1057A0008C0180E992E09A8389831B821E82C80162
:1057B0008BDC5E010894A11CB11C48C0C8019EDBB3
:1057C000FC01009709F45AC08081882309F44DC078
:1057D000853E09F43BC08E32C9F1838583FD36C016
:1057E000E5E0F694E794D794C794EA95D1F746019B
:1057F000C501B801A60121E07FDF882309F43EC07E
:105800008E81843019F4C501B7DF05C08C818260B8
:105810008C83C50141DE882389F10894811C911C89
:1058200075E0880C991C7A95E1F7A40160E070E0BE
:10583000F80182859385A485B58584179507A60709
:10584000B70721F0C80195DB8823C1F0F801C284B5
:10585000D384E484F58483899489A589B689C8169C
:10586000D906EA06FB0608F4A9CFF8018581825023
:10587000823030F0C8012ADE882311F400E001C034
:1058800001E0CE0101960E947C1E802F6D960FB61E
:10589000F894DEBF0FBECDBFCF91DF911F910F9166
:1058A000FF90EF90DF90CF90BF90AF909F908F9040
:1058B00008953F924F925F926F927F928F929F9244
:1058C000AF92BF92CF92DF92EF92FF920F931F930E
:1058D000DF93CF93CDB7DEB76D970FB6F894DEBFE9
:1058E0000FBECDBF8C013B01B42EA22EEDDBCB2C25
:1058F000DD2484E0C822DD2480E9482E82E0582E91
:105900007E010894E11CF11CB2E03B2E3A0C30C041
:10591000823074F1C114D10459F1F80142855385E4
:1059200064857585A5E07695679557954795AA9501
:10593000D1F74A015A8249821B821E82415050404F
:10594000C701B80121E0D8DE882329F0C701B301DF
:105950004B2D232DAEDFA401F5E0440F551FFA9522
:10596000E1F760E070E0C80104DBC7010E947C1E23
:10597000C801B3014B2D2A2DD8D8882349F66D963E
:105980000FB6F894DEBF0FBECDBFCF91DF911F9150
:105990000F91FF90EF90DF90CF90BF90AF909F90CE
:1059A0008F907F906F905F904F903F900895462F1B
:1059B00061E170E120E07DCF8F929F92AF92BF9224
:1059C000CF92DF92EF92FF920F931F93DF93CF93CB
:1059D000CDB7DEB7ED970FB6F894DEBF0FBECDBFE3
:1059E0005C018B0180E992E09A8389831B821E828D
:1059F000F5018581882309F0B5C06115710509F4A9
:105A0000B1C0FB018581982F9250923008F4AAC052
:105A1000823008F0C0C0A6C0C801BE01625E7F4FE0
:105A200040E250E00E9421248032910509F09AC0A2
:105A30008E8D8E3209F096C08F8D8E3209F092C015
:105A400088AD99ADA0E0B0E0CAA8DBA8EE24FF24A1
:105A50007601DD24CC24C82AD92AEA2AFB2AF501BA
:105A6000638D748DC114D104E104F10421F4C501E6
:105A70000E94F92275C0D701C6010297A109B10998
:105A8000FB01058404C0880F991FAA1FBB1F0A943D
:105A9000D2F72685378540895189820F931FA41F2D
:105AA000B51FBC01CD0140E00E943B36882309F4BC
:105AB00059C080916A0C8E3209F054C080916B0CF1
:105AC0008E3209F04FC080917E0C90917F0C009730
:105AD00071F48091840C9091850C009741F4F80149
