:100000000C946B130D9485130D94B6130D94E71394
:100010000D9418140D9449140D947A140D94AB1486
:100020000D94DC140C949C130C949C130C949C1352
:100030000C949C130C949C130C949C130C949C1384
:100040000C949C130C949C130C949C130C949C1374
:100050000C949C130C949C130C949C130D940D15F0
:100060000C949C130D9474180C949C130C949C1376
:100070000C949C130C949C130C949C130C949C1344
:100080000C949C130C949C130C949C130C94671765
:100090000C9486590C949C130C949C130D94881109
:1000A0000C949C130C949C130C949C130C949C1314
:1000B0000C949C130C949C130C949C130C949C1304
:1000C0000C949C130C949C130C949C130D949F18EB
:1000D0000C949C130C949C130D94CA180C949C13B0
:1000E0000C949C13036EDB363D9A9999993DABAA0B
:1000F000AA2A3E000000803F072C7AA5BA6CC59062
:10010000DA3B9365FC8BBC53F810FD3C5692834D53
:10011000BD879D3AB63DCBC9BF5BBE73DA0FC93F01
:1001200005A84CCDB2D44EB93836A9020C50B991BD
:100130008688083CA6AAAA2ABE000000803F076362
:100140004236B79BD8A71A39685618AEBAAB558C49
:100150001D3CB7CC5763BD6DEDFD753EF617723192
:10016000BF000000803F08000000BE922449123EFC
:10017000ABAAAA2ABECDCCCC4C3E00000080BEABC0
:10018000AAAAAA3E00000000BF000000803F0000B5
:10019000000000084178D3BB4387D1133D190E3CC2
:1001A000C3BD4282AD2B3E68EC8276BED98FE1A9F9
:1001B0003E4C80EFFFBE01C4FF7F3F000000000007
:1001C000426C696E6B657220696E697420646F6E33
:1001D0006500436C6F636B20696E697420646F6E99
:1001E00065004C61646520454550524F4D00627476
:1001F0005F70696E006C65645F6D6F646500726747
:10020000625F696E5F62007267625F696E5F67005E
:100210007267625F696E5F72007267625F6F7574AA
:100220005F647A5F656E645F62007267625F6F75BC
:10023000745F647A5F656E645F67007267625F6FA8
:1002400075745F647A5F656E645F72007267625F87
:100250006F75745F647A5F73746172745F62007249
:1002600067625F6F75745F647A5F73746172745FE5
:1002700067007267625F6F75745F647A5F73746141
:1002800072745F72007267625F6F75745F6B6D6826
:100290005F656E645F62007267625F6F75745F6B4B
:1002A0006D685F656E645F67007267625F6F75742B
:1002B0005F6B6D685F656E645F72007267625F6F2F
:1002C00075745F6B6D685F73746172745F620072E6
:1002D00067625F6F75745F6B6D685F737461727472
:1002E0005F67007267625F6F75745F6B6D685F73E5
:1002F000746172745F72007267625F6F75745F6FB2
:10030000696C5F656E645F62007267625F6F7574CF
:100310005F6F696C5F656E645F67007267625F6FD5
:1003200075745F6F696C5F656E645F72007267629F
:100330005F6F75745F6F696C5F73746172745F6215
:10034000007267625F6F75745F6F696C5F73746171
:1003500072745F67007267625F6F75745F6F696C5C
:100360005F73746172745F72007267625F6F75743D
:100370005F7374617469635F62007267625F6F7557
:10038000745F7374617469635F67007267625F6F43
:1003900075745F7374617469635F72007267625F22
:1003A000666C6173685F62007267625F666C61733E
:1003B000685F67007267625F666C6173685F720096
:1003C0006B6D685F6D6178006B6D685F6D696E0065
:1003D0006F696C5F6D6178006F696C5F6D696E004D
:1003E000647A5F6D617800647A5F6D696E006F6931
:1003F0006C5F7761726E696E670077617465725FBA
:100400007761726E696E6700647A5F666C617368AB
:100410005F656E00647A5F666C6173680064656630
:1004200061756C745F666F6E74006675656C5F777E
:1004300069646765742E666F6E74006675656C5FBF
:100440007769646765742E73796D626F6C00667589
:10045000656C5F7769646765742E79006675656C95
:100460005F7769646765742E7800676561725F778E
:1004700069646765742E666F6E7400676561725F8C
:100480007769646765742E7900676561725F776963
:10049000646765742E7800636C6F636B5F77696463
:1004A0006765742E666F6E7400636C6F636B5F7745
:1004B00069646765742E73796D626F6C00636C6F2D
:1004C000636B5F7769646765742E7900636C6F6333
:1004D0006B5F7769646765742E7800616464696E28
:1004E000666F325F7769646765742E666F6E74003D
:1004F000616464696E666F325F7769646765742EE4
:100500007900616464696E666F325F7769646765FC
:10051000742E7800616464696E666F5F77696467E2
:1005200065742E666F6E7400616464696E666F5FD9
:100530007769646765742E7900616464696E666FBB
:100540005F7769646765742E7800647A5F776964A1
:100550006765742E666F6E7400647A5F776964678E
:1005600065742E7900647A5F7769646765742E78A4
:10057000006172726F775F7769646765742E7900C6
:100580006172726F775F7769646765742E78006B4C
:100590006D68636861725F7769646765742E666F02
:1005A0006E74006B6D68636861725F77696467651C
:1005B000742E79006B6D68636861725F7769646738
:1005C00065742E78006B6D685F7769646765742E5B
:1005D000666F6E74006B6D685F7769646765742E13
:1005E00079006B6D685F7769646765742E78006168
:1005F00069725F7769646765742E666F6E740061F7
:1006000069725F7769646765742E73796D626F6C68
:10061000006169725F7769646765742E790061694A
:10062000725F7769646765742E78007761746572AC
:100630005F7769646765742E666F6E7400776174A6
:1006400065725F7769646765742E73796D626F6C2C
:100650000077617465725F7769646765742E7900ED
:1006600077617465725F7769646765742E78006F6F
:10067000696C5F7769646765742E666F6E74006F6E
:10068000696C5F7769646765742E73796D626F6CEE
:10069000006F696C5F7769646765742E79006F69B4
:1006A0006C5F7769646765742E7800726566726541
:1006B00073685F63796C65006770735F74616B6505
:1006C0006F7665720072656966656E5F756D6661ED
:1006D0006E67006675656C5F626C696E6B5F6672F3
:1006E0006571006675656C5F626C696E6B5F7374D3
:1006F00061727400626C696E6B65725F68696768CD
:1007000000626C696E6B6572006F696C5F6469731F
:100710007400736B696E5F66696C65006163746910
:1007200076655F6E6176695F66696C65007374619A
:1007300072747570004D616C6C6F63206661696CDA
:10074000656400446F6E650021212046696C652058
:100750006F70656E206661696C65642021210021DF
:10076000212046696C65206F70656E206661696C3A
:100770006564202121004D616C6C6F6320666169A6
:100780006C6564006F70656E2073756264697220B9
:100790002F636F6E666967206661696C656400200F
:1007A0002E2E2E200052656164696E673A2000216A
:1007B000212121205741524E494E472021212121FC
:1007C0000053442061636365737320737472616EB8
:1007D00067650021212121205741524E494E472073
:1007E00021212121002121205741524E494E4720ED
:1007F000212100616C6C206D61782076616C7565DB
:10080000733D3D2D39390053442061636365737333
:1008100020737472616E6765002121205741524E2A
:10082000494E472021210062745F70696E3D006F60
:10083000696C5F7761726E696E673D0077617465A0
:10084000725F7761726E696E673D007267625F66A4
:100850006C6173685F623D007267625F666C6173B2
:10086000685F673D007267625F666C6173685F72A4
:100870003D006C65645F6D6F64653D007267625F2B
:100880006F75745F6F696C5F656E645F623D007267
:1008900067625F6F75745F6F696C5F656E645F67D9
:1008A0003D007267625F6F75745F6F696C5F656E44
:1008B000645F723D007267625F6F75745F6F696C31
:1008C0005F73746172745F623D007267625F6F751F
:1008D000745F6F696C5F73746172745F673D0072FF
:1008E00067625F6F75745F6F696C5F737461727458
:1008F0005F723D007267625F6F75745F6B6D685FFA
:10090000656E645F623D007267625F6F75745F6BF6
:100910006D685F656E645F673D007267625F6F75EB
:10092000745F6B6D685F656E645F723D00726762D5
:100930005F6F75745F6B6D685F73746172745F6213
:100940003D007267625F6F75745F6B6D685F737493
:100950006172745F673D007267625F6F75745F6B91
:100960006D685F73746172745F723D007267625F7D
:100970006F75745F647A5F656E645F623D00726775
:10098000625F6F75745F647A5F656E645F673D0078
:100990007267625F6F75745F647A5F656E645F72C1
:1009A0003D007267625F6F75745F647A5F73746134
:1009B00072745F623D007267625F6F75745F647A24
:1009C0005F73746172745F673D007267625F6F7519
:1009D000745F647A5F73746172745F723D007267F2
:1009E000625F6F75745F7374617469635F623D0009
:1009F0007267625F6F75745F7374617469635F6758
:100A00003D007267625F6F75745F737461746963D0
:100A10005F723D007267625F696E5F623D00726780
:100A2000625F696E5F673D007267625F696E5F72E9
:100A30003D006B6D685F6D61783D006B6D685F6D4B
:100A4000696E3D006F696C5F6D61783D006F696C28
:100A50005F6D696E3D00647A5F6D61783D00647A18
:100A60005F6D696E3D00647A5F666C6173685F6597
:100A70006E3D00647A5F666C6173683D006F696CFF
:100A80005F646973743D00736B696E5F66696C6562
:100A90003D006163746976655F6E6176695F666962
:100AA0006C653D00726566726573685F63796C653D
:100AB0003D006770735F74616B656F7665723D00B2
:100AC00072656966656E5F756D66616E673D00662D
:100AD00075656C5F626C696E6B5F667265713D0017
:100AE0006675656C5F626C696E6B5F73746172745E
:100AF0003D00626C696E6B65725F686967683D0096
:100B0000626C696E6B65723D0073746172747570AE
:100B10003D00235468697320697320616E206175FC
:100B2000746F2D67656E6572617465642066696CAB
:100B3000652066726F6D20284D6F6E4461792920A3
:100B4000006F70656E20737562646972202F636F29
:100B50006E666967206661696C6564006F70656EBA
:100B600020737562646972202F636F6E66696720F7
:100B70006661696C65640023546869732069732039
:100B8000616E206175746F2D67656E657261746545
:100B9000642066696C652066726F6D20284D6F6EEB
:100BA0004461792920006F70656E207375626469F5
:100BB00072202F636F6E666967206661696C656479
:100BC00000235468697320697320616E2061757415
:100BD0006F2D67656E6572617465642066696C650A
:100BE0002066726F6D20284D6F6E44617929200058
:100BF0006F70656E20737562646972202F636F6E0B
:100C0000666967206661696C656400204279746575
:100C1000206865617020667265650021212057415A
:100C2000524E494E472021210053442061636365A1
:100C30007373206661696C656400212120574152FD
:100C40004E494E47202121002121205741524E4933
:100C50004E472021210076616C7565730072756EB8
:100C60006E696E67206F6E206261636B75700053F2
:100C70004420616363657373206661696C65642EEB
:100C8000002121205741524E494E47202121004D3D
:100C9000616C6C6F63206661696C65640066616C91
:100CA0007363686520616E7A61686C20616E206B89
:100CB0006F6D6D617461004D616C6C6F6320666176
:100CC000696C65640056616C75653A007E206361ED
:100CD0006E63656C202020202020202073617665C3
:100CE0000066617374657220616E6420736C6F7747
:100CF000657200446F6E74207368696674212120E8
:100D00004472697665004F6C642056616C75653A73
:100D10000047656172004D616C6C6F6320666169AC
:100D20006C6564006F70656E207375626469722013
:100D30002F636F6E666967206661696C6564004D3C
:100D4000616C6C6F63206661696C65640047505329
:100D500020696E697420646F6E65003D3D3D2053CF
:100D6000657475702066696E6973686564203D3DC1
:100D70003D0076302E332E362D33362D67303166DA
:100D800031316634003D3D3D2053706565646F69C7
:100D90006E6F203D3D3D00312E2053706565646FC0
:100DA000696E6F00322E20537072696E74206D6F01
:100DB000646500332E204E617669676174696F6ED9
:100DC00000342E202D00352E20457874656E646524
:100DD0006420696E666F00362E20437573746F6DE4
:100DE000697A6500372E20536574757000382E209F
:100DF00043616C6320616D6F756E7400392E2054F1
:100E000072697020417667204D617800970DA40DBE
:100E1000B30DC10DC60DD70DE40DED0DFC0D312E3A
:100E200020476561722063616C69622E00322E205A
:100E300054697265206F75746C696E6500332E207D
:100E4000446973706C617920736574757000342E19
:100E5000205265736574206D656D6F727900352E53
:100E6000204461796C6967687420736176696E6784
:100E700000362E20425420526573657420737461CD
:100E8000746500372E2057617465722074656D702B
:100E900000382E204F696C2074656D7000392E204B
:100EA00041626F7574001E0E2D0E3D0E4E0E5E0ECD
:100EB000710E830E910E9D0E312E204C6F616420B9
:100EC000536B696E00322E2053686F776E207472F8
:100ED000697000332E20445A20466C617368657235
:100EE00000342E2043656E746572205247420035EF
:100EF0002E204F757465722052474200362E2046D0
:100F00006C61736865722052474200372E2053652A
:100F1000742042542050494E00382E2053686F7779
:100F200020416E696D6174696F6E00392E202D004D
:100F3000B80EC50ED30EE10EEF0EFC0E0B0F190FFF
:100F40002B0F312E2053746174696320636F6C6FB3
:100F50007200322E2053706565642062617365648F
:100F600000332E2052504D20626173656400342E90
:100F7000204F696C2074656D702062617365640038
:100F8000352E202D00362E202D00372E202D003816
:100F90002E202D00392E202D00420F520F610F6E92
:100FA0000F800F850F8A0F8F0F940F312E2047501F
:100FB0005320696E666F7320312F3200322E204726
:100FC000505320696E666F7320322F3200332E200B
:100FD000566F6C7461676500342E202D00352E200D
:100FE0002D00362E202D00372E202D00382E202DBE
:100FF00000392E2054657472697300AB0FBC0FCD9D
:101000000FD80FDD0FE20FE70FEC0FF10F312E209D
:101010004E61766920737461746500322E205365C9
:101020007420706F696E74657200332E205365747E
:101030002066696C6500342E20436865636B2077F9
:10104000726974657300352E202D00362E202D0018
:10105000372E202D00382E202D00392E202D000D6A
:10106000101B102A10361046104B10501055105AF5
:10107000103D204D61696E206D656E75203D00004C
:10108000003D204E617669676174696F6E203D0096
:10109000003D20496E666F726D6174696F6E203D10
:1010A000003D20437573746F6D697A65203D003D86
:1010B000205365747570203D00003D2053746F729D
:1010C000616765203D200071107F108010811090B5
:1010D000109110A110AF10B910BA10546F74616C58
:1010E000004E6F6E5065726D616E656E7400446186
:1010F0007900546F757200517569636B00467565B0
:101100006C004F696C657200536169736F6E0042C9
:101110006F61726400DB10E110EE10F210F710FD49
:1011200010021108110F1158206E6F20202020206E
:101130002020202020202079657320580073746FB0
:1011400072656167657320726573657465640041DB
:101150006C6C204675656C00417665726167652030
:101160006E6565643A200041646465642066756557
:101170006C20616D6F756E743A004B4B6F6F6C6CC9
:101180006A6A616140676D61696C2E636F6D0063AF
:101190006F6E74616374206D652061740076302E0B
:1011A000332E362D33362D673031663131663400BB
:1011B0007374617274656420342E323031300047AC
:1011C0004E55202D204C6963656E73656400537025
:1011D0006565646F696E6F007761726E696E672016
:1011E0006C6576656C0074656D706572617475729E
:1011F00065005365747570206F696C005361766586
:1012000064007761726E696E67206C6576656C004C
:1012100074656D706572617475726500536574757F
:101220007020776174657200536176656400706F39
:1012300077657200446F776E203D20696E6163743C
:101240006976650042542D526573657400557020AF
:101250003D2061637469766500446F776E203D20A0
:10126000696E616374697665004461796C69676869
:101270007420736176696E67005570203D2061634C
:10128000746976650043686F6F73652072656620C8
:10129000560043686F6F73652070686173650073F3
:1012A00061766564005361766564002020636F6E2B
:1012B00074696E756500214B65657020647269768E
:1012C000696E6721004368616E67652047656172DA
:1012D0002075702F646F776E0043616C6962726174
:1012E00074652047656172006C65617665206D6587
:1012F0006E7520746F2073617665004368616E6758
:10130000652042542050494E004F4B005361766592
:1013100020746F205344206361726400526564201E
:101320002020477265656E202020426C7565004163
:101330006C6572742052474200215344204552523A
:101340004F5221005361766564004F696C20205232
:10135000656420477265656E20426C7565004F6953
:101360006C202052656420477265656E20426C7562
:1013700065004D6178696D616C2076616C7565738F
:10138000004D696E696D616C2076616C75657300E6
:101390004F757465722052474200215344204552D4
:1013A000524F52210053617665640072706D2020A7
:1013B00052656420477265656E20426C75650072E7
:1013C000706D202052656420477265656E20426C06
:1013D0007565004D6178696D616C2076616C75652D
:1013E00073004D696E696D616C2076616C75657313
:1013F000004F7574657220524742002153442045C6
:1014000052524F5221005361766564006B6D2F6814
:101410002052656420477265656E20426C756500D8
:101420006B6D2F682052656420477265656E20429F
:101430006C7565004D6178696D616C2076616C75C5
:101440006573004D696E696D616C2076616C7565C0
:1014500073004F7574657220524742002153442037
:101460004552524F522100536176656400526564C3
:10147000202020477265656E202020426C75650033
:101480004F757465722052474200215344204552E3
:10149000524F5221005361766564005265642020EA
:1014A00020477265656E202020426C75650043659B
:1014B0006E746572205247420021534420455252B7
:1014C0004F522100536176656400696E61637469EF
:1014D0007665006163746976650061637469766539
:1014E00000746F2061646A75737400446F776E20B6
:1014F0003D20696E616374697665005570203D20FA
:1015000061637469766500445A20466C617368654E
:101510007200536176656400507265766965770084
:1015200046696C65206E6F7420666F756E64004E40
:101530006F206669727374206C696E6520636F6DCD
:101540006D656E74004D616C6C6F63206661696CD3
:101550006564005220676F20666F72206974004CCA
:10156000205175697400416C6578656A205061642A
:1015700073636869746E6F7700696E207472696254
:10158000757420746F0054657472697300416464EB
:101590006974696F6E616C20696E666F00436F7568
:1015A0006E746572004750535F73617473004750E7
:1015B000535F7370656564004750535F616C746975
:1015C000004750535F6C617469004750535F6C6F04
:1015D0006E67004750535F64617465004750535F06
:1015E00074696D6500506F696E74732077726974E9
:1015F00074656E0046696C65206E6F7420666F7549
:101600006E64004E6F206669727374206C696E653B
:1016100020636F6D6D656E74004E61766920547243
:1016200061636B20506F696E74657200446F776EF2
:10163000203D20696E616374697665004E6176694C
:10164000676174696F6E005570203D206163746935
:101650007665004F696C657220696E697420646FED
:101660006E6500526573657420696E697420646FDD
:101670006E652E205374617475732000766F6C75DF
:101680006D652E696E6974206661696C65640063BE
:101690006172642E696E6974206661696C656400AC
:1016A0002C005344206572726F723A20006572728A
:1016B0006F723A200053656E736F727320696E69A2
:1016C0007420646F6E6500537065656420757021C9
:1016D000004E6F2047505321002020202020202042
:1016E000202020202020202020202020202020001A
:1016F000534420616363657373206661696C65643C
:101700000057617465722072656164206661696C5E
:101710006564004F696C2072656164206661696C64
:101720006564004E6F2047505300426C696E6B65D4
:10173000722076657267657373656E007761746594
:10174000722074656D70207761726E696E67006FCC
:10175000696C2074656D70207761726E696E6700C8
:101760004D6F746F72206E6F6368206B616C7400D4
:101770006B6D2F68004D616C6C6F63206661696CE6
:101780006564004D616C6C6F63206661696C6564B3
:10179000004C696E65733A20004C6576656C3A20A2
:1017A000004E6578740054657472697300676F65E4
:1017B00073200053706565646F696E6F005220522C
:1017C00065747279004C205175697400596F7520E9
:1017D0006C6F6F736500566F6C7461676520004EA7
:1017E0006F206572726F7220666F756E642E004393
:1017F000616E2774206F70656E20726F6F74206445
:1018000069726563746F72792E00496E76616C69D6
:101810006420666F726D61742C207265666F726DE4
:1018200061742053442E004E6F20636172642C203B
:1018300077726F6E6720636869702073656C65638B
:10184000742070696E2C206F722053504920707282
:101850006F626C656D3F0043616E27742061636346
:1018600065737320534420636172642E20446F209B
:101870006E6F74207265666F726D61742E00657292
:10188000726F723A20006572726F723A2000534490
:10189000206572726F72436F64653A203058000D94
:1018A0000A007C3C3E5E2B3D3F2F5B5D3B2C2A2299
:1018B0005C0066616C73650074727565004249472F
:1018C00020464C540066616C736500747275650047
:1018D00000002100240027002A002D0030003300E2
:1018E00001010000040107010A0100002200250097
:1018F00028002B002E0031003400020100000501F9
:1019000008010B01000020002300260029002C0004
:101910002F00320000010000030106010901050546
:101920000505070508080808020202020A0A080855
:101930000404040401010101010101010303030383
:1019400003030303040707070C0C0C0C0C0C0C0C12
:101950000202020206060606060606060B0B0B0B23
:101960000B0B0B0B01021020200808102040102048
:101970004080020102010804020101020408102053
:101980004080804020100804020180040201804051
:1019900020100804020108040201010204081020BA
:1019A000408001020408102040800000090A02085B
:1019B0000B0C0D07060304010000000000000000EE
:1019C0000000000000000000000000000000000017
:1019D000000000000000100F0E00000000000000DA
:1019E00000000000000000000000000000000000F7
:1019F0000000000000000000101010101000100087
:101A000050500000000000000050F850F850000056
:101A10002078A07028F8200000C8D0202058980016
:101A20006090A0789098E80020200000000000005E
:101A30001020202020201000201010101010200056
:101A400020A87070A8200000002020F820200000AE
:101A50000000000000202000000000F8000000004E
:101A6000000000000000200000000810204080005E
:101A700070D8888888D87000E02020202020F800C6
:101A8000708808102040F80070880870088870007E
:101A90001030505090F81000F08080F00808F000EE
:101AA000384080F088887000F8081010202020004E
:101AB0007088887088887000708888780810E000C6
:101AC0000000200000200000000020000020200076
:101AD000001860C0601800000000F800F800000066
:101AE00000C0301830C000007088081020002000AE
:101AF0007088B8A8B88060002070D888F8888800FE
:101B0000F08888F88888F00070888080808870006D
:101B1000E09088888890E000F88080F88080F80065
:101B2000F88080F8808080007088809888887000B5
:101B3000888888F8888888007020202020207000FD
:101B400038080808088870008890A0C0A090880015
:101B5000808080808080F80088D8F8A888888800F5
:101B600088C8C8A89898880070D8888888D87000D5
:101B7000F08888F08080800070D88888D87018003D
:101B8000F08888F0A09088007088807008887000C5
:101B9000F8202020202020008888888888887000ED
:101BA000888888505020200088A8A8A8A8D850006D
:101BB0008850202050888800885050202020200005
:101BC000F80810204080F80060404040404060002D
:101BD00000008040201008006020202020206000AD
:101BE0003048000000000000000000000000F80085
:101BF000202000000000000000007008F898E800B5
:101C00008080B0C888C8B0000000708880887000EC
:101C1000080868988898680000007088F880780044
:101C2000182020F82020200000788888780870008C
:101C30008080B0C888888800200060202020700044
:101C40001000301010507000808090A0C0A0900054
:101C5000C0404040404030000000F8A8A8A8A800BC
:101C60000000B0C8888888000000708888887000EC
:101C70000000F088F0808000000078887808080074
:101C80000000B0C880808000000078807008F000FC
:101C90004040F0404040300000008888889868004C
:101CA0000000888850502000000088A8A8F8500044
:101CB00000008850205088000000885020204000FC
:101CC0000000F8102040F80038283800000000001C
:101CD00020202020202020002070F820202020001C
:101CE0002060F868280808002030F8B0A080800044
:101CF0000000000000000000101010101000100084
:101D000050500000000000000050F850F850000053
:101D100020F880F808F8200000C8D020205898004B
:101D20006090A0789098E80020200000000000005B
:101D30001020202020201000201010101010200053
:101D40000020F82050000000002020F82020000093
:101D50000000000000202000000000F8000000004B
:101D6000000000000000200000000810204080005B
:101D700000F888888888F8000030101010101000D3
:101D800000F808F88080F80000F808380808F80023
:101D9000008888F80808080000F880F80808F800AB
:101DA00000F880F88888F80000F80808080808009B
:101DB00000F888F88888F80000F888F80808080013
:101DC0000000200000200000000020000020200073
:101DD00000102040201000000000F800F800000073
:101DE000004020102040000000F8080838002000C3
:101DF00000F888B8A8B8000000F888F8888888003B
:101E000000F088F88888F00000F880808080F80072
:101E100000F088888888F00000F880E08080F80072
:101E200000F880E08080800000F880B88888F800A2
:101E3000008888F88888880000F820202020F80092
:101E4000000808080888F800008890E0908888005A
:101E5000008080808080F8000088D8A8888888006A
:101E60000088C8A89888880000F888888888F800C2
:101E700000F088F88080800000F88888A8F82000AA
:101E800000F088F89088880000F880F80808F800CA
:101E900000F8202020202000008888888888F8000A
:101EA000008888888850200000888888A8D8880002
:101EB0000088502020508800008888F820202000CA
:101EC00000F810204080F800006040404040600072
:101ED00000008040201008000060202020206000CA
:101EE0002050000000000000000000000000F8008A
:101EF00020200000000000000000F888F88888001A
:101F00000000F888F088F8000000F8808080F80071
:101F10000000F0888888F0000000F880E080F80079
:101F20000000F880E08080000000F880B888F800A9
:101F300000008888F88888000000202020202000E9
:101F4000000008080888F80000008890E0908800E9
:101F5000000080808080F8000000F8A8A8A8A800F1
:101F60000000F888888888000000F8888888F800D1
:101F70000000F888F88080000000F888A8F82000A9
:101F80000000F888F89088000000F880F808F80051
:101F90000000F82020202000000088888888F800B1
:101FA00000008888885020000000A8A8A8A8F80091
:101FB0000000885020508800000088502020200019
:101FC0000000F8102040F800382838000000000019
:101FD00020202020202020002070F8202020200019
:101FE0002060F868280808002030F8B0A080800041
:101FF000007E0003FFC007FFE00FC3F00F00F01EDC
:1020000000781E00783C003C3C003C3C003C7800E2
:102010001E78001E78001E78001E78001E78001EB4
:1020200078001E78001E78001E78001E78001E784A
:10203000001E3C003C3C003C3C003C1E00781E0066
:10204000780F00F00FC3F007FFE003FFC0007E0031
:1020500000000000FC000FFC003FFC003F3C003093
:102060003C00003C00003C00003C00003C00003C08
:1020700000003C00003C00003C00003C00003C0034
:10208000003C00003C00003C00003C00003C000024
:102090003C00003C00003C00003C00003C00003CD8
:1020A00000003C00003C001FFFF81FFFF81FFFF876
:1020B00003FC003FFF807FFFC07E07E07001F0401F
:1020C00000F0000078000078000078000078000040
:1020D000780000F80000F80001F00001F00003E0D3
:1020E0000007C0000FC0001F80003F00007E0000FE
:1020F000FC0001F80003F00007E0000FC0001F80A3
:10210000003F00007E00007FFFF87FFFF87FFFF8B0
:1021100007FE003FFF803FFFE03C03F02001F0009E
:1021200000F80000780000780000780000780000D7
:10213000F00000F00003E003FFC003FF0003FFC056
:102140000003F00000F800007800007C00003C0074
:10215000003C00003C00003C00003C00007C4000D3
:10216000786000F87C07F07FFFE03FFF8007FC000D
:10217000000000000FC0000FC0001FC0003FC000E3
:102180003BC0007BC000F3C000E3C001E3C003C359
:10219000C00383C00783C00F03C00E03C01E03C06B
:1021A0003C03C03803C07803C0F003C0F003C0FF95
:1021B000FFFCFFFFFCFFFFFC0003C00003C00003A7
:1021C000C00003C00003C00003C00003C00003C080
:1021D0000000003FFFE03FFFE03FFFE03C00003C2D
:1021E00000003C00003C00003C00003C00003C00C3
:1021F000003FFC003FFF003FFFC0380FE02003E03E
:102200000001F00000F00000780000780000780085
:1022100000780000780000780000780000F00001ED
:10222000F04003E0780FE07FFFC07FFF001FF80061
:10223000003FE000FFF803FFF807E0380F80080FC9
:1022400000001E00001E00003C00003C00003C009E
:1022500000787F0079FFC07BFFF07FC1F87F007CB2
:102260007E003C7E003C7C001E7C001E7C001E7CB0
:10227000001E3C001E3C001E3C001E1E003C1E00BA
:102280003C0F00780FC1F807FFF001FFC0007F008E
:102290000000007FFFF87FFFF87FFFF80000F000EC
:1022A00000F00001F00001E00003E00003C00003C3
:1022B000C00007C0000780000F80000F00000F0063
:1022C000001E00001E00003E00003C00003C00001C
:1022D000780000780000F80000F00000F00001E055
:1022E0000001E00003E00003C00003C0000780001D
:1022F00000FF0003FFE00FFFF01F81F81E00783E93
:10230000007C3C003C3C003C3C003C3C003C1E0053
:10231000781E00780F81F007FFE001FF8007FFE0E3
:102320001F81F81E00783C003C7C003E78001E783F
:10233000001E78001E78001E78001E7C003E3C00C7
:102340003C3E007C1F81F80FFFF007FFE000FF001C
:1023500000FE0003FF800FFFE01F83F01E00F03C33
:1023600000783C007878003C78003C78003C7800AD
:102370003E78003E78003E78003E3C007E3C007E89
:102380003E00FE1F83FE0FFFDE03FF9E00FE1E00C9
:10239000003C00003C00003C000078000078000099
:1023A000F01001F01C07E01FFFC01FFF0007FC003A
:1023B00000000000000000001010101010001000BD
:1023C00050500000000000005050F850F8505000ED
:1023D0002078A07028F02000C0C810204098180075
:1023E0006090A040A89068006020400000000000BD
:1023F00010204040402010004020101010204000CD
:102400000020A870A8200000002020F82020000054
:102410000000000060204000000000F80000000004
:1024200000000000006060000000081020408000F4
:10243000708898A8C8887000206020202020700034
:10244000708808102040F800F8102070088870008C
:1024500010305090F8101000F880F00808887000D4
:10246000304080F088887000F8081020404040001C
:10247000708888708888700070888878081060007C
:10248000006060006060000000606000602040004C
:1024900010204080402010000000F800F8000000EC
:1024A000804020102040800070880810200020000C
:1024B0007088B8A8B880700070888888F88888000C
:1024C000F08888F08888F0007088808080887000AC
:1024D000E09088888890E000F88080F08080F800A4
:1024E000F88080F080808000708880B888887800CC
:1024F000888888F888888800702020202020700034
:1025000038101010109060008890A0C0A090880033
:10251000808080808080F80088D8A8A8888888007B
:102520008888C8A8988888007088888888887000FB
:10253000F08888F08080800070888888A890680083
:10254000F08888F0A0908800788080700808F000FB
:10255000F820202020202000888888888888700023
:102560008888888888502000888888A8A8A8500073
:102570008888502050888800888888502020200033
:10258000F80810204080F800704040404040700043
:102590000000804020100800701010101010700013
:1025A0002050880000000000000000000000F8003B
:1025B00030201000000000000000700878887800CB
:1025C0008080B0C88888F00000007080808870002B
:1025D000080868988888780000007088F880700083
:1025E000304840F04040400000007088F80870001B
:1025F0008080B0C88888880020006020202070007B
:102600001000301010906000808090A0C0A090005A
:1026100060202020202070000000D0A8A88888001A
:102620000000B0C888888800000070888888700022
:102630000000F088F08080000000689878080800AA
:102640000000B0C880808000000070807008F0003A
:1026500040E040404048300000008888889868008A
:10266000000088888850200000008888A8A85000B2
:10267000000088502050880000008888780870008A
:102680000000F8102040F8001028100000000000A2
:1026900020202020202020002070F8202020200052
:1026A0002060F868280808002030F8B0A08080007A
:1026B0000D94D91A0D94EC1A0D94781A0D94CD1A24
:1026C0000D94A51A0D948A1B0D948B1A0D94A21BC0
:1026D0002B6A75F95A1311241FBECFEFD1E2DEBF6A
:1026E000CDBF00E00CBF1BE0A0E0B2E0EEEEF0E6F4
:1026F00002E00BBF02C007900D92A638B107D9F7D0
:1027000010E1A6E8BBE001C01D92A934B107E1F7D2
:1027100016E2C6EDD6E200E006C022970109FE01EE
:102720000BBF0F947130C03DD10780E00807A9F7B7
:102730000E94BE680D941C270C9400000F931F93F9
:10274000CF93DF93EC0181E090E00E94A4688C01BC
:102750000E94FBC608831983DF91CF911F910F91CF
:10276000089508958F929F92AF92BF92CF92DF9279
:10277000EF92FF920F931F93CF93DF935C01480179
:10278000062F172F17FF02C000E010E00F3F1105C2
:1027900019F014F00FEF10E0E42EE7017E01F52EA2
:1027A000E701F7FE02C0C0E0D0E0CF3FD10519F04D
:1027B00014F0CFEFD0E0E22EF32EF7FE02C0EE24AD
:1027C000FF245FEFE516F10421F01CF09FEFE92EE6
:1027D000F12C8FEFC82ED12CB601601B710B8DE050
:1027E0000F945016B6016C1B7D0B8AE00F945016A7
:1027F000B6016E197F098BE00F9450168114910475
:1028000021F0F5010283C583E086DF91CF911F910E
:102810000F91FF90EF90DF90CF90BF90AF909F907F
:102820008F9008950F931F9301E010E09BDF1F919D
:102830000F9108958F929F92AF92BF92CF92DF92A5
:10284000EF92FF920F931F93CF93DF936C01580188
:10285000062F172F17FF02C000E010E00F3F1105F1
:1028600019F014F00FEF10E0E42EF52EF7FE02C081
:10287000EE24FF248FEFE816F10421F01CF04FEF57
:10288000E42EF12CE22FEF014E01932EE40197FE8E
:1028900002C0C0E0D0E0CF3FD10519F014F0CFEF77
:1028A000D0E087E0B8010F94501688E0B7010F948C
:1028B000501689E0BE010F945016A114B10421F006
:1028C000F6010387E686C18BDF91CF911F910F91AF
:1028D000FF90EF90DF90CF90BF90AF909F908F9040
:1028E00008950F931F9301E010E0A4DF1F910F9153
:1028F0000895EF92FF920F931F93FC016F3F7105B4
:1029000019F014F06FEF70E04F3F510519F014F01B
:102910004FEF50E0822F932F8F3F910519F014F065
:102920008FEF90E021E0E216F10451F464834783D5
:10293000828782818383858186838085818709C0A0
:102940006587408B838B838584878685878781898C
:10295000828B15AF04AFDF01A05CBF4F1196FC92D4
:10296000EE9217AE16AE10929000809191008560A5
:1029700080939100809191008D7F809391008FEFE3
:102980008093950082E6809394008091710081602D
:1029900080937100C09A1F910F91FF90EF9008955E
:1029A000EF92FF920F931F93CF93DF93EC018DE093
:1029B00061E00F940A178AE061E00F940A178BE038
:1029C00061E00F940A1787E061E00F940A1788E02E
:1029D00061E00F940A1789E061E00F940A171FAEB7
:1029E0001EAE1DAE1CAEFE01EE5BFF4F87EE93E008
:1029F00091838083CE0160E070E040E050E020E011
:102A000030E06FDF8CA59DA5009721F469A54AA54C
:102A10002BA514C08130910521F46D8D4E8D2F8D25
:102A20000DC08230910521F46BA14CA12DA106C0EF
:102A30008330910561F46F89488D298DCE0170E056
:102A400050E030E000E011E0EE24FF2452DF888106
:102A500099810E9465C7DF91CF911F910F91FF90DF
:102A6000EF9008952F923F924F925F926F927F92D4
:102A70008F929F92AF92BF92CF92DF92EF92FF928E
:102A80000F931F93DF93CF9300D00F92CDB7DEB794
:102A90009C838B83FC01E05CFF4F80819181EB8103
:102AA000FC8166AD77AD04AD15AD8130910509F0BF
:102AB000DFC0C380DD24882777FD8095982F0F9491
:102AC000A1294B015C01B801882777FD8095982FDB
:102AD0000F94A1291B012C01EB81FC81648170E022
:102AE0006C197D09882777FD8095982F0F94A1296F
:102AF000A50194010F94322BA20191010F94062994
:102B0000162F072FF82EE92EA8019701652F742F95
:102B1000832F922F20E030E0A9010F942E2B87FD08
:102B20000DC0A8019701652F742F832F922F20E0ED
:102B300030E040E05FE30F9484280CC0A8019701C7
:102B4000652F742F832F922F20E030E040E05FE369
:102B50000F9483280F946E29CB018C0D9D1D9A83B1
:102B60008983EB81FC81C680DD24678170E06C196C
:102B70007D09882777FD8095982F0F94A129A501BD
:102B800094010F94322BA20191010F9406298B011D
:102B9000F82EE92E9701712F832F922F20E030E03D
:102BA000A9010F942E2B87FD0CC09701602F712F68
:102BB000832F922F20E030E040E05FE30F948428E1
:102BC0000BC09701602F712F832F922F20E030E0F0
:102BD00040E05FE30F9483280F946E293B016C0C57
:102BE0007D1CEB81FC81C184DD24628570E06C1961
:102BF0007D09882777FD8095982F0F94A129A5013D
:102C000094010F94322BA20191010F9406298B019C
:102C1000F82EE92E9701712F832F922F20E030E0BC
:102C2000A9010F942E2B87FD0CC09701602F712FE7
:102C3000832F922F20E030E040E05FE30F94842860
:102C40000BC09701602F712F832F922F20E030E06F
:102C500040E05FE30F9483280F946E299B012C0DB5
:102C60003D1D8B819C8169817A81A301DBDDDBC005
:102C7000EB81FC81C484DD24882777FD8095982F23
:102C80000F94A1294B015C01B801882777FD80953D
:102C9000982F0F94A1291B012C01EB81FC816585E4
:102CA00070E06C197D09882777FD8095982F0F9427
:102CB000A129A50194010F94322BA20191010F9437
:102CC00006298B01F82EE92E9701712F832F922F61
:102CD00020E030E0A9010F942E2B87FD0CC0970156
:102CE000602F712F832F922F20E030E040E05FE3D0
:102CF0000F9484280BC09701602F712F832F922F80
:102D000020E030E040E05FE30F9483280F946E29C9
:102D1000CB018C0D9D1D9A838983EB81FC81C78437
:102D2000DD24608970E06C197D09882777FD809526
:102D3000982F0F94A129A50194010F94322BA20181
:102D400091010F9406298B01F82EE92E9701712F1E
:102D5000832F922F20E030E0A9010F942E2B87FDC6
:102D60000CC09701602F712F832F922F20E030E04D
:102D700040E05FE30F9484280BC09701602F712F10
:102D8000832F922F20E030E040E05FE30F94832810
:102D90000F946E293B016C0C7D1CEB81FC81C28879
:102DA000DD24638970E06C197D09882777FD8095A3
:102DB000982F0F94A129A50194010F94322BA20101
:102DC00091010F9406298B01F82EE92E9701712F9E
:102DD000832F922F20E030E0A9010F942E2B87FD46
:102DE0000CC09701602F712F832F922F20E030E0CD
:102DF00040E05FE30F9484280BC09701602F712F90
:102E0000832F922F20E030E040E05FE30F9483288F
:102E10000F946E299B012C0D3D1D8B819C81698136
:102E20007A81A3015EDDEB81FC8186AD97AD24AD97
:102E300035AD8217930754F4019697AF86AF8FEFA5
:102E40008093950082E6809394001FC0809191004A
:102E5000887F80939100EB81FC81E05CFF4F808153
:102E600091818130910549F4EB81FC8184818383D8
:102E7000878186838285818708C0EB81FC81858577
:102E80008487808987878389828B0F900F900F902A
:102E90000F90CF91DF911F910F91FF90EF90DF90F6
:102EA000CF90BF90AF909F908F907F906F905F90EA
:102EB0004F903F902F900895FC0181E046AD57ADB3
:102EC00024AD35AD4217530709F080E008951F92F5
:102ED0000F920FB60F920BB60F9211242F933F93C0
:102EE0004F935F936F937F938F939F93AF93BF9312
:102EF000EF93FF938091980B9091990BB3DDFF9125
:102F0000EF91BF91AF919F918F917F916F915F9161
:102F10004F913F912F910F900BBE0F900FBE0F90CE
:102F20001F9018952F923F924F925F926F927F92CF
:102F30008F929F92AF92BF92CF92DF92EF92FF92C9
:102F40000F931F93DF93CF93CDB7DEB72C970FB6B8
:102F5000F894DEBF0FBECDBF9C878B87E091900BAE
:102F6000F091910BA080B180C280D380C601B501E1
:102F700024E630E040E050E00F943430CA01B9015B
:102F80000F949F290F94DC293B014C0120E030E095
:102F900042E852E40F94FF28882309F4A0C4C60134
:102FA000B50128EE33E040E050E00F943430CA0120
:102FB000B9010F949F290F94DC297B018C0120E03B
:102FC00030E042E852E40F94FF28882309F487C4D4
:102FD000C401B30120E030E044E852E40F94FF283C
:102FE000882309F47FC4C801B70120E030E044E839
:102FF00052E40F94FF28882309F474C4C601B50174
:1030000020E137E240E050E00F943430CA01B901CA
:103010000F949F290F94DC2920E030E044E852E42B
:103020000F94FF28882309F45DC4E091960BF0917A
:10303000970BA281B38112960D911C911397149650
:103040008D919C9115978017910708F064C0169692
:103050008C911697882309F45EC0EB85FC85EE5BA6
:10306000FF4F80819181009709F43FC48130910521
:1030700099F4E091980BF091990B26AD37AD84ADA2
:1030800095AD2817390709F033C4EB85FC85EE5B55
:10309000FF4F118210822CC4E091980BF091990B94
:1030A00084309105D9F426AD37AD84AD95AD2817A0
:1030B000390709F01DC4648945892689CF0170E06C
:1030C00050E030E00FE010E0EE24FF2412DCEB854E
:1030D000FC85EE5BFF4F81E090E01AC026AD37AD76
:1030E00084AD95AD2817390709F002C4CF0165E01A
:1030F00070E045E050E025E030E00FE010E0EE2425
:10310000FF24F7DBEB85FC85EE5BFF4F84E090E06E
:1031100091838083EDC3AB85BC859C968D919C91FA
:103120009D97009791F55D01E2E4F0E0AE0EBF1EC1
:10313000D5018D919C9111978230910509F4D5C3E9
:10314000E091980BF091990B8330910571F426ADC5
:1031500037AD84AD95AD2817390709F0C9C382E0B2
:1031600090E011969C938E93C3C361A542A523A5BD
:10317000CF0170E050E030E00FE010E0EE24FF24DB
:10318000B8DB83E090E0F501C3CF8130910509F011
:1031900041C1848595850E94EBB3AB85BC85D296F1
:1031A0002D913C91D397821793079CF0FD01EE5B24
:1031B000FF4F808191818630910509F44FC190962F
:1031C0006C91909791964C91919792962C919297A1
:1031D0003DC1E091960BF091970B848595850E94F7
:1031E000EBB3EB85FC8524A935A928173907A4F092
:1031F000EE5BFF4F808191818530910509F455C1C7
:10320000AB85BC855D966C915D975E964C915E97A3
:103210005F962C915F9741C1EB85FC8562A973A9EC
:10322000621B730B882777FD8095982F0F94A12937
:103230001B012C01AB85BC8590966C91909770E03A
:103240005D968C91681B7109882777FD8095982F72
:103250000F94A129A20191010F940629662EA72E91
:10326000E82E092FE091960BF091970B84859585B8
:103270000E94EBB3EB85FC8524A935A9BC01621B38
:10328000730B882777FD8095982F0F94A1299B01B8
:10329000AC01662D7A2D8E2D902F0F94322B7B0151
:1032A0008C01AB85BC855D966C9170E0882777FDBD
:1032B0008095982F0F94A1299B01AC01C801B701FB
:1032C0000F9484280F946E2969837A838B839C835F
:1032D000EB85FC8561A170E0868D681B71098827EC
:1032E00077FD8095982F0F94A129A20191010F9449
:1032F0000629662EA72EE82E092FE091960BF09155
:10330000970B848595850E94EBB3AB85BC85D496DD
:103310002D913C91D597BC01621B730B882777FDDB
:103320008095982F0F94A1299B01AC01662D7A2DD1
:103330008E2D902F0F94322B7B018C01EB85FC8519
:10334000668D70E0882777FD8095982F0F94A129CE
:103350009B01AC01C801B7010F9484280F946E291A
:103360006D837E838F839887AB85BC8592966C91A5
:10337000929770E05F968C91681B7109882777FDA2
:103380008095982F0F94A129A20191010F940629ED
:10339000262E672EE82E092FE091960BF091970BC1
:1033A000848595850E94EBB3A090980BB090990B03
:1033B000EB85FC8524A935A9BC01621B730B88270A
:1033C00077FD8095982F0F94A1299B01AC01622D68
:1033D000762D8E2D902F0F94322B7B018C01AB8597
:1033E000BC855F966C9170E0882777FD8095982F5B
:1033F0000F94A1299B01AC01C801B7010F94842847
:103400000F946E298B019C01C50169817A814D81E0
:103410005E8101C18230910509F000C1EB85FC8518
:1034200066A977A90617170700F1EE5BFF4F8081A9
:1034300091818630910591F0AB85BC8596966C9113
:10344000969797964C91979798962C918091980B78
:103450009091990B70E050E030E043DAEB85FC8509
:10346000EE5BFF4F86E090E053CEEB85FC85E0AC51
:10347000F1ACE016F10600F1EE5BFF4F8081918127
:103480008530910591F0AB85BC8593966C919397AF
:1034900094964C91949795962C918091980B90913D
:1034A000990B70E050E030E01CDAEB85FC85EE5BB8
:1034B000FF4F85E090E02CCEEB85FC85A3A0BB24DC
:1034C0006E197F09882777FD8095982F0F94A12981
:1034D0001B012C010E191F09B80180E090E00F9428
:1034E0009F297B018C01AB85BC8594966C91949748
:1034F000E62FF0E0FA83E98395968C919597282F33
:1035000030E03E832D838091980B9091990B9A87A0
:10351000898796966C9170E06A197B09882777FDF8
:103520008095982F0F94A129A20191010F9406294B
:10353000A80197010F94322B3B014C01B50188275C
:1035400077FD8095982F0F94A1299B01AC01C401B0
:10355000B3010F9484280F946E293B014C01AB8575
:10356000BC8597966C9170E0E981FA816E1B7F0BA8
:10357000882777FD8095982F0F94A129A2019101AA
:103580000F940629A80197010F94322B5B016C015F
:1035900029813A81B901882777FD8095982F0F946A
:1035A000A1299B01AC01C601B5010F9484280F9499
:1035B0006E295B016C01AB85BC8598966C9170E0BF
:1035C000ED81FE816E1B7F0B882777FD8095982FFC
:1035D0000F94A129A20191010F940629A801970136
:1035E0000F94322B7B018C012D813E81B9018827FC
:1035F00077FD8095982F0F94A1299B01AC01C801FC
:10360000B7010F9484280F946E298B019C01898542
:103610009A85B301A501980164D96AC183309105E7
:1036200009F066C1808591850E94D5C9AB85BC85AE
:103630009E962D913C919F9782179307FCF0FD0178
:10364000EE5BFF4F808191818630910581F05A9623
:103650006C915A975B964C915B975C962C918091FC
:10366000980B9091990B70E050E030E03AD9EB85DF
:10367000FC85EE5BFF4F86E090E02EC0E091960B5C
:10368000F091970B808591850E94D5C9EB85FC85CB
:1036900020A931A92817390714F1EE5BFF4F80816B
:1036A00091818530910591F0AB85BC8557966C91E1
:1036B000579758964C91589759962C918091980B02
:1036C0009091990B70E050E030E00BD9EB85FC85D0
:1036D000EE5BFF4F85E090E09183808306C1EB8530
:1036E000FC8566A577A5621B730B882777FD8095FF
:1036F000982F0F94A1291B012C01AB85BC855A96EC
:103700006C915A9770E057968C91681B71098827C5
:1037100077FD8095982F0F94A129A20191010F9414
:103720000629662EA72EE82E092FE091960BF09120
:10373000970B808591850E94D5C9EB85FC8520A9D2
:1037400031A9BC01621B730B882777FD8095982FE8
:103750000F94A1299B01AC01662D7A2D8E2D902FFF
:103760000F94322B7B018C01AB85BC8557966C91F5
:1037700070E0882777FD8095982F0F94A1299B01F1
:10378000AC01C801B7010F9484280F946E29698396
:103790007A838B839C83EB85FC85638D70E0808DC1
:1037A000681B7109882777FD8095982F0F94A129B0
:1037B000A20191010F940629662EA72EE82E092F4B
:1037C000E091960BF091970B808591850E94D5C969
:1037D000AB85BC85D0962D913C91D197BC01621BE5
:1037E000730B882777FD8095982F0F94A1299B0153
:1037F000AC01662D7A2D8E2D902F0F94322B7B01EC
:103800008C01EB85FC85608D70E0882777FD8095C5
:10381000982F0F94A1299B01AC01C801B7010F9407
:1038200084280F946E296D837E838F839887AB8560
:10383000BC855C966C915C9770E059968C91681B86
:103840007109882777FD8095982F0F94A129A201EF
:1038500091010F940629262E672EE82E092FE0915C
:10386000960BF091970B808591850E94D5C9A09009
:10387000980BB090990BEB85FC8520A931A9BC0170
:10388000621B730B882777FD8095982F0F94A129D1
:103890009B01AC01622D762D8E2D902F0F94322B33
:1038A0007B018C01AB85BC8559966C9170E08827B3
:1038B00077FD8095982F0F94A1299B01AC01C80139
:1038C000B7010F9484280F946E298B019C01C501C8
:1038D00069817A814D815E81980103D806C02FEFFE
:1038E0003FEF08C02EEF3FEF05C020E030E002C000
:1038F00021E030E0C9012C960FB6F894DEBF0FBE70
:10390000CDBFCF91DF911F910F91FF90EF90DF908E
:10391000CF90BF90AF909F908F907F906F905F906F
:103920004F903F902F9008958F929F92AF92BF92A9
:10393000CF92DF92EF92FF920F931F93DF93CF937B
:10394000CDB7DEB78B01ADB6BEB68BE090E10F947C
:10395000CD1A8BE090E1B8010F94C11B68EC70E0C8
:1039600080E090E00F9489158BE090E10F94781A35
:103970008430910581F58DB69EB600D00F92CDB6FC
:10398000DEB60894C11CD11C760100E010E08BE08B
:1039900090E10F94A51AF70181937F010F5F1F4FEC
:1039A00004301105A1F7F60180818F3469F481811B
:1039B0008B3451F4882D992D0FB6F8949EBF0FBE0D
:1039C0008DBF20E030E009C0882D992D0FB6F89406
:1039D0009EBF0FBE8DBF21E030E0C9010FB6F89445
:1039E000BEBE0FBEADBECF91DF911F910F91FF9074
:1039F000EF90DF90CF90BF90AF909F908F90089501
:103A00008F929F92AF92BF92CF92DF92EF92FF92EE
:103A10000F93DF93CF93CDB7DEB766970FB6F894C9
:103A2000DEBF0FBECDBF6C0180918E0B90918F0BCE
:103A30000F9464037E010894E11CF11CC70160E04F
:103A400072E00F949527E091920BF091930BE45361
:103A5000FF4F6081718180918E0B90918F0BA70138
:103A600020E000E00F948F0E00D000D0EDB7FEB73D
:103A70003196ADB7BEB71296FC92EE92119765E102
:103A8000862E62E0962E938282825DE0A52EB12C76
:103A9000B582A4820F9454288DB79EB706960FB6B0
:103AA000F8949EBF0FBE8DBFC601B7013DDF0097E2
:103AB00009F0BBC0C7016CE172E00F949527E0915B
:103AC000920BF091930BE453FF4F608171818091D1
:103AD0008E0B90918F0BA70120E001E00F948F0EC9
:103AE000C7016FE172E00F949527E091920BF0917E
:103AF000930BE453FF4F6081718180918E0B909105
:103B00008F0BA70120E002E00F948F0EADB7BEB778
:103B100018970FB6F894BEBF0FBEADBFEDB7FEB796
:103B200031961296FC92EE9211978BE292E093837B
:103B30008283D601DA968D919C91DB97958384835D
:103B4000B782A6820F9454288DB79EB708960FB6F9
:103B5000F8949EBF0FBE8DBFC601B701E5DE00978A
:103B600009F07CC0C7016CE172E00F949527E091E9
:103B7000920BF091930BE453FF4F60817181809120
:103B80008E0B90918F0BA70120E003E00F948F0E16
:103B9000C70166E372E00F949527E091920BF091D4
:103BA000930BE453FF4F6081718180918E0B909154
:103BB0008F0BA70120E004E00F948F0E00D000D0FF
:103BC000EDB7FEB73196ADB7BEB71296FC92EE9246
:103BD000119793828282B582A4820F9454288DB764
:103BE0009EB706960FB6F8949EBF0FBE8DBFC60156
:103BF000B7019ADE009791F5C7016CE172E00F946E
:103C00009527E091920BF091930BE453FF4F608165
:103C1000718180918E0B90918F0BA70120E005E0C0
:103C20000F948F0E20E030E01AC0C7016CE472E000
:103C30000F949527E091920BF091930BE453FF4F73
:103C40006081718180918E0B90918F0BA70120E094
:103C500001E00F948F0E2FEF3FEF01C001C0C901AB
:103C600066960FB6F894DEBF0FBECDBFCF91DF9141
:103C70000F91FF90EF90DF90CF90BF90AF909F900B
:103C80008F90089508950895EF92FF920F931F93D8
:103C9000CF93DF93EC0185E00F94C117813091053C
:103CA00039F40F94551569877A878B879C8715C0DF
:103CB0000097A9F5E984FA840B851C8588EE93E0CA
:103CC000A0E0B0E0E80EF91E0A1F1B1F0F94551567
:103CD0006E157F058007910710F58C81882311F5FB
:103CE00081E08C83E091920BF091930BE259FF4FAE
:103CF000E080F18002811381E091960BF091970BA7
:103D0000848595850E94EBB3ED82FE820F83188730
:103D100009C01C821D821E821F82188603C08C81EE
:103D20008823B9F7DF91CF911F910F91FF90EF900A
:103D30000895FC01458356836783708721353105DB
:103D400074F082819381AA2797FDA095BA2F840FE2
:103D5000951FA61FB71F85839683A783B0870895F5
:103D6000EF92FF920F931F93FC017A018B018081E8
:103D70009181AA2797FDA095BA2F25813681478189
:103D80005085820F931FA41FB51F8E159F05A00796
:103D9000B10710F4848101C080E01F910F91FF9062
:103DA000EF900895CF93DF93EC0185E060E00F94EE
:103DB0000A178091880B9091890B60EC71E00E944A
:103DC000404119861A861B861C861B821A82DF9147
:103DD000CF91089508950895FC01DB0180819181C0
:103DE0002D913C9111972817390739F080819181E5
:103DF00011969C938E9381E0089580E00895862F1C
:103E00006AE00F9401308295807F890F0895962F84
:103E100092959F70990F292F220F220F290F862F1D
:103E20008F70820F08954F925F926F927F928F9260
:103E30009F92AF92BF92CF92DF92EF92FF920F9339
:103E40001F93DF93CF93CDB7DEB73C01290177FDF8
:103E500003C0FC017387628757FD03C0F3015187DC
:103E60004087F4E08F16910418F4F3019786868654
:103E700017FD0BC0F30186859785800F911F68E1C0
:103E800070E00F94213095838483F7FC03C0F30125
:103E9000F382E282F301808191818C199D098B303C
:103EA000910544F4808191818C199D09FFEF863F33
:103EB0009F072CF4D7FC03C0F301D182C082B7FC6A
:103EC00003C0F301B586A48657FC23C0F3018481A7
:103ED000958126853785820F931F68E170E00F94E6
:103EE0000D3080E090E00F949F290F94DC296B0146
:103EF0007C01B201882777FD8095982F0F94A12926
:103F0000A70196010F9484280F947329F3017783F6
:103F10006683CF91DF911F910F91FF90EF90DF901B
:103F2000CF90BF90AF909F908F907F906F905F9059
:103F30004F900895FC011386128611861086178211
:103F400016821582148213821282118210821786C1
:103F500016868091880B9091890B62ED71E00C942C
:103F60004041FC01868197816085718544E650E07F
:103F7000649F9001659F300D749F300D1124280FB0
:103F8000391FC9010895CF93DF93EC014A855B8502
:103F9000888599852E813F81840F951F820F931FFD
:103FA000009771F16A857B8580E090E024E630E03F
:103FB00040E050E00F94E22F2885398540E050E042
:103FC000620F731F841F951F24E630E040E050E02D
:103FD0000F94E22F9B01AC018E819F81A0E0B0E0A5
:103FE000280F391F4A1F5B1F203080E238078FE0FF
:103FF000480780E0580740F020E030E0A90104C005
:104000002FE332E44FE050E0B901CA01DF91CF91D4
:104010000895FC01868597850895FC0120813181F2
:10402000C9010895FC01808191810196918380836B
:10403000808191818C339105D1F41182108282812B
:104040009381019693838283828193818C3391053E
:1040500071F4138212828481958101969583848301
:10406000848195818831910511F415821482089517
:104070000F931F93CF93DF93FC0184819581C281BD
:10408000D381008111812DB73EB72A5030400FB641
:10409000F8943EBF0FBE2DBFEDB7FEB73196ADB75A
:1040A000BEB712967C936E93119729E532E0338365
:1040B000228324E630E0B9010F940D309583848388
:1040C000CE01B9010F940D3097838683C801B901E1
:1040D0000F940D30918780870F9454282DB73EB7E9
:1040E000265F3F4F0FB6F8943EBF0FBE2DBFDF9146
:1040F000CF911F910F91089525E43BE0FC0131839E
:1041000020832581222311F00C9420E60895089540
:10411000CF93DF93C0E0D0E22197CE010F94E92541
:104120000097D1F30F9483268BE090E1BE014AE023
:1041300050E00F94EC1C8091880B9091890B6BE000
:104140007CE00E944041DF91CF91089508952F9225
:104150003F924F925F926F927F928F929F92AF9217
:10416000BF92CF92DF92EF92FF920F931F93DF9354
:10417000CF93CDB7DEB7C959D0400FB6F894DEBFA4
:104180000FBECDBFCC56DF4F99838883C459D04032
:104190008B01E091960BF091970B0680F781E02D53
:1041A000E75EFE4F84E090E09183808360918A0B0C
:1041B00070918B0BDB018C91882311F00C94352FBF
:1041C00085E090E091838083CC56DF4FA881B98150
:1041D000C459D0408C91882311F40C94352F86E07B
:1041E00090E09183808385E49BE09A8389831B829E
:1041F0001E829F8F8E8F18A21BA29CAF8BAF1DAE0D
:10420000FE01E05CFF4F10826A5F7F4F7E010894E1
:10421000E11CF11CC7010E943FE088E692E0B80172
:104220004AE050E00F949C27009709F056C1CC5605
:10423000DF4FE881F981C459D0408081882309F497
:104240004CC12BE3822E912C8C0E9D1EC401B70114
:1042500043E752E021E00E94D7EB882339F48091B4
:10426000880B9091890B60EF7BE057C19EE1C92ECE
:10427000D12CCC0EDD1EC601B401A80122E50E949E
:10428000D7EB882329F48BE090E16AE772E0B7C2AC
:104290008E01085A1F4F83E2D8011D928A95E9F7D3
:1042A000C80161EC7BE00F94492780918A0B9091C3
:1042B0008B0BB601A8010E9458B1E091960BF091CA
:1042C000970B808191814DDE00D000D0EDB7FEB715
:1042D0003196ADB7BEB712961C930E93119727E88F
:1042E00032E033832283958384830F945428EDB77F
:1042F000FEB736960FB6F894FEBF0FBEEDBF8091A5
:104300008A0B90918B0BB601A8010E9458B181E0F5
:10431000E82EF12CB02E812E0BE8602E02E0702EDC
:10432000C601DC2CC92E17E9412E12E0512EB9EA44
:104330002B2EB2E03B2E01C078018091920B909120
:10434000930BF7013C96EE0FFF1FE80FF91F20813A
:10435000318141E02F35340724F0A8ECB0E0B1837F
:10436000A08387010F5F1F4FEDB7FEB738970FB6D9
:10437000F894FEBF0FBEEDBF3196ADB7BEB7119634
:10438000BC92119712968C92738262821583048379
:10439000D7011C96AA0FBB1FA80FB91F8D919C9126
:1043A00068EE73E00F942130978386830F9454282E
:1043B000EDB7FEB738960FB6F894FEBF0FBEEDBF4F
:1043C00080918A0B90918B0B6D2D7C2D4B2D582D50
:1043D0000E9458B12DB73EB72A5030400FB6F8941E
:1043E0003EBF0FBE2DBFEDB7FEB73196ADB7BEB71E
:1043F0001196BC92119712968C9253824282158329
:104400000483A091920BB091930BEE0CFF1CEE0C69
:10441000FF1CAE0DBF1D9A968D919D910D90BC9184
:10442000A02D86839783A087B1870F945428EDB77A
:10443000FEB73A960FB6F894FEBF0FBEEDBF80915F
:104440008A0B90918B0B6D2D7C2D4B2D582D0E943E
:1044500058B12DB73EB72A5030400FB6F8943EBF42
:104460000FBE2DBFEDB7FEB73196ADB7BEB71196F3
:10447000BC92119712968C92338222821583048308
:10448000A091920BB091930BAE0DBF1DA25BBF4FDD
:104490008D919D910D90BC91A02D86839783A087CF
:1044A000B1870F945428EDB7FEB73A960FB6F8943B
:1044B000FEBF0FBEEDBF80918A0B90918B0B6D2DCF
:1044C0007C2D4B2D582D0E9458B10930110509F053
:1044D00033CF8D2D9C2D0C94152F88EB92E0B801D5
:1044E00048E050E00F949C27009709F0BDC05BE3C3
:1044F000E52EF12CEC0EFD1EC701BE016F5F7F4F54
:1045000043E752E021E00E94D7EB882361F48091D9
:10451000880B9091890B66EA7BE00E9440410FEF87
:104520001FEF0C94282F4EE1C42ED12CCC0EDD1E93
:10453000C601B701A80122E50E94D7EB882329F420
:104540008BE090E161EC72E05AC18E01085A1F4F76
:1045500084E1F80111928A95E9F7C80167E77BE0E9
:104560000F94492780918A0B90918B0BB601A8017B
:104570000E9458B1E091960BF091970B8081918148
:10458000F0DC00D000D0EDB7FEB73196ADB7BEB7C6
:1045900012961C930E93119727E832E033832283FF
:1045A000958384830F945428EDB7FEB736960FB6E3
:1045B000F894FEBF0FBEEDBF80918A0B90918B0BDC
:1045C000B601A8010E9458B131E0E32EF12C802EF3
:1045D000B12E0EEC12E04C2C2DB73EB728503040D7
:1045E0000FB6F8943EBF0FBE2DBFEDB7FEB73196A4
:1045F000ADB7BEB711968C9211971296BC921383E9
:104600000283F582E482A091960BB091970B5096AD
:104610000D90BC91A02DC701880F991FA80FB91F3D
:104620008D919C91978386830F945428EDB7FEB7A4
:1046300038960FB6F894FEBF0FBEEDBF80918A0B7F
:1046400090918B0B642D7D2D482D5B2D0E9458B1D0
:104650000894E11CF11CF7E0EF16F10409F0BCCF5F
:10466000842D9D2D0C94152FF80186818E3209F032
:1046700093C08781873409F08FC08085803509F029
:104680008BC08185833509F087C080918A0B90911A
:104690008B0B0E9467B164E170E080E090E00F94C2
:1046A000891580918A0B90918B0B0E9468B1EBE386
:1046B000EE2EF12CEC0EFD1EC701BE016F5F7F4F89
:1046C0004DED52E021E00E94D7EB882339F4809130
:1046D000880B9091890B6CE57BE01FCF7EE1C72EA4
:1046E000D12CCC0EDD1EC601B701A80126E40E9424
:1046F000D7EB8823A1F48BE090E161EE72E00F9498
:10470000C11BE091960BF091970B0680F781E02D8D
:10471000E75EFE4F8EEF9FEF9183808372C0E09142
:10472000960BF091970B0680F781E02DE75EFE4F28
:1047300087E090E091838083CE01885A9F4F2CE3DD
:10474000DC011D922A95E9F700E010E0B82EE92E71
:10475000C601DC2CC92EE091960BF091970B868157
:1047600097816B2D7E2DA8010E944C6797FF02C098
:104770000C94522F80918A0B90918B0B6D2D7C2D78
:104780004B2D5E2D0E9458B10F5F1F4F043611054F
:1047900011F40C94522FDFCF8EEE92E0B80148E076
:1047A00050E00F949C27009711F00C941E2F6BE3A0
:1047B000C62ED12CCC0EDD1EC601BE016F5F7F4F11
:1047C00043E752E021E00E94D7EB882339F480913F
:1047D000880B9091890B61E47BE09FCE5EE1E52E32
:1047E000F12CEC0EFD1EC701B601A80122E50E94C6
:1047F000D7EB882351F48BE090E167EF72E00F94E0
:10480000C11B0EEF1FEF0C94282F8E01085A1F4F6B
:104810008DE2F80111928A95E9F7C80162E17BE027
:104820000F94492780918A0B90918B0BB701A801B7
:104830000E9458B1E091960BF091970B8081918185
:1048400090DB00D000D0EDB7FEB73196ADB7BEB764
:1048500012961C930E93119747E8C42E42E0D42E73
:10486000D382C282958384830F945428EDB7FEB718
:1048700036960FB6F894FEBF0FBEEDBF80918A0B3F
:1048800090918B0BB701A8010E9458B1C80169E053
:104890007BE00F94492780918A0B90918B0BB70195
:1048A000A8010E9458B140918E0B50918F0B495F27
:1048B0005F4F80918A0B90918B0BB7010E9458B18A
:1048C00080918A0B90918B0BB70144E053E00E94DA
:1048D00058B1C80160E07BE00F94492780918A0BB2
:1048E00090918B0BB701A8010E9458B100D000D065
:1048F000EDB7FEB73196ADB7BEB712961C930E93C7
:104900001197D382C282A091960BB091970B149607
:104910000D90BC91A02D8D919C9130E1232E37E21A
:10492000332EB1010F942130958384830F94542842
:10493000EDB7FEB736960FB6F894FEBF0FBEEDBFCB
:1049400080918A0B90918B0BB701A8010E9458B1FE
:10495000C80162EF7AE00F94492780918A0B909109
:104960008B0BB701A8010E9458B100D000D0EDB761
:10497000FEB73196ADB7BEB712961C930E93119742
:10498000D382C282A091960BB091970B14960D9092
:10499000BC91A02D12968D919C911397B1010F940B
:1049A0002130958384830F945428EDB7FEB7369653
:1049B0000FB6F894FEBF0FBEEDBF80918A0B9091A9
:1049C0008B0BB701A8010E9458B1C80160EE7AE0D4
:1049D0000F94492780918A0B90918B0BB701A80106
:1049E0000E9458B100D000D0EDB7FEB73196ADB7F8
:1049F000BEB712961C930E931197D382C282A091D8
:104A0000960BB091970B1A960D90BC91A02D149611
:104A10008D919C91159768EE73E00F9421309583EA
:104A200084830F945428EDB7FEB736960FB6F894EA
:104A3000FEBF0FBEEDBF80918A0B90918B0BB7012B
:104A4000A8010E9458B1C8016FEC7AE00F94492781
:104A500080918A0B90918B0BB701A8010E9458B1ED
:104A600000D000D0EDB7FEB73196ADB7BEB7129605
:104A70001C930E931197D382C282A091960BB09192
:104A8000970B1A960D90BC91A02D16968D919C9126
:104A90001797B1010F942130958384830F94542884
:104AA000EDB7FEB736960FB6F894FEBF0FBEEDBF5A
:104AB00080918A0B90918B0BB701A8010E9458B18D
:104AC000C80160EC7AE00F94492780918A0B90919D
:104AD0008B0BB701A8010E9458B1E091960BF091A1
:104AE000970B0484F585E02D82809380A480B580A7
:104AF000C501B4010F94DC29CA56DF4F688379835E
:104B00008A839B83C659D040C501B40120E030E0C0
:104B100048EC52E40F94322B0F94DC292B013C011A
:104B20002DB73EB7285030400FB6F8943EBF0FBEA9
:104B30002DBF8DB69EB60894811C911CADB7BEB733
:104B400012961C930E93119787E093E0F4019383E0
:104B50008283CA56DF4F688179818A819B81C659D9
:104B6000D0400F946E29D40115967C936E931497C0
:104B7000C301B2010F946E29CB0164E670E00F947B
:104B80002130F401978386830F9454282DB73EB7C4
:104B9000285F3F4F0FB6F8943EBF0FBE2DBF8091E8
:104BA0008A0B90918B0BB701A8010E9458B1C801E4
:104BB00062EB7AE00F94492780918A0B90918B0BDE
:104BC000B701A8010E9458B100D000D0EDB7FEB7E0
:104BD0003196ADB7BEB712961C930E931197D38240
:104BE000C282A091960BB091970B1C960D90BC9130
:104BF000A02D8D919C9168EE73E00F9421309583E8
:104C000084830F945428EDB7FEB736960FB6F89408
:104C1000FEBF0FBEEDBF80918A0B90918B0BB70149
:104C2000A8010E9458B1C80164EA7AE00F944927AC
:104C300080918A0B90918B0BB701A8010E9458B10B
:104C400000D000D0ADB7BEB71196EDB7FEB7128356
:104C500001831396DC92CE921297E091920BF09121
:104C6000930BEE58FF4F8081918115969C938E9304
:104C700014970F9454282DB73EB72A5F3F4F0FB6B5
:104C8000F8943EBF0FBE2DBF80918A0B90918B0B85
:104C9000B701A8010E9458B1C80162E97AE00F94F7
:104CA000492780918A0B90918B0BB701A8010E9434
:104CB00058B100D000D0EDB7FEB73196ADB7BEB752
:104CC00012961C930E931197D382C282A091960BD9
:104CD000B091970B16960D90BC91A02DAE5EBE4F75
:104CE0008D919C912AE0822E912CB4010F94213059
:104CF000958384830F945428EDB7FEB736960FB68C
:104D0000F894FEBF0FBEEDBF80918A0B90918B0B84
:104D1000B701A8010E9458B1C80167E87AE00F9472
:104D2000492780918A0B90918B0BB701A8010E94B3
:104D300058B100D000D0EDB7FEB73196ADB7BEB7D1
:104D400012961C930E931197D382C282A0918C0B62
:104D5000B0918D0B11968D919C911297B4010F9487
:104D60002130958384830F945428EDB7FEB736968F
:104D70000FB6F894FEBF0FBEEDBF80918A0B9091E5
:104D80008B0BB701A8010E9458B1C8016DE77AE00A
:104D90000F94492780918A0B90918B0BB701A80142
:104DA0000E9458B100D000D0EDB7FEB73196ADB734
:104DB000BEB712961C930E931197D382C282A09114
:104DC000960BB091970B52960D90BC91A02D8D91A2
:104DD0009C91B1010F942130958384830F945428C2
:104DE000EDB7FEB736960FB6F894FEBF0FBEEDBF17
:104DF00080918A0B90918B0BB701A8010E9458B14A
:104E0000C80163E77AE00F94492780918A0B90915B
:104E10008B0BB701A8010E9458B100D000D0EDB7AC
:104E2000FEB73196ADB7BEB712961C930E9311978D
:104E3000D382C282A091960BB091970B12960D90DF
:104E4000BC91A02D14968D919C9115979583848388
:104E50000F945428EDB7FEB736960FB6F894FEBF00
:104E60000FBEEDBF80918A0B90918B0BB701A8010B
:104E70000E9458B1C80166E67AE00F9449278091F4
:104E80008A0B90918B0BB701A8010E9458B1E09159
:104E9000960BF091970B0280F381E02D8681882399
:104EA00021F0C8016EE073E003C0C80161E173E066
:104EB0000F9495279EE1E92EF12CEC0EFD1E8E013C
:104EC000085A1F4F80918A0B90918B0BB701A80154
:104ED0000E9458B1C8016EE57AE00F94492780918D
:104EE0008A0B90918B0BB701A8010E9458B100D09A
:104EF00000D0EDB7FEB73196ADB7BEB712961C9392
:104F00000E93119787E8C82E82E0D82ED382C282F2
:104F1000A091980BB091990BD8968D919C91D997AF
:104F2000958384830F945428EDB7FEB736960FB659
:104F3000F894FEBF0FBEEDBF80918A0B90918B0B52
:104F4000B701A8010E9458B1C80166E57AE00F9444
:104F5000492780918A0B90918B0BB701A8010E9481
:104F600058B100D000D0EDB7FEB73196ADB7BEB79F
:104F700012961C930E931197D382C282A091980B24
:104F8000B091990BD6968D919C91D79795838483F8
:104F90000F945428EDB7FEB736960FB6F894FEBFBF
:104FA0000FBEEDBF80918A0B90918B0BB701A801CA
:104FB0000E9458B1C8016DE47AE00F9449278091AE
:104FC0008A0B90918B0BB701A8010E9458B100D0B9
:104FD00000D0EDB7FEB73196ADB7BEB712961C93B1
:104FE0000E931197D382C282A091980BB091990B26
:104FF000D0968D919C91D197958384830F9454285A
:10500000EDB7FEB736960FB6F894FEBF0FBEEDBFF4
:1050100080918A0B90918B0BB701A8010E9458B127
:10502000C80164E47AE00F94492780918A0B90913B
:105030008B0BB701A8010E9458B100D000D0EDB78A
:10504000FEB73196ADB7BEB712961C930E9311976B
:10505000D382C282A091980BB091990B9E968D91AC
:105060009C919F97958384830F945428EDB7FEB746
:1050700036960FB6F894FEBF0FBEEDBF80918A0B37
:1050800090918B0BB701A8010E9458B1C8016BE346
:105090007AE00F94492780918A0B90918B0BB7018E
:1050A000A8010E9458B100D000D0EDB7FEB73196EC
:1050B000ADB7BEB712961C930E931197D382C282DE
:1050C000A091980BB091990BD4968D919C91D59706
:1050D000958384830F945428EDB7FEB736960FB6A8
:1050E000F894FEBF0FBEEDBF80918A0B90918B0BA1
:1050F000B701A8010E9458B1C80162E37AE00F9499
:10510000492780918A0B90918B0BB701A8010E94CF
:1051100058B100D000D0EDB7FEB73196ADB7BEB7ED
:1051200012961C930E931197D382C282A091980B72
:10513000B091990BD2968D919C91D397958384834E
:105140000F945428EDB7FEB736960FB6F894FEBF0D
:105150000FBEEDBF80918A0B90918B0BB701A80118
:105160000E9458B1C80168E27AE00F944927809103
:105170008A0B90918B0BB701A8010E9458B100D007
:1051800000D0EDB7FEB73196ADB7BEB712961C93FF
:105190000E931197D382C282A091980BB091990B74
:1051A00012968C91848315820F945428EDB7FEB724
:1051B00036960FB6F894FEBF0FBEEDBF80918A0BF6
:1051C00090918B0BB701A8010E9458B1C8016EE104
:1051D0007AE00F94492780918A0B90918B0BB7014D
:1051E000A8010E9458B100D000D0EDB7FEB73196AB
:1051F000ADB7BEB712961C930E931197D382C2829D
:10520000A091980BB091990B15968C91848315827F
:105210000F945428EDB7FEB736960FB6F894FEBF3C
:105220000FBEEDBF80918A0B90918B0BB701A80147
:105230000E9458B1C80164E17AE00F944927809137
:105240008A0B90918B0BB701A8010E9458B100D036
:1052500000D0EDB7FEB73196ADB7BEB712961C932E
:105260000E931197D382C282A091980BB091990BA3
:1052700018968C91848315820F945428EDB7FEB74D
:1052800036960FB6F894FEBF0FBEEDBF80918A0B25
:1052900090918B0BB701A8010E9458B1C80162E040
:1052A0007AE00F94492780918A0B90918B0BB7017C
:1052B000A8010E9458B100D000D0EDB7FEB73196DA
:1052C000ADB7BEB712961C930E931197D382C282CC
:1052D000A091980BB091990B99968C91848315822B
:1052E0000F945428EDB7FEB736960FB6F894FEBF6C
:1052F0000FBEEDBF80918A0B90918B0BB701A80177
:105300000E9458B1C80160EF79E00F94492780915D
:105310008A0B90918B0BB701A8010E9458B100D065
:1053200000D0EDB7FEB73196ADB7BEB712961C935D
:105330000E931197D382C282A091980BB091990BD2
:105340009A968C91848315820F945428EDB7FEB7FA
:1053500036960FB6F894FEBF0FBEEDBF80918A0B54
:1053600090918B0BB701A8010E9458B1C8016EED56
:1053700079E00F94492780918A0B90918B0BB701AC
:10538000A8010E9458B100D000D0EDB7FEB7319609
:10539000ADB7BEB712961C930E931197D382C282FB
:1053A000A091980BB091990B9B968C918483158258
:1053B0000F945428EDB7FEB736960FB6F894FEBF9B
:1053C0000FBEEDBF80918A0B90918B0BB701A801A6
:1053D0000E9458B1C8016AEC79E00F944927809186
:1053E0008A0B90918B0BB701A8010E9458B100D095
:1053F00000D0EDB7FEB73196ADB7BEB712961C938D
:105400000E931197D382C282A091980BB091990B01
:1054100093968C91848315820F945428EDB7FEB730
:1054200036960FB6F894FEBF0FBEEDBF80918A0B83
:1054300090918B0BB701A8010E9458B1C80166EB8F
:1054400079E00F94492780918A0B90918B0BB701DB
:10545000A8010E9458B100D000D0EDB7FEB7319638
:10546000ADB7BEB712961C930E931197D382C2822A
:10547000A091980BB091990B94968C91848315828E
:105480000F945428EDB7FEB736960FB6F894FEBFCA
:105490000FBEEDBF80918A0B90918B0BB701A801D5
:1054A0000E9458B1C80162EA79E00F9449278091BF
:1054B0008A0B90918B0BB701A8010E9458B100D0C4
:1054C00000D0EDB7FEB73196ADB7BEB712961C93BC
:1054D0000E931197D382C282A091980BB091990B31
:1054E00095968C91848315820F945428EDB7FEB75E
:1054F00036960FB6F894FEBF0FBEEDBF80918A0BB3
:1055000090918B0BB701A8010E9458B1C80160E9C6
:1055100079E00F94492780918A0B90918B0BB7010A
:10552000A8010E9458B100D000D0EDB7FEB7319667
:10553000ADB7BEB712961C930E931197D382C28259
:10554000A091980BB091990B96968C9184831582BB
:105550000F945428EDB7FEB736960FB6F894FEBFF9
:105560000FBEEDBF80918A0B90918B0BB701A80104
:105570000E9458B1C8016EE779E00F9449278091E5
:105580008A0B90918B0BB701A8010E9458B100D0F3
:1055900000D0EDB7FEB73196ADB7BEB712961C93EB
:1055A0000E931197D382C282A091980BB091990B60
:1055B00097968C91848315820F945428EDB7FEB78B
:1055C00036960FB6F894FEBF0FBEEDBF80918A0BE2
:1055D00090918B0BB701A8010E9458B1C8016CE6ED
:1055E00079E00F94492780918A0B90918B0BB7013A
:1055F000A8010E9458B100D000D0EDB7FEB7319697
:10560000ADB7BEB712961C930E931197D382C28288
:10561000A091980BB091990B98968C9184831582E8
:105620000F945428EDB7FEB736960FB6F894FEBF28
:105630000FBEEDBF80918A0B90918B0BB701A80133
:105640000E9458B1C80167E579E00F94492780911D
:105650008A0B90918B0BB701A8010E9458B100D022
:1056600000D0EDB7FEB73196ADB7BEB712961C931A
:105670000E931197D382C282A091980BB091990B8F
:105680005D968C91848315820F945428EDB7FEB7F4
:1056900036960FB6F894FEBF0FBEEDBF80918A0B11
:1056A00090918B0BB701A8010E9458B1C80162E428
:1056B00079E00F94492780918A0B90918B0BB70169
:1056C000A8010E9458B100D000D0EDB7FEB73196C6
:1056D000ADB7BEB712961C930E931197D382C282B8
:1056E000A091980BB091990B5E968C918483158252
:1056F0000F945428EDB7FEB736960FB6F894FEBF58
:105700000FBEEDBF80918A0B90918B0BB701A80162
:105710000E9458B1C8016DE279E00F944927809149
:105720008A0B90918B0BB701A8010E9458B100D051
:1057300000D0EDB7FEB73196ADB7BEB712961C9349
:105740000E931197D382C282A091980BB091990BBE
:105750005F968C91848315820F945428EDB7FEB721
:1057600036960FB6F894FEBF0FBEEDBF80918A0B40
:1057700090918B0BB701A8010E9458B1C8016AE152
:1057800079E00F94492780918A0B90918B0BB70198
:10579000A8010E9458B100D000D0EDB7FEB73196F5
:1057A000ADB7BEB712961C930E931197D382C282E7
:1057B000A091980BB091990B90968C91848315824F
:1057C0000F945428EDB7FEB736960FB6F894FEBF87
:1057D0000FBEEDBF80918A0B90918B0BB701A80192
:1057E0000E9458B1C80167E079E00F944927809181
:1057F0008A0B90918B0BB701A8010E9458B100D081
:1058000000D0EDB7FEB73196ADB7BEB712961C9378
:105810000E931197D382C282A091980BB091990BED
:1058200091968C91848315820F945428EDB7FEB71E
:1058300036960FB6F894FEBF0FBEEDBF80918A0B6F
:1058400090918B0BB701A8010E9458B1C80164EF79
:1058500078E00F94492780918A0B90918B0BB701C8
:10586000A8010E9458B100D000D0EDB7FEB7319624
:10587000ADB7BEB712961C930E931197D382C28216
:10588000A091980BB091990B92968C91848315827C
:105890000F945428EDB7FEB736960FB6F894FEBFB6
:1058A0000FBEEDBF80918A0B90918B0BB701A801C1
:1058B0000E9458B1C8016FED78E00F94492780919C
:1058C0008A0B90918B0BB701A8010E9458B100D0B0
:1058D00000D0EDB7FEB73196ADB7BEB712961C93A8
:1058E0000E931197D382C282A091980BB091990B1D
:1058F00057968C91848315820F945428EDB7FEB788
:1059000036960FB6F894FEBF0FBEEDBF80918A0B9E
:1059100090918B0BB701A8010E9458B1C8016AECA5
:1059200078E00F94492780918A0B90918B0BB701F7
:10593000A8010E9458B100D000D0EDB7FEB7319653
:10594000ADB7BEB712961C930E931197D382C28245
:10595000A091980BB091990B58968C9184831582E5
:105960000F945428EDB7FEB736960FB6F894FEBFE5
:105970000FBEEDBF80918A0B90918B0BB701A801F0
:105980000E9458B1C80165EB78E00F9449278091D7
:105990008A0B90918B0BB701A8010E9458B100D0DF
:1059A00000D0EDB7FEB73196ADB7BEB712961C93D7
:1059B0000E931197D382C282A091980BB091990B4C
:1059C00059968C91848315820F945428EDB7FEB7B5
:1059D00036960FB6F894FEBF0FBEEDBF80918A0BCE
:1059E00090918B0BB701A8010E9458B1C80162EADF
:1059F00078E00F94492780918A0B90918B0BB70127
:105A0000A8010E9458B100D000D0EDB7FEB7319682
:105A1000ADB7BEB712961C930E931197D382C28274
:105A2000A091980BB091990B5A968C918483158212
:105A30000F945428EDB7FEB736960FB6F894FEBF14
:105A40000FBEEDBF80918A0B90918B0BB701A8011F
:105A50000E9458B1C8016FE878E00F9449278091FF
:105A60008A0B90918B0BB701A8010E9458B100D00E
:105A700000D0EDB7FEB73196ADB7BEB712961C9306
:105A80000E931197D382C282A091980BB091990B7B
:105A90005B968C91848315820F945428EDB7FEB7E2
:105AA00036960FB6F894FEBF0FBEEDBF80918A0BFD
:105AB00090918B0BB701A8010E9458B1C8016CE707
:105AC00078E00F94492780918A0B90918B0BB70156
:105AD000A8010E9458B100D000D0EDB7FEB73196B2
