:100000000C94E31B0C941AE20C944BE20C947CE2EB
:100010000C94ADE20C94DEE20C940FE30C9440E3FC
:100020000C9471E30C94141C0C94141C0C94141C6C
:100030000C94141C0C94141C0C94141C0C94141C80
:100040000C94141C0C94141C0C94141C0C94141C70
:100050000C94141C0C94141C0C94141C0C94A2E30B
:100060000C94141C0C940DE70C94141C0C94141C8C
:100070000C94141C0C94141C0C94141C0C94141C40
:100080000C94141C0C94141C0C94141C0C94F71F4A
:100090000C945E4E0C94141C0C94141C0C9418E0DC
:1000A0000C94141C0C94141C0C94141C0C94141C10
:1000B0000C94141C0C94141C0C94141C0C94141C00
:1000C0000C94141C0C94141C0C94141C0C9439E700
:1000D0000C94141C0C94141C0C9465E70C94141CC4
:1000E0000C94141C036EDB363D9A9999993DABAA8A
:1000F000AA2A3E000000803F072C7AA5BA6CC59062
:10010000DA3B9365FC8BBC53F810FD3C5692834D53
:10011000BD879D3AB63DCBC9BF5BBE73DA0FC93F01
:1001200005A84CCDB2D44EB93836A9020C50B991BD
:100130008688083CA6AAAA2ABE000000803F076362
:100140004236B79BD8A71A39685618AEBAAB558C49
:100150001D3CB7CC5763BD6DEDFD753EF617723192
:10016000BF000000803F08000000BE922449123EFC
:10017000ABAAAA2ABECDCCCC4C3E00000080BEABC0
:10018000AAAAAA3E00000000BF000000803F0000B5
:10019000000000084178D3BB4387D1133D190E3CC2
:1001A000C3BD4282AD2B3E68EC8276BED98FE1A9F9
:1001B0003E4C80EFFFBE01C4FF7F3F000000000007
:1001C000426C696E6B657220696E697420646F6E33
:1001D0006500436C6F636B20696E697420646F6E99
:1001E00065004C61646520454550524F4D00647A6E
:1001F0005F666C6173685F656E00647A5F666C61F0
:100200007368006675656C5F7769646765742E66F0
:100210006F6E74006675656C5F7769646765742ED0
:1002200073796D626F6C006675656C5F7769646782
:1002300065742E79006675656C5F776964676574AF
:100240002E7800676561725F7769646765742E66F2
:100250006F6E7400676561725F7769646765742E9D
:100260007900676561725F7769646765742E7800ED
:10027000636C6F636B5F7769646765742E666F6E1E
:100280007400636C6F636B5F7769646765742E736A
:10029000796D626F6C00636C6F636B5F7769646725
:1002A00065742E7900636C6F636B5F776964676553
:1002B000742E7800616464696E666F325F7769647A
:1002C0006765742E666F6E7400616464696E666F34
:1002D000325F7769646765742E7900616464696E62
:1002E000666F325F7769646765742E780061646455
:1002F000696E666F5F7769646765742E666F6E748A
:1003000000616464696E666F5F7769646765742E07
:100310007900616464696E666F5F776964676574AC
:100320002E7800647A5F7769646765742E666F6EF5
:100330007400647A5F7769646765742E7900647A03
:100340005F7769646765742E78006172726F775F9A
:100350007769646765742E79006172726F775F7771
:1003600069646765742E78006B6D68636861725F9D
:100370007769646765742E666F6E74006B6D686371
:100380006861725F7769646765742E79006B6D6868
:10039000636861725F7769646765742E78006B6D5E
:1003A000685F7769646765742E666F6E74006B6D45
:1003B000685F7769646765742E79006B6D685F7735
:1003C00069646765742E78006169725F7769646734
:1003D00065742E666F6E74006169725F7769646719
:1003E00065742E73796D626F6C006169725F7769F5
:1003F000646765742E79006169725F776964676507
:10040000742E78006F696C5F7769646765742E6617
:100410006F6E74006F696C5F7769646765742E73C3
:10042000796D626F6C006F696C5F77696467657482
:100430002E79006F696C5F7769646765742E780048
:10044000726566726573685F63796C650067707367
:100450005F74616B656F7665720072656966656E63
:100460005F756D66616E67006675656C5F626C696D
:100470006E6B5F66726571006675656C5F626C6954
:100480006E6B5F737461727400626C696E6B65721F
:100490005F6869676800626C696E6B6572006F699E
:1004A0006C5F6469737400736B696E5F66696C6519
:1004B000006163746976655F6E6176695F66696C19
:1004C000650073746172747570004D616C6C6F635C
:1004D000206661696C65640021212046696C652095
:1004E0006F70656E206661696C6564202121002152
:1004F000212046696C65206F70656E206661696CAD
:100500006564202121004D616C6C6F632066616918
:100510006C6564006F70656E20737562646972202B
:100520002F636F6E666967206661696C6564002180
:10053000212121205741524E494E4720212121217E
:100540000053442061636365737320737472616E3A
:1005500067650021212121205741524E494E4720F5
:1005600021212121002121205741524E494E47206F
:10057000212100616C6C206D61782076616C75655D
:10058000733D3D2D393900534420616363657373B6
:1005900020737472616E6765002121205741524EAD
:1005A000494E4720212100647A5F666C6173685F61
:1005B000656E3D00647A5F666C6173683D006F69CB
:1005C0006C5F646973743D00736B696E5F66696C20
:1005D000653D006163746976655F6E6176695F662B
:1005E000696C653D00726566726573685F63796CFE
:1005F000653D006770735F74616B656F7665723D12
:100600000072656966656E5F756D66616E673D0057
:100610006675656C5F626C696E6B5F667265713D75
:10062000006675656C5F626C696E6B5F7374617296
:10063000743D00626C696E6B65725F686967683DE6
:1006400000626C696E6B65723D00737461727475E3
:10065000703D00235468697320697320616E2061C6
:1006600075746F2D67656E65726174656420666967
:100670006C652066726F6D20284D6F6E446179291C
:1006800020006F70656E20737562646972202F633D
:100690006F6E666967206661696C6564006F70657E
:1006A0006E20737562646972202F636F6E6669676E
:1006B000206661696C6564002354686973206973FE
:1006C00020616E206175746F2D67656E657261744F
:1006D00065642066696C652066726F6D20284D6FB9
:1006E0006E4461792920006F70656E2073756264B5
:1006F0006972202F636F6E666967206661696C6539
:100700006400235468697320697320616E206175E9
:10071000746F2D67656E6572617465642066696CBF
:10072000652066726F6D20284D6F6E4461792920B7
:10073000006F70656E20737562646972202F636F3D
:100740006E666967206661696C6564002042797431
:1007500065206865617020667265650021212057FB
:1007600041524E494E47202121005344206163638A
:10077000657373206661696C6564002121205741AF
:10078000524E494E47202121002121205741524EEF
:10079000494E472021210076616C756573007275A2
:1007A0006E6E696E67206F6E206261636B7570009C
:1007B000534420616363657373206661696C65648B
:1007C0002E002121205741524E494E472021210021
:1007D0004D616C6C6F63206661696C656400666175
:1007E0006C7363686520616E7A61686C20616E204D
:1007F0006B6F6D6D617461004D616C6C6F63206631
:1008000061696C65640066696C655F6D616E6167E6
:100810006572206465616374697661746564006FF4
:1008200070656E526F6F74206661696C6564004616
:1008300061696C656400446F6E65004661696C6552
:100840006400446F6E65004661696C656400446FC6
:100850006E65004661696C656400446F6E650046B4
:1008600061696C656400446F6E6500446F6E65007D
:100870004661696C656400446F6E65004661696C31
:10088000656400446F6E65006F70656E526F6F74C3
:10089000206661696C6564004D616C6C6F632066F5
:1008A00061696C65640066696C655F6D616E616746
:1008B0006572206163746976617465640073756242
:1008C000312E726D446972206661696C65640066E0
:1008D000696C652E72656D6F7665206661696C6501
:1008E000640066696C652E6F70656E206661696C68
:1008F00065640043616E2774206F70656E2000662A
:1009000061696C6564004D616C6C6F632066616940
:100910006C656400455252320056616C75653A0050
:100920007E2063616E63656C2020202020202020C3
:10093000736176650066617374657220616E642010
:10094000736C6F77657200446F6E742073686966AC
:10095000742121204472697665004F6C64205661D1
:100960006C75653A0047656172004D616C6C6F6330
:10097000206661696C6564006F70656E20737562D6
:10098000646972202F636F6E666967206661696CA7
:100990006564004D616C6C6F63206661696C6564B1
:1009A0000047505320696E697420646F6E65003D86
:1009B0003D3D2053657475702066696E6973686586
:1009C00064203D3D3D0076302E332E342D392D6789
:1009D00038656137333664003D3D3D2053706565B1
:1009E000646F696E6F203D3D3D00610000000000B6
:1009F00000000000000000000000000000000000F7
:100A000000000000000000000000000000000000E6
:100A100000000000000000000000000000000000D6
:100A200000000000000000000000000000000000C6
:1021500000000000000000000000312E20537065D8
:1021600065646F696E6F00322E20537072696E74F1
:10217000206D6F646500332E204E6176696761744F
:10218000696F6E00342E202D00352E204578746541
:102190006E64656420696E666F00362E2043757329
:1021A000746F6D697A6500372E2053657475700001
:1021B000382E2043616C6320616D6F756E74003939
:1021C0002E205472697020417667204D6178005A44
:1021D0002167217621842189219A21A721B021BF5D
:1021E00021312E20476561722063616C69622E0087
:1021F000322E2054697265206F75746C696E6500AB
:10220000332E20446973706C617920736574757026
:1022100000342E205265736574206D656D6F727980
:1022200000352E204461796C69676874207361768B
:10223000696E6700362E2042542052657365742003
:10224000737461746500372E202D00382E202D0008
:10225000392E2041626F757400E121F021002211B6
:10226000222122342246224B225022312E204C6F32
:10227000616420536B696E00322E2053686F776E55
:10228000207472697000332E20445A20466C6173AA
:1022900068657200342E2043656E74657220524763
:1022A0004200352E204F7574657220524742003629
:1022B0002E20466C61736865722052474200372EAB
:1022C000202D00382E2053686F7720416E696D6194
:1022D00074696F6E00392E2046696C656D616E61A0
:1022E000676572006B22782286229422A222AF2296
:1022F000BE22C322D522312E2047505320696E665C
:102300006F7320312F3200322E2047505320696ED8
:10231000666F7320322F3200332E20566F6C74613B
:10232000676500342E202D00352E202D00362E20FE
:102330002D00372E202D00382E202D00392E202D57
:1023400000F62207231823232328232D23322337A3
:10235000233C23312E204E617669207374617465AD
:1023600000322E2053657420706F696E74657200A0
:10237000332E205365742066696C6500342E20432B
:102380006865636B2077726974657300352E202D44
:1023900000362E202D00372E202D00382E202D0027
:1023A000392E202D005323612370237C238C23910D
:1023B0002396239B23A0233D204D61696E206D65EC
:1023C0006E75203D0000003D204E617669676174A6
:1023D000696F6E203D00003D20496E666F726D6131
:1023E00074696F6E203D003D20437573746F6D6995
:1023F0007A65203D003D205365747570203D0000D6
:102400003D2053746F72616765203D2000B723C57E
:1024100023C623C723D623D723E723F523FF23008F
:1024200024546F74616C004E6F6E5065726D616EF6
:10243000656E740044617900546F7572005175695E
:10244000636B004675656C004F696C657200536183
:1024500069736F6E00426F61726400212427243417
:102460002438243D24432448244E24552458206EE7
:102470006F2020202020202020202020207965731C
:1024800020580073746F726561676573207265739D
:102490006574656400416C6C204675656C0041761E
:1024A0006572616765206E6565643A200041646409
:1024B0006564206675656C20616D6F756E743A0099
:1024C0004B4B6F6F6C6C6A6A616140676D61696CE0
:1024D0002E636F6D00636F6E74616374206D652091
:1024E00061740076302E332E342D392D67386561B6
:1024F00037333664005075626C6963204C696365DC
:102500006E736500474E55202D2047656E657261DC
:102510006C0053706565646F696E6F00706F7765EE
:102520007200446F776E203D20696E616374697636
:10253000650042542D5265736574005570203D202E
:1025400061637469766500446F776E203D20696E23
:10255000616374697665004461796C6967687420A9
:10256000736176696E67005570203D206163746900
:1025700076650043686F6F7365207265662056004C
:1025800043686F6F7365207068617365007361766F
:102590006564005361766564002020636F6E746922
:1025A0006E756500214B6565702064726976696E91
:1025B0006721004368616E67652047656172207519
:1025C000702F646F776E0043616C6962726174652D
:1025D00020476561720046696C656D616E61676573
:1025E00072005361766564002020746F2073746FED
:1025F00072652076616C75657300526564202020D9
:10260000477265656E202020426C756500416C65DF
:102610007274205247420053617665640020207432
:102620006F2073746F72652076616C7565730052EC
:102630006564202020477265656E202020426C75FD
:1026400065004F757465722052474200536176658C
:1026500064002020746F2073746F72652076616C43
:1026600075657300526564202020477265656E2091
:102670002020426C75650043656E74657220524778
:102680004200696E6163746976650061637469769E
:10269000650061637469766500746F2061646A75B2
:1026A000737400446F776E203D20696E61637469B6
:1026B0007665005570203D2061637469766500443D
:1026C0005A20466C617368657200536176656400D8
:1026D000507265766965770046696C65206E6F7427
:1026E00020666F756E64004E6F2066697273742089
:1026F0006C696E6520636F6D6D656E74004D616C05
:102700006C6F63206661696C65640076302E332ED1
:10271000342D392D673865613733366400535720BF
:1027200056657273696F6E004164646974696F6E97
:10273000616C20696E666F00436F756E7465720020
:102740004750535F73617473004750535F737065F4
:102750006564004750535F616C7469004750535F74
:102760006C617469004750535F6C6F6E670047502F
:10277000535F64617465004750535F74696D650011
:10278000506F696E7473207772697474656E004659
:10279000696C65206E6F7420666F756E64004E6F95
:1027A000206669727374206C696E6520636F6D6D4D
:1027B000656E74004E61766920547261636B2050BF
:1027C0006F696E74657200446F776E203D20696E8C
:1027D000616374697665004E617669676174696FDB
:1027E0006E005570203D20616374697665004F6905
:1027F0006C657220696E697420646F6E6500526545
:1028000073657420696E697420646F6E652E205341
:1028100074617475732000766F6C756D652E696ECA
:102820006974206661696C656400636172642E6915
:102830006E6974206661696C6564002C00534420E5
:102840006572726F723A20006572726F723A200080
:1028500053656E736F727320696E697420646F6E56
:102860006500537065656420757021004E6F2047C8
:102870005053210020202020202020202020202014
:10288000202020202020202020200053442061638D
:1028900063657373206661696C6564004E6F2047E1
:1028A000505300426C696E6B657220766572676585
:1028B0007373656E004D6F746F72206E6F63682066
:1028C0006B616C74006B6D2F68004D616C6C6F6395
:1028D000206661696C6564004D616C6C6F63206695
:1028E00061696C656400566F6C7461676520004EA9
:1028F0006F206572726F7220666F756E642E004372
:10290000616E2774206F70656E20726F6F74206423
:1029100069726563746F72792E00496E76616C69B5
:102920006420666F726D61742C207265666F726DC3
:1029300061742053442E004E6F20636172642C201A
:1029400077726F6E6720636869702073656C65636A
:10295000742070696E2C206F722053504920707261
:102960006F626C656D3F0043616E27742061636325
:1029700065737320534420636172642E20446F207A
:102980006E6F74207265666F726D61742E00657271
:10299000726F723A20006572726F723A200053446F
:1029A000206572726F72436F64653A203058000D73
:1029B0000A007C3C3E5E2B3D3F2F5B5D3B2C2A2278
:1029C0005C0066616C73650074727565004249470E
:1029D00020464C540066616C736500747275650026
:1029E00000002100240027002A002D0030003300C1
:1029F00001010000040107010A0100002200250076
:102A000028002B002E0031003400020100000501D7
:102A100008010B01000020002300260029002C00E3
:102A20002F00320000010000030106010901050525
:102A30000505070508080808020202020A0A080834
:102A40000404040401010101010101010303030362
:102A500003030303040707070C0C0C0C0C0C0C0CF1
:102A60000202020206060606060606060B0B0B0B02
:102A70000B0B0B0B01021020200808102040102027
:102A80004080020102010804020101020408102032
:102A90004080804020100804020180040201804030
:102AA0002010080402010804020101020408102099
:102AB000408001020408102040800000090A02083A
:102AC0000B0C0D07060304010000000000000000CD
:102AD00000000000000000000000000000000000F6
:102AE000000000000000100F0E00000000000000B9
:102AF00000000000000000000000000000000000D6
:102B00000000000000000000101010101000100065
:102B100050500000000000000050F850F850000035
:102B20002078A07028F8200000C8D02020589800F5
:102B30006090A0789098E80020200000000000003D
:102B40001020202020201000201010101010200035
:102B500020A87070A8200000002020F8202000008D
:102B60000000000000202000000000F8000000002D
:102B7000000000000000200000000810204080003D
:102B800070D8888888D87000E02020202020F800A5
:102B9000708808102040F80070880870088870005D
:102BA0001030505090F81000F08080F00808F000CD
:102BB000384080F088887000F8081010202020002D
:102BC0007088887088887000708888780810E000A5
:102BD0000000200000200000000020000020200055
:102BE000001860C0601800000000F800F800000045
:102BF00000C0301830C0000070880810200020008D
:102C00007088B8A8B88060002070D888F8888800DC
:102C1000F08888F88888F00070888080808870004C
:102C2000E09088888890E000F88080F88080F80044
:102C3000F88080F880808000708880988888700094
:102C4000888888F8888888007020202020207000DC
:102C500038080808088870008890A0C0A0908800F4
:102C6000808080808080F80088D8F8A888888800D4
:102C700088C8C8A89898880070D8888888D87000B4
:102C8000F08888F08080800070D88888D87018001C
:102C9000F08888F0A09088007088807008887000A4
:102CA000F8202020202020008888888888887000CC
:102CB000888888505020200088A8A8A8A8D850004C
:102CC00088502020508888008850502020202000E4
:102CD000F80810204080F80060404040404060000C
:102CE000000080402010080060202020202060008C
:102CF0003048000000000000000000000000F80064
:102D0000202000000000000000007008F898E80093
:102D10008080B0C888C8B0000000708880887000CB
:102D2000080868988898680000007088F880780023
:102D3000182020F82020200000788888780870006B
:102D40008080B0C888888800200060202020700023
:102D50001000301010507000808090A0C0A0900033
:102D6000C0404040404030000000F8A8A8A8A8009B
:102D70000000B0C8888888000000708888887000CB
:102D80000000F088F0808000000078887808080053
:102D90000000B0C880808000000078807008F000DB
:102DA0004040F0404040300000008888889868002B
:102DB0000000888850502000000088A8A8F8500023
:102DC00000008850205088000000885020204000DB
:102DD0000000F8102040F8003828380000000000FB
:102DE00020202020202020002070F82020202000FB
:102DF0002060F868280808002030F8B0A080800023
:102E00000000000000000000101010101000100062
:102E100050500000000000000050F850F850000032
:102E200020F880F808F8200000C8D020205898002A
:102E30006090A0789098E80020200000000000003A
:102E40001020202020201000201010101010200032
:102E50000020F82050000000002020F82020000072
:102E60000000000000202000000000F8000000002A
:102E7000000000000000200000000810204080003A
:102E800000F888888888F8000030101010101000B2
:102E900000F808F88080F80000F808380808F80002
:102EA000008888F80808080000F880F80808F8008A
:102EB00000F880F88888F80000F80808080808007A
:102EC00000F888F88888F80000F888F808080800F2
:102ED0000000200000200000000020000020200052
:102EE00000102040201000000000F800F800000052
:102EF000004020102040000000F8080838002000A2
:102F000000F888B8A8B8000000F888F88888880019
:102F100000F088F88888F00000F880808080F80051
:102F200000F088888888F00000F880E08080F80051
:102F300000F880E08080800000F880B88888F80081
:102F4000008888F88888880000F820202020F80071
:102F5000000808080888F800008890E09088880039
:102F6000008080808080F8000088D8A88888880049
:102F70000088C8A89888880000F888888888F800A1
:102F800000F088F88080800000F88888A8F8200089
:102F900000F088F89088880000F880F80808F800A9
:102FA00000F8202020202000008888888888F800E9
:102FB000008888888850200000888888A8D88800E1
:102FC0000088502020508800008888F820202000A9
:102FD00000F810204080F800006040404040600051
:102FE00000008040201008000060202020206000A9
:102FF0002050000000000000000000000000F80069
:1030000020200000000000000000F888F8888800F8
:103010000000F888F088F8000000F8808080F80050
:103020000000F0888888F0000000F880E080F80058
:103030000000F880E08080000000F880B888F80088
:1030400000008888F88888000000202020202000C8
:10305000000008080888F80000008890E0908800C8
:10306000000080808080F8000000F8A8A8A8A800D0
:103070000000F888888888000000F8888888F800B0
:103080000000F888F88080000000F888A8F8200088
:103090000000F888F89088000000F880F808F80030
:1030A0000000F82020202000000088888888F80090
:1030B00000008888885020000000A8A8A8A8F80070
:1030C00000008850205088000000885020202000F8
:1030D0000000F8102040F8003828380000000000F8
:1030E00020202020202020002070F82020202000F8
:1030F0002060F868280808002030F8B0A080800020
:10310000007E0003FFC007FFE00FC3F00F00F01EBA
:1031100000781E00783C003C3C003C3C003C7800C1
:103120001E78001E78001E78001E78001E78001E93
:1031300078001E78001E78001E78001E78001E7829
:10314000001E3C003C3C003C3C003C1E00781E0045
:10315000780F00F00FC3F007FFE003FFC0007E0010
:1031600000000000FC000FFC003FFC003F3C003072
:103170003C00003C00003C00003C00003C00003CE7
:1031800000003C00003C00003C00003C00003C0013
:10319000003C00003C00003C00003C00003C000003
:1031A0003C00003C00003C00003C00003C00003CB7
:1031B00000003C00003C001FFFF81FFFF81FFFF855
:1031C00003FC003FFF807FFFC07E07E07001F040FE
:1031D00000F000007800007800007800007800001F
:1031E000780000F80000F80001F00001F00003E0B2
:1031F0000007C0000FC0001F80003F00007E0000DD
:10320000FC0001F80003F00007E0000FC0001F8081
:10321000003F00007E00007FFFF87FFFF87FFFF88F
:1032200007FE003FFF803FFFE03C03F02001F0007D
:1032300000F80000780000780000780000780000B6
:10324000F00000F00003E003FFC003FF0003FFC035
:103250000003F00000F800007800007C00003C0053
:10326000003C00003C00003C00003C00007C4000B2
:10327000786000F87C07F07FFFE03FFF8007FC00EC
:10328000000000000FC0000FC0001FC0003FC000C2
:103290003BC0007BC000F3C000E3C001E3C003C338
:1032A000C00383C00783C00F03C00E03C01E03C04A
:1032B0003C03C03803C07803C0F003C0F003C0FF74
:1032C000FFFCFFFFFCFFFFFC0003C00003C0000386
:1032D000C00003C00003C00003C00003C00003C05F
:1032E0000000003FFFE03FFFE03FFFE03C00003C0C
:1032F00000003C00003C00003C00003C00003C00A2
:10330000003FFC003FFF003FFFC0380FE02003E01C
:103310000001F00000F00000780000780000780064
:1033200000780000780000780000780000F00001CC
:10333000F04003E0780FE07FFFC07FFF001FF80040
:10334000003FE000FFF803FFF807E0380F80080FA8
:1033500000001E00001E00003C00003C00003C007D
:1033600000787F0079FFC07BFFF07FC1F87F007C91
:103370007E003C7E003C7C001E7C001E7C001E7C8F
:10338000001E3C001E3C001E3C001E1E003C1E0099
:103390003C0F00780FC1F807FFF001FFC0007F006D
:1033A0000000007FFFF87FFFF87FFFF80000F000CB
:1033B00000F00001F00001E00003E00003C00003A2
:1033C000C00007C0000780000F80000F00000F0042
:1033D000001E00001E00003E00003C00003C0000FB
:1033E000780000780000F80000F00000F00001E034
:1033F0000001E00003E00003C00003C000078000FC
:1034000000FF0003FFE00FFFF01F81F81E00783E71
:10341000007C3C003C3C003C3C003C3C003C1E0032
:10342000781E00780F81F007FFE001FF8007FFE0C2
:103430001F81F81E00783C003C7C003E78001E781E
:10344000001E78001E78001E78001E7C003E3C00A6
:103450003C3E007C1F81F80FFFF007FFE000FF00FB
:1034600000FE0003FF800FFFE01F83F01E00F03C12
:1034700000783C007878003C78003C78003C78008C
:103480003E78003E78003E78003E3C007E3C007E68
:103490003E00FE1F83FE0FFFDE03FF9E00FE1E00A8
:1034A000003C00003C00003C000078000078000078
:1034B000F01001F01C07E01FFFC01FFF0007FC0019
:1034C000000000000000000010101010100010009C
:1034D00050500000000000005050F850F8505000CC
:1034E0002078A07028F02000C0C810204098180054
:1034F0006090A040A890680060204000000000009C
:1035000010204040402010004020101010204000AB
:103510000020A870A8200000002020F82020000033
:103520000000000060204000000000F800000000E3
:1035300000000000006060000000081020408000D3
:10354000708898A8C8887000206020202020700013
:10355000708808102040F800F8102070088870006B
:1035600010305090F8101000F880F00808887000B3
:10357000304080F088887000F808102040404000FB
:10358000708888708888700070888878081060005B
:10359000006060006060000000606000602040002B
:1035A00010204080402010000000F800F8000000CB
:1035B00080402010204080007088081020002000EB
:1035C0007088B8A8B880700070888888F8888800EB
:1035D000F08888F08888F00070888080808870008B
:1035E000E09088888890E000F88080F08080F80083
:1035F000F88080F080808000708880B888887800AB
:10360000888888F888888800702020202020700012
:1036100038101010109060008890A0C0A090880012
:10362000808080808080F80088D8A8A8888888005A
:103630008888C8A8988888007088888888887000DA
:10364000F08888F08080800070888888A890680062
:10365000F08888F0A0908800788080700808F000DA
:10366000F820202020202000888888888888700002
:103670008888888888502000888888A8A8A8500052
:103680008888502050888800888888502020200012
:10369000F80810204080F800704040404040700022
:1036A00000008040201008007010101010107000F2
:1036B0002050880000000000000000000000F8001A
:1036C00030201000000000000000700878887800AA
:1036D0008080B0C88888F00000007080808870000A
:1036E000080868988888780000007088F880700062
:1036F000304840F04040400000007088F8087000FA
:103700008080B0C888888800200060202020700059
:103710001000301010906000808090A0C0A0900039
:1037200060202020202070000000D0A8A8888800F9
:103730000000B0C888888800000070888888700001
:103740000000F088F0808000000068987808080089
:103750000000B0C880808000000070807008F00019
:1037600040E0404040483000000088888898680069
:10377000000088888850200000008888A8A8500091
:103780000000885020508800000088887808700069
:103790000000F8102040F800102810000000000081
:1037A00020202020202020002070F8202020200031
:1037B0002060F868280808002030F8B0A080800059
:1037C0001D5F5FC789E911241FBECFEFD1E2DEBFC5
:1037D000CDBF00E00CBF1AE0A0E0B2E0E6E6FFEFEC
:1037E00001E00BBF02C007900D92A23BB107D9F7D1
:1037F0001FE0A2EBBAE001C01D92A537B107E1F7C7
:1038000017E3C6ECD7E300E006C022970109FE01EA
:103810000BBF0E94ADFFC03CD10780E00807A9F7AD
:103820000E94A25D0C9446F60C9400000F931F9327
:10383000CF93DF93EC0181E090E00E94855D8C01E5
:103840000E9448A008831983DF91CF911F910F91A7
:10385000089508958F929F92AF92BF92CF92DF9278
:10386000EF92FF920F931F93CF93DF935C01480178
:10387000062F172F17FF02C000E010E00F3F1105C1
:1038800019F014F00FEF10E0E42EE7017E01F52EA1
:10389000E701F7FE02C0C0E0D0E0CF3FD10519F04C
:1038A00014F0CFEFD0E0E22EF32EF7FE02C0EE24AC
:1038B000FF245FEFE516F10421F01CF09FEFE92EE5
:1038C000F12C8FEFC82ED12CB601601B710B8DE04F
:1038D0000E94E7E4B6016C1B7D0B8AE00E94E7E4DE
:1038E000B6016E197F098BE00E94E7E48114910410
:1038F00021F0F5010283C583E086DF91CF911F910E
:103900000F91FF90EF90DF90CF90BF90AF909F907E
:103910008F9008950F931F9301E010E00E942A1CDE
:103920001F910F9108958F929F92AF92BF92CF9265
:10393000DF92EF92FF920F931F93CF93DF936C016F
:103940005801062F172F17FF02C000E010E00F3FAD
:10395000110519F014F00FEF10E0E42EF52EF7FE2C
:1039600002C0EE24FF248FEFE816F10421F01CF0D2
:103970004FEFE42EF12CE22FEF014E01932EE401E4
:1039800097FE02C0C0E0D0E0CF3FD10519F014F09F
:10399000CFEFD0E087E0B8010E94E7E488E0B7010C
:1039A0000E94E7E489E0BE010E94E7E4A114B104AB
:1039B00021F0F6010387E686C18BDF91CF911F913D
:1039C0000F91FF90EF90DF90CF90BF90AF909F90BE
:1039D0008F9008950F931F9301E010E00E94931CB5
:1039E0001F910F910895EF92FF920F931F93FC0187
:1039F00081E0E816F10451F46483478322878281D1
:103A00008383858186838085818709C06587408B14
:103A1000238B83858487868587878189828B17A3FB
:103A200006A3F3A6E2A611A610A61092900080911C
:103A30009100856080939100809191008D7F8093AB
:103A400091008FEF8093950082E68093940080919F
:103A50007100816080937100C09A1F910F91FF9057
:103A6000EF900895AF92BF92DF92EF92FF920F9383
:103A70001F93DF93CF930F920F92CDB7DEB75C0108
:103A80000DEC1AE0C80166E070E00E94E8A4F82E90
:103A9000C80167E070E00E94E8A4482FC80168E010
:103AA00070E04A830E94E8A4282F8DE061E029831A
:103AB0000E94A3E58AE061E00E94A3E58BE061E05B
:103AC0000E94A3E5C5016F2D70E04A8150E0298175
:103AD00030E00E948A1CC80169E070E00E94E8A4FE
:103AE000F82EC8016AE070E00E94E8A4E82EC80140
:103AF0006BE070E00E94E8A4D82E87E061E00E94AD
:103B0000A3E588E061E00E94A3E589E061E00E940E
:103B1000A3E5F501F58EE0A2D3A2C8016CE070E048
:103B20000E94E8A4F501848BC8016DE070E00E945A
:103B3000E8A4F501878BC8016EE070E00E94E8A45C
:103B4000F501828F11A610A617A216A2C50160E08A
:103B500070E040E050E020E030E00E94EA1CC50147
:103B60006F2D70E04E2D50E02D2D30E000E011E083
:103B7000EE24FF240E94F31C0F900F90CF91DF9151
:103B80001F910F91FF90EF90DF90BF90AF9008953D
:103B90002F923F924F925F926F927F928F929F925D
:103BA000AF92BF92CF92DF92EF92FF920F931F934B
:103BB000DF93CF9300D00F92CDB7DEB79C838B837A
:103BC000FC0182A593A560A571A506A117A181306E
:103BD000910509F0E0C0C380DD24882777FD80953A
:103BE000982F0E94D0F84B015C01B801882777FD1F
:103BF0008095982F0E94D0F81B012C01EB81FC814D
:103C0000648170E06C197D09882777FD8095982F75
:103C10000E94D0F8A50194010E9461FAA2019101CD
:103C20000E9435F8162F072FF82EE92EA8019701CC
:103C3000652F742F832F922F20E030E0A9010E947E
:103C40005DFA87FD0DC0A8019701652F742F832FA2
:103C5000922F20E030E040E05FE30E94B3F70CC019
:103C6000A8019701652F742F832F922F20E030E059
:103C700040E05FE30E94B2F70E949DF8CB018C0DFB
:103C80009D1D9A838983EB81FC81C680DD24678139
:103C900070E06C197D09882777FD8095982F0E9428
:103CA000D0F8A50194010E9461FAA20191010E943D
:103CB00035F88B01F82EE92E9701712F832F922F63
:103CC00020E030E0A9010E945DFA87FD0CC0970159
:103CD000602F712F832F922F20E030E040E05FE3D0
:103CE0000E94B3F70BC09701602F712F832F922F83
:103CF00020E030E040E05FE30E94B2F70E949DF8D0
:103D00003B016C0C7D1CEB81FC81C184DD24628550
:103D100070E06C197D09882777FD8095982F0E94A7
:103D2000D0F8A50194010E9461FAA20191010E94BC
:103D300035F88B01F82EE92E9701712F832F922FE2
:103D400020E030E0A9010E945DFA87FD0CC09701D8
:103D5000602F712F832F922F20E030E040E05FE34F
:103D60000E94B3F70BC09701602F712F832F922F02
:103D700020E030E040E05FE30E94B2F70E949DF84F
:103D80009B012C0D3D1D8B819C8169817A81A30152
:103D90000E948A1CDCC0EB81FC81C484DD2488275E
:103DA00077FD8095982F0E94D0F84B015C01B801F7
:103DB000882777FD8095982F0E94D0F81B012C0151
:103DC000EB81FC81658570E06C197D09882777FDA2
:103DD0008095982F0E94D0F8A50194010E9461FA65
:103DE000A20191010E9435F88B01F82EE92E97016E
:103DF000712F832F922F20E030E0A9010E945DFAFD
:103E000087FD0CC09701602F712F832F922F20E028
:103E100030E040E05FE30E94B3F70BC09701602FF2
:103E2000712F832F922F20E030E040E05FE30E946B
:103E3000B2F70E949DF8CB018C0D9D1D9A8389835A
:103E4000EB81FC81C784DD24608970E06C197D09F9
:103E5000882777FD8095982F0E94D0F8A5019401BE
:103E60000E9461FAA20191010E9435F88B01F82E9F
:103E7000E92E9701712F832F922F20E030E0A901C6
:103E80000E945DFA87FD0CC09701602F712F832F70
:103E9000922F20E030E040E05FE30E94B3F70BC0D8
:103EA0009701602F712F832F922F20E030E040E0A8
:103EB0005FE30E94B2F70E949DF83B016C0C7D1CF1
:103EC000EB81FC81C288DD24638970E06C197D0977
:103ED000882777FD8095982F0E94D0F8A50194013E
:103EE0000E9461FAA20191010E9435F88B01F82E1F
:103EF000E92E9701712F832F922F20E030E0A90146
:103F00000E945DFA87FD0CC09701602F712F832FEF
:103F1000922F20E030E040E05FE30E94B3F70BC057
:103F20009701602F712F832F922F20E030E040E027
:103F30005FE30E94B2F70E949DF89B012C0D3D1D8E
:103F40008B819C8169817A81A3010E94EA1CEB81AB
:103F5000FC8180A591A526A137A18217930754F46F
:103F6000019691A780A78FEF8093950082E68093BA
:103F700094001BC080919100887F80939100EB8119
:103F8000FC8182A593A58130910539F484818383D6
:103F9000878186838285818708C0EB81FC81858546
:103FA0008487808987878389828B0F900F900F90F9
:103FB0000F90CF91DF911F910F91FF90EF90DF90C5
:103FC000CF90BF90AF909F908F907F906F905F90B9
:103FD0004F903F902F900895FC0181E040A551A59E
:103FE00026A137A14217530709F080E008951F92D8
:103FF0000F920FB60F920BB60F9211242F933F938F
:104000004F935F936F937F938F939F93AF93BF93E0
:10401000EF93FF938091C20A9091C30A0E94C81D3A
:10402000FF91EF91BF91AF919F918F917F916F9190
:104030005F914F913F912F910F900BBE0F900FBE4C
:104040000F901F90189508950895EF92FF920F9387
:104050001F93CF93DF93EC0185E00E945AE68130F5
:10406000910539F40E94EAE369877A878B879C87F8
:1040700015C00097A9F5E984FA840B851C8588EEA4
:1040800093E0A0E0B0E0E80EF91E0A1F1B1F0E949B
:10409000EAE36E157F058007910710F58C81882370
:1040A00011F581E08C83E091BC0AF091BD0AE459DE
:1040B000FF4FE080F18002811381E091C00AF0910E
:1040C000C10A848595850E94D68FED82FE820F837A
:1040D000188709C01C821D821E821F82188603C099
:1040E0008C818823B9F7DF91CF911F910F91FF90B9
:1040F000EF900895FC0145835683678370872135CF
:10410000310574F082819381AA2797FDA095BA2F7B
:10411000840F951FA61FB71F85839683A783B0873B
:104120000895EF92FF920F931F93FC017A018B0188
:1041300080819181AA2797FDA095BA2F258136818C
:1041400047815085820F931FA41FB51F8E159F05B1
:10415000A007B10710F4848101C080E01F910F9186
:10416000FF90EF900895CF93DF93EC0185E060E03E
:104170000E94A3E58091B20A9091B30A60EC71E0CD
:104180000E94CB3619861A861B861C861B821A82D1
:10419000DF91CF91089508950895FC01DB0180819E
:1041A00091812D913C9111972817390739F0808121
:1041B000918111969C938E9381E0089580E00895FB
:1041C000862F6AE00E943DFF8295807F890F0895C7
:1041D000962F92959F70990F292F220F220F290F4A
:1041E000862F8F70820F08954F925F926F927F9209
:1041F0008F929F92AF92BF92CF92DF92EF92FF92F7
:104200000F931F93DF93CF93CDB7DEB73C01290106
:1042100077FD03C0FC017387628757FD03C0F3017C
:1042200051874087F4E08F16910418F4F3019786C4
:10423000868617FD0BC0F30186859785800F911F39
:1042400068E170E00E945DFF95838483F7FC03C002
:10425000F301F382E282F301808191818C199D093F
:104260008B30910544F4808191818C199D09FFEF79
:10427000863F9F072CF4D7FC03C0F301D182C08294
:10428000B7FC03C0F301B586A48657FC23C0F30135
:104290008481958126853785820F931F68E170E0C0
:1042A0000E9449FF80E090E00E94CEF80E940BF946
:1042B0006B017C01B201882777FD8095982F0E94C1
:1042C000D0F8A70196010E94B3F70E94A2F8F3016B
:1042D00077836683CF91DF911F910F91FF90EF90CD
:1042E000DF90CF90BF90AF909F908F907F906F9016
:1042F0005F904F900895FC011386128611861086F8
:104300001782168215821482138212821182108201
:10431000178616868091B20A9091B30A62ED71E019
:104320000E94CB360895FC01868197816085718556
:1043300044E650E0649F9001659F300D749F300DFE
:104340001124280F391FC9010895CF93DF93EC0181
:104350004A855B85888599852E813F81840F951FCD
:10436000820F931F009771F16A857B8580E090E052
:1043700024E630E040E050E00E941EFF28853985A9
:1043800040E050E0620F731F841F951F24E630E069
:1043900040E050E00E941EFF9B01AC018E819F8196
:1043A000A0E0B0E0280F391F4A1F5B1F203080E2D9
:1043B00038078FE0480780E0580740F020E030E001
:1043C000A90104C02FE332E44FE050E0B901CA0173
:1043D000DF91CF910895FC01868597850895FC01B2
:1043E00020813181C9010895FC018081918101966C
:1043F00091838083808191818C339105D1F41182E6
:10440000108282819381019693838283828193813A
:104410008C33910571F41382128284819581019607
:1044200095838483848195818831910511F4158267
:10443000148208950F931F93CF93DF93FC0184811F
:104440009581C281D381008111812DB73EB72A5059
:1044500030400FB6F8943EBF0FBE2DBFEDB7FEB78C
:104460003196ADB7BEB712967C936E93119720E04C
:1044700032E03383228324E630E0B9010E9449FF11
:1044800095838483CE01B9010E9449FF9783868377
:10449000C801B9010E9449FF918780870E9482F775
:1044A0002DB73EB7265F3F4F0FB6F8943EBF0FBE05
:1044B0002DBFDF91CF911F910F91089521E73AE031
:1044C000FC01318320832581222311F00E94A1B3B6
:1044D00008950895CF93DF93C0E0D0E22197CE01F5
:1044E0000E9413F50097D1F30E94ADF587E39FE09A
:1044F000BE014AE050E00E9492EB8091B20A909196
:10450000B30A6CE477E00E94CB36DF91CF91089537
:1045100008952F923F924F925F926F927F928F9267
:104520009F92AF92BF92CF92DF92EF92FF920F9342
:104530001F93DF93CF93CDB7DEB7C959D0400FB6E5
:10454000F894DEBF0FBECDBFCC56DF4F9983888372
:10455000C459D0408B01E091C00AF091C10A068095
:10456000F781E02DE75EFE4F84E090E09183808349
:104570006091B40A7091B50ADB018C91882309F02F
:1045800090C685E090E091838083CC56DF4FA88170
:10459000B981C459D0408C91882309F482C686E041
:1045A00090E09183808381E79AE09A8389831B82DC
:1045B0001E829F8F8E8F18A21BA29CAF8BAF1DAE49
:1045C000FE01E05CFF4F10826A5F7F4F7E0108941E
:1045D000E11CF11CC7010E9420AE8FE092E0B801FF
:1045E0004AE050E00E94C6F6009709F05AC1CC5646
:1045F000DF4FE881F981C459D0408081882309F4D4
:1046000050C1FBE38F2E912C8C0E9D1EC401B7016F
:104610004AE152E021E00E9480B9882339F4809178
:10462000B20A9091B30A61E377E05BC1EEE1CE2E6E
:10463000D12CCC0EDD1EC601B401A80122E50E94DA
:1046400080B9882309F4A0C278E5E72EF12CEC0E9E
:10465000FD1E83E2D7011D928A95E9F7C70162E04A
:1046600077E00E9473F68091B40A9091B50AB60182
:10467000A7010E94398DE091C00AF091C10A8081A2
:1046800091810E94932100D000D0EDB7FEB7319602
:10469000ADB7BEB71296FC92EE9211972DE232E0C2
:1046A00033832283958384830E9482F7EDB7FEB71C
:1046B00036960FB6F894FEBF0FBEEDBF8091B40AD8
:1046C0009091B50AB601A7010E94398D01E010E072
:1046D000BE2C8F2C61E3662E62E0762EC601DC2CA8
:1046E000C92E5DE3452E52E0552E4FE4242E42E0C4
:1046F000342E01C087018091BC0A9091BD0AF80157
:104700003B96EE0FFF1FE80FF91F2081318141E03A
:104710002F35340724F0A8ECB0E0B183A0837801F2
:104720000894E11CF11CEDB7FEB738970FB6F8946A
:10473000FEBF0FBEEDBF3196ADB7BEB71196BC92AE
:10474000119712968C9273826282F582E482D8016C
:104750001B96AA0FBB1FA80FB91F8D919C9168EEE5
:1047600073E00E945DFF978386830E9482F7EDB716
:10477000FEB738960FB6F894FEBF0FBEEDBF80911E
:10478000B40A9091B50A6D2D7C2D4B2D582D0E94A9
:10479000398D2DB73EB72A5030400FB6F8943EBF42
:1047A0000FBE2DBFEDB7FEB73196ADB7BEB71196B0
:1047B000BC92119712968C9253824282F582E482C7
:1047C000A091BC0AB091BD0AC8010A96880F991F32
:1047D000880F991FA80FB91F8D919D910D90BC91C5
:1047E000A02D86839783A087B1870E9482F7EDB7BB
:1047F000FEB73A960FB6F894FEBF0FBEEDBF80919C
:10480000B40A9091B50A6D2D7C2D4B2D582D0E9428
:10481000398D2DB73EB72A5030400FB6F8943EBFC1
:104820000FBE2DBFEDB7FEB73196ADB7BEB711962F
:10483000BC92119712968C9233822282F582E48286
:10484000A091BC0AB091BD0A0D5E1F4F000F111F51
:10485000000F111FA00FB11F8D919D910D90BC9164
:10486000A02D86839783A087B1870E9482F7EDB73A
:10487000FEB73A960FB6F894FEBF0FBEEDBF80911B
:10488000B40A9091B50A6D2D7C2D4B2D582D0E94A8
:10489000398DF9E0EF16F10409F02CCF8D2D9C2D08
:1048A000E0C48EE592E0B80148E050E00E94C6F610
:1048B000009709F0B8C05BE3E52EF12CEC0EFD1E6D
:1048C000C701BE016F5F7F4F4AE152E021E00E94C5
:1048D00080B9882359F48091B20A9091B30A67EEA7
:1048E00076E00E94CB360FEF1FEFCEC44EE1C42E10
:1048F000D12CCC0EDD1EC601B701A80122E50E9415
:1049000080B9882309F440C18E01085A1F4F84E101
:10491000F80111928A95E9F7C80168EB76E00E94E8
:1049200073F68091B40A9091B50AB601A8010E946D
:10493000398DE091C00AF091C10A808191810E9475
:10494000932100D000D0EDB7FEB73196ADB7BEB71A
:1049500012961C930E9311972DE232E0338322833B
:10496000958384830E9482F7EDB7FEB736960FB623
:10497000F894FEBF0FBEEDBF8091B40A9091B50AC6
:10498000B601A8010E94398D31E0E32EF12C802E72
:10499000B12E07E612E04C2C2DB73EB72850304020
:1049A0000FB6F8943EBF0FBE2DBFEDB7FEB73196E0
:1049B000ADB7BEB711968C9211971296BC92138325
:1049C0000283F582E482A091C00AB091C10A509698
:1049D0000D90BC91A02DC701880F991FA80FB91F7A
:1049E0008D919C91978386830E9482F7EDB7FEB7E5
:1049F00038960FB6F894FEBF0FBEEDBF8091B40A93
:104A00009091B50A642D7D2D482D5B2D0E94398D26
:104A10000894E11CF11CF7E0EF16F10409F0BCCF9B
:104A2000842D9D2D1EC4F80186818E3209F07EC032
:104A30008781873409F07AC08085803509F076C097
:104A40008185833509F072C0EBE3EE2EF12CEC0E7C
:104A5000FD1EC701BE016F5F7F4F46E752E021E0B8
:104A60000E9480B9882339F48091B20A9091B30AE8
:104A70006DE976E036CF7EE1C72ED12CCC0EDD1E5F
:104A8000C601B701A80126E40E9480B98823A1F4D9
:104A900087E39FE061E272E00E945EEAE091C00A73
:104AA000F091C10A0680F781E02DE75EFE4F8EEFA0
:104AB0009FEF918380836EC0E091C00AF091C10A9C
:104AC0000680F781E02DE75EFE4F87E090E091835E
:104AD0008083CE01885A9F4F2CE3DC011D922A95DA
:104AE000E9F700E010E0B82EE92EC601DC2CC92E53
:104AF000E091C00AF091C10A868197816B2D7E2DCD
:104B0000A8010E942B5C97FDE9C38091B40A9091A3
:104B1000B50A6D2D7C2D4B2D5E2D0E94398D0F5FBA
:104B20001F4F0436110509F4D9C3E2CF8AE792E09A
:104B3000B80148E050E00E94C6F6009709F09AC319
:104B40006BE3C62ED12CCC0EDD1EC601BE016F5FFD
:104B50007F4F4AE152E021E00E9480B9882339F476
:104B60008091B20A9091B30A62E876E0BACE5EE133
:104B7000E52EF12CEC0EFD1EC701B601A80122E5C1
:104B80000E9480B9882349F487E39FE061E272E0E4
:104B90000E945EEA0EEF1FEF77C38E01085A1F4F87
:104BA0008DE2F80111928A95E9F7C80163E576E094
:104BB0000E9473F68091B40A9091B50AB701A801DA
:104BC0000E94398DE091C00AF091C10A80819181E3
:104BD0000E94932100D000D0EDB7FEB73196ADB75B
:104BE000BEB712961C930E9311974DE2C42E42E06D
:104BF000D42ED382C282958384830E9482F7EDB73C
:104C0000FEB736960FB6F894FEBF0FBEEDBF80918B
:104C1000B40A9091B50AB701A8010E94398DC80164
:104C20006AE476E00E9473F68091B40A9091B50A26
:104C3000B701A8010E94398D4091B80A5091B90A74
:104C4000495F5F4F8091B40A9091B50AB7010E9405
:104C5000398D8091B40A9091B50AB70143E852E0CA
:104C60000E94398DC80161E476E00E9473F680915C
:104C7000B40A9091B50AB701A8010E94398D00D0FD
:104C800000D0EDB7FEB73196ADB7BEB712961C9304
:104C90000E931197D382C282A091C00AB091C10A2B
:104CA00014960D90BC91A02D8D919C9130E1232EF6
:104CB00037E2332EB1010E945DFF958384830E9409
:104CC00082F7EDB7FEB736960FB6F894FEBF0FBE6B
:104CD000EDBF8091B40A9091B50AB701A8010E9476
:104CE000398DC80163E376E00E9473F68091B40ABF
:104CF0009091B50AB701A8010E94398D00D000D06B
:104D0000EDB7FEB73196ADB7BEB712961C930E93B2
:104D10001197D382C282A091C00AB091C10A1496A1
:104D20000D90BC91A02D12968D919C911397B1017D
:104D30000E945DFF958384830E9482F7EDB7FEB7E2
:104D400036960FB6F894FEBF0FBEEDBF8091B40A41
:104D50009091B50AB701A8010E94398DC80161E29E
:104D600076E00E9473F68091B40A9091B50AB7017B
:104D7000A8010E94398D00D000D0EDB7FEB7319662
:104D8000ADB7BEB712961C930E931197D382C28211
:104D9000A091C00AB091C10A1A960D90BC91A02DA5
:104DA00014968D919C91159768EE73E00E945DFFBB
:104DB000958384830E9482F7EDB7FEB736960FB6CF
:104DC000F894FEBF0FBEEDBF8091B40A9091B50A72
:104DD000B701A8010E94398DC80160E176E00E9408
:104DE00073F68091B40A9091B50AB701A8010E94A8
:104DF000398D00D000D0EDB7FEB73196ADB7BEB754
:104E000012961C930E931197D382C282A091C00A6E
:104E1000B091C10A1A960D90BC91A02D16968D9155
:104E20009C911797B1010E945DFF958384830E9436
:104E300082F7EDB7FEB736960FB6F894FEBF0FBEF9
:104E4000EDBF8091B40A9091B50AB701A8010E9404
:104E5000398DC80161E076E00E9473F68091B40A52
:104E60009091B50AB701A8010E94398DE091C00A5E
:104E7000F091C10A0484F585E02D82809380A4809E
:104E8000B580C501B4010E940BF9CA56DF4F688393
:104E900079838A839B83C659D040C501B40120E041
:104EA00030E048EC52E40E9461FA0E940BF92B01B9
:104EB0003C012DB73EB7285030400FB6F8943EBFA6
:104EC0000FBE2DBF8DB69EB60894811C911CADB748
:104ED000BEB712961C930E93119786E892E0F401E8
:104EE00093838283CA56DF4F688179818A819B814F
:104EF000C659D0400E949DF8D40115967C936E93BC
:104F00001497C301B2010E949DF8CB0164E670E0E2
:104F10000E945DFFF401978386830E9482F72DB77C
:104F20003EB7285F3F4F0FB6F8943EBF0FBE2DBF70
:104F30008091B40A9091B50AB701A8010E94398DF9
:104F4000C80163EF75E00E9473F68091B40A9091F6
:104F5000B50AB701A8010E94398D00D000D0EDB785
:104F6000FEB73196ADB7BEB712961C930E9311974C
:104F7000D382C282A091C00AB091C10A1C960D9042
:104F8000BC91A02D8D919C9168EE73E00E945DFF15
:104F9000958384830E9482F7EDB7FEB736960FB6ED
:104FA000F894FEBF0FBEEDBF8091B40A9091B50A90
:104FB000B701A8010E94398DC80165EE75E00E9415
:104FC00073F68091B40A9091B50AB701A8010E94C6
:104FD000398D00D000D0ADB7BEB71196EDB7FEB792
:104FE000128301831396DC92CE921297E091BC0A51
:104FF000F091BD0AE059FF4F8081918115969C93F5
:105000008E9314970E9482F72DB73EB72A5F3F4FC9
:105010000FB6F8943EBF0FBE2DBF8091B40A909199
:10502000B50AB701A8010E94398DC80163ED75E08A
:105030000E9473F68091B40A9091B50AB701A80155
:105040000E94398D00D000D0EDB7FEB73196ADB7D4
:10505000BEB712961C930E931197D382C282A09171
:10506000C00AB091C10A16960D90BC91A02DAE5EFB
:10507000BE4F8D919C912AE0822E912CB4010E940A
:105080005DFF958384830E9482F7EDB7FEB7369665
:105090000FB6F894FEBF0FBEEDBF8091B40A909199
:1050A000B50AB701A8010E94398DC80168EC75E006
:1050B0000E9473F68091B40A9091B50AB701A801D5
:1050C0000E94398D00D000D0EDB7FEB73196ADB754
:1050D000BEB712961C930E931197D382C282A091F1
:1050E000B60AB091B70A11968D919C911297B401AE
:1050F0000E945DFF958384830E9482F7EDB7FEB71F
:1051000036960FB6F894FEBF0FBEEDBF8091B40A7D
:105110009091B50AB701A8010E94398DC8016EEBC4
:1051200075E00E9473F68091B40A9091B50AB701B8
:10513000A8010E94398D00D000D0EDB7FEB731969E
:10514000ADB7BEB712961C930E931197D382C2824D
:10515000A091C00AB091C10A52960D90BC91A02DA9
:105160008D919C91B1010E945DFF958384830E9483
:1051700082F7EDB7FEB736960FB6F894FEBF0FBEB6
:10518000EDBF8091B40A9091B50AB701A8010E94C1
:10519000398DC80164EB75E00E9473F68091B40A02
:1051A0009091B50AB701A8010E94398D00D000D0B6
:1051B000EDB7FEB73196ADB7BEB712961C930E93FE
:1051C0001197D382C282A091C00AB091C10A1296EF
:1051D0000D90BC91A02D14968D919C91159795835F
:1051E00084830E9482F7EDB7FEB736960FB6F89427
:1051F000FEBF0FBEEDBF8091B40A9091B50AB70112
:10520000A8010E94398DC80167EA75E00E9473F613
:105210008091B40A9091B50AB701A8010E94398D16
:10522000E091C00AF091C10A0280F381E02D8681ED
:10523000882321F0C8016DE872E003C0C80160E96D
:1052400072E00E94BFF68E01025E1F4F8091B40A89
:105250009091B50AB801AE01485A5F4F0E94398D4E
:10526000C8010E94A1B3CC56DF4FA881B981C459AF
:10527000D0401C92CE01CB960E94A1B3CE010196E4
:105280000E94A1B300E010E0CE01CB960E945E2206
:10529000CE014E960E945E22CE0101960E945E22B1
:1052A00002C00DEF1FEFC801C756DF4F0FB6F894CD
:1052B000DEBF0FBECDBFCF91DF911F910F91FF9049
:1052C000EF90DF90CF90BF90AF909F908F907F90A6
:1052D0006F905F904F903F902F900895CE014E9623
:1052E0000E94A1B3CC56DF4FE881F981C459D04068
:1052F0001082C0CFAF92CF92EF920F93E091BC0A91
:10530000F091BD0A7A9627E030E080E090E041918C
:1053100051916FEF4D39560709F4019621503040F5
:10532000B1F78730910509F05EC08091B80A90917D
:10533000B90A0E9474D18091B80A9091B90A61E0CB
:1053400070E049E955E024E000E0EE24AFE0CA2E29
:10535000AA240E9423DD8091B80A9091B90A61E0E5
:1053600070E047E855E021E002E00E9423DD8091F3
:10537000B80A9091B90A61E070E043E755E020E097
:1053800003E00E9423DD8091B80A9091B90A61E0A0
:1053900070E045E655E024E007E00E9423DD8091BF
:1053A000B20A9091B30A63E575E00E94B636809127
:1053B000B20A9091B30A61E475E00E94B63680911A
:1053C000B20A9091B30A6FE275E00E94B636E0919E
:1053D000B40AF091B50A81E080838091B80A909177
:1053E000B90A0E9474D180E090E00F91EF90CF90C5
:1053F000AF900895EF92FF920F931F93DF93CF9397
:10540000CDB7DEB7CA55D0400FB6F894DEBF0FBE99
:10541000CDBF8C01DE011F96E1EAF3E086E2019048
:105420000D928150E1F7DE01D596EBE7F3E086E2DD
:1054300001900D928150E1F7E091C00AF091C10A0C
:10544000CE010F96A085B18535E3E32EF12CEC0E4D
:10545000FD1E9D012A5D3F4FA701FC0161917191E5
:10546000CF016D937D93F701619171917F01F901F6
:10547000619371939F018417950779F78091B80A1A
:105480009091B90A0796FC0188ECDF011D928A957C
:10549000E9F78091B80A9091B90A079663E972E03A
:1054A0000E94BFF6E091C00AF091C10AA681B781BF
:1054B000AE5EBE4F82E090E08D939C93A481B58157
:1054C00088EC90E013969C938E9312978D939C9307
:1054D000A285B38584EF91E017969C938E931697DF
:1054E0008CE890E015969C938E93149724853585CF
:1054F00042E558EB6EEF7FE3D90112964D935D9331
:105500006D937C93159788E790E08D939C938091A1
:10551000BC0A9091BD0ADC01A059BF4F2FEF3FEFAD
:105520002D933C93A289B38920EA3FE02D933C93CD
:10553000A281B38124ED30E315963C932E9314970A
:1055400021E016962C939E012F5F3F4F6DE673E08E
:105550004EE0DB010D90BD01D9010D929D0141503E
:10556000C1F7DE0111960088F189E02D9E01215FCF
:105570003F4F4D915D9141935193A217B307C9F7E6
:10558000AC01445B5F4FDC01989626E1E22EF12CE2
:10559000E80EF91E29E030E06DE97FEFFA01119283
:1055A000119211921192AF011D921D921D921D92A6
:1055B000F701619371937F012150304079F7FC012D
:1055C000E358FF4F11821082FC01E158FF4F118216
:1055D0001082FC01ED57FF4FA1E0A083FC01EF57C3
:1055E000FF4F21E030E031832083FC01EC57FF4F77
:1055F0004FE050E051834083FC01EA57FF4F118296
:105600001082FC01E657FF4FA083FC01E857FF4FD3
:1056100031832083FC01E557FF4F11821082FC018A
:10562000E357FF4F31832083FC01EE56FF4F46E0E6
:1056300050E051834083FC01EC56FF4F62E070E084
:1056400071836083FC01EA56FF4F71836083FC0124
:10565000EA58FF4F6CE070E071836083FC01E8580A
:10566000FF4F63E070E071836083FC01E658FF4FF9
:1056700031832083FC01E756FF4F11821082FC0129
:10568000E556FF4F64E070E071836083FC01E356F0
:10569000FF4F31832083FC01E255FF4F11821082BE
:1056A000FC01E055FF4F65E070E071836083FC0111
:1056B000EE54FF4F31832083FC01EB54FF4F1182E6
:1056C0001082FC01E954FF4F51834083FC01E754F1
:1056D000FF4F31832083FC01E454FF4F318320834B
:1056E000FC01E254FF4F47E050E051834083FC014E
:1056F000EE53FF4FA083FC01E054FF4F3183208322
:10570000FC01E955FF4F6BE070E071836083FC01A1
:10571000E755FF4F51834083FC01E555FF4F31832F
:105720002083FC01E056FF4F6EE070E071836083E0
:10573000FC01EE55FF4F51834083FC01EA55FF4FBA
:10574000A0838C559F4FDC012D933C93F80114826C
:10575000138210821282118287E39FE060EA72E076
:105760000E940EEC80E090E0C65ADF4F0FB6F8942E
:10577000DEBF0FBECDBFCF91DF911F910F91FF9084
:10578000EF9008953F924F925F926F927F928F9227
:105790009F92AF92BF92CF92DF92EF92FF920F93C0
:1057A0001F93DF93CF9300D000D0CDB7DEB73B017E
:1057B0005E834D833C832B838091B20A9091B30A20
:1057C00060E070E0A30120E030E000E010E0EE24B3
:1057D000FF240E94E4362D813E812F5F3F4F3E83A0
:1057E0002D832901460C571C81E090E09A83898320
:1057F000CC24DD243324BB24AA249924882480913A
:10580000B20A9091B30A61E070E0A3012D813E815C
:1058100000E010E0EE24FF240E94E436F201119132
:105820002F01112309F45AC01A3009F457C01B3351
:1058300009F454C01E3209F445C01D3291F4809120
:10584000B20A9091B30A62E070E0A3012D813E811B
:1058500000E010E00E94E4362FEF3FEF3A83298307
:1058600033C0812F80538A3008F0AFC0332019F045
:105870000894C11CD11CA5019401652F7A2D832F9A
:10588000982D20E030E040E251E40E9461FA062FBA
:10589000B72EA82E992E612F70E060537040882794
:1058A00077FD8095982F0E94D0F89B01AC01602F66
:1058B0007B2D8A2D992D0E94B3F7B62EA72E982EF8
:1058C000892E02C0332433948D819E8101969E835C
:1058D0008D83873C91050CF492CF7AC04090B20A38
:1058E0005090B30AA5019401652F7A2D832F982D2E
:1058F0000E949DF88B019C01C20163E070E0A3014E
:1059000098018601E980FA800E94E436B601882772
:1059100077FD8095982F0E94D0F89B01AC0160E044
:1059200070E080E291E40E94C4FAB62FA72FF82F0E
:10593000E92FB501C401272F3A2D492F582DCA014F
:10594000B901AB2EBA2E0F2F1E2F9501A8010E9470
:1059500035F85B018C01E980FA80B701882777FD73
:105960008095982F0E94D0F89B01AC016A2D7B2D69
:10597000802F912F0E9461FAB62EA72E982E892E85
:105980004090B20A5090B30AA5019401652F742F7C
:10599000832F922F0E949DF88B019C01C20164E02D
:1059A00070E0A301980186010E94E436A5019401EC
:1059B000852F942FA32FB22FEB81FC8180839183BD
:1059C000A283B38320E030E005C02FEF3FEF02C099
:1059D0002EEF3FEFC90126960FB6F894DEBF0FBE3B
:1059E000CDBFCF91DF911F910F91FF90EF90DF908E
:1059F000CF90BF90AF909F908F907F906F905F906F
:105A00004F903F900895FB014F5F5F4FE40FF51FEC
:105A10008191882381F08A3071F08B3361F081337A
:105A200041F0803241F44F5F5F4F473C510584F3B2
:105A300002C081E001C080E0F901808380E090E055
:105A40000895EF92FF920F931F93DF93CF9300D0AF
:105A50000F92CDB7DEB789019E012F5F3F4F0E94A5
:105A6000C22B7C0169817A818B819C810E949DF887
:105A7000F801718360838091B20A9091B30A0E9409
:105A8000E536C7010F900F900F900F90CF91DF91E7
:105A90001F910F91FF90EF900895EF92FF920F9357
:105AA0001F93DF93CF9300D00F92CDB7DEB789015C
:105AB0009E012F5F3F4F0E94C22B7C0169817A813A
:105AC0008B819C810E949DF8F80171836083C701DE
:105AD0000F900F900F900F90CF91DF911F910F912A
:105AE000FF90EF9008950F931F93FB01D901CA0116
:105AF0000196E80FF91F80E090E0015010404E5FE2
:105B00005F4F0FC06191662379F06A3069F06B33A3
:105B100059F06D93BA01680F791F673C7105A4F4C1
:105B200001968017910774F3820F931FFC01108276
:105B30008091B20A9091B30A60E070E0A9010E94DE
:105B4000E73620E030E002C02EEF3FEFC9011F91A1
:105B50000F910895CF92DF92EF92FF921F93CF9310
:105B6000DF937B01EA0169012196EC0EFD1E20E026
:105B700030E0A901F70111917F01112311F11A30D1
:105B800001F11B33F1F0812F80538A3050F52196BB
:105B9000C73CD1054CF5CA01B9012AE030E040E02C
:105BA00050E00E941EFF9B01AC01812F90E0C09746
:105BB000AA2797FDA095BA2F280F391F4A1F5B1FF0
:105BC000D9CFF60120833183428353838091B20A77
:105BD0009091B30A60E070E00E94E83620E030E087
:105BE00005C02FEF3FEF02C02EEF3FEFC901DF915D
:105BF000CF911F91FF90EF90DF90CF9008952F925B
:105C00003F924F925F926F927F928F929F92AF924C
:105C1000BF92CF92DF92EF92FF920F931F93DF9389
:105C2000CF93CDB7DEB72B970FB6F894DEBF0FBE7C
:105C3000CDBF5C01D62EC72E82E390E00E9413F503
:105C4000882E092FE82EF92EE114F10441F48091F9
:105C5000B20A9091B30A6AEC74E00E94CB36C60196
:105C6000292F3C2DD901882D902FFC0100E010E058
:105C70008D918D3339F081930F5F1F4F02331105E2
:105C8000B9F7C3C4F701E00FF11F10828091B20A87
:105C90009091B30A60E070E0A7010E94E636C70168
:105CA00062EC74E00E946AF6009779F42091B80AD9
:105CB0003091B90A295F3F4FC5016D2D7C2DA80198
:105CC00008EC10E00E94732D9AC4C70161EB74E0E8
:105CD0000E946AF6009749F4E091C00AF091C10A67
:105CE000268137812E5E3E4F0DC0C70167EA74E002
:105CF0000E946AF6009769F42091B60A3091B70ABB
:105D00002F5F3F4FC5016D2D7C2DA8010E94212DD5
:105D100076C4C7016EE974E00E946AF6009739F410
:105D2000E091C00AF091C10A22893389EBCF83EB5D
:105D300092E0B70147E050E00E94C6F6009709F0F4
:105D400042C0882499243E010894611C711CEBEB2D
:105D50004E2EE2E05E2E00D000D0EDB7FEB73196B9
:105D6000ADB7BEB712967C926E9211975382428263
:105D7000958284820E9482F78DB79EB706960FB6F1
:105D8000F8949EBF0FBE8DBFC301B7010E94B6F647
:105D9000009789F4E091C00AF091C10AC401880F0C
:105DA000991F20853185280F391FC5016D2D7C2D48
:105DB000A8010E94212D0894811C911C93E1891651
:105DC000910449F61CC485EC92E0B70147E050E02D
:105DD0000E94C6F6009709F043C0882499243E012A
:105DE0000894611C711C6DEC462E62E0562E00D0AA
:105DF00000D0EDB7FEB73196ADB7BEB712967C9224
:105E00006E92119753824282958284820E9482F719
:105E10008DB79EB706960FB6F8949EBF0FBE8DBF86
:105E2000C301B7010E94B6F6009791F4E091C00A51
:105E3000F091C10AC4014396880F991F20853185CE
:105E4000280F391FC5016D2D7C2DA8010E94212D21
:105E50000894811C911C93E18916910441F6CFC3EB
:105E600087ED92E0B70147E050E00E94C6F6009748
:105E700009F043C041E0842E912C3E010894611C3E
:105E8000711C3FED432E32E0532E00D000D0EDB711
:105E9000FEB73196ADB7BEB712967C926E9211974F
:105EA00053824282958284820E9482F78DB79EB788
:105EB00006960FB6F8949EBF0FBE8DBFC301B70103
:105EC0000E94B6F6009789F4E091C00AF091C10AE9
:105ED000C401880F991F20893189280F391FC501F6
:105EE0006D2D7C2DA8010E94212D0894811C911CF0
:105EF00097E08916910449F682C389EE92E0B701D2
:105F000044E050E00E94C6F6009709F045C081E0E9
:105F1000882E912C2E010894411C511CBEEE2B2E74
:105F2000B2E03B2E01C0430134010894611C711C96
:105F300000D000D0EDB7FEB73196ADB7BEB7129620
:105F40005C924E92119733822282758264820E9403
:105F500082F78DB79EB706960FB6F8949EBF0FBE18
:105F60008DBFC201B7010E94B6F6009781F4C4014B
:105F70000B96880F991F2091BC0A3091BD0A280FFB
:105F8000391FC5016D2D7C2DA8010E94212D99E09E
:105F90006916710441F633C385EF92E0B70149E019
:105FA00050E00E94C6F6009709F047C0F1E08F2E3E
:105FB000912C2E010894411C511CEFEF2E2EE2E093
:105FC0003E2E01C0430134010894611C711C00D0B5
:105FD00000D0EDB7FEB73196ADB7BEB712965C9262
:105FE0004E92119733822282758264820E9482F7D8
:105FF0008DB79EB706960FB6F8949EBF0FBE8DBFA5
:10600000C201B7010E94B6F6009791F4C4010A9646
:10601000880F991F880F991F2091BC0A3091BD0AE3
:10602000280F391FC5016D2D7C2DA8010E94AA2DB6
:1060300099E06916710431F6E2C28BE093E0B70192
:1060400045E050E00E94C6F6009709F047C061E0C5
:10605000862E912C2E010894411C511C51E1252EB5
:1060600053E0352E01C0430134010894611C711CBA
:1060700000D000D0EDB7FEB73196ADB7BEB71296DF
:106080005C924E92119733822282758264820E94C2
:1060900082F78DB79EB706960FB6F8949EBF0FBED7
:1060A0008DBFC201B7010E94B6F6009791F4C401FA
:1060B0004396880F991F880F991F2091BC0A309131
:1060C000BD0A280F391FC5016D2D7C2DA8010E9426
:1060D000AA2D99E06916710431F691C2C70166E9EB
:1060E00074E00E946AF6009739F4E091C00AF091DA
:1060F000C10A2481358106CEC70169E874E00E9497
:106100006AF6009749F4E091C00AF091C10A24812F
:1061100035812E5F3F4FF6CDC70168E774E00E94DE
:106120006AF6009739F4E091C00AF091C10A22851D
:1061300033854DC2C70168E674E00E946AF6009795
:1061400049F4E091C00AF091C10A228533852A5FA3
:106150003F4FD8CDC7016AE574E00E946AF6009708
:1061600079F4E091C00AF091C10A248535852E5F4B
:106170003F4FC5016D2D7C2DA8010E94C22B3FC24F
:10618000C7016DE474E00E946AF6009739F4E0916B
:10619000C00AF091C10A24853585B4CDC70160E4F9
:1061A00074E00E946AF6009739F42091BC0A30919D
:1061B000BD0A20593F4FA6CDC70163E374E00E949A
:1061C0006AF6009739F42091BC0A3091BD0A235831
:1061D0003F4FE9C1C70166E274E00E946AF600978A
:1061E00039F42091BC0A3091BD0A21583F4FDBC1E0
:1061F000C70164E174E00E946AF6009739F42091C7
:10620000BC0A3091BD0A2D573F4FF3C1C70164E06E
:1062100074E00E946AF6009739F42091BC0A30912C
:10622000BD0A2F573F4FBFC1C70167EF73E00E9400
:106230006AF6009739F42091BC0A3091BD0A2C57B8
:106240003F4FB1C1C7016AEE73E00E946AF6009742
:1062500039F42091BC0A3091BD0A2A573F4FA3C19F
:10626000C70168ED73E00E946AF6009739F4209147
:10627000BC0A3091BD0A26573F4FBBC1C70168EC2D
:1062800073E00E946AF6009739F42091BC0A3091BD
:10629000BD0A28573F4F87C1C7016BEB73E00E94CF
:1062A0006AF6009739F42091BC0A3091BD0A2E5647
:1062B0003F4F79C1C7016EEA73E00E946AF600970A
:1062C00039F42091BC0A3091BD0A2C563F4F6BC166
:1062D000C7016EE973E00E946AF6009739F42091D5
:1062E000BC0A3091BD0A2A563F4F5DC1C7016DE817
:1062F00073E00E946AF6009739F42091BC0A30914D
:10630000BD0A2A583F4F4FC1C7016CE773E00E9496
:106310006AF6009739F42091BC0A3091BD0A2858DA
:106320003F4F41C1C70168E673E00E946AF60097DB
:1063300039F42091BC0A3091BD0A26583F4F33C131
:10634000C70169E573E00E946AF6009739F420916D
:10635000BC0A3091BD0A25573F4F25C1C7016AE4E9
:1063600073E00E946AF6009739F42091BC0A3091DC
:10637000BD0A23573F4F17C1C7016EE373E00E9468
:106380006AF6009739F42091BC0A3091BD0A27566D
:106390003F4F09C1C70162E373E00E946AF60097AC
:1063A00039F42091BC0A3091BD0A25563F4FFBC0FD
:1063B000C70163E273E00E946AF6009739F4209106
:1063C000BC0A3091BD0A23563F4FEDC0C70162E1C0
:1063D00073E00E946AF6009739F42091BC0A30916C
:1063E000BD0A22553F4FDFC0C70161E073E00E9444
:1063F0006AF6009739F42091BC0A3091BD0A205505
:106400003F4FD1C0C7016DEE72E00E946AF600975F
:1064100039F42091BC0A3091BD0A2E543F4FC3C0BD
:10642000C7016BED72E00E946AF6009739F4209183
:10643000BC0A3091BD0A2B543F4FB5C0C70169EC6F
:1064400072E00E946AF6009739F42091BC0A3091FC
:10645000BD0A29543F4FA7C0C70164EB72E00E94F8
:106460006AF6009739F42091BC0A3091BD0A27548E
:106470003F4F99C0C70165EA72E00E946AF6009733
:1064800039F42091BC0A3091BD0A24543F4F8BC08F
:10649000C70166E972E00E946AF6009739F420911C
:1064A000BC0A3091BD0A22543F4F7DC0C70162E84B
:1064B00072E00E946AF6009739F42091BC0A30918C
:1064C000BD0A2E533F4F95C0C70160E772E00E949E
:1064D0006AF6009739F42091BC0A3091BD0A205425
:1064E0003F4F61C0C70162E672E00E946AF6009702
:1064F00039F42091BC0A3091BD0A29553F4F53C051
:10650000C70164E572E00E946AF6009739F42091B1
:10651000BC0A3091BD0A27553F4F45C0C70163E40F
:1065200072E00E946AF6009739F42091BC0A30911B
:10653000BD0A25553F4F37C0C70165E372E00E9491
:106540006AF6009739F42091BC0A3091BD0A2056B2
:106550003F4F29C0C70167E272E00E946AF60097C8
:1065600039F42091BC0A3091BD0A2E553F4F1BC013
:10657000C70164E172E00E946AF6009739F4209145
:10658000BC0A3091BD0A2A553F4F33C0C70163E0B2
:1065900072E00E946AF6009769F42091BC0A30917B
:1065A000BD0A2C553F4FC5016D2D7C2DA8010E94C1
:1065B0004D2D25C0C7016AEF71E00E946AF6009771
:1065C00049F4E091C00AF091C10A228133812C5F25
:1065D0003F4F98CBC7016EEE71E00E946AF60097BC
:1065E000B9F4E091C00AF091C10A228133812A5F97
:1065F0003F4FC5016D2D7C2DA8010E94032DC701C1
:106600000E94ADF520E030E005C02FEF3FEF02C063
:106610002EEF3FEFC9012B960FB6F894DEBF0FBEE9
:10662000CDBFCF91DF911F910F91FF90EF90DF9041
:10663000CF90BF90AF909F908F907F906F905F9022
:106640004F903F902F9008956F927F929F92AF92BC
:10665000BF92CF92DF92EF92FF920F931F93DF933F
:10666000CF93CDB7DEB7C855D0400FB6F894DEBF94
:106670000FBECDBF3C016B0181E79AE09A8389830D
:106680001B821E829F8F8E8F18A21BA29CAF8BAF86
:106690001DAEFE01E05CFF4F10826091B40A709164
:1066A000B50A6A5F7F4F7E010894E11CF11CC701A7
:1066B0000E9420AE8E01055C1F4FC801B7014AE160
:1066C00052E021E00E9480B9882339F48091B20A17
:1066D0009091B30A64E175E0BCC0CE014E96B8015A
:1066E000A60121E00E9480B9882309F49FC088ECAC
:1066F00090E00E9413F57C01009749F48091B20A62
:106700009091B30A66E075E00E94CB3607C0E82F8F
:10671000F92F88ECDF011D928A95E9F782E090E07D
:106720000E9413F56C01009739F487E39FE069E15B
:1067300073E00E940EEC03C0FC011182108220E085
:1067400000E010E0AEE1AA2EB12CAC0EBD1EF8ECBC
:106750009F2E4BC0D6018C918A3011F08D3069F597
:10676000F701E00FF11F108201151105F9F0C301C7
:10677000B7010E94FF2D8C0197FF18C087E39FE0AF
:1067800067E273E00E945EEA87E39FE0B8014AE0B7
:1067900050E00E9492EB87E39FE069E473E00E947F
:1067A0005EEA87E39FE0B7010E940EECD701892DD6
:1067B0001D928A95E9F720E013C0833219F4011580
:1067C000110561F0222361F4F701E00FF11F8083CE
:1067D0000F5F1F4F083C11051CF404C021E002C0EC
:1067E00000E010E0D6011D921C92C501B60141E007
:1067F00050E069962FAF69970E9454AF69962FAD0C
:106800006997181619060CF4A5CFC7010E94ADF5BB
:10681000C5010E94A1B3CE01CB960E94A1B3CE01C7
:1068200001960E94A1B300E010E017C08091B20A67
:106830009091B30A6FEE74E00E94CB3687E39FE03D
:10684000B6010E940EEC8091B20A9091B30A68EDF5
:1068500074E00E94CB360FEF1FEFCE01CB960E9463
:106860005E22CE014E960E945E22CE0101960E94CB
:106870005E22C801C85ADF4F0FB6F894DEBF0FBEC4
:10688000CDBFCF91DF911F910F91FF90EF90DF90DF
:10689000CF90BF90AF909F907F906F900895EF92B0
:1068A000FF920F931F93DF93CF93CDB7DEB72A9755
:1068B0000FB6F894DEBF0FBECDBF8C01DC01119680
:1068C0008D919C9112978930910510F500D000D0E0
:1068D000EDB7FEB731967E010894E11CF11CADB70F
:1068E000BEB71296FC92EE92119728E533E03383FF
:1068F0002283958384830E9482F7EDB7FEB7369694
:106900000FB6F894FEBF0FBEEDBFC801B70103C0BC
:10691000C80163E673E00E9424332A960FB6F89408
:10692000DEBF0FBECDBFCF91DF911F910F91FF90C2
:10693000EF9008954F925F926F927F928F929F9205
:10694000AF92BF92CF92DF92EF92FF920F931F937D
:10695000CF93DF936C01E091C00AF091C10A848566
:1069600095850E94D68FEC01181619060CF097C079
:1069700081E0D6018C93BE01882777FD8095982F02
:106980000E94D0F826E636E646E650E40E9435F846
:106990008B01F82EE92E9701712F832F922F20E083
:1069A00030E0A9010E945DFA87FD0CC09701602FBD
:1069B000712F832F922F20E030E040E05FE30E94B0
:1069C000B3F70BC09701602F712F832F922F20E018
:1069D00030E040E05FE30E94B2F70E949DF87B0147
:1069E000F6014381548124E630E0429FC001439F79
:1069F000900D529F900D1124BE010E945DFF6F55B6
:106A00007040E091BC0AF091BD0A9F01245B3F4FAA
:106A1000AF01485D5F4F00E010E04701AA24BB24AE
:106A200086899789A1E08D329A0714F0D78BC68B9F
:106A3000D9014D905D906D907C901397480C591C36
:106A40006A1C7B1C4D925D926D927D929D01DA01D4
:106A50004D905D906D907C9013970894411C511C53
:106A6000611C711C4D925D926D927D92AD016B30F7
:106A7000710558F4868997898C179D0734F4CF3FA8
:106A8000D10509F014F4D78BC68B0F5F1F4F3296D8
:106A90000930110529F6F601D483C38316C0E091AD
:106AA000C00AF091C10A828193810E94DC42E09188
:106AB000C00AF091C10A0280F381E02D82819381A6
:106AC000009719F081E0D6018C93E091C00AF09113
:106AD000C10A808191810E94EF218B33910529F4B5
:106AE000C6016FE072E00E948922DF91CF911F9171
:106AF0000F91FF90EF90DF90CF90BF90AF909F905D
:106B00008F907F906F905F904F9008958F929F929B
:106B1000AF92BF92CF92DF92EF92FF920F931F93AB
:106B2000CF93DF934C018091B20A9091B30A62EE49
:106B300071E00E94CB36C091BC0AD091BD0A8DECA9
:106B40009AE062E070E00E94E8A488831982E091F4
:106B5000BC0AF091BD0A808191818A30910520F0B4
:106B600081E090E091838083DF01A45BBF4F1D92A1
:106B70001D921D921C921397178A168A10A611A6B1
:106B800012A613A68DEC9AE063E070E00E94E8A4E0
:106B9000182F8DEC9AE064E070E00E94E8A4082FC2
:106BA000E091C00AF091C10A808191810E949321F5
:106BB00024E6029F90011124210F311D82179307B3
:106BC00009F461C0E091BC0AF091BD0ADF01A05B4D
:106BD000BF4F1D921D921D921C921397118E108E05
:106BE00014A615A616A617A6E091C00AF091C10A30
:106BF000808191810E949321009709F444C0E09123
:106C0000C00AF091C10A808191810E949321C4E65B
:106C1000D0E0BE010E945DFF882777FD8095982F08
:106C20000E94D0F80E940BF90E949DF8462F8DEC2F
:106C30009AE064E070E00E94ECA4E091C00AF09158
:106C4000C10A808191810E949321BE010E945DFF53
:106C50009C01B901882777FD8095982F0E94D0F874
:106C60000E940BF90E949DF8462F8DEC9AE063E09C
:106C700070E00E94ECA481E0F4018083C4016FE025
:106C800072E00E948922E091C00AF091C10AC0819D
:106C9000D1818DEC9AE064E970E00E94E8A4882E2E
:106CA000CE016FEF7FEF4FEF5FEF2FEF3FEF0FEF73
:106CB0001FEFEE24EA94FE2CCC24CA94DC2CAA24E8
:106CC000AA94BA2C99240E94F420E091C00AF09171
:106CD000C10AC681D7818DEC9AE063E970E00E9419
:106CE000E8A4C650DF4F88831982C091B80AD091BA
:106CF000B90A8DEC9AE060E970E00E94E8A488830C
:106D0000C091B80AD091B90A8DEC9AE061E970E0BF
:106D10000E94E8A489838DEC9AE062E970E00E9409
:106D2000E8A4282FE091C00AF091C10A813049F40B
:106D300086819781FC01E85EFE4F20830E94CB5242
:106D400006C00680F781E02DE85EFE4F1082DF91DD
:106D5000CF911F910F91FF90EF90DF90CF90BF9058
:106D6000AF909F908F90089508950895CF93DF93EB
:106D7000EB0109C02196FB01649187E39FE040E0AD
:106D800050E00E944AEBBE01FE018491882391F7F6
:106D9000DF91CF910895CF93DF93EB0109C0219646
:106DA000FB01649187E39FE040E050E00E944AEBE2
:106DB000BE01FE018491882391F787E39FE00E9442
:106DC000B9EBDF91CF91089508950895089508953E
:106DD00008950895089521E73AE0FC013183208366
:106DE0002581222311F00E94A1B308950E944EDF55
:106DF00008950895EF92FF920F931F938C01F62E42
:106E0000E42E65E10E946BD1C8016F2D0E946BD109
:106E10006F2D675FC8010E946BD1C80165E70E94B2
:106E20006BD1C8016E2D0E946BD16E2D695FC801B8
:106E30000E946BD1C8016FEF0E9470D1C80160EF52
:106E40000E9470D1C8016FE00E9470D1C8016FEF3D
:106E50000E9470D1C80160E00E9470D1C80160E05A
:106E60000E9470D1C80160E00E9470D1C80160E04A
:106E70000E9470D1C80160E00E9470D1C80160E03A
:106E80000E9470D1C80160EF0E9470D1C8016FE00C
:106E90000E9470D1C80160E00E9470D1C80160EF0B
:106EA0000E9470D1C80160E00E9470D1C80160E00A
:106EB0000E9470D1C8016FE00E9470D1C8016FEFCD
:106EC0000E9470D1C80160EF0E9470D1C80160E0DB
:106ED0000E9470D1C80160EF0E9470D1C8016FE0BC
:106EE0000E9470D1C8016FEF0E9470D1C8016FEF8E
:106EF0000E9470D1C8016FEF0E9470D1C8016FE08D
:106F00000E9470D1C80160EF0E9470D1C80160EF8B
:106F10000E9470D1C80160E00E9470D1C80160E099
:106F20000E9470D1C8016FE00E9470D1C8016FE06B
:106F30000E9470D1C80160E00E9470D1C80160E079
:106F40000E9470D1C80160E00E9470D1C80160EF5A
:106F50000E9470D1C8016FE00E9470D1C80160E04A
:106F60000E9470D1C80160EF0E9470D1C80160E03A
:106F70000E9470D1C80160E00E9470D1C8016FEF1B
:106F80000E9470D1C80160E00E9470D1C80160E029
:106F90000E9470D1C80160E00E9470D1C80160E019
:106FA0000E9470D1C80160EF0E9470D1C8016FE0EB
:106FB0000E9470D1C8016FEF0E9470D1C80160E0DB
:106FC0000E9470D1C80160E00E9470D1C8016FE0DA
:106FD0000E9470D1C80160E00E9470D1C80160E0D9
:106FE0000E9470D1C80160E00E9470D1C8016FE0BA
:106FF0000E9470D1C80160E00E9470D1C8016FEF9B
:107000000E9470D1C80160E70E9470D1C80160EF92
:107010000E9470D1C80160E00E9470D1C80160E098
:107020000E9470D1C8016FEF0E9470D1C8016FEF4C
:107030000E9470D1C8016FEF0E9470D1C80160EF4B
:107040000E9470D1C80160E00E9470D1C8016FEF4A
:107050000E9470D1C80167E70E9470D1C80160EF3B
:107060000E9470D1C80160E00E9470D1C80160E048
:107070000E9470D1C80160E00E9470D1C80160E038
:107080000E9470D1C80160E00E9470D1C80160E028
:107090000E9470D1C80160E00E9470D1C8016FE009
:1070A0000E9470D1C8016FEF0E9470D1C80160E0EA
:1070B0000E9470D11F910F91FF90EF900895EF9271
:1070C000FF920F931F938C01F62EE42E65E10E9430
:1070D0006BD1C8016F2D0E946BD16F2D6E5FC801FF
:1070E0000E946BD1C80165E70E946BD1C8016E2D6B
:1070F0000E946BD16E2D695FC8010E946BD1C801DF
:1071000060E00E9470D1C80160EF0E9470D1C80198
:1071100060E00E9470D1C80160E00E9470D1C80197
:107120006FEF0E9470D1C80160EF0E9470D1C8015A
:1071300060E00E9470D1C80160EF0E9470D1C80168
:1071400060E00E9470D1C80160E00E9470D1C80167
:107150006FEF0E9470D1C80160EF0E9470D1C8012A
:1071600060E00E9470D1C80160EF0E9470D1C80138
:1071700060E00E9470D1C8016FE00E9470D1C80128
:107180006FEF0E9470D1C80160E00E9470D1C80109
:107190006FEF0E9470D1C8016FEF0E9470D1C801DB
:1071A00060EF0E9470D1C8016FE00E9470D1C801E9
:1071B0006FEF0E9470D1C80160E00E9470D11F91F2
:1071C0000F91FF90EF900895EF92FF920F931F930E
:1071D0008C01F62EE42E65E10E946BD1C8016F2D63
:1071E0000E946BD16F2D6D5FC8010E946BD1C801E9
:1071F00065E70E946BD1C8016E2D0E946BD16E2D88
