:100000000C94DA130D94690C0D949A0C0D94CB0C8E
:100010000D94FC0C0D942D0D0D945E0D0D948F0D13
:100020000D94C00D0C940B140C940B140C940B1425
:100030000C940B140C940B140C940B140C940B14C4
:100040000C940B140C940B140C940B140C940B14B4
:100050000C940B140C940B140C940B140D94F10DC4
:100060000C940B140D9458110C940B140C940B1449
:100070000C940B140C940B140C940B140C940B1484
:100080000C940B140C940B140C940B140C94CA17B2
:100090000C9490580C940B140C940B140D946C0A43
:1000A0000C940B140C940B140C940B140C940B1454
:1000B0000C940B140C940B140C940B140C940B1444
:1000C0000C940B140C940B140C940B140D948311BE
:1000D0000C940B140C940B140D94AE110C940B1483
:1000E0000C940B14036EDB363D9A9999993DABAA9B
:1000F000AA2A3E000000803F072C7AA5BA6CC59062
:10010000DA3B9365FC8BBC53F810FD3C5692834D53
:10011000BD879D3AB63DCBC9BF5BBE73DA0FC93F01
:1001200005A84CCDB2D44EB93836A9020C50B991BD
:100130008688083CA6AAAA2ABE000000803F076362
:100140004236B79BD8A71A39685618AEBAAB558C49
:100150001D3CB7CC5763BD6DEDFD753EF617723192
:10016000BF000000803F08000000BE922449123EFC
:10017000ABAAAA2ABECDCCCC4C3E00000080BEABC0
:10018000AAAAAA3E00000000BF000000803F0000B5
:10019000000000084178D3BB4387D1133D190E3CC2
:1001A000C3BD4282AD2B3E68EC8276BED98FE1A9F9
:1001B0003E4C80EFFFBE01C4FF7F3F000000000007
:1001C000426C696E6B657220696E697420646F6E33
:1001D0006500436C6F636B20696E697420646F6E99
:1001E00065004C61646520454550524F4D006C657B
:1001F000645F6D6F6465007267625F696E5F620065
:100200007267625F696E5F67007267625F696E5FE7
:1002100072007267625F6F75745F647A5F656E64A7
:100220005F62007267625F6F75745F647A5F656EAC
:10023000645F67007267625F6F75745F647A5F65A1
:100240006E645F72007267625F6F75745F647A5F7D
:1002500073746172745F62007267625F6F75745F5E
:10026000647A5F73746172745F67007267625F6F54
:1002700075745F647A5F73746172745F7200726721
:10028000625F6F75745F6B6D685F656E645F62005F
:100290007267625F6F75745F6B6D685F656E645FD8
:1002A00067007267625F6F75745F6B6D685F656E24
:1002B000645F72007267625F6F75745F6B6D685F19
:1002C00073746172745F62007267625F6F75745FEE
:1002D0006B6D685F73746172745F67007267625FF1
:1002E0006F75745F6B6D685F73746172745F7200B9
:1002F0007267625F6F75745F6F696C5F656E645F74
:1003000062007267625F6F75745F6F696C5F656EC4
:10031000645F67007267625F6F75745F6F696C5FBF
:10032000656E645F72007267625F6F75745F6F699C
:100330006C5F73746172745F62007267625F6F7585
:10034000745F6F696C5F73746172745F670072676A
:10035000625F6F75745F6F696C5F73746172745FF5
:1003600072007267625F6F75745F73746174696342
:100370005F62007267625F6F75745F737461746946
:10038000635F67007267625F6F75745F7374617437
:1003900069635F72007267625F666C6173685F6257
:1003A000007267625F666C6173685F6700726762A4
:1003B0005F666C6173685F72006B6D685F6D61781A
:1003C000006B6D685F6D696E006F696C5F6D617861
:1003D000006F696C5F6D696E00647A5F6D617800B3
:1003E000647A5F6D696E006F696C5F7761726E69C8
:1003F0006E670077617465725F7761726E696E67B0
:1004000000647A5F666C6173685F656E00647A5F32
:10041000666C6173680064656661756C745F666FB5
:100420006E74006675656C5F7769646765742E66C7
:100430006F6E74006675656C5F7769646765742EAE
:1004400073796D626F6C006675656C5F7769646760
:1004500065742E79006675656C5F7769646765748D
:100460002E7800676561725F7769646765742E66D0
:100470006F6E7400676561725F7769646765742E7B
:100480007900676561725F7769646765742E7800CB
:10049000636C6F636B5F7769646765742E666F6EFC
:1004A0007400636C6F636B5F7769646765742E7348
:1004B000796D626F6C00636C6F636B5F7769646703
:1004C00065742E7900636C6F636B5F776964676531
:1004D000742E7800616464696E666F325F77696458
:1004E0006765742E666F6E7400616464696E666F12
:1004F000325F7769646765742E7900616464696E40
:10050000666F325F7769646765742E780061646432
:10051000696E666F5F7769646765742E666F6E7467
:1005200000616464696E666F5F7769646765742EE5
:100530007900616464696E666F5F7769646765748A
:100540002E7800647A5F7769646765742E666F6ED3
:100550007400647A5F7769646765742E7900647AE1
:100560005F7769646765742E78006172726F775F78
:100570007769646765742E79006172726F775F774F
:1005800069646765742E78006B6D68636861725F7B
:100590007769646765742E666F6E74006B6D68634F
:1005A0006861725F7769646765742E79006B6D6846
:1005B000636861725F7769646765742E78006B6D3C
:1005C000685F7769646765742E666F6E74006B6D23
:1005D000685F7769646765742E79006B6D685F7713
:1005E00069646765742E78006169725F7769646712
:1005F00065742E666F6E74006169725F77696467F7
:1006000065742E73796D626F6C006169725F7769D2
:10061000646765742E79006169725F7769646765E4
:10062000742E780077617465725F776964676574AA
:100630002E666F6E740077617465725F77696467A8
:1006400065742E73796D626F6C0077617465725F8B
:100650007769646765742E790077617465725F7776
:1006600069646765742E78006F696C5F7769646789
:1006700065742E666F6E74006F696C5F776964676E
:1006800065742E73796D626F6C006F696C5F77694A
:10069000646765742E79006F696C5F77696467655C
:1006A000742E7800726566726573685F63796C6535
:1006B000006770735F74616B656F76657200726559
:1006C0006966656E5F756D66616E67006675656CFF
:1006D0005F626C696E6B5F66726571006675656CF2
:1006E0005F626C696E6B5F737461727400626C69D7
:1006F0006E6B65725F6869676800626C696E6B65D6
:1007000072006F696C5F6469737400736B696E5F0C
:1007100066696C65006163746976655F6E617669B0
:100720005F66696C650073746172747570004D6109
:100730006C6C6F63206661696C656400446F6E6504
:100740000021212046696C65206F70656E2066610E
:10075000696C65642021210021212046696C652097
:100760006F70656E206661696C6564202121004DA3
:10077000616C6C6F63206661696C6564006F7065A5
:100780006E20737562646972202F636F6E6669678D
:10079000206661696C656400202E2E2E2000526553
:1007A0006164696E673A200021212121205741525E
:1007B0004E494E472021212121005344206163638B
:1007C00065737320737472616E6765002121212146
:1007D000205741524E494E472021212121002121FD
:1007E000205741524E494E4720212100616C6C2018
:1007F0006D61782076616C7565733D3D2D393900EA
:1008000053442061636365737320737472616E6710
:1008100065002121205741524E494E472021210099
:100820006F696C5F7761726E696E673D00776174A6
:1008300065725F7761726E696E673D007267625FB5
:10084000666C6173685F623D007267625F666C61CF
:1008500073685F673D007267625F666C6173685FB3
:10086000723D006C65645F6D6F64653D0072676228
:100870005F6F75745F6F696C5F656E645F623D008A
:100880007267625F6F75745F6F696C5F656E645FDE
:10089000673D007267625F6F75745F6F696C5F655B
:1008A0006E645F723D007267625F6F75745F6F693F
:1008B0006C5F73746172745F623D007267625F6F38
:1008C00075745F6F696C5F73746172745F673D000C
:1008D0007267625F6F75745F6F696C5F737461726A
:1008E000745F723D007267625F6F75745F6B6D68F5
:1008F0005F656E645F623D007267625F6F75745F13
:100900006B6D685F656E645F673D007267625F6F05
:1009100075745F6B6D685F656E645F723D007267D2
:10092000625F6F75745F6B6D685F73746172745F23
:10093000623D007267625F6F75745F6B6D685F73B5
:10094000746172745F673D007267625F6F75745F98
:100950006B6D685F73746172745F723D0072676281
:100960005F6F75745F647A5F656E645F623D00728D
:1009700067625F6F75745F647A5F656E645F673D21
:10098000007267625F6F75745F647A5F656E645F43
:10099000723D007267625F6F75745F647A5F737433
:1009A0006172745F623D007267625F6F75745F644D
:1009B0007A5F73746172745F673D007267625F6F24
:1009C00075745F647A5F73746172745F723D0072F4
:1009D00067625F6F75745F7374617469635F623DB2
:1009E000007267625F6F75745F7374617469635FCF
:1009F000673D007267625F6F75745F7374617469DD
:100A0000635F723D007267625F696E5F623D007294
:100A100067625F696E5F673D007267625F696E5F04
:100A2000723D006B6D685F6D61783D006B6D685F56
:100A30006D696E3D006F696C5F6D61783D006F6937
:100A40006C5F6D696E3D00647A5F6D61783D006436
:100A50007A5F6D696E3D00647A5F666C6173685F92
:100A6000656E3D00647A5F666C6173683D006F6916
:100A70006C5F646973743D00736B696E5F66696C6B
:100A8000653D006163746976655F6E6176695F6676
:100A9000696C653D00726566726573685F63796C49
:100AA000653D006770735F74616B656F7665723D5D
:100AB0000072656966656E5F756D66616E673D00A3
:100AC0006675656C5F626C696E6B5F667265713DC1
:100AD000006675656C5F626C696E6B5F73746172E2
:100AE000743D00626C696E6B65725F686967683D32
:100AF00000626C696E6B65723D007374617274752F
:100B0000703D00235468697320697320616E206111
:100B100075746F2D67656E657261746564206669B2
:100B20006C652066726F6D20284D6F6E4461792967
:100B300020006F70656E20737562646972202F6388
:100B40006F6E666967206661696C6564006F7065C9
:100B50006E20737562646972202F636F6E666967B9
:100B6000206661696C656400235468697320697349
:100B700020616E206175746F2D67656E657261749A
:100B800065642066696C652066726F6D20284D6F04
:100B90006E4461792920006F70656E207375626400
:100BA0006972202F636F6E666967206661696C6584
:100BB0006400235468697320697320616E20617535
:100BC000746F2D67656E6572617465642066696C0B
:100BD000652066726F6D20284D6F6E446179292003
:100BE000006F70656E20737562646972202F636F89
:100BF0006E666967206661696C656400204279747D
:100C00006520686561702066726565002121205746
:100C100041524E494E4720212100534420616363D5
:100C2000657373206661696C6564002121205741FA
:100C3000524E494E47202121002121205741524E3A
:100C4000494E472021210076616C756573007275ED
:100C50006E6E696E67206F6E206261636B757000E7
:100C6000534420616363657373206661696C6564D6
:100C70002E002121205741524E494E47202121006C
:100C80004D616C6C6F63206661696C6564006661C0
:100C90006C7363686520616E7A61686C20616E2098
:100CA0006B6F6D6D617461004D616C6C6F6320667C
:100CB00061696C65640066696C655F6D616E616732
:100CC0006572206465616374697661746564006F40
:100CD00070656E526F6F74206661696C6564004662
:100CE00061696C656400446F6E65004661696C659E
:100CF0006400446F6E65004661696C656400446F12
:100D00006E65004661696C656400446F6E650046FF
:100D100061696C656400446F6E6500446F6E6500C8
:100D20004661696C656400446F6E65004661696C7C
:100D3000656400446F6E65006F70656E526F6F740E
:100D4000206661696C6564004D616C6C6F63206640
:100D500061696C65640066696C655F6D616E616791
:100D6000657220616374697661746564007375628D
:100D7000312E726D446972206661696C656400662B
:100D8000696C652E72656D6F7665206661696C654C
:100D9000640066696C652E6F70656E206661696CB3
:100DA00065640043616E2774206F70656E20006675
:100DB00061696C6564004D616C6C6F63206661698C
:100DC0006C656400455252320056616C75653A009C
:100DD0007E2063616E63656C20202020202020200F
:100DE000736176650066617374657220616E64205C
:100DF000736C6F77657200446F6E742073686966F8
:100E0000742121204472697665004F6C642056611C
:100E10006C75653A0047656172004D616C6C6F637B
:100E2000206661696C6564006F70656E2073756221
:100E3000646972202F636F6E666967206661696CF2
:100E40006564004D616C6C6F63206661696C6564FC
:100E50000047505320696E697420646F6E65003DD1
:100E60003D3D2053657475702066696E69736865D1
:100E700064203D3D3D0076302E332E362D31372D0A
:100E80006766626266663438003D3D3D205370659A
:100E900065646F696E6F203D3D3D00312E205370BB
:100EA0006565646F696E6F00322E20537072696ED3
:100EB00074206D6F646500332E204E617669676122
:100EC00074696F6E00342E202D00352E2045787405
:100ED000656E64656420696E666F00362E2043750A
:100EE00073746F6D697A6500372E20536574757061
:100EF00000382E2043616C6320616D6F756E740045
:100F0000392E205472697020417667204D61780037
:100F10009B0EA80EB70EC50ECA0EDB0EE80EF10E24
:100F2000000F312E20476561722063616C69622E6B
:100F300000322E2054697265206F75746C696E657D
:100F400000332E20446973706C6179207365747569
:100F50007000342E205265736574206D656D6F725C
:100F60007900352E204461796C696768742073615B
:100F700076696E6700362E20425420526573657480
:100F800020737461746500372E2057617465722078
:100F900074656D7000382E204F696C2074656D701B
:100FA00000392E2041626F757400220F310F410FFE
:100FB000520F620F750F870F950FA10F312E204C26
:100FC0006F616420536B696E00322E2053686F7717
:100FD0006E207472697000332E20445A20466C6172
:100FE0007368657200342E2043656E7465722052FA
:100FF000474200352E204F757465722052474200DB
:10100000362E20466C617368657220524742003765
:101010002E202D00382E2053686F7720416E696D89
:101020006174696F6E00392E2046696C656D616E62
:101030006167657200BC0FC90FD70FE50FF30F0092
:10104000100F1014102610312E2053746174696330
:1010500020636F6C6F7200322E20537065656420C0
:10106000626173656400332E2052504D20626173BB
:10107000656400342E204F696C2074656D702062A9
:101080006173656400352E202D00362E202D00372B
:101090002E202D00382E202D00392E202D00471017
:1010A00057106610731085108A108F1094109910C5
:1010B000312E2047505320696E666F7320312F32D6
:1010C00000322E2047505320696E666F7320322FF6
:1010D0003200332E20566F6C7461676500342E2009
:1010E0002D00352E202D00362E202D00372E202DC0
:1010F00000382E202D00392E20546574726973003B
:10110000B010C110D210DD10E210E710EC10F11099
:10111000F610312E204E617669207374617465007B
:10112000322E2053657420706F696E7465720033BF
:101130002E205365742066696C6500342E20436848
:1011400065636B2077726974657300352E202D00FE
:10115000362E202D00372E202D00382E202D003940
:101160002E202D00121120112F113B114B11501167
:1011700055115A115F113D204D61696E206D656EEC
:1011800075203D0000003D204E61766967617469FD
:101190006F6E203D00003D20496E666F726D617478
:1011A000696F6E203D003D20437573746F6D697AE1
:1011B00065203D003D205365747570203D00003D65
:1011C0002053746F72616765203D20007611841191
:1011D0008511861195119611A611B411BE11BF117A
:1011E000546F74616C004E6F6E5065726D616E6508
:1011F0006E740044617900546F75720051756963B3
:101200006B004675656C004F696C657200536169CF
:10121000736F6E00426F61726400E011E611F311AA
:10122000F711FC11021207120D12141258206E6FE2
:1012300020202020202020202020202079657320BD
:10124000580073746F7265616765732072657365AA
:1012500074656400416C6C204675656C0041766570
:1012600072616765206E6565643A2000416464655B
:1012700064206675656C20616D6F756E743A004B05
:101280004B6F6F6C6C6A6A616140676D61696C2E4F
:10129000636F6D00636F6E74616374206D652061B0
:1012A000740076302E332E362D31372D676662620C
:1012B00066663438007374617274656420342E324B
:1012C00030313000474E55202D204C6963656E73D8
:1012D00065640053706565646F696E6F0077617255
:1012E0006E696E67206C6576656C0074656D7065FF
:1012F000726174757265005365747570206F696CE6
:10130000005361766564007761726E696E67206C68
:101310006576656C0074656D706572617475726573
:10132000005365747570207761746572005361763F
:10133000656400706F77657200446F776E203D20A2
:10134000696E6163746976650042542D52657365F8
:1013500074005570203D2061637469766500446FA8
:10136000776E203D20696E61637469766500446123
:10137000796C6967687420736176696E670055706F
:10138000203D206163746976650043686F6F736503
:101390002072656620560043686F6F736520706821
:1013A00061736500736176656400536176656400FE
:1013B0002020636F6E74696E756500214B656570E2
:1013C0002064726976696E6721004368616E6765A3
:1013D00020476561722075702F646F776E004361DE
:1013E0006C69627261746520476561720046696C60
:1013F000656D616E616765720052656420202047EB
:101400007265656E202020426C756500416C6572C6
:10141000742052474200215344204552524F5221DA
:10142000005361766564004F696C2020526564202A
:10143000477265656E20426C7565004F696C2020AF
:1014400052656420477265656E20426C7565004D7B
:101450006178696D616C2076616C756573004D69AA
:101460006E696D616C2076616C756573004F757483
:1014700065722052474200215344204552524F5238
:10148000210053617665640072706D20205265649E
:1014900020477265656E20426C75650072706D2024
:1014A0002052656420477265656E20426C75650048
:1014B0004D6178696D616C2076616C756573004D66
:1014C000696E696D616C2076616C756573004F752E
:1014D0007465722052474200215344204552524FB6
:1014E0005221005361766564006B6D2F6820526550
:1014F0006420477265656E20426C7565006B6D2FC8
:10150000682052656420477265656E20426C75657F
:10151000004D6178696D616C2076616C7565730052
:101520004D696E696D616C2076616C756573004FF5
:10153000757465722052474200215344204552522F
:101540004F5221005361766564005265642020206B
:10155000477265656E202020426C7565004F75747A
:1015600065722052474200215344204552524F5247
:101570002100536176656400526564202020477223
:1015800065656E202020426C75650043656E74654C
:10159000722052474200215344204552524F52215B
:1015A00000536176656400696E61637469766500F5
:1015B0006163746976650061637469766500746F50
:1015C0002061646A75737400446F776E203D2069F2
:1015D0006E616374697665005570203D20616374A7
:1015E00069766500445A20466C61736865720053E1
:1015F0006176656400507265766965770046696C4E
:1016000065206E6F7420666F756E64004E6F206685
:1016100069727374206C696E6520636F6D6D656EA1
:1016200074004D616C6C6F63206661696C65640069
:101630005220676F20666F72206974004C205175CC
:10164000697400416C6578656A20506164736368F1
:1016500069746E6F7700696E2074726962757420A8
:10166000746F0054657472697300416464697469CD
:101670006F6E616C20696E666F00436F756E746586
:1016800072004750535F73617473004750535F7328
:1016900070656564004750535F616C746900475022
:1016A000535F6C617469004750535F6C6F6E6700E5
:1016B0004750535F64617465004750535F74696DB0
:1016C0006500506F696E7473207772697474656E0B
:1016D0000046696C65206E6F7420666F756E6400DD
:1016E0004E6F206669727374206C696E6520636F3B
:1016F0006D6D656E74004E61766920547261636B26
:1017000020506F696E74657200446F776E203D20C3
:10171000696E616374697665004E617669676174AC
:10172000696F6E005570203D2061637469766500B5
:101730004F696C657220696E697420646F6E650014
:10174000526573657420696E697420646F6E652ECE
:10175000205374617475732000766F6C756D652EFF
:10176000696E6974206661696C65640063617264A6
:101770002E696E6974206661696C6564002C005383
:1017800044206572726F723A20006572726F723A0D
:10179000200053656E736F727320696E69742064E4
:1017A0006F6E6500537065656420757021004E6F23
:1017B00020475053210020202020202020202020BE
:1017C00020202020202020202020202000534420E2
:1017D000616363657373206661696C65640057615A
:1017E0007465722072656164206661696C6564006D
:1017F0004F696C2072656164206661696C65640084
:101800004E6F2047505300426C696E6B65722076B4
:10181000657267657373656E0077617465722074B5
:10182000656D70207761726E696E67006F696C20FC
:1018300074656D70207761726E696E67004D6F74AC
:101840006F72206E6F6368206B616C74006B6D2F1C
:1018500068004D616C6C6F63206661696C65640043
:101860004D616C6C6F63206661696C6564004C69E6
:101870006E65733A20004C6576656C3A20004E65C3
:1018800078740054657472697300676F6573200023
:1018900053706565646F696E6F0052205265747293
:1018A00079004C205175697400596F75206C6F6F09
:1018B000736500566F6C7461676520004E6F20651C
:1018C00072726F7220666F756E642E0043616E27B0
:1018D00074206F70656E20726F6F7420646972651A
:1018E00063746F72792E00496E76616C696420664C
:1018F0006F726D61742C207265666F726D617420F9
:1019000053442E004E6F20636172642C2077726FF7
:101910006E6720636869702073656C6563742070FE
:10192000696E2C206F72205350492070726F626C68
:10193000656D3F0043616E27742061636365737357
:1019400020534420636172642E20446F206E6F74B4
:10195000207265666F726D61742E006572726F72AF
:101960003A20006572726F723A200053442065720B
:10197000726F72436F64653A203058000D0A007C24
:101980003C3E5E2B3D3F2F5B5D3B2C2A225C00667C
:10199000616C736500747275650042494720464C5E
:1019A000540066616C7365007472756500000021F7
:1019B00000240027002A002D003000330001010020
:1019C00000040107010A0100002200250028002B65
:1019D000002E003100340002010000050108010B57
:1019E00001000020002300260029002C002F0032D7
:1019F00000000100000301060109010505050507B6
:101A00000508080808020202020A0A080804040479
:101A100004010101010101010103030303030303A5
:101A200003040707070C0C0C0C0C0C0C0C02020234
:101A30000206060606060606060B0B0B0B0B0B0B27
:101A40000B010210202008081020401020408002C6
:101A500001020108040201010204081020408080F4
:101A60004020100804020180040201804020100878
:101A70000402010804020101020408102040800150
:101A8000020408102040800000090A02080B0C0D17
:101A90000706030401000000000000000000000031
:101AA0000000000000000000000000000000000036
:101AB000000000100F0E00000000000000000000F9
:101AC0000000000000000000000000000000000016
:101AD0000000000000101010101000100050500006
:101AE00000000000000050F850F85000002078A0DE
:101AF0007028F8200000C8D020205898006090A0DE
:101B0000789098E8002020000000000000102020BD
:101B10002020201000201010101010200020A8708D
:101B200070A8200000002020F82020000000000005
:101B30000000202000000000F8000000000000006D
:101B40000000002000000008102040800070D888AD
:101B50008888D87000E02020202020F800708808B5
:101B6000102040F80070880870088870001030500D
:101B70005090F81000F08080F00808F000384080A5
:101B8000F088887000F808101020202000708888E5
:101B90007088887000708888780810E00000002045
:101BA000000020000000002000002020000018603D
:101BB000C0601800000000F800F800000000C0300D
:101BC0001830C0000070880810200020007088B80D
:101BD000A8B88060002070D888F8888800F08888CD
:101BE000F88888F0007088808080887000E0908895
:101BF000888890E000F88080F88080F800F8808085
:101C0000F880808000708880988888700088888834
:101C1000F88888880070202020202070003808086C
:101C200008088870008890A0C0A0908800808080FC
:101C3000808080F80088D8F8A88888880088C8C87C
:101C4000A89898880070D8888888D87000F088880C
:101C5000F08080800070D88888D8701800F088885C
:101C6000F0A09088007088807008887000F82020AC
:101C700020202020008888888888887000888888AC
:101C8000505020200088A8A8A8A8D850008850202C
:101C900020508888008850502020202000F808100C
:101CA000204080F8006040404040406000000080DC
:101CB00040201008006020202020206000304800D4
:101CC0000000000000000000000000F800202000DC
:101CD000000000000000007008F898E8008080B064
:101CE000C888C8B000000070888088700008086844
:101CF000988898680000007088F880780018202084
:101D0000F82020200000788888780870008080B053
:101D1000C8888888002000602020207000100030D3
:101D20001010507000808090A0C0A09000C0404073
:101D300040404030000000F8A8A8A8A8000000B06B
:101D4000C88888880000007088888870000000F0CB
:101D500088F080800000007888780808000000B0D3
:101D6000C880808000000078807008F0004040F05B
:101D70004040403000000088888898680000008853
:101D80008850502000000088A8A8F8500000008863
:101D9000502050880000008850202040000000F8AB
:101DA000102040F8003828380000000000202020D3
:101DB00020202020002070F820202020002060F823
:101DC00068280808002030F8B0A0808000000000DB
:101DD0000000000000101010101000100050500003
:101DE00000000000000050F850F850000020F8807B
:101DF000F808F8200000C8D020205898006090A073
:101E0000789098E8002020000000000000102020BA
:101E1000202020100020101010101020000020F8AA
:101E20002050000000002020F820200000000000CA
:101E30000000202000000000F8000000000000006A
:101E40000000002000000008102040800000F888FA
:101E5000888888F800003010101010100000F80872
:101E6000F88080F80000F808380808F80000888832
:101E7000F80808080000F880F80808F80000F88062
:101E8000F88888F80000F808080808080000F888B2
:101E9000F88888F80000F888F80808080000002092
:101EA0000000200000000020000020200000102082
:101EB00040201000000000F800F800000000402062
:101EC000102040000000F808083800200000F888C2
:101ED000B8A8B8000000F888F88888880000F08862
:101EE000F88888F00000F880808080F80000F08892
:101EF000888888F00000F880E08080F80000F88092
:101F0000E08080800000F880B88888F80000888829
:101F1000F88888880000F820202020F800000808B1
:101F2000080888F800008890E09088880000808089
:101F3000808080F8000088D8A8888888000088C839
:101F4000A89888880000F888888888F80000F088B9
:101F5000F88080800000F88888A8F8200000F088C9
:101F6000F89088880000F880F80808F80000F82049
:101F70002020202000008888888888F80000888831
:101F8000888850200000888888A8D8880000885059
:101F90002020508800008888F82020200000F810B9
:101FA000204080F800006040404040600000008019
:101FB00040201008000060202020206000205000F9
:101FC0000000000000000000000000F800202000D9
:101FD00000000000000000F888F88888000000F881
:101FE00088F088F8000000F8808080F8000000F099
:101FF000888888F0000000F880E080F8000000F891
:1020000080E08080000000F880B888F80000008838
:1020100088F8888800000020202020200000000888
:10202000080888F80000008890E090880000008090
:10203000808080F8000000F8A8A8A8A8000000F898
:1020400088888888000000F8888888F8000000F8F0
:1020500088F88080000000F888A8F820000000F8C8
:1020600088F89088000000F880F808F8000000F870
:102070002020202000000088888888F80000008840
:1020800088885020000000A8A8A8A8F800000088B0
:10209000502050880000008850202020000000F8C8
:1020A000102040F8003828380000000000202020D0
:1020B00020202020002070F820202020002060F820
:1020C00068280808002030F8B0A0808000007E005A
:1020D00003FFC007FFE00FC3F00F00F01E00781EE3
:1020E00000783C003C3C003C3C003C78001E780002
:1020F0001E78001E78001E78001E78001E78001ED4
:1021000078001E78001E78001E78001E78001E3CA5
:10211000003C3C003C3C003C1E00781E00780F0058
:10212000F00FC3F007FFE003FFC0007E00000000D7
:1021300000FC000FFC003FFC003F3C00303C000076
:102140003C00003C00003C00003C00003C00003C27
:1021500000003C00003C00003C00003C00003C0053
:10216000003C00003C00003C00003C00003C000043
:102170003C00003C00003C00003C00003C00003CF7
:1021800000003C001FFFF81FFFF81FFFF803FC00D2
:102190003FFF807FFFC07E07E07001F04000F0004D
:1021A00000780000780000780000780000780000D7
:1021B000F80000F80001F00001F00003E00007C0A3
:1021C000000FC0001F80003F00007E0000FC0001E7
:1021D000F80003F00007E0000FC0001F80003F0080
:1021E000007E00007FFFF87FFFF87FFFF807FE000A
:1021F0003FFF803FFFE03C03F02001F00000F800CB
:1022000000780000780000780000780000F00000FE
:10221000F00003E003FFC003FF0003FFC00003F072
:102220000000F800007800007C00003C00003C004A
:10223000003C00003C00003C00007C400078600056
:10224000F87C07F07FFFE03FFF8007FC0000000004
:10225000000FC0000FC0001FC0003FC0003BC00007
:102260007BC000F3C000E3C001E3C003C3C003832D
:10227000C00783C00F03C00E03C01E03C03C03C0D1
:102280003803C07803C0F003C0F003C0FFFFFCFFB9
:10229000FFFCFFFFFC0003C00003C00003C00003FD
:1022A000C00003C00003C00003C00003C000000062
:1022B0003FFFE03FFFE03FFFE03C00003C00003C10
:1022C00000003C00003C00003C00003C00003FFCE3
:1022D000003FFF003FFFC0380FE02003E00001F0A7
:1022E0000000F0000078000078000078000078001E
:1022F00000780000780000780000F00001F0400352
:10230000E0780FE07FFFC07FFF001FF800003FE094
:1023100000FFF803FFF807E0380F80080F00001EE9
:1023200000001E00003C00003C00003C0000787FE4
:102330000079FFC07BFFF07FC1F87F007C7E003C0E
:102340007E003C7C001E7C001E7C001E7C001E3C2F
:10235000001E3C001E3C001E1E003C1E003C0F00E8
:10236000780FC1F807FFF001FFC0007F00000000F8
:102370007FFFF87FFFF87FFFF80000F00000F0001B
:1023800001F00001E00003E00003C00003C000070B
:10239000C0000780000F80000F00000F00001E002B
:1023A000001E00003E00003C00003C0000780000E1
:1023B000780000F80000F00000F00001E00001E00B
:1023C0000003E00003C00003C00007800000FF001E
:1023D00003FFE00FFFF01F81F81E00783E007C3CF9
:1023E000003C3C003C3C003C3C003C1E00781E0095
:1023F000780F81F007FFE001FF8007FFE01F81F801
:102400001E00783C003C7C003E78001E78001E7860
:10241000001E78001E78001E7C003E3C003C3E0002
:102420007C1F81F80FFFF007FFE000FF0000FE00B7
:1024300003FF800FFFE01F83F01E00F03C00783C9C
:10244000007878003C78003C78003C78003E7800CA
:102450003E78003E78003E3C007E3C007E3E00FE22
:102460001F83FE0FFFDE03FF9E00FE1E00003C00E8
:10247000003C00003C0000780000780000F01001F3
:10248000F01C07E01FFFC01FFF0007FC000000005A
:10249000000000000010101010100010005050003C
:1024A00000000000005050F850F85050002078A074
:1024B0007028F02000C0C81020409818006090A03C
:1024C00040A89068006020400000000000102040FC
:1024D000404020100040201010102040000020A894
:1024E00070A8200000002020F8202000000000003C
:1024F0000060204000000000F80000000000000024
:102500000000606000000008102040800070889883
:10251000A8C88870002060202020207000708808E3
:10252000102040F800F8102070088870001030501B
:1025300090F8101000F880F0080888700030408093
:10254000F088887000F808102040404000708888AB
:10255000708888700070888878081060000060605B
:1025600000606000000060600060204000102040BB
:1025700080402010000000F800F80000008040209B
:10258000102040800070880810200020007088B85B
:10259000A8B880700070888888F8888800F08888DB
:1025A000F08888F0007088808080887000E09088D3
:1025B000888890E000F88080F08080F800F88080C3
:1025C000F080808000708880B8888878008888884B
:1025D000F888888800702020202020700038101093
:1025E00010109060008890A0C0A09088008080802B
:1025F000808080F80088D8A8A8888888008888C843
:10260000A8988888007088888888887000F08888F2
:10261000F08080800070888888A8906800F08888A2
:10262000F0A0908800788080700808F000F82020E2
:1026300020202020008888888888887000888888E2
:102640008888502000888888A8A8A85000888850CA
:1026500020508888008888885020202000F80810A2
:10266000204080F8007040404040407000000080F2
:1026700040201008007010101010107000205088BA
:102680000000000000000000000000F800302010F2
:10269000000000000000007008788878008080B09A
:1026A000C88888F000000070808088700008086882
:1026B000988888780000007088F880700030484062
:1026C000F04040400000007088F80870008080B042
:1026D000C88888880020006020202070001000300A
:1026E0001010906000808090A0C0A090006020201A
:1026F00020202070000000D0A8A88888000000B02A
:10270000C88888880000007088888870000000F001
:1027100088F080800000006898780808000000B009
:10272000C880808000000070807008F00040E040A9
:102730004040483000000088888898680000008881
:10274000888850200000008888A8A85000000088D1
:10275000502050880000008888780870000000F839
:10276000102040F800102810000000000020202059
:1027700020202020002070F820202020002060F859
:1027800068280808002030F8B0A0808000000D9470
:10279000B1130D94BD130D9489130D946F130D9403
:1027A0005C130D9486140D94D0130D946E1435693A
:1027B00059F2D31311241FBECFEFD1E2DEBFCDBF3C
:1027C00000E00CBF1BE0A0E0B2E0E6EBF2E502E0C7
:1027D0000BBF02C007900D92AA35B107D9F710E1DF
:1027E000AAE5BBE001C01D92AD31B107E1F717E2E8
:1027F000C4EBD7E200E006C022970109FE010BBF3F
:102800000F945529CE3AD10780E00807A9F70E9416
:10281000C8670D9400200C9400000F931F93CF9372
:10282000DF93EC0181E090E00E94AE678C010E9492
:10283000C9C008831983DF91CF911F910F9108952B
:1028400008958F929F92AF92BF92CF92DF92EF92B4
:10285000FF920F931F93CF93DF935C014801062FE4
:10286000172F17FF02C000E010E00F3F110519F00D
:1028700014F00FEF10E0E42EE7017E01F52EE701E2
:10288000F7FE02C0C0E0D0E0CF3FD10519F014F050
:10289000CFEFD0E0E22EF32EF7FE02C0EE24FF24AD
:1028A0005FEFE516F10421F01CF09FEFE92EF12C0B
:1028B0008FEFC82ED12CB601601B710B8DE00F94E9
:1028C000340FB6016C1B7D0B8AE00F94340FB601F8
:1028D0006E197F098BE00F94340F8114910421F05D
:1028E000F5010283C583E086DF91CF911F910F919F
:1028F000FF90EF90DF90CF90BF90AF909F908F9020
:1029000008950F931F9301E010E09BDF1F910F913B
:1029100008958F929F92AF92BF92CF92DF92EF92E3
:10292000FF920F931F93CF93DF936C015801062FF3
:10293000172F17FF02C000E010E00F3F110519F03C
:1029400014F00FEF10E0E42EF52EF7FE02C0EE2497
:10295000FF248FEFE816F10421F01CF04FEFE42E76
:10296000F12CE22FEF014E01932EE40197FE02C0FD
:10297000C0E0D0E0CF3FD10519F014F0CFEFD0E0A8
:1029800087E0B8010F94340F88E0B7010F94340F3B
:1029900089E0BE010F94340FA114B10421F0F601B7
:1029A0000387E686C18BDF91CF911F910F91FF9036
:1029B000EF90DF90CF90BF90AF909F908F90089551
:1029C0000F931F9301E010E0A4DF1F910F91089572
:1029D000EF92FF920F931F93FC016F3F710519F067
:1029E00014F06FEF70E04F3F510519F014F04FEF06
:1029F00050E0822F932F8F3F910519F014F08FEF45
:102A000090E021E0E216F10451F464834783828769
:102A100082818383858186838085818709C06587DC
:102A2000408B838B83858487868587878189828B8A
:102A300013AF02AFF7AEE6AE15AE14AE1092900033
:102A400080919100856080939100809191008D7FAD
:102A5000809391008FEF8093950082E6809394009D
:102A600080917100816080937100C09A1F910F91D5
:102A7000FF90EF900895EF92FF920F931F93CF93E3
:102A8000DF93EC018DE061E00F94EE0F8AE061E0EE
:102A90000F94EE0F8BE061E00F94EE0F87E061E0A2
:102AA0000F94EE0F88E061E00F94EE0F89E061E093
:102AB0000F94EE0F1DAE1CAE1BAE1AAEFE01E05C15
:102AC000FF4F87EE93E091838083CE0160E070E05A
:102AD00040E050E020E030E073DF8CA59DA500973A
:102AE00021F469A54AA52BA514C08130910521F4D4
:102AF0006D8D4E8D2F8D0DC08230910521F46BA10F
:102B00004CA12DA106C08330910561F46F89488DD9
:102B1000298DCE0170E050E030E000E011E0EE24BD
:102B2000FF2456DF888199810E9433C1DF91CF91C4
:102B30001F910F91FF90EF9008952F923F924F9227
:102B40005F926F927F928F929F92AF92BF92CF923D
:102B5000DF92EF92FF920F931F93DF93CF9300D0FA
:102B60000F92CDB7DEB79C838B83FC0186AD97AD0A
:102B700064AD75AD02AD13AD8130910509F0DFC0D4
:102B8000C380DD24882777FD8095982F0F948522B8
:102B90004B015C01B801882777FD8095982F0F9431
:102BA00085221B012C01EB81FC81648170E06C1992
:102BB0007D09882777FD8095982F0F948522A501A0
:102BC00094010F941624A20191010F94EA21162F6B
:102BD000072FF82EE92EA8019701652F742F832F58
:102BE000922F20E030E0A9010F94122487FD0DC040
:102BF000A8019701652F742F832F922F20E030E0DA
:102C000040E05FE30F9468210CC0A8019701652F95
:102C1000742F832F922F20E030E040E05FE30F9489
:102C200067210F945222CB018C0D9D1D9A838983BD
:102C3000EB81FC81C680DD24678170E06C197D0921
:102C4000882777FD8095982F0F948522A501940100
:102C50000F941624A20191010F94EA218B01F82E02
:102C6000E92E9701712F832F922F20E030E0A901E8
:102C70000F94122487FD0CC09701602F712F832FB2
:102C8000922F20E030E040E05FE30F9468210BC01A
:102C90009701602F712F832F922F20E030E040E0CA
:102CA0005FE30F9467210F9452223B016C0C7D1C53
:102CB000EB81FC81C184DD24628570E06C197D09A3
:102CC000882777FD8095982F0F948522A501940180
:102CD0000F941624A20191010F94EA218B01F82E82
:102CE000E92E9701712F832F922F20E030E0A90168
:102CF0000F94122487FD0CC09701602F712F832F32
:102D0000922F20E030E040E05FE30F9468210BC099
:102D10009701602F712F832F922F20E030E040E049
:102D20005FE30F9467210F9452229B012C0D3D1DF0
:102D30008B819C8169817A81A301E3DDDBC0EB811A
:102D4000FC81C484DD24882777FD8095982F0F941B
:102D500085224B015C01B801882777FD8095982F6B
:102D60000F9485221B012C01EB81FC81658570E0AD
:102D70006C197D09882777FD8095982F0F948522FF
:102D8000A50194010F941624A20191010F94EA2148
:102D90008B01F82EE92E9701712F832F922F20E0BF
:102DA00030E0A9010F94122487FD0CC09701602F19
:102DB000712F832F922F20E030E040E05FE30F94EB
:102DC00068210BC09701602F712F832F922F20E075
:102DD00030E040E05FE30F9467210F945222CB0173
:102DE0008C0D9D1D9A838983EB81FC81C784DD2432
:102DF000608970E06C197D09882777FD8095982F90
:102E00000F948522A50194010F941624A20191012B
:102E10000F94EA218B01F82EE92E9701712F832F51
:102E2000922F20E030E0A9010F94122487FD0CC0FE
:102E30009701602F712F832F922F20E030E040E028
:102E40005FE30F9468210BC09701602F712F832FD0
:102E5000922F20E030E040E05FE30F9467210F9471
:102E600052223B016C0C7D1CEB81FC81C288DD246D
:102E7000638970E06C197D09882777FD8095982F0C
:102E80000F948522A50194010F941624A2019101AB
:102E90000F94EA218B01F82EE92E9701712F832FD1
:102EA000922F20E030E0A9010F94122487FD0CC07E
:102EB0009701602F712F832F922F20E030E040E0A8
:102EC0005FE30F9468210BC09701602F712F832F50
:102ED000922F20E030E040E05FE30F9467210F94F1
:102EE00052229B012C0D3D1D8B819C8169817A8131
:102EF000A30166DDEB81FC8184AD95AD22AD33ADE0
:102F00008217930754F4019695AF84AF8FEF8093A7
:102F1000950082E6809394001BC080919100887F89
:102F200080939100EB81FC8186AD97AD8130910556
:102F300039F484818383878186838285818708C071
:102F4000EB81FC8185858487808987878389828B53
:102F50000F900F900F900F90CF91DF911F910F91D5
:102F6000FF90EF90DF90CF90BF90AF909F908F90A9
:102F70007F906F905F904F903F902F900895FC014D
:102F800081E044AD55AD22AD33AD4217530709F092
:102F900080E008951F920F920FB60F920BB60F921A
:102FA00011242F933F934F935F936F937F938F934E
:102FB0009F93AF93BF93EF93FF9380916C0B90918E
:102FC0006D0BBBDDFF91EF91BF91AF919F918F9101
:102FD0007F916F915F914F913F912F910F900BBE19
:102FE0000F900FBE0F901F9018952F923F924F9207
:102FF0005F926F927F928F929F92AF92BF92CF9289
:10300000DF92EF92FF920F931F93DF93CF93CDB791
:10301000DEB72C970FB6F894DEBF0FBECDBF9C87EE
:103020008B87E091640BF091650BA080B180C2802A
:10303000D380C601B50124E630E040E050E00F94B3
:103040001829CA01B9010F9483220F94C0223B01B1
:103050004C0120E030E042E852E40F94E321882361
:1030600009F4A1C4C601B50128EE33E040E050E008
:103070000F941829CA01B9010F9483220F94C0221A
:103080007B018C0120E030E042E852E40F94E32120
:10309000882309F488C4C401B30120E030E044E887
:1030A00052E40F94E321882309F480C4C801B701D6
:1030B00020E030E044E852E40F94E321882309F44F
:1030C00075C4C601B50120E137E240E050E00F943D
:1030D0001829CA01B9010F9483220F94C02220E05D
:1030E00030E044E852E40F94E321882309F45EC4FD
:1030F000E0916A0BF0916B0BA281B38112960D9156
:103100001C91139714968D919C9115978017910798
:1031100008F062C016968C911697882309F45CC05B
:10312000EB85FC85E05CFF4F80819181009709F47D
:1031300040C48130910599F4E0916C0BF0916D0BD6
:1031400024AD35AD82AD93AD2817390709F02AC4F7
:10315000EB85FC85E05CFF4F1182108223C4E09177
:103160006C0BF0916D0B84309105D9F424AD35AD25
:1031700082AD93AD2817390709F014C464894589D5
:103180002689CF0170E050E030E00FE010E0EE243F
:10319000FF241EDCEB85FC85E05CFF4F81E090E0C6
:1031A000EBC124AD35AD82AD93AD2817390709F0D9
:1031B000F9C3CF0165E070E045E050E025E030E084
:1031C0000FE010E0EE24FF2403DCEB85FC85E05CDF
:1031D000FF4F84E090E0D0C1AB85BC859C968D917B
:1031E0009C919D97009791F55D01E0E4F0E0AE0EB3
:1031F000BF1ED5018D919C9111978230910509F4E4
:10320000D8C3E0916C0BF0916D0B8330910571F494
:1032100024AD35AD82AD93AD2817390709F0C2C38F
:1032200082E090E011969C938E93BCC361A542A569
:1032300023A5CF0170E050E030E00FE010E0EE2475
:10324000FF24C6DB83E090E0F50196C18130910553
:1032500009F041C1848595850E94F9ADAB85BC8597
:10326000D2962D913C91D397821793079CF0FD0144
:10327000E05CFF4F808191818630910509F44FC158
:1032800090966C91909791964C91919792962C91E3
:1032900092973DC1E0916A0BF0916B0B8485958507
:1032A0000E94F9ADEB85FC8524A935A928173907BB
:1032B000A4F0E05CFF4F808191818530910509F495
:1032C00055C1AB85BC855D966C915D975E964C91C2
:1032D0005E975F962C915F9741C1EB85FC8562A953
:1032E00073A9621B730B882777FD8095982F0F9425
:1032F00085221B012C01AB85BC8590966C91909723
:1033000070E05D968C91681B7109882777FD809528
:10331000982F0F948522A20191010F94EA21662E25
:10332000A72EE82E092FE0916A0BF0916B0B848594
:1033300095850E94F9ADEB85FC8524A935A9BC01D2
:10334000621B730B882777FD8095982F0F94852239
:103350009B01AC01662D7A2D8E2D902F0F94162493
:103360007B018C01AB85BC855D966C9170E08827F4
:1033700077FD8095982F0F9485229B01AC01C801A1
:10338000B7010F9468210F94522269837A838B834B
:103390009C83EB85FC8561A170E0868D681B7109BB
:1033A000882777FD8095982F0F948522A20191019F
:1033B0000F94EA21662EA72EE82E092FE0916A0BC2
:1033C000F0916B0B848595850E94F9ADAB85BC852A
:1033D000D4962D913C91D597BC01621B730B882725
:1033E00077FD8095982F0F9485229B01AC01662D67
:1033F0007A2D8E2D902F0F9416247B018C01EB8556
:10340000FC85668D70E0882777FD8095982F0F9456
:1034100085229B01AC01C801B7010F9468210F946C
:1034200052226D837E838F839887AB85BC8592966D
:103430006C91929770E05F968C91681B7109882758
:1034400077FD8095982F0F948522A20191010F940A
:10345000EA21262E672EE82E092FE0916A0BF091C3
:103460006B0B848595850E94F9ADA0906C0BB09094
:103470006D0BEB85FC8524A935A9BC01621B730B80
:10348000882777FD8095982F0F9485229B01AC01AA
:10349000622D762D8E2D902F0F9416247B018C019A
:1034A000AB85BC855F966C9170E0882777FD809531
:1034B000982F0F9485229B01AC01C801B7010F948E
:1034C00068210F9452228B019C01C50169817A8188
:1034D0004D815E8103C18230910509F002C1EB8507
:1034E000FC8566A977A90617170700F1E05CFF4F76
:1034F000808191818630910591F0AB85BC8596964F
:103500006C91969797964C91979798962C9180915D
:103510006C0B90916D0B70E050E030E051DAEB8570
:10352000FC85E05CFF4F86E090E026C0EB85FC85E3
:10353000E0ACF1ACE016F10610F1E05CFF4F8081E9
:1035400091818530910591F0AB85BC8593966C9106
:10355000939794964C91949795962C9180916C0B9F
:1035600090916D0B70E050E030E02ADAEB85FC853D
:10357000E05CFF4F85E090E09183808313C2EB8590
:10358000FC85A3A0BB246E197F09882777FD809551
:10359000982F0F9485221B012C010E191F09B801C9
:1035A00080E090E00F9483227B018C01AB85BC8589
:1035B00094966C919497E62FF0E0FA83E9839596C0
:1035C0008C919597282F30E03E832D8380916C0B52
:1035D00090916D0B9A87898796966C9170E06A1925
:1035E0007B09882777FD8095982F0F948522A2016B
:1035F00091010F94EA21A80197010F9416243B0131
:103600004C01B501882777FD8095982F0F9485226E
:103610009B01AC01C401B3010F9468210F945222A5
:103620003B014C01AB85BC8597966C9170E0E981BC
:10363000FA816E1B7F0B882777FD8095982F0F945A
:103640008522A20191010F94EA21A80197010F940C
:1036500016245B016C0129813A81B901882777FD25
:103660008095982F0F9485229B01AC01C601B5016E
:103670000F9468210F9452225B016C01AB85BC85CD
:1036800098966C9170E0ED81FE816E1B7F0B882710
:1036900077FD8095982F0F948522A20191010F94B8
:1036A000EA21A80197010F9416247B018C012D813A
:1036B0003E81B901882777FD8095982F0F94852248
:1036C0009B01AC01C801B7010F9468210F945222ED
:1036D0008B019C0189859A85B301A501980170D958
:1036E00061C18330910509F05DC1808591850E949B
:1036F000A3C3AB85BC859E962D913C919F97821765
:103700009307FCF0FD01E05CFF4F808191818630E2
:10371000910581F05A966C915A975B964C915B9704
:103720005C962C9180916C0B90916D0B70E050E049
:1037300030E046D9EB85FC85E05CFF4F86E090E009
:103740002EC0E0916A0BF0916B0B808591850E94F1
:10375000A3C3EB85FC8520A931A92817390714F1EB
:10376000E05CFF4F808191818530910591F0AB85C0
:10377000BC8557966C91579758964C915897599687
:103780002C9180916C0B90916D0B70E050E030E0CB
:1037900017D9EB85FC85E05CFF4F85E090E09183D5
:1037A000808307C1EB85FC8566A577A5621B730B3B
:1037B000882777FD8095982F0F9485221B012C0177
:1037C000AB85BC855A966C915A9770E057968C9150
:1037D000681B7109882777FD8095982F0F948522A3
:1037E000A20191010F94EA21662EA72EE82E092F3F
:1037F000E0916A0BF0916B0B808591850E94A3C3C9
:10380000EB85FC8520A931A9BC01621B730B8827BD
:1038100077FD8095982F0F9485229B01AC01662D32
:103820007A2D8E2D902F0F9416247B018C01AB8561
:10383000BC8557966C9170E0882777FD8095982F0E
:103840000F9485229B01AC01C801B7010F94682138
:103850000F94522269837A838B839C83EB85FC854A
:10386000638D70E0808D681B7109882777FD8095D6
:10387000982F0F948522A20191010F94EA21662EC0
:10388000A72EE82E092FE0916A0BF0916B0B808533
:1038900091850E94A3C3AB85BC85D0962D913C91A8
:1038A000D197BC01621B730B882777FD8095982FF9
:1038B0000F9485229B01AC01662D7A2D8E2D902FC1
:1038C0000F9416247B018C01EB85FC85608D70E0E4
:1038D000882777FD8095982F0F9485229B01AC0156
:1038E000C801B7010F9468210F9452226D837E8323
:1038F0008F839887AB85BC855C966C915C9770E0F4
:1039000059968C91681B7109882777FD8095982FAF
:103910000F948522A20191010F94EA21262E672E91
:10392000E82E092FE0916A0BF0916B0B8085918551
:103930000E94A3C3A0906C0BB0906D0BEB85FC852F
:1039400020A931A9BC01621B730B882777FD8095E4
:10395000982F0F9485229B01AC01622D762D8E2D20
:10396000902F0F9416247B018C01AB85BC85599652
:103970006C9170E0882777FD8095982F0F948522B1
:103980009B01AC01C801B7010F9468210F9452222A
:103990008B019C01C50169817A814D815E8198010D
:1039A0000FD807C009C02FEF3FEF05C02EEF3FEF44
:1039B00002C020E030E0C9012C960FB6F894DEBFBB
:1039C0000FBECDBFCF91DF911F910F91FF90EF9070
:1039D000DF90CF90BF90AF909F908F907F906F902F
:1039E0005F904F903F902F90089508950895EF9223
:1039F000FF920F931F93CF93DF93EC0185E00F9419
:103A0000A5108130910539F40F94390E69877A87B2
:103A10008B879C8715C00097A9F5E984FA840B85EC
:103A20001C8588EE93E0A0E0B0E0E80EF91E0A1FC6
:103A30001B1F0F94390E6E157F058007910710F537
:103A40008C81882311F581E08C83E091660BF091E5
:103A5000670BE259FF4FE080F18002811381E09112
:103A60006A0BF0916B0B848595850E94F9ADED8210
:103A7000FE820F83188709C01C821D821E821F824E
:103A8000188603C08C818823B9F7DF91CF911F91ED
:103A90000F91FF90EF900895FC0145835683678353
:103AA00070872135310574F082819381AA2797FDB3
:103AB000A095BA2F840F951FA61FB71F85839683E5
:103AC000A783B0870895EF92FF920F931F93FC0195
:103AD0007A018B0180819181AA2797FDA095BA2F49
:103AE0002581368147815085820F931FA41FB51F02
:103AF0008E159F05A007B10710F4848101C080E0F6
:103B00001F910F91FF90EF900895CF93DF93EC01F9
:103B100085E060E00F94EE0F80915C0B90915D0B5F
:103B200060EC71E00E94A33F19861A861B861C86F2
:103B30001B821A82DF91CF91089508950895FC01A8
:103B4000DB01808191812D913C91119728173907D4
:103B500039F08081918111969C938E9381E0089534
:103B600080E00895862F6AE00F94E5288295807F93
:103B7000890F0895962F92959F70990F292F220FE4
:103B8000220F290F862F8F70820F08954F925F9218
:103B90006F927F928F929F92AF92BF92CF92DF925D
:103BA000EF92FF920F931F93DF93CF93CDB7DEB7C2
:103BB0003C01290177FD03C0FC017387628757FD33
:103BC00003C0F30151874087F4E08F16910418F485
:103BD000F3019786868617FD0BC0F30186859785CE
:103BE000800F911F68E170E00F940529958384830D
:103BF000F7FC03C0F301F382E282F301808191813B
:103C00008C199D098B30910544F4808191818C1928
:103C10009D09FFEF863F9F072CF4D7FC03C0F301FB
:103C2000D182C082B7FC03C0F301B586A48657FCDD
:103C300023C0F3018481958126853785820F931FE8
:103C400068E170E00F94F12880E090E00F94832207
:103C50000F94C0226B017C01B201882777FD80950B
:103C6000982F0F948522A70196010F9468210F9435
:103C70005722F30177836683CF91DF911F910F91D4
:103C8000FF90EF90DF90CF90BF90AF909F908F907C
:103C90007F906F905F904F900895FC01138612867D
:103CA0001186108617821682158214821382128260
:103CB000118210821786168680915C0B90915D0BA5
:103CC00062ED71E00C94A33FFC01868197816085D1
:103CD000718544E650E0649F9001659F300D749FAC
:103CE000300D1124280F391FC9010895CF93DF9398
:103CF000EC014A855B85888599852E813F81840FFB
:103D0000951F820F931F009771F16A857B8580E074
:103D100090E024E630E040E050E00F94C62828858B
:103D2000398540E050E0620F731F841F951F24E621
:103D300030E040E050E00F94C6289B01AC018E813A
:103D40009F81A0E0B0E0280F391F4A1F5B1F203081
:103D500080E238078FE0480780E0580740F020E015
:103D600030E0A90104C02FE332E44FE050E0B90194
:103D7000CA01DF91CF910895FC018685978508954A
:103D8000FC0120813181C9010895FC01808191816C
:103D9000019691838083808191818C339105D1F448
:103DA0001182108282819381019693838283828122
:103DB00093818C33910571F41382128284819581F1
:103DC000019695838483848195818831910511F4CE
:103DD0001582148208950F931F93CF93DF93FC01F4
:103DE00084819581C281D381008111812DB73EB735
:103DF0002A5030400FB6F8943EBF0FBE2DBFEDB72E
:103E0000FEB73196ADB7BEB712967C936E931197FD
:103E100020E032E03383228324E630E0B9010F94BE
:103E2000F12895838483CE01B9010F94F1289783FB
:103E30008683C801B9010F94F128918780870F9478
:103E400038212DB73EB7265F3F4F0FB6F8943EBFDF
:103E50000FBE2DBFDF91CF911F910F91089529E1E2
:103E60003BE0FC01318320832581222311F00C9457
:103E700004DF08950895CF93DF93C0E0D0E2219747
:103E8000CE010F94CD1E0097D1F30F94671F8FEDD5
:103E90009FE0BE014AE050E00F94D01580915C0B8A
:103EA00090915D0B6CEF7BE00E94A33FDF91CF917F
:103EB000089508952F923F924F925F926F927F9252
:103EC0008F929F92AF92BF92CF92DF92EF92FF922A
:103ED0000F931F93DF93CF93CDB7DEB7C959D0406F
:103EE0000FB6F894DEBF0FBECDBFCC56DF4F99831F
:103EF0008883C459D0408B01E0916A0BF0916B0B21
:103F00000680F781E02DE75EFE4F84E090E091832C
:103F1000808360915E0B70915F0BDB018C91882335
:103F200011F00C94B02D85E090E091838083CC5605
:103F3000DF4FA881B981C459D0408C91882311F4F6
:103F40000C94B02D86E090E09183808389E19BE022
:103F50009A8389831B821E829F8F8E8F18A21BA239
:103F60009CAF8BAF1DAEFE01E05CFF4F10826A5F1D
:103F70007F4F7E010894E11CF11CC7010E949ED96D
:103F80008FE092E0B8014AE050E00F948020009763
:103F900009F056C1CC56DF4FE881F981C459D040B1
:103FA0008081882309F44CC12BE3822E912C8C0E46
:103FB0009D1EC401B7014AE152E021E00E94BBE42A
:103FC000882339F480915C0B90915D0B61EE7BE06E
:103FD00057C19EE1C92ED12CCC0EDD1EC601B40105
:103FE000A80122E50E94BBE4882329F48FED9FE01D
:103FF00061E272E0B7C28E01085A1F4F83E2D80116
:104000001D928A95E9F7C80162EB7BE00F942D20A1
:1040100080915E0B90915F0BB601A8010E945FAB8F
:10402000E0916A0BF0916B0B808191814DDE00D0A5
:1040300000D0EDB7FEB73196ADB7BEB712961C9360
:104040000E9311972EE232E033832283958384838B
:104050000F943821EDB7FEB736960FB6F894FEBF31
:104060000FBEEDBF80915E0B90915F0BB601A80172
:104070000E945FAB81E0E82EF12CB02E812E02E38E
:10408000602E02E0702EC601DC2CC92E1EE3412EEC
:1040900012E0512EB0E52B2EB2E03B2E01C078018C
:1040A0008091660B9091670BF7013C96EE0FFF1F16
:1040B000E80FF91F2081318141E02F35340724F0CA
:1040C000A8ECB0E0B183A08387010F5F1F4FEDB76D
:1040D000FEB738970FB6F894FEBF0FBEEDBF31960E
:1040E000ADB7BEB71196BC92119712968C9273829F
:1040F000628215830483D7011C96AA0FBB1FA80FE9
:10410000B91F8D919C9168EE73E00F9405299783F8
:1041100086830F943821EDB7FEB738960FB6F89422
:10412000FEBF0FBEEDBF80915E0B90915F0B6D2DBA
:104130007C2D4B2D582D0E945FAB2DB73EB72A50DA
:1041400030400FB6F8943EBF0FBE2DBFEDB7FEB79F
:104150003196ADB7BEB71196BC92119712968C925C
:104160005382428215830483A091660BB091670B42
:10417000EE0CFF1CEE0CFF1CAE0DBF1D9A968D9130
:104180009D910D90BC91A02D86839783A087B187C8
:104190000F943821EDB7FEB73A960FB6F894FEBFEC
:1041A0000FBEEDBF80915E0B90915F0B6D2D7C2D4E
:1041B0004B2D582D0E945FAB2DB73EB72A50304093
:1041C0000FB6F8943EBF0FBE2DBFEDB7FEB73196C8
:1041D000ADB7BEB71196BC92119712968C923382EE
:1041E000228215830483A091660BB091670BAE0DFC
:1041F000BF1DA25BBF4F8D919D910D90BC91A02DD5
:1042000086839783A087B1870F943821EDB7FEB7D7
:104210003A960FB6F894FEBF0FBEEDBF80915E0BCD
:1042200090915F0B6D2D7C2D4B2D582D0E945FAB17
:104230000930110509F033CF8D2D9C2D0C94902D54
:104240008FE592E0B80148E050E00F94802000979D
:1042500009F0BDC05BE3E52EF12CEC0EFD1EC7019D
:10426000BE016F5F7F4F4AE152E021E00E94BBE454
:10427000882361F480915C0B90915D0B67E97BE092
:104280000E94A33F0FEF1FEF0C94A32D4EE1C42E0D
:10429000D12CCC0EDD1EC601B701A80122E50E947B
:1042A000BBE4882329F48FED9FE068E672E05AC1F1
:1042B0008E01085A1F4F84E1F80111928A95E9F79F
:1042C000C80168E67BE00F942D2080915E0B9091F1
:1042D0005F0BB601A8010E945FABE0916A0BF09101
:1042E0006B0B80819181F0DC00D000D0EDB7FEB780
:1042F0003196ADB7BEB712961C930E9311972EE26E
:1043000032E033832283958384830F943821EDB781
:10431000FEB736960FB6F894FEBF0FBEEDBF809184
:104320005E0B90915F0BB601A8010E945FAB31E07C
:10433000E32EF12C802EB12E05E712E04C2C2DB788
:104340003EB7285030400FB6F8943EBF0FBE2DBF89
:10435000EDB7FEB73196ADB7BEB711968C921197F7
:104360001296BC9213830283F582E482A0916A0BB9
:10437000B0916B0B50960D90BC91A02DC701880F8A
:10438000991FA80FB91F8D919C91978386830F94D5
:104390003821EDB7FEB738960FB6F894FEBF0FBEC2
:1043A000EDBF80915E0B90915F0B642D7D2D482DAC
:1043B0005B2D0E945FAB0894E11CF11CF7E0EF1647
:1043C000F10409F0BCCF842D9D2D0C94902DF801A3
:1043D00086818E3209F093C08781873409F08FC0BF
:1043E0008085803509F08BC08185833509F087C0D1
:1043F00080915E0B90915F0B0E946EAB64E170E068
:1044000080E090E00F946D0E80915E0B90915F0BB9
:104410000E9476ABEBE3EE2EF12CEC0EFD1EC701F5
:10442000BE016F5F7F4F44E852E021E00E94BBE491
:10443000882339F480915C0B90915D0B6DE47BE0F7
:104440001FCF7EE1C72ED12CCC0EDD1EC601B701D9
:10445000A80126E40E94BBE48823A1F48FED9FE02D
:1044600068E872E00F94A514E0916A0BF0916B0B71
:104470000680F781E02DE75EFE4F8EEF9FEF918380
:10448000808372C0E0916A0BF0916B0B0680F7811C
:10449000E02DE75EFE4F87E090E091838083CE01C0
:1044A000885A9F4F2CE3DC011D922A95E9F700E022
:1044B00010E0B82EE92EC601DC2CC92EE0916A0B63
:1044C000F0916B0B868197816B2D7E2DA8010E9448
:1044D000566697FF02C00C94CD2D80915E0B909193
:1044E0005F0B6D2D7C2D4B2D5E2D0E945FAB0F5F02
:1044F0001F4F0436110511F40C94CD2DDFCF85E943
:1045000092E0B80148E050E00F948020009711F04D
:104510000C94992D6BE3C62ED12CCC0EDD1EC6015A
:10452000BE016F5F7F4F4AE152E021E00E94BBE491
:10453000882339F480915C0B90915D0B62E37BE002
:104540009FCE5EE1E52EF12CEC0EFD1EC701B601FB
:10455000A80122E50E94BBE4882351F48FED9FE07F
:104560006EE972E00F94A5140EEF1FEF0C94A32DCB
:104570008E01085A1F4F8DE2F80111928A95E9F7D2
:10458000C80163E07BE00F942D2080915E0B909139
:104590005F0BB701A8010E945FABE0916A0BF0913D
:1045A0006B0B8081918190DB00D000D0EDB7FEB71E
:1045B0003196ADB7BEB712961C930E9311974EE28B
:1045C000C42E42E0D42ED382C282958384830F947A
:1045D0003821EDB7FEB736960FB6F894FEBF0FBE82
:1045E000EDBF80915E0B90915F0BB701A8010E9417
:1045F0005FABC8016AEF7AE00F942D2080915E0BCB
:1046000090915F0BB701A8010E945FAB4091620BD4
:104610005091630B495F5F4F80915E0B90915F0BF0
:10462000B7010E945FAB80915E0B90915F0BB70169
:104630004BEA52E00E945FABC80161EF7AE00F9451
:104640002D2080915E0B90915F0BB701A8010E9415
:104650005FAB00D000D0EDB7FEB73196ADB7BEB7B7
:1046600012961C930E931197D382C282A0916A0B6B
:10467000B0916B0B14960D90BC91A02D8D919C91D7
:1046800030E1232E37E2332EB1010F9405299583B3
:1046900084830F943821EDB7FEB736960FB6F894A1
:1046A000FEBF0FBEEDBF80915E0B90915F0BB70117
:1046B000A8010E945FABC80163EE7AE00F942D2041
:1046C00080915E0B90915F0BB701A8010E945FABD8
:1046D00000D000D0EDB7FEB73196ADB7BEB7129699
:1046E0001C930E931197D382C282A0916A0BB09152
:1046F0006B0B14960D90BC91A02D12968D919C91F0
:104700001397B1010F940529958384830F94382161
:10471000EDB7FEB736960FB6F894FEBF0FBEEDBFED
:1047200080915E0B90915F0BB701A8010E945FAB77
:10473000C80161ED7AE00F942D2080915E0B90917D
:104740005F0BB701A8010E945FAB00D000D0EDB7AE
:10475000FEB73196ADB7BEB712961C930E93119764
:10476000D382C282A0916A0BB0916B0B1A960D9006
:10477000BC91A02D14968D919C91159768EE73E0D5
:104780000F940529958384830F943821EDB7FEB7E4
:1047900036960FB6F894FEBF0FBEEDBF80915E0B4C
:1047A00090915F0BB701A8010E945FABC80160EC5C
:1047B0007AE00F942D2080915E0B90915F0BB701F2
:1047C000A8010E945FAB00D000D0EDB7FEB73196D4
:1047D000ADB7BEB712961C930E931197D382C282C7
:1047E000A0916A0BB0916B0B1A960D90BC91A02D05
:1047F00016968D919C911797B1010F940529958379
:1048000084830F943821EDB7FEB736960FB6F8942F
:10481000FEBF0FBEEDBF80915E0B90915F0BB701A5
:10482000A8010E945FABC80161EB7AE00F942D20D4
:1048300080915E0B90915F0BB701A8010E945FAB66
:10484000E0916A0BF0916B0B0484F585E02D82807A
:104850009380A480B580C501B4010F94C022CA56CC
:10486000DF4F688379838A839B83C659D040C50113
:10487000B40120E030E048EC52E40F9416240F9489
:10488000C0222B013C012DB73EB7285030400FB657
:10489000F8943EBF0FBE2DBF8DB69EB60894811C06
:1048A000911CADB7BEB712961C930E9311978EEA6A
:1048B00092E0F40193838283CA56DF4F6881798145
:1048C0008A819B81C659D0400F945222D4011596FB
:1048D0007C936E931497C301B2010F945222CB01C3
:1048E00064E670E00F940529F401978386830F94A2
:1048F00038212DB73EB7285F3F4F0FB6F8943EBF23
:104900000FBE2DBF80915E0B90915F0BB701A80188
:104910000E945FABC80163EA7AE00F942D2080917A
:104920005E0B90915F0BB701A8010E945FAB00D0B6
:1049300000D0EDB7FEB73196ADB7BEB712961C9357
:104940000E931197D382C282A0916A0BB0916B0B28
:104950001C960D90BC91A02D8D919C9168EE73E0FA
:104960000F940529958384830F943821EDB7FEB702
:1049700036960FB6F894FEBF0FBEEDBF80915E0B6A
:1049800090915F0BB701A8010E945FABC80165E978
:104990007AE00F942D2080915E0B90915F0BB70110
:1049A000A8010E945FAB00D000D0ADB7BEB7119692
:1049B000EDB7FEB7128301831396DC92CE92129765
:1049C000E091660BF091670BEE58FF4F808191816B
:1049D00015969C938E9314970F9438212DB73EB75C
:1049E0002A5F3F4F0FB6F8943EBF0FBE2DBF809198
:1049F0005E0B90915F0BB701A8010E945FABC801ED
:104A000063E87AE00F942D2080915E0B90915F0B0C
:104A1000B701A8010E945FAB00D000D0EDB7FEB790
:104A20003196ADB7BEB712961C930E931197D382F1
:104A3000C282A0916A0BB0916B0B16960D90BC913F
:104A4000A02DAE5EBE4F8D919C912AE0822E912CBE
:104A5000B4010F940529958384830F943821EDB711
:104A6000FEB736960FB6F894FEBF0FBEEDBF80912D
:104A70005E0B90915F0BB701A8010E945FABC8016C
:104A800068E77AE00F942D2080915E0B90915F0B88
:104A9000B701A8010E945FAB00D000D0EDB7FEB710
:104AA0003196ADB7BEB712961C930E931197D38271
:104AB000C282A091600BB091610B11968D919C9177
:104AC0001297B4010F940529958384830F9438219C
:104AD000EDB7FEB736960FB6F894FEBF0FBEEDBF2A
:104AE00080915E0B90915F0BB701A8010E945FABB4
:104AF000C8016EE67AE00F942D2080915E0B9091B4
:104B00005F0BB701A8010E945FAB00D000D0EDB7EA
:104B1000FEB73196ADB7BEB712961C930E931197A0
:104B2000D382C282A0916A0BB0916B0B52960D900A
:104B3000BC91A02D8D919C91B1010F940529958375
:104B400084830F943821EDB7FEB736960FB6F894EC
:104B5000FEBF0FBEEDBF80915E0B90915F0BB70162
:104B6000A8010E945FABC80164E67AE00F942D2093
:104B700080915E0B90915F0BB701A8010E945FAB23
:104B800000D000D0EDB7FEB73196ADB7BEB71296E4
:104B90001C930E931197D382C282A0916A0BB0919D
:104BA0006B0B12960D90BC91A02D14968D919C913B
:104BB0001597958384830F943821EDB7FEB7369609
:104BC0000FB6F894FEBF0FBEEDBF80915E0B9091C3
:104BD0005F0BB701A8010E945FABC80167E57AE0EF
:104BE0000F942D2080915E0B90915F0BB701A8016F
:104BF0000E945FABE0916A0BF0916B0B0280F38136
:104C0000E02D8681882321F0C80165EB72E003C0A6
:104C1000C80168EB72E00F9479209EE1E92EF12C37
:104C2000EC0EFD1E8E01085A1F4F80915E0B909175
:104C30005F0BB701A8010E945FABC8016FE47AE087
:104C40000F942D2080915E0B90915F0BB701A8010E
:104C50000E945FAB00D000D0EDB7FEB73196ADB784
:104C6000BEB712961C930E9311978EE2C82E82E067
:104C7000D82ED382C282A0916C0BB0916D0BD896C6
:104C80008D919C91D997958384830F943821EDB7AA
:104C9000FEB736960FB6F894FEBF0FBEEDBF8091FB
:104CA0005E0B90915F0BB701A8010E945FABC8013A
:104CB00067E47AE00F942D2080915E0B90915F0B5A
:104CC000B701A8010E945FAB00D000D0EDB7FEB7DE
:104CD0003196ADB7BEB712961C930E931197D3823F
:104CE000C282A0916C0BB0916D0BD6968D919C9168
:104CF000D797958384830F943821EDB7FEB7369606
:104D00000FB6F894FEBF0FBEEDBF80915E0B909181
:104D10005F0BB701A8010E945FABC8016EE37AE0A8
:104D20000F942D2080915E0B90915F0BB701A8012D
:104D30000E945FAB00D000D0EDB7FEB73196ADB7A3
:104D4000BEB712961C930E931197D382C282A09184
:104D50006C0BB0916D0BD0968D919C91D1979583F2
:104D600084830F943821EDB7FEB736960FB6F894CA
:104D7000FEBF0FBEEDBF80915E0B90915F0BB70140
:104D8000A8010E945FABC80165E37AE00F942D2073
:104D900080915E0B90915F0BB701A8010E945FAB01
:104DA00000D000D0EDB7FEB73196ADB7BEB71296C2
:104DB0001C930E931197D382C282A0916C0BB09179
:104DC0006D0B9E968D919C919F97958384830F94F4
:104DD0003821EDB7FEB736960FB6F894FEBF0FBE7A
:104DE000EDBF80915E0B90915F0BB701A8010E940F
:104DF0005FABC8016CE27AE00F942D2080915E0BCE
:104E000090915F0BB701A8010E945FAB00D000D06A
:104E1000EDB7FEB73196ADB7BEB712961C930E93A1
:104E20001197D382C282A0916C0BB0916D0BD49676
:104E30008D919C91D597958384830F943821EDB7FC
:104E4000FEB736960FB6F894FEBF0FBEEDBF809149
:104E50005E0B90915F0BB701A8010E945FABC80188
:104E600063E27AE00F942D2080915E0B90915F0BAE
:104E7000B701A8010E945FAB00D000D0EDB7FEB72C
:104E80003196ADB7BEB712961C930E931197D3828D
:104E9000C282A0916C0BB0916D0BD2968D919C91BA
:104EA000D397958384830F943821EDB7FEB7369658
:104EB0000FB6F894FEBF0FBEEDBF80915E0B9091D0
:104EC0005F0BB701A8010E945FABC80169E17AE0FE
:104ED0000F942D2080915E0B90915F0BB701A8017C
:104EE0000E945FAB00D000D0EDB7FEB73196ADB7F2
:104EF000BEB712961C930E931197D382C282A091D3
:104F00006C0BB0916D0B12968C91848315820F946B
:104F10003821EDB7FEB736960FB6F894FEBF0FBE38
:104F2000EDBF80915E0B90915F0BB701A8010E94CD
:104F30005FABC8016FE07AE00F942D2080915E0B8B
:104F400090915F0BB701A8010E945FAB00D000D029
:104F5000EDB7FEB73196ADB7BEB712961C930E9360
:104F60001197D382C282A0916C0BB0916D0B1596F4
:104F70008C91848315820F943821EDB7FEB7369655
:104F80000FB6F894FEBF0FBEEDBF80915E0B9091FF
:104F90005F0BB701A8010E945FABC80165E07AE032
:104FA0000F942D2080915E0B90915F0BB701A801AB
:104FB0000E945FAB00D000D0EDB7FEB73196ADB721
:104FC000BEB712961C930E931197D382C282A09102
:104FD0006C0BB0916D0B18968C91848315820F9495
:104FE0003821EDB7FEB736960FB6F894FEBF0FBE68
:104FF000EDBF80915E0B90915F0BB701A8010E94FD
:105000005FABC80163EF79E00F942D2080915E0BB8
:1050100090915F0BB701A8010E945FAB00D000D058
:10502000EDB7FEB73196ADB7BEB712961C930E938F
:105030001197D382C282A0916C0BB0916D0B99969F
:105040008C91848315820F943821EDB7FEB7369684
:105050000FB6F894FEBF0FBEEDBF80915E0B90912E
:105060005F0BB701A8010E945FABC80161EE79E058
:105070000F942D2080915E0B90915F0BB701A801DA
:105080000E945FAB00D000D0EDB7FEB73196ADB750
:10509000BEB712961C930E931197D382C282A09131
:1050A0006C0BB0916D0B9A968C91848315820F9442
:1050B0003821EDB7FEB736960FB6F894FEBF0FBE97
:1050C000EDBF80915E0B90915F0BB701A8010E942C
:1050D0005FABC8016FEC79E00F942D2080915E0BDF
:1050E00090915F0BB701A8010E945FAB00D000D088
:1050F000EDB7FEB73196ADB7BEB712961C930E93BF
:105100001197D382C282A0916C0BB0916D0B9B96CC
:105110008C91848315820F943821EDB7FEB73696B3
:105120000FB6F894FEBF0FBEEDBF80915E0B90915D
:105130005F0BB701A8010E945FABC8016BEB79E080
:105140000F942D2080915E0B90915F0BB701A80109
:105150000E945FAB00D000D0EDB7FEB73196ADB77F
:10516000BEB712961C930E931197D382C282A09160
:105170006C0BB0916D0B93968C91848315820F9478
:105180003821EDB7FEB736960FB6F894FEBF0FBEC6
:10519000EDBF80915E0B90915F0BB701A8010E945B
:1051A0005FABC80167EA79E00F942D2080915E0B18
:1051B00090915F0BB701A8010E945FAB00D000D0B7
:1051C000EDB7FEB73196ADB7BEB712961C930E93EE
:1051D0001197D382C282A0916C0BB0916D0B949603
:1051E0008C91848315820F943821EDB7FEB73696E3
:1051F0000FB6F894FEBF0FBEEDBF80915E0B90918D
:105200005F0BB701A8010E945FABC80163E979E0B9
:105210000F942D2080915E0B90915F0BB701A80138
:105220000E945FAB00D000D0EDB7FEB73196ADB7AE
:10523000BEB712961C930E931197D382C282A0918F
:105240006C0BB0916D0B95968C91848315820F94A5
:105250003821EDB7FEB736960FB6F894FEBF0FBEF5
:10526000EDBF80915E0B90915F0BB701A8010E948A
:105270005FABC80161E879E00F942D2080915E0B4F
:1052800090915F0BB701A8010E945FAB00D000D0E6
:10529000EDB7FEB73196ADB7BEB712961C930E931D
:1052A0001197D382C282A0916C0BB0916D0B969630
:1052B0008C91848315820F943821EDB7FEB7369612
:1052C0000FB6F894FEBF0FBEEDBF80915E0B9091BC
:1052D0005F0BB701A8010E945FABC8016FE679E0E0
:1052E0000F942D2080915E0B90915F0BB701A80168
:1052F0000E945FAB00D000D0EDB7FEB73196ADB7DE
:10530000BEB712961C930E931197D382C282A091BE
:105310006C0BB0916D0B97968C91848315820F94D2
:105320003821EDB7FEB736960FB6F894FEBF0FBE24
:10533000EDBF80915E0B90915F0BB701A8010E94B9
:105340005FABC8016DE579E00F942D2080915E0B75
:1053500090915F0BB701A8010E945FAB00D000D015
:10536000EDB7FEB73196ADB7BEB712961C930E934C
:105370001197D382C282A0916C0BB0916D0B98965D
:105380008C91848315820F943821EDB7FEB7369641
:105390000FB6F894FEBF0FBEEDBF80915E0B9091EB
:1053A0005F0BB701A8010E945FABC80168E479E018
:1053B0000F942D2080915E0B90915F0BB701A80197
:1053C0000E945FAB00D000D0EDB7FEB73196ADB70D
:1053D000BEB712961C930E931197D382C282A091EE
:1053E0006C0BB0916D0B5D968C91848315820F943C
:1053F0003821EDB7FEB736960FB6F894FEBF0FBE54
:10540000EDBF80915E0B90915F0BB701A8010E94E8
:105410005FABC80163E379E00F942D2080915E0BB0
:1054200090915F0BB701A8010E945FAB00D000D044
:10543000EDB7FEB73196ADB7BEB712961C930E937B
:105440001197D382C282A0916C0BB0916D0B5E96C6
:105450008C91848315820F943821EDB7FEB7369670
:105460000FB6F894FEBF0FBEEDBF80915E0B90911A
:105470005F0BB701A8010E945FABC8016EE179E044
:105480000F942D2080915E0B90915F0BB701A801C6
:105490000E945FAB00D000D0EDB7FEB73196ADB73C
:1054A000BEB712961C930E931197D382C282A0911D
:1054B0006C0BB0916D0B5F968C91848315820F9469
:1054C0003821EDB7FEB736960FB6F894FEBF0FBE83
:1054D000EDBF80915E0B90915F0BB701A8010E9418
:1054E0005FABC8016BE079E00F942D2080915E0BDB
:1054F00090915F0BB701A8010E945FAB00D000D074
:10550000EDB7FEB73196ADB7BEB712961C930E93AA
:105510001197D382C282A0916C0BB0916D0B9096C3
:105520008C91848315820F943821EDB7FEB736969F
:105530000FB6F894FEBF0FBEEDBF80915E0B909149
:105540005F0BB701A8010E945FABC80168EF78E06C
:105550000F942D2080915E0B90915F0BB701A801F5
:105560000E945FAB00D000D0EDB7FEB73196ADB76B
:10557000BEB712961C930E931197D382C282A0914C
:105580006C0BB0916D0B91968C91848315820F9466
:105590003821EDB7FEB736960FB6F894FEBF0FBEB2
:1055A000EDBF80915E0B90915F0BB701A8010E9447
:1055B0005FABC80165EE78E00F942D2080915E0B03
:1055C00090915F0BB701A8010E945FAB00D000D0A3
:1055D000EDB7FEB73196ADB7BEB712961C930E93DA
:1055E0001197D382C282A0916C0BB0916D0B9296F1
:1055F0008C91848315820F943821EDB7FEB73696CF
:105600000FB6F894FEBF0FBEEDBF80915E0B909178
:105610005F0BB701A8010E945FABC80160ED78E0A5
:105620000F942D2080915E0B90915F0BB701A80124
:105630000E945FAB00D000D0EDB7FEB73196ADB79A
:10564000BEB712961C930E931197D382C282A0917B
:105650006C0BB0916D0B57968C91848315820F94CF
:105660003821EDB7FEB736960FB6F894FEBF0FBEE1
:10567000EDBF80915E0B90915F0BB701A8010E9476
:105680005FABC8016BEB78E00F942D2080915E0B2F
:1056900090915F0BB701A8010E945FAB00D000D0D2
:1056A000EDB7FEB73196ADB7BEB712961C930E9309
:1056B0001197D382C282A0916C0BB0916D0B58965A
:1056C0008C91848315820F943821EDB7FEB73696FE
:1056D0000FB6F894FEBF0FBEEDBF80915E0B9091A8
:1056E0005F0BB701A8010E945FABC80166EA78E0D2
:1056F0000F942D2080915E0B90915F0BB701A80154
:105700000E945FAB00D000D0EDB7FEB73196ADB7C9
:10571000BEB712961C930E931197D382C282A091AA
:105720006C0BB0916D0B59968C91848315820F94FC
:105730003821EDB7FEB736960FB6F894FEBF0FBE10
:10574000EDBF80915E0B90915F0BB701A8010E94A5
:105750005FABC80163E978E00F942D2080915E0B68
:1057600090915F0BB701A8010E945FAB00D000D001
:10577000EDB7FEB73196ADB7BEB712961C930E9338
:105780001197D382C282A0916C0BB0916D0B5A9687
:105790008C91848315820F943821EDB7FEB736962D
:1057A0000FB6F894FEBF0FBEEDBF80915E0B9091D7
:1057B0005F0BB701A8010E945FABC80160E878E009
:1057C0000F942D2080915E0B90915F0BB701A80183
:1057D0000E945FAB00D000D0EDB7FEB73196ADB7F9
:1057E000BEB712961C930E931197D382C282A091DA
:1057F0006C0BB0916D0B5B968C91848315820F942A
:105800003821EDB7FEB736960FB6F894FEBF0FBE3F
:10581000EDBF80915E0B90915F0BB701A8010E94D4
:105820005FABC8016DE678E00F942D2080915E0B90
:1058300090915F0BB701A8010E945FAB00D000D030
:10584000EDB7FEB73196ADB7BEB712961C930E9367
:105850001197D382C282A0916C0BB0916D0B5C96B4
:105860008C91848315820F943821EDB7FEB736965C
:105870000FB6F894FEBF0FBEEDBF80915E0B909106
:105880005F0BB701A8010E945FABC80163E678E037
:105890000F942D2080915E0B90915F0BB701A801B2
:1058A0000E945FAB00D000D0EDB7FEB73196ADB728
:1058B000BEB712961C930E931197D382C282A09109
:1058C0006C0BB0916D0B9C968D919C919D979583DF
:1058D00084830F943821EDB7FEB736960FB6F8944F
:1058E000FEBF0FBEEDBF80915E0B90915F0BB701C5
:1058F000A8010E945FABC80166E578E00F942D20F7
:1059000080915E0B90915F0BB701A8010E945FAB85
:1059100000D000D0EDB7FEB73196ADB7BEB7129646
:105920001C930E931197D382C282A0916C0BB091FD
:105930006D0B54968C91848315820F943821EDB7AA
:10594000FEB736960FB6F894FEBF0FBEEDBF80913E
:105950005E0B90915F0BB701A8010E945FABC8017D
:1059600069E478E00F942D2080915E0B90915F0B9D
:10597000B701A8010E945FAB00D000D0EDB7FEB721
:105980003196ADB7BEB712961C930E931197D38282
:10599000C282A0916C0BB0916D0B55968C91848353
:1059A00015820F943821EDB7FEB736960FB6F894EE
:1059B000FEBF0FBEEDBF80915E0B90915F0BB701F4
:1059C000A8010E945FABC8016CE378E00F942D2022
:1059D00080915E0B90915F0BB701A8010E945FABB5
:1059E00000D000D0EDB7FEB73196ADB7BEB7129676
:1059F0001C930E931197D382C282A0916C0BB0912D
:105A00006D0B56968C91848315820F943821EDB7D7
:105A1000FEB736960FB6F894FEBF0FBEEDBF80916D
:105A20005E0B90915F0BB701A8010E945FABC801AC
:105A30006DE278E00F942D2080915E0B90915F0BCA
:105A4000B701A8010E945FAB00D000D0ADB7BEB7D0
:105A50001196EDB7FEB7128301831396DC92CE92B6
:105A60001297E0916A0BF0916B0B0084F185E02DA9
:105A7000E656FF4F8081918115969C938E931497E3
:105A80000F9438212DB73EB72A5F3F4F0FB6F894D9
:105A90003EBF0FBE2DBF80915E0B90915F0BB70193
:105AA000A8010E945FABC80160E278E00F942D204E
:105AB00080915E0B90915F0BB701A8010E945FABD4
:105AC00000D000D0ADB7BEB71196EDB7FEB71283C8
:105AD00001831396DC92CE921297E0916A0BF091BB
