:100000000C94CA140C94FB140C94FB140C94FB1465
:100010000C94FB140C9440990C94D5F70C9402F8B2
:100020000C94FB140C94FB140C940EEF0C94FB1426
:100030000C94FB140C94FB140C94FB140C94FB1404
:100040000C94FB140C94FB140C94FB140C94FB14F4
:100050000C94FB140C94FB140C94FB140C94AD57EF
:100060000C94FB140C9497150C94FB140C94FB1437
:100070000C94FB140C94FB140C94FB140C94FB14C4
:100080000C94FB140C94FB140C94FB140C94615E04
:100090000C9424A60C94FB140C94FB140C94FB14E9
:1000A0000C94FB140C94FB140C94FB140C94FB1494
:1000B0000C94FB140C94FB140C94FB140C94FB1484
:1000C0000C94FB140C94FB140C94FB140C94C215AC
:1000D0000C94FB140C94FB140C94ED150C94FB1471
:1000E0000C94FB14036EDB363D9A9999993DABAAAB
:1000F000AA2A3E000000803F072C7AA5BA6CC59062
:10010000DA3B9365FC8BBC53F810FD3C5692834D53
:10011000BD879D3AB63DCBC9BF5BBE73DA0FC93F01
:1001200005A84CCDB2D44EB93836A9020C50B991BD
:100130008688083CA6AAAA2ABE000000803F076362
:100140004236B79BD8A71A39685618AEBAAB558C49
:100150001D3CB7CC5763BD6DEDFD753EF617723192
:10016000BF000000803F08000000BE922449123EFC
:10017000ABAAAA2ABECDCCCC4C3E00000080BEABC0
:10018000AAAAAA3E00000000BF000000803F0000B5
:10019000000000084178D3BB4387D1133D190E3CC2
:1001A000C3BD4282AD2B3E68EC8276BED98FE1A9F9
:1001B0003E4C80EFFFBE01C4FF7F3F000000000007
:1001C0004E6F206572726F7220666F756E642E00BE
:1001D00043616E2774206F70656E20726F6F74209C
:1001E0006469726563746F72792E00496E76616C12
:1001F000696420666F726D61742C207265666F721F
:100200006D61742053442E004E6F20636172642C24
:100210002077726F6E6720636869702073656C6504
:1002200063742070696E2C206F72205350492070C7
:10023000726F626C656D3F0043616E27742061636D
:100240006365737320534420636172642E20446F8E
:10025000206E6F74207265666F726D61742E00651A
:1002600072726F723A20006572726F723A20005398
:1002700044206572726F72436F64653A2030580093
:100280000D0A007C3C3E5E2B3D3F2F5B5D3B2C2AE4
:10029000225C0066616C736500747275650042498A
:1002A0004720464C540066616C7365007472756536
:1002B0000000002100240027002A002D0030003318
:1002C0000001010000040107010A010000220025CD
:1002D0000028002B002E0031003400020100000530
:1002E0000108010B01000020002300260029002C3A
:1002F000002F003200000100000301060109010582
:10030000050505070508080808020202020A0A088E
:1003100008040404040101010101010101030303B4
:100320000303030303040707070C0C0C0C0C0C0C51
:100330000C0202020206060606060606060B0B0B58
:100340000B0B0B0B0B010210202008081020401093
:100350002040800201020108040201010204081089
:1003600020408080402010080402018004020180A7
:1003700040201008040201080402010102040810D0
:1003800020408001020408102040800000090A0279
:10039000080B0C0D0706030401000000000000001C
:1003A000000000000000000000000000000000004D
:1003B00000000000000000100F0E00000000000010
:1003C000000000000000000000000000000000002D
:1003D00000000000000000000010101010100010BD
:1003E0000050500000000000000050F850F850008D
:1003F000002078A07028F8200000C8D0202058984D
:10040000006090A0789098E8002020000000000094
:10041000001020202020201000201010101010208C
:100420000020A87070A8200000002020F8202000E4
:10043000000000000000202000000000F800000084
:100440000000000000000020000000081020408094
:100450000070D8888888D87000E02020202020F8FC
:1004600000708808102040F80070880870088870B4
:10047000001030505090F81000F08080F00808F024
:1004800000384080F088887000F808101020202084
:10049000007088887088887000708888780810E0FC
:1004A00000000020000020000000002000002020AC
:1004B00000001860C0601800000000F800F800009C
:1004C0000000C0301830C0000070880810200020E4
:1004D000007088B8A8B88060002070D888F8888834
:1004E00000F08888F88888F00070888080808870A4
:1004F00000E09088888890E000F88080F88080F89C
:1005000000F88080F88080800070888098888870EB
:1005100000888888F8888888007020202020207033
:100520000038080808088870008890A0C0A090884B
:1005300000808080808080F80088D8F8A88888882B
:100540000088C8C8A89898880070D8888888D8700B
:1005500000F08888F08080800070D88888D8701873
:1005600000F08888F0A090880070888070088870FB
:1005700000F8202020202020008888888888887023
:1005800000888888505020200088A8A8A8A8D850A3
:10059000008850202050888800885050202020203B
:1005A00000F80810204080F8006040404040406063
:1005B00000000080402010080060202020202060E3
:1005C000003048000000000000000000000000F8BB
:1005D00000202000000000000000007008F898E8EB
:1005E000008080B0C888C8B0000000708880887023
:1005F00000080868988898680000007088F880787B
:1006000000182020F82020200000788888780870C2
:10061000008080B0C888888800200060202020707A
:10062000001000301010507000808090A0C0A0908A
:1006300000C0404040404030000000F8A8A8A8A8F2
:10064000000000B0C8888888000000708888887022
:10065000000000F088F080800000007888780808AA
:10066000000000B0C880808000000078807008F032
:10067000004040F040404030000000888888986882
:10068000000000888850502000000088A8A8F8507A
:100690000000008850205088000000885020204032
:1006A000000000F8102040F8003828380000000052
:1006B0000020202020202020002070F82020202052
:1006C000002060F868280808002030F8B0A080807A
:1006D00000000000000000000010101010100010BA
:1006E0000050500000000000000050F850F850008A
:1006F0000020F880F808F8200000C8D02020589882
:10070000006090A0789098E8002020000000000091
:100710000010202020202010002010101010102089
:10072000000020F82050000000002020F8202000C9
:10073000000000000000202000000000F800000081
:100740000000000000000020000000081020408091
:100750000000F888888888F8000030101010101009
:100760000000F808F88080F80000F808380808F859
:1007700000008888F80808080000F880F80808F8E1
:100780000000F880F88888F80000F80808080808D1
:100790000000F888F88888F80000F888F808080849
:1007A00000000020000020000000002000002020A9
:1007B0000000102040201000000000F800F80000A9
:1007C00000004020102040000000F80808380020F9
:1007D0000000F888B8A8B8000000F888F888888871
:1007E0000000F088F88888F00000F880808080F8A9
:1007F0000000F088888888F00000F880E08080F8A9
:100800000000F880E08080800000F880B88888F8D8
:1008100000008888F88888880000F820202020F8C8
:1008200000000808080888F800008890E090888890
:1008300000008080808080F8000088D8A8888888A0
:10084000000088C8A89888880000F888888888F8F8
:100850000000F088F88080800000F88888A8F820E0
:100860000000F088F89088880000F880F80808F800
:100870000000F8202020202000008888888888F840
:1008800000008888888850200000888888A8D88838
:10089000000088502020508800008888F820202000
:1008A0000000F810204080F80000604040404060A8
:1008B0000000008040201008000060202020206000
:1008C000002050000000000000000000000000F8C0
:1008D0000020200000000000000000F888F8888850
:1008E000000000F888F088F8000000F8808080F8A8
:1008F000000000F0888888F0000000F880E080F8B0
:10090000000000F880E08080000000F880B888F8DF
:100910000000008888F8888800000020202020201F
:1009200000000008080888F80000008890E090881F
:1009300000000080808080F8000000F8A8A8A8A827
:10094000000000F888888888000000F8888888F807
:10095000000000F888F88080000000F888A8F820DF
:10096000000000F888F89088000000F880F808F887
:10097000000000F82020202000000088888888F8E7
:100980000000008888885020000000A8A8A8A8F8C7
:10099000000000885020508800000088502020204F
:1009A000000000F8102040F800382838000000004F
:1009B0000020202020202020002070F8202020204F
:1009C000002060F868280808002030F8B0A0808077
:1009D00000007E0003FFC007FFE00FC3F00F00F030
:1009E0001E00781E00783C003C3C003C3C003C78FB
:1009F000001E78001E78001E78001E78001E780009
:100A00001E78001E78001E78001E78001E78001EDA
:100A100078001E3C003C3C003C3C003C1E00781E24
:100A200000780F00F00FC3F007FFE003FFC0007E67
:100A30000000000000FC000FFC003FFC003F3C00F9
:100A4000303C00003C00003C00003C00003C00004A
:100A50003C00003C00003C00003C00003C00003C2E
:100A600000003C00003C00003C00003C00003C005A
:100A7000003C00003C00003C00003C00003C00004A
:100A80003C00003C00003C001FFFF81FFFF81FFF68
:100A9000F803FC003FFF807FFFC07E07E07001F09D
:100AA0004000F00000780000780000780000780036
:100AB00000780000F80000F80001F00001F00003E9
:100AC000E00007C0000FC0001F80003F00007E0054
:100AD00000FC0001F80003F00007E0000FC0001F59
:100AE00080003F00007E00007FFFF87FFFF87FFF5F
:100AF000F807FE003FFF803FFFE03C03F02001F0DD
:100B00000000F8000078000078000078000078000D
:100B100000F00000F00003E003FFC003FF0003FF4C
:100B2000C00003F00000F800007800007C00003CEA
:100B300000003C00003C00003C00003C00007C4009
:100B400000786000F87C07F07FFFE03FFF8007FC43
:100B500000000000000FC0000FC0001FC0003FC019
:100B6000003BC0007BC000F3C000E3C001E3C00352
:100B7000C3C00383C00783C00F03C00E03C01E039E
:100B8000C03C03C03803C07803C0F003C0F003C00A
:100B9000FFFFFCFFFFFCFFFFFC0003C00003C000E1
:100BA00003C00003C00003C00003C00003C0000373
:100BB000C00000003FFFE03FFFE03FFFE03C0000DF
:100BC0003C00003C00003C00003C00003C00003CBD
:100BD00000003FFC003FFF003FFFC0380FE0200354
:100BE000E00001F00000F0000078000078000078DC
:100BF0000000780000780000780000780000F00025
:100C000001F04003E0780FE07FFFC07FFF001FF896
:100C100000003FE000FFF803FFF807E0380F80080E
:100C20000F00001E00001E00003C00003C00003CC5
:100C30000000787F0079FFC07BFFF07FC1F87F0064
:100C40007C7E003C7E003C7C001E7C001E7C001EE6
:100C50007C001E3C001E3C001E3C001E1E003C1E74
:100C6000003C0F00780FC1F807FFF001FFC0007FC4
:100C7000000000007FFFF87FFFF87FFFF80000F022
:100C80000000F00001F00001E00003E00003C000FC
:100C900003C00007C0000780000F80000F00000F96
:100CA00000001E00001E00003E00003C00003C0052
:100CB00000780000780000F80000F00000F000016B
:100CC000E00001E00003E00003C00003C000078073
:100CD0000000FF0003FFE00FFFF01F81F81E007807
:100CE0003E007C3C003C3C003C3C003C3C003C1E4C
:100CF00000781E00780F81F007FFE001FF8007FFFA
:100D0000E01F81F81E00783C003C7C003E78001E0D
:100D100078001E78001E78001E78001E7C003E3C85
:100D2000003C3E007C1F81F80FFFF007FFE000FF52
:100D30000000FE0003FF800FFFE01F83F01E00F0A5
:100D40003C00783C007878003C78003C78003C78A7
:100D5000003E78003E78003E78003E3C007E3C003D
:100D60007E3E00FE1F83FE0FFFDE03FF9E00FE1E81
:100D700000003C00003C00003C00007800007800CF
:100D800000F01001F01C07E01FFFC01FFF0007FC70
:100D900000000000000000000010101010100010F3
:100DA0000050500000000000005050F850F8505023
:100DB000002078A07028F02000C0C81020409818AB
:100DC000006090A040A890680060204000000000F3
:100DD0000010204040402010004020101010204003
:100DE000000020A870A8200000002020F82020008B
:100DF000000000000060204000000000F80000003B
:100E0000000000000000606000000008102040802A
:100E100000708898A8C8887000206020202020706A
:100E200000708808102040F800F8102070088870C2
:100E30000010305090F8101000F880F0080888700A
:100E400000304080F088887000F808102040404052
:100E500000708888708888700070888878081060B2
:100E60000000606000606000000060600060204082
:100E70000010204080402010000000F800F8000022
:100E80000080402010204080007088081020002042
:100E9000007088B8A8B880700070888888F8888842
:100EA00000F08888F08888F00070888080808870E2
:100EB00000E09088888890E000F88080F08080F8DA
:100EC00000F88080F080808000708880B888887802
:100ED00000888888F888888800702020202020706A
:100EE0000038101010109060008890A0C0A090886A
:100EF00000808080808080F80088D8A8A8888888B2
:100F0000008888C8A8988888007088888888887031
:100F100000F08888F08080800070888888A89068B9
:100F200000F08888F0A0908800788080700808F031
:100F300000F8202020202020008888888888887059
:100F4000008888888888502000888888A8A8A850A9
:100F50000088885020508888008888885020202069
:100F600000F80810204080F8007040404040407079
:100F70000000008040201008007010101010107049
:100F8000002050880000000000000000000000F871
:100F90000030201000000000000000700878887801
:100FA000008080B0C88888F0000000708080887061
:100FB00000080868988888780000007088F88070B9
:100FC00000304840F04040400000007088F8087051
:100FD000008080B0C88888880020006020202070B1
:100FE000001000301010906000808090A0C0A09091
:100FF0000060202020202070000000D0A8A8888851
:10100000000000B0C8888888000000708888887058
:10101000000000F088F080800000006898780808E0
:10102000000000B0C880808000000070807008F070
:101030000040E040404048300000008888889868C0
:1010400000000088888850200000008888A8A850E8
:1010500000000088502050880000008888780870C0
:10106000000000F8102040F80010281000000000D8
:101070000020202020202020002070F82020202088
:10108000002060F868280808002030F8B0A08080B0
:10109000006661696C65642C20686D6D6D004F4B56
:1010A00000446561637469766174696E6720726576
:1010B00073706F6E7365004F4B0053657474696E87
:1010C000672050494E20436F6465004F4B004163D9
:1010D0007469766174696E6720726573706F6E7380
:1010E0006573004F4B004641494C4544004F4B004F
:1010F000436865636B696E6720636F6E6E656374CA
:10110000696F6E005245545259494E47004F4B008B
:101110004241534943205345545550004F4B0054CE
:101120005259494E472031393230302042415544DE
:10113000004641494C454400436865636B696E67EE
:1011400020636F6E6E656374696F6E0020446F6E0E
:101150006500416B746F72656E20696E6974202E34
:101160002E2E00436865636B696E67205661723A84
:101170002050617373656400566172206368656313
:101180006B206661696C656400426C696E6B6572A8
:10119000206661696C656400426C696E6B657220E3
:1011A000696E697420646F6E6500436C6F636B20B9
:1011B000696E697420646F6E6500446F6E65004CE3
:1011C00061646520454550524F4D2E2E2E20006201
:1011D000745F70696E006C65645F6D6F646500724A
:1011E00067625F6F75745F647A5F656E645F6200EB
:1011F0007267625F6F75745F647A5F656E645F6764
:10120000007267625F6F75745F647A5F656E645FBA
:1012100072007267625F6F75745F647A5F73746186
:1012200072745F62007267625F6F75745F647A5F89
:1012300073746172745F67007267625F6F75745F69
:10124000647A5F73746172745F72007267625F6F59
:1012500075745F6B6D685F656E645F620072676274
:101260005F6F75745F6B6D685F656E645F6700725A
:1012700067625F6F75745F6B6D685F656E645F72E8
:10128000007267625F6F75745F6B6D685F73746126
:1012900072745F62007267625F6F75745F6B6D6816
:1012A0005F73746172745F67007267625F6F7574F9
:1012B0005F6B6D685F73746172745F7200726762F6
:1012C0005F6F75745F77617465725F656E645F628E
:1012D000007267625F6F75745F77617465725F65D6
:1012E0006E645F67007267625F6F75745F776174C9
:1012F00065725F656E645F72007267625F6F7574BE
:101300005F77617465725F73746172745F6200729B
:1013100067625F6F75745F77617465725F73746124
:1013200072745F67007267625F6F75745F77617474
:1013300065725F73746172745F72007267625F6F6F
:1013400075745F6F696C5F656E645F62007267627F
:101350005F6F75745F6F696C5F656E645F67007265
:1013600067625F6F75745F6F696C5F656E645F72F3
:10137000007267625F6F75745F6F696C5F73746131
:1013800072745F62007267625F6F75745F6F696C21
:101390005F73746172745F67007267625F6F757408
:1013A0005F6F696C5F73746172745F720072676201
:1013B0005F6F75745F7374617469635F62007267F5
:1013C000625F6F75745F7374617469635F670072E5
:1013D00067625F6F75745F7374617469635F7200D5
:1013E0007267625F666C6173685F62007267625FFA
:1013F000666C6173685F67007267625F666C6173D9
:10140000685F72006B6D685F6D6178006B6D685F1F
:101410006D696E0077617465725F6D6178007761E8
:101420007465725F6D696E006F696C5F6D617800E5
:101430006F696C5F6D696E00647A5F6D61780064DE
:101440007A5F6D696E006F696C5F7761726E696E4D
:10145000670077617465725F7761726E696E6700AD
:10146000647A5F666C6173685F656E00647A5F665C
:101470006C6173680064656661756C745F666F6E3D
:1014800074006675656C5F7769646765742E666F56
:101490006E74006675656C5F7769646765742E733A
:1014A000796D626F6C006675656C5F7769646765FE
:1014B000742E79006675656C5F7769646765742E54
:1014C0007800676561725F7769646765742E666F1F
:1014D0006E7400676561725F7769646765742E7901
:1014E00000676561725F7769646765742E78006371
:1014F0006C6F636B5F7769646765742E666F6E747B
:1015000000636C6F636B5F7769646765742E7379D2
:101510006D626F6C00636C6F636B5F7769646765A6
:10152000742E7900636C6F636B5F776964676574B1
:101530002E7800616464696E666F325F77696467F4
:1015400065742E666F6E7400616464696E666F32D6
:101550005F7769646765742E7900616464696E669B
:101560006F325F7769646765742E780061646469BF
:101570006E666F5F7769646765742E666F6E740060
:10158000616464696E666F5F7769646765742E79FC
:1015900000616464696E666F5F7769646765742E65
:1015A00078006770735F7769646765742E666F6E25
:1015B00074006770735F7769646765742E7900677C
:1015C00070735F7769646765742E7800647A5F77FB
:1015D00069646765742E666F6E7400647A5F7769FC
:1015E000646765742E7900647A5F776964676574EF
:1015F0002E78006172726F775F7769646765742E09
:1016000079006172726F775F7769646765742E78AD
:10161000006B6D68636861725F7769646765742EDB
:10162000666F6E74006B6D68636861725F77696482
:101630006765742E79006B6D68636861725F7769A6
:10164000646765742E78006B6D685F7769646765A1
:10165000742E666F6E74006B6D685F776964676582
:10166000742E79006B6D685F7769646765742E7896
:10167000006169725F7769646765742E666F6E7466
:10168000006169725F7769646765742E73796D6252
:101690006F6C006169725F7769646765742E7900A9
:1016A0006169725F7769646765742E780077617429
:1016B00065725F7769646765742E666F6E74007714
:1016C000617465725F7769646765742E73796D62A2
:1016D0006F6C0077617465725F7769646765742EFB
:1016E000790077617465725F7769646765742E78D5
:1016F000006F696C5F7769646765742E666F6E74DE
:10170000006F696C5F7769646765742E73796D62C9
:101710006F6C006F696C5F7769646765742E790020
:101720006F696C5F7769646765742E7800726566AF
:10173000726573685F63796C65006770735F74616D
:101740006B656F7665720072656966656E5F756D53
:1017500066616E67006675656C5F626C696E6B5F73
:1017600066726571006675656C5F626C696E6B5F51
:10177000737461727400626C696E6B65725F686924
:10178000676800626C696E6B6572006F696C5F649C
:1017900069737400736B696E5F66696C6500616381
:1017A000746976655F6E6176695F66696C65007302
:1017B000746172747570004D616C6C6F632066614A
:1017C000696C656400446F6E650021212046696C78
:1017D00065206F70656E206661696C6564202121EB
:1017E0000021212046696C65206F70656E2066615E
:1017F000696C6564202121004D616C6C6F6320660B
:1018000061696C6564006F70656E207375626469F0
:1018100072202F636F6E666967206661696C65640C
:1018200000202E2E2E200052656164696E673A20DA
:101830000062745F70696E3D006F696C5F77617202
:101840006E696E673D0077617465725F7761726E75
:10185000696E673D007267625F666C6173685F62A4
:101860003D007267625F666C6173685F673D00721E
:1018700067625F666C6173685F723D006C65645F90
:101880006D6F64653D007267625F6F75745F77614D
:101890007465725F656E645F623D007267625F6F60
:1018A00075745F77617465725F656E645F673D0034
:1018B0007267625F6F75745F77617465725F656E82
:1018C000645F723D007267625F6F75745F77617409
:1018D00065725F73746172745F623D007267625F0C
:1018E0006F75745F77617465725F73746172745F32
:1018F000673D007267625F6F75745F7761746572D0
:101900005F73746172745F723D007267625F6F75BE
:10191000745F6F696C5F656E645F623D00726762E1
:101920005F6F75745F6F696C5F656E645F673D00C4
:101930007267625F6F75745F6F696C5F656E645F1D
:10194000723D007267625F6F75745F6F696C5F7381
:10195000746172745F623D007267625F6F75745F7D
:101960006F696C5F73746172745F673D0072676268
:101970005F6F75745F6F696C5F73746172745F72AF
:101980003D007267625F6F75745F6B6D685F656E57
:10199000645F623D007267625F6F75745F6B6D6854
:1019A0005F656E645F673D007267625F6F75745F4D
:1019B0006B6D685F656E645F723D007267625F6F3A
:1019C00075745F6B6D685F73746172745F623D0004
:1019D0007267625F6F75745F6B6D685F737461725D
:1019E000745F673D007267625F6F75745F6B6D68EF
:1019F0005F73746172745F723D007267625F6F75CE
:101A0000745F647A5F656E645F623D007267625FF7
:101A10006F75745F647A5F656E645F673D007267BF
:101A2000625F6F75745F647A5F656E645F723D00BC
:101A30007267625F6F75745F647A5F7374617274EA
:101A40005F623D007267625F6F75745F647A5F7397
:101A5000746172745F673D007267625F6F75745F77
:101A6000647A5F73746172745F723D007267625F63
:101A70006F75745F7374617469635F623D00726750
:101A8000625F6F75745F7374617469635F673D0053
:101A90007267625F6F75745F7374617469635F729C
:101AA0003D006B6D685F6D61783D006B6D685F6DCB
:101AB000696E3D0077617465725F6D61783D007796
:101AC000617465725F6D696E3D006F696C5F6D6119
:101AD000783D006F696C5F6D696E3D00647A5F6D83
:101AE00061783D00647A5F6D696E3D00647A5F667F
:101AF0006C6173685F656E3D00647A5F666C6173EC
:101B0000683D006F696C5F646973743D00736B6955
:101B10006E5F66696C653D006163746976655F6ED2
:101B20006176695F66696C653D00726566726573B2
:101B3000685F63796C653D006770735F74616B65A6
:101B40006F7665723D0072656966656E5F756D667C
:101B5000616E673D006675656C5F626C696E6B5F98
:101B6000667265713D006675656C5F626C696E6B6F
:101B70005F73746172743D00626C696E6B65725F55
:101B8000686967683D00626C696E6B65723D0073E1
:101B90007461727475703D002354686973206973B1
:101BA00020616E206175746F2D67656E657261745A
:101BB00065642066696C652066726F6D20284D6FC4
:101BC0006E4461792920006F70656E2073756264C0
:101BD0006972202F636F6E666967206661696C6544
:101BE00064006F70656E20737562646972202F6384
:101BF0006F6E666967206661696C6564002354686E
:101C0000697320697320616E206175746F2D67653B
:101C10006E6572617465642066696C652066726FBA
:101C20006D20284D6F6E4461792920006F70656EBC
:101C300020737562646972202F636F6E6669672016
:101C40006661696C65640023546869732069732058
:101C5000616E206175746F2D67656E657261746564
:101C6000642066696C652066726F6D20284D6F6E0A
:101C70004461792920006F70656E20737562646914
:101C800072202F636F6E666967206661696C656498
:101C90000020427974652068656170206672656510
:101CA00000446F6E65002121205741524E494E4736
:101CB00020212100636865636B207468652043619F
:101CC000726421005344206163636573732066610D
:101CD000696C6564002121205741524E494E4720CE
:101CE0002121002121205741524E494E47202121D8
:101CF00000746869732077696C6C2074616B65206F
:101D000061206D696E00636F6C6420666978696E2E
:101D100067206E6F77004750532042617420656DD5
:101D2000707479002121205741524E494E4720219D
:101D30002100446973706C617920696E6974202E8A
:101D40002E2E200066616C7363686520616E7A6177
:101D5000686C20616E206B6F6D6D617461004D6108
:101D60006C6C6F63206661696C656400445A206620
:101D700061696C6564006675656C206661696C6597
:101D8000640056616C75653A007E2063616E636520
:101D90006C20202020202020207361766500666161
:101DA0007374657220616E6420736C6F7765720066
:101DB000446F6E74207368696674212120447269CF
:101DC0007665004F6C642056616C75653A00476516
:101DD00061720067656172206661696C6564004DBF
:101DE000616C6C6F63206661696C6564006F70651F
:101DF0006E20737562646972202F636F6E66696707
:101E0000206661696C6564004D616C6C6F6320666F
:101E100061696C65640047505320696E6974206481
:101E20006F6E65003D3D3D20536574757020666999
:101E30006E6973686564203D3D3D002048573A0057
:101E400076302E332E362D3133332D67376166626F
:101E5000363562003D3D3D2053706565646F696EA7
:101E60006F203D3D3D00312E2053706565646F69E4
:101E70006E6F00322E20537072696E7420636C6F27
:101E8000636B00332E20546F75722D417373697329
:101E900074656E7400342E202D00352E2045787424
:101EA000656E64656420696E666F00362E2043752A
:101EB00073746F6D697A6500372E204261736963B0
:101EC00020536574757000382E205472697020415B
:101ED0007667204D617800392E2052656675656CF5
:101EE000696E6700661E731E831E951E9A1EAB1ECA
:101EF000B81EC71ED71E312E204765617220636150
:101F00006C69622E00322E20537065656420636117
:101F10006C69622E00332E20446973706C617920E5
:101F2000736574757000342E205265736574206D6E
:101F3000656D6F727900352E204461796C69676830
:101F40007420736176696E6700362E2042542052E9
:101F50006573657420737461746500372E20576152
:101F60007465722074656D70207761726E2E003812
:101F70002E204F696C2074656D70207761726E2E13
:101F800000392E202D00F61E051F151F261F361F97
:101F9000491F5B1F6F1F811F312E204C6F61642012
:101FA000536B696E00322E2053686F776E20747207
:101FB000697000332E2053686966742D4C69676818
:101FC0007400342E202D00352E2053706565646F0B
:101FD0002D436F6C6F7200362E202D00372E20534C
:101FE00065742042542050494E00382E202D00396F
:101FF0002E202D00981FA51FB31FC21FC71FD71F5C
:10200000DC1FEA1FEF1F312E2053746174696320B7
:10201000636F6C6F7200322E2053706565642062AE
:102020006173656400332E2052504D2062617365E8
:102030006400342E204F696C2074656D70206261DD
:1020400073656400352E2057617465722074656D68
:102050007020626173656400362E202D00372E20BB
:102060002D00382E202D00392E202D000620162080
:1020700025203220442058205D2062206720312E08
:102080002047505320696E666F7320312F32003223
:102090002E2047505320696E666F7320322F320016
:1020A000332E2053656E736F727300342E202D0013
:1020B000352E202D00362E20546573742057617400
:1020C0006368646F6700372E2053686F7720416E16
:1020D000696D6174696F6E00382E2041626F75748E
:1020E00000392E20546574726973007E208F20A001
:1020F00020AB20B020B520C620D820E120312E20F2
:1021000053686F7720696E2053706565646F003285
:102110002E2053657420706F696E74657200332EC3
:10212000205365742066696C6500342E2043686511
:10213000636B2077726974657300352E202D00362D
:102140002E202D00372E202D00382E202D00392E48
:10215000202D00FD200F211E212A213A213F21445C
:102160002149214E213D204D61696E206D656E75BE
:10217000203D0000003D204E617669676174696F03
:102180006E203D00003D20496E666F726D6174697E
:102190006F6E203D003D20437573746F6D697A65E5
:1021A000203D003D205365747570203D003D205357
:1021B000746F72616765203D200000652173217492
:1021C000217521842185219521A321AD21BA215496
:1021D0006F74616C004E6F6E5065726D616E656EEE
:1021E000740044617900546F757200517569636BB6
:1021F000004675656C004F696C65720053616973C8
:102200006F6E00426F61726400CF21D521E221E63A
:1022100021EB21F121F621FC2103225265642020CB
:1022200020477265656E202020426C7565005265FE
:102230006420477265656E20426C75650052656466
:1022400020477265656E20426C7565004D61786946
:102250006D616C2076616C756573004D696E696D9A
:10226000616C2076616C7565730021534420455282
:10227000524F5221005361766564004D616C6C6F62
:1022800063206661696C656420320058206E6F209F
:102290002020202020202020202020796573205815
:1022A0000073746F7265616765732072657365741E
:1022B000656400416C6C204675656C004164646522
:1022C00064206675656C20616D6F756E743A007779
:1022D00061726E696E67206C6576656C0074656D01
:1022E0007065726174757265005365747570206FE6
:1022F000696C005361766564007761726E696E6720
:10230000206C6576656C0074656D706572617475BE
:10231000726500536574757020776174657200533F
:102320006176656400706F77657200446F776E2028
:102330003D20696E6163746976650042542D526573
:10234000736574005570203D206163746976650083
:10235000446F776E203D20696E6163746976650015
:102360004461796C6967687420736176696E67008F
:102370005570203D20616374697665006861732043
:102380006265656E20726573657400546865206DC2
:10239000656D6F72790043686F6F73652072656653
:1023A00020560043686F6F73652070686173650025
:1023B0007361766564005361766564002020636F05
:1023C0006E74696E756500214B6565702064726975
:1023D00076696E6721004368616E676520476561B5
:1023E000722075702F646F776E0043616C69627242
:1023F0006174652047656172006C65617665206D6A
:10240000656E7520746F2073617665004368616E38
:1024100067652042542050494E004F4B005361766F
:102420006520746F205344206361726400544D50E2
:1024300000576174657200544D50004F696C005232
:10244000504D0052504D2A313030006B6D680053B2
:1024500070656564000053746174696320636F6C18
:102460006F72000053686966742D4C696768740068
:10247000696E61637469766500616374697665008D
:1024800061637469766500746F2061646A75737442
:1024900020636F6C6F7200666F7220536869667498
:1024A0006C696768740053656C6563742074686553
:1024B0002052504D00746F2061646A757374206CF3
:1024C0006576656C00446F776E203D20696E6163B0
:1024D00074697665005570203D2061637469766586
:1024E00000445A20466C61736865720053617665DA
:1024F0006400507265766965770046696C65206E88
:102500006F7420666F756E64004E6F20666972731B
:1025100074206C696E6520636F6D6D656E74004D1F
:10252000616C6C6F63206661696C65642031005278
:1025300020676F20666F72206974004C20517569A6
:102540007400416C6578656A2050616473636869E2
:10255000746E6F7700696E2074726962757420748E
:102560006F00546574726973004B4B6F6F6C6C6ACB
:102570006A616140676D61696C2E636F6D00636FA6
:102580006E74616374206D652061740076302E3343
:102590002E362D3133332D67376166623635620052
:1025A00048572076657273696F6E3A00474E552022
:1025B0002D204C6963656E736564005370656564B6
:1025C0006F696E6F00666F72207265736574005775
:1025D0004149542033302073656300416464697459
:1025E000696F6E616C20696E666F00436F756E7403
:1025F0006572004750535F73617473004750535FB7
:102600007370656564004750535F616C746900477F
:1026100050535F6C617469004750535F6C6F6E6715
:10262000004750535F64617465004750535F74699D
:102630006D6500506F696E7473207772697474658C
:102640006E0046696C65206E6F7420666F756E64EF
:10265000004E6F206669727374206C696E6520632A
:102660006F6D6D656E74004E6176692054726163A2
:102670006B20506F696E74657200446F776E203DF9
:1026800020696E616374697665004E617669676181
:1026900074696F6E005570203D20616374697665C2
:1026A000004D616C6C6F63206661696C65642033FA
:1026B000006F696C6572206661696C6564004F69C2
:1026C0006C657220696E697420646F6E6500526576
:1026D00073657420696E697420646F6E652E205373
:1026E000746174757320002C005344206572726FFE
:1026F000723A20006572726F723A2000566F6C74E5
:10270000616765200053656E736F727320696E692F
:102710007420646F6E6500446F6E650D0A53656EBC
:10272000736F722073696E676C65207265616420D7
:102730002E2E2E20446F6E6500446F6E650D0A527A
:10274000656164696E673A20566F6C746167657382
:10275000202E2E2E2000446F6E650D0A5265616496
:10276000696E673A204F696C6572202E2E2E20000C
:10277000446F6E650D0A52656164696E673A205751
:10278000617465722074656D70202E2E2E200044B9
:102790006F6E650D0A52656164696E673A204F6914
:1027A0006C2074656D70202E2E2E2000446F6E6597
:1027B0000D0A52656164696E673A2041697220743E
:1027C000656D70202E2E2E2000446F6E650D0A520E
:1027D000656164696E673A20475053202E2E2E2083
:1027E0000052656164696E673A20636C6F636B20A9
:1027F0002E2E2E200053656E736F722073696E67E4
:102800006C652072656164202E2E2E20002121210E
:1028100021205741524E494E47202121212100536A
:10282000442061636365737320737472616E6765BE
:102830000021212121205741524E494E472021217C
:10284000212100537065656420757021004E6F2052
:10285000475053210073706565646F206661696C31
:10286000656400537065656420696E697420646FE7
:102870006E650020202020202020202020202020E5
:10288000202020202020202020005344206163634A
:10289000657373206661696C6564005265656420C8
:1028A00073656E736F72206572726F720057617418
:1028B00065722072656164206661696C6564004FB1
:1028C000696C2072656164206661696C6564004EA4
:1028D0006F2047505300426C696E6B6572207665BD
:1028E0007267657373656E007761746572207465D5
:1028F0006D70207761726E696E67006F696C20740D
:10290000656D70207761726E696E67004D6F746FD0
:1029100072206E6F6368206B616C74006B6D2F6842
:10292000004D616C6C6F63206661696C6564004D7D
:10293000616C6C6F63206661696C65640074656DC1
:1029400070206661696C6564004C696E65733A203D
:10295000004C6576656C3A20004E657874005465CD
:102960007472697300676F657320005370656564E6
:102970006F696E6F0052205265747279004C20515D
:1029800075697400596F75206C6F6F736500591706
:10299000021D20B811241FBECFEFD1E2DEBFCDBF94
:1029A00000E00CBF1CE0A0E0B2E0E0EAF4E502E0E9
:1029B0000BBF02C007900D92A032B107D9F710E10A
:1029C000A0E2BCE001C01D92A73CB107E1F719E20B
:1029D000C4E9D9E200E006C022970109FE010BBF5D
:1029E0000F944A2ACE38D10780E00807A9F70E9441
:1029F0003AB70D94CA210C940000FC012281338166
:102A0000F901E058FF4F8081918180589F4F2E57E8
:102A10003F4FF90120813181821B930B60E870E008
:102A20000D94FA29FC0182819381FC01EE57FF4F3E
:102A300020813181FC01E058FF4F408151814217D4
:102A4000530731F0820F931FFC01208130E002C058
:102A50002FEF3FEFC9010895DC0112962D913C91B3
:102A60001397F901EE57FF4F80819181D901A0584A
:102A7000BF4F4D915C9111974817590769F0280F86
:102A8000391FD9012C91019660E870E00F94FA2962
:102A90009183808330E002C02FEF3FEFC90108959A
:102AA000DC0112968D919C911397FC01E058FF4F29
:102AB0008E579F4FDC018D919C911197918380835C
:102AC0000895FC01A085B18521898C9190E0022EAA
:102AD00002C0959587950A94E2F780FFF6CF0484AB
:102AE000F585E02D608308951F93CF93DF93182F12
:102AF0009B01EB01C058DF4FE881F981CF010196BE
:102B000060E870E00F94FA29AC01D901AE57BF4FCD
:102B10008D919C9111974817590729F0E20FF31FE7
:102B2000108359834883DF91CF911F9108951F929D
:102B30000F920FB60F920BB60F9211242F933F9363
:102B40004F935F936F937F938F939F93AF93BF93B5
:102B5000EF93FF938091C60060E27CE0C5DFFF91B8
:102B6000EF91BF91AF919F918F917F916F915F9105
:102B70004F913F912F910F900BBE0F900FBE0F9072
:102B80001F9018951F920F920FB60F920BB60F92CF
:102B900011242F933F934F935F936F937F938F9362
:102BA0009F93AF93BF93EF93FF938091D60068E21A
:102BB0007DE09ADFFF91EF91BF91AF919F918F914F
:102BC0007F916F915F914F913F912F910F900BBE2D
:102BD0000F900FBE0F901F9018951F920F920FB677
:102BE0000F920BB60F9211242F933F934F935F9345
:102BF0006F937F938F939F93AF93BF93EF93FF93C5
:102C0000809136016CEA7DE06FDFFF91EF91BF911B
:102C1000AF919F918F917F916F915F914F913F9174
:102C20002F910F900BBE0F900FBE0F901F90189515
:102C30008F92AF92CF92DF92EF92FF920F931F93FA
:102C4000DF93CF93CDB7DEB7FC0184E092E09183B0
:102C500080837383628355834483378326831187FC
:102C60000087F386E286D586C486A68687868E850B
:102C7000808B8F85818B8889828BCF91DF911F918B
:102C80000F91FF90EF90DF90CF90AF908F900895CD
:102C90009F92AF92BF92CF92DF92EF92FF920F93EB
:102CA0001F93CF93DF93EC017A018B0181E4E81647
:102CB00082E4F8068FE0080780E0180708F077C084
:102CC00060E874E88EE190E0A80197010F940D2A66
:102CD00059016A010894A108B108C108D108D69425
:102CE000C794B794A794A60195012F5F3F4F4F4F0C
:102CF0005F4F74E0220F331F441F551F7A95D1F7A1
:102D000060E074E284EF90E00F940D2ACA01B901EB
:102D10002FEF30E040E050E00F94BB29A80197016D
:102D20000F940D2A8FEF90E0821B930B1816190653
:102D30001CF4922E909402C0922E939460E079E05D
:102D40008DE390E0A80197010F940D2A21503040A7
:102D50004040504056954795379527952F5F3F4FF8
:102D60004F4F5F4F93E0220F331F441F551F9A951B
:102D7000D1F760E074E284EF90E00F940D2ACA016D
:102D8000B9012FEF30E040E050E00F94BB29A801DB
:102D900097010F940D2A8FEF90E0821B930B18166A
:102DA000190614F4209501C02F5F2915E8F4E88571
:102DB000F98581E090E00A8802C0880F991F0A9483
:102DC000E2F7808360E079E08DE390E0A80197016D
:102DD0000F940D2A21503040404050405695479561
:102DE00037952795C90104C0E885F9851082C5018A
:102DF000EC81FD819083EE81FF818083EA85FB85F4
:102E0000408181E090E09C010E8402C0220F331FBC
:102E10000A94E2F7422B4083EA85FB8540819C01BE
:102E20000F8402C0220F331F0A94E2F7422B408323
:102E3000EA85FB852081088802C0880F991F0A94C3
:102E4000E2F7282B2083DF91CF911F910F91FF9004
:102E5000EF90DF90CF90BF90AF909F900895FC01CE
:102E6000A285B3854C9181E090E09C01068402C06C
:102E7000220F331F0A94E2F7209524232C93A28576
:102E8000B3854C919C01078402C0220F331F0A9422
:102E9000E2F7209524232C93A285B3852C910088FA
:102EA00002C0880F991F0A94E2F7809582238C93C1
:102EB000089584E092E09093310E8093300E20E2EA
:102EC0003CE03093330E2093320E25EC30E030930B
:102ED000350E2093340E24EC30E03093370E2093DF
:102EE000360E20EC30E03093390E2093380E21EC72
:102EF00030E030933B0E20933A0E26EC30E03093D6
:102F00003D0E20933C0EE4E0E0933E0E73E07093A0
:102F10003F0E67E06093400E55E05093410E41E054
:102F20004093420E9093440E8093430E28E23DE07E
:102F30003093460E2093450E25ED30E03093480E39
:102F40002093470E24ED30E030934A0E2093490E33
:102F500020ED30E030934C0E20934B0E21ED30E00D
:102F600030934E0E20934D0E26ED30E03093500EF0
:102F700020934F0EE093510E7093520E6093530EB8
:102F80005093540E4093550E9093570E8093560EC7
:102F90008CEA9DE09093590E8093580E85E391E062
:102FA00090935B0E80935A0E84E391E090935D0EB4
:102FB00080935C0E80E391E090935F0E80935E0EB1
:102FC00081E391E09093610E8093600E86E391E03F
:102FD0009093630E8093620EE093640E7093650E7F
:102FE0006093660E5093670E4093680E089508959F
:102FF000589A599AE9EBF0E080818E7F8083808136
:103000008D7F808388E48093B80084E48093BC0043
:1030100008951092BC00089570936D0E60936C0E2D
:103020000895662311F488E401C08CE08093B80011
:103030000895662319F0589A599A089558985998FE
:1030400008958091690E08953091690E20916B0E5C
:10305000231B20936A0E332321F410926A0E80E022
:10306000089531503093690EFC01E20FF11D828109
:103070000895EF92FF920F931F930E94F5577B01E3
:103080008C0184EA8093BC001AC00097E1F00E9492
:10309000F5576E197F09800B910B20916C0E3091C2
:1030A0006D0E40E050E0621773078407950738F013
:1030B0001092BC0084E48093BC0081E021C0809128
:1030C0006C0E90916D0E2091BC0027FFDECF809199
:1030D000B900887F883099F08091B900887F80316D
:1030E000A1F40DC08091B900887F1092BC0094E4D7
:1030F0009093BC0005C08091B900887F01C080E03A
:103100001F910F91FF90EF9008958091B900887FF3
:10311000883389F7E7CFDF92EF92FF920F931F93E7
:10312000D62E0E94F5577B018C01DD2011F084EC36
:1031300001C084E88093BC001AC00097E1F00E94AF
:10314000F5576E197F09800B910B20916C0E309111
:103150006D0E40E050E0621773078407950738F062
:103160001092BC0084E48093BC0081E019C080917F
:103170006C0E90916D0E2091BC0027FFDECF8091E8
:10318000B900887F883349F48091B900887F109214
:10319000BC0094E49093BC0003C08091B900887F88
:1031A0001F910F91FF90EF90DF900895EF92FF92A3
:1031B0000F931F930E94F5577B018C0184E9809344
:1031C000BC001AC00097E1F00E94F5576E197F0904
:1031D000800B910B20916C0E30916D0E40E050E011
:1031E000621773078407950738F01092BC0084E4D7
:1031F0008093BC0081E009C080916C0E90916D0EAF
:103200002091BC0024FDDECF80E01F910F91FF9044
:10321000EF900895EF92FF920F931F93CF93DF9358
:10322000EC016093BB000E94F5577B018C0184E8A0
:103230008093BC001AC00097E1F00E94F5576E1908
:103240007F09800B910B20916C0E30916D0E40E048
:1032500050E0621773078407950738F01092BC009E
:1032600084E48093BC0011E01FC080916C0E9091AB
:103270006D0E2091BC0027FFDECF8091B900887FC2
:10328000883289F01091B900187F8091B900887F49
:10329000803319F4CE018ADF07C01092BC0084E4A9
:1032A0008093BC0001C010E0812FDF91CF911F916E
:1032B0000F91FF90EF900895EF92FF920F931F935D
:1032C000CF93DF93EC016093BB000E94F5577B0125
:1032D0008C0184E88093BC001AC00097E1F00E9442
:1032E000F5576E197F09800B910B20916C0E309170
:1032F0006D0E40E050E0621773078407950738F0C1
:103300001092BC0084E48093BC0011E01CC080914A
:103310006C0E90916D0E2091BC0027FFDECF809146
:10332000B900887F883171F08091B900887F80343E
:1033300091F408C08091B900887F8834A9F4CE0147
:1033400035DF01C010E0812FDF91CF911F910F91E8
:10335000FF90EF9008951091B900187F8091B90007
:10336000887F803239F7EBCF1092BC0084E48093E1
:10337000BC00E9CFAF92BF92DF92EF92FF920F9322
:103380001F93DF93CF930F92CDB7DEB75C01F42E7E
:10339000E22E1092690E10926A0E222311F4EE248E
:1033A000E3948E2D8150F50181831082C5016983DC
:1033B00060DEF50180836981882309F066C0D62E1E
:1033C000DD0CC5016D2D78DFF5018083882321F0A8
:1033D000813009F05AC04EC0C5016F2D1BDFF501C9
:1033E0008083882321F0813009F04FC045C0C5019A
:1033F00040DEF5018083882321F0813009F045C04B
:103400003DC06D2D6F5FC50157DFF50180838823B7
:1034100011F4FF2424C08130C1F532C0F50181814F
:10342000F81651F4C50160E076DEF5018083813045
:1034300049F1883551F029C0C50161E06CDEF50124
:1034400080838130F9F0803501F58091BB00F8016F
:1034500081938F01F394F092690EF0926B0EFE143B
:10346000E8F2C501A3DEF5018083882371F0813085
:1034700061F40AC082E009C083E007C084E005C0AF
:1034800085E003C086E001C087E00F90CF91DF9117
:103490001F910F91FF90EF90DF90BF90AF90089534
:1034A000CF92DF92EF92FF920F931F93DF93CF9310
:1034B0000F92CDB7DEB76C01F42E022FE32E1092DF
:1034C000690E10926A0E442311F4FF24F3948F2D99
:1034D0008150F60181831082C6016983CADDF6013D
:1034E00080836981882309F03FC0660F6F5FC60142
:1034F000E3DEF6018083882319F41E2DEE2424C018
:10350000813091F52CC0F6018181E81651F4C60195
:1035100060E001DEF6018083813019F1883551F0D9
:1035200023C0C60161E0F7DDF60180838130C9F078
:103530008035D1F48091BB00F80181938F01E39431
:10354000E092690EE0926B0EEF14E8F2C6012EDEF7
:10355000F6018083882341F0813031F404C085E096
:1035600003C086E001C087E00F90CF91DF911F91EB
:103570000F91FF90EF90DF90CF900895CF92DF9260
:10358000EF92FF920F931F93DF93CF930F92CDB7DC
:10359000DEB76C01042FE22E1092690E10926A0EB3
:1035A000222311F4EE24E3948E2D8150F6018183C1
:1035B0001082C60169835DDDF601808369818823FD
:1035C00009F069C0F62EFF0CC6016F2D75DEF601FD
:1035D0008083882321F0813009F05DC051C0C6018D
:1035E000602F18DEF6018083882321F0813009F0F6
:1035F00052C048C0C6013DDDF6018083882321F01A
:10360000813009F048C040C06F2D6F5FC60154DEA5
:10361000F6018083882329F486010E5F1F4FFF2463
:1036200024C08130C1F532C0F6018181F81651F411
:10363000C60160E070DDF6018083813049F1883594
:1036400051F029C0C60161E066DDF601808381305A
:10365000F9F0803501F58091BB00F80181938F016D
:10366000F394F092690EF0926B0EFE14E8F2C6012C
:103670009DDDF6018083882371F0813061F40AC0FA
:1036800082E009C083E007C084E005C085E003C094
:1036900086E001C087E00F90CF91DF911F910F91DD
:1036A000FF90EF90DF90CF90089568CFCF92DF9298
:1036B000EF92FF920F931F93DF93CF930F92CDB7AB
:1036C000DEB76C01E42E1092690E10926A0E44234C
:1036D00011F4EE24E3948E2D8150F6018183108243
:1036E000C6016983C6DCF60180836981882309F0FD
:1036F00041C0660F6F5FC601DFDDF601808388235E
:1037000029F486010E5F1F4FFF2424C0813091F5FC
:103710002CC0F6018181F81651F4C60160E0FBDC93
:10372000F6018083813019F1883551F023C0C6013C
:1037300061E0F1DCF60180838130C9F08035D1F49D
:103740008091BB00F80181938F01F394F092690E90
:10375000F0926B0EFE14E8F2C60128DDF6018083BC
:10376000882341F0813031F404C085E003C086E055
:1037700001C087E00F90CF91DF911F910F91FF90D3
:10378000EF90DF90CF90089591CFCF92DF92EF929C
:10379000FF920F931F93DF93CF930F92CDB7DEB7B6
:1037A0006C01E42E122FF32EFC011082698361DC80
:1037B000F60180836981882389F5660FC6017CDD67
:1037C000F6018083882319F0813041F522C0C601BB
:1037D0006E2D20DDF6018083882359F4E12E0CC084
:1037E000F70161917F01C60115DDF6018083882311
:1037F00019F0813099F40FC08E2D811B801780F352
:10380000C601D4DCF6018083882341F0813031F495
:1038100004C082E003C083E001C087E00F90CF9135
:10382000DF911F910F91FF90EF90DF90CF9008955F
:103830000F93CF93DF93EC01F90101900020E9F79A
:103840003197E21BF30B18820E2F9FDF8883DF91E5
:10385000CF910F910895FF920F931F93CF93DF9312
:10386000EC01062F142FF22E188203DC88838823A4
:1038700031F5602F660FCE011FDD8883882319F094
:103880008130E9F417C0CE01612FC4DC888388231E
:1038900031F4CE016F2DBEDC8883882319F081308E
:1038A00071F40AC0CE0182DC8883882341F0813024
:1038B00031F404C082E003C083E001C087E0DF91FF
:1038C000CF911F910F91FF900895C5CFEF92FF9276
:1038D0001F93DF93CF930F92CDB7DEB77C01142FE8
:1038E000FC0110826983C5DBF7018083698188232D
:1038F00011F5660FC701E0DCF7018083882319F01A
:103900008130C9F413C0C701612F84DCF7018083C3
:10391000882319F0813079F40BC0C70147DCF70127
:103920008083882341F0813031F404C082E003C0F9
:1039300083E001C087E00F90CF91DF911F91FF904E
:10394000EF900895C3CFEF92FF920F931F93CF9301
:10395000DF93EC0100916C0E10916D0E80E590E00C
:1039600090936D0E80936C0E80E39EE062E272E0B5
:10397000B9D180E39EE07DD1FF24EE241882CE01F0
:1039800078DB8883882329F46F2D660FCE0194DCC1
:1039900088838881882339F08130B1F480E39EE008
:1039A00065E472E01DC080E39EE06EE772E063D0E4
:1039B00080E39EE069E972E05ED080E39EE06F2DD7
:1039C00040E150E081D1E394CE01F0DBF3948F2D00
:1039D0008038A1F6EE2029F480E39EE06DE972E0E4
:1039E00081D110936D0E00936C0EDF91CF911F91DA
:1039F0000F91FF90EF900895ECEBF0E0108284E4DB
:103A00008083089508950F931F93CF93DF93EC0164
:103A1000062F172F07C0E881F9810190F081E02D72
:103A2000CE011995F80161918F016623A1F7DF910D
:103A3000CF911F910F910895EF92FF920F931F93D3
:103A4000CF93DF937C01EB018A010BC06991D70111
:103A5000ED91FC910190F081E02DC7011995015085
:103A600010400115110591F7DF91CF911F910F9132
:103A7000FF90EF900895DC01ED91FC910280F381BD
:103A8000E02D199508956F927F928F929F92AF9239
:103A9000BF92CF92DF92EF92FF920F931F93DF932B
:103AA000CF93CDB7DEB7A0970FB6F894DEBF0FBEA9
:103AB000CDBF5C01CB01BA0161157105810591058E
:103AC00049F4C50140E350E060E070E020E030E000
:103AD0008ED045C06E010894C11CD11CEE24FF2479
:103AE0008701622E772488249924A40193010F94DE
:103AF0000D2AF60161936F010894E11CF11C011D70
:103B0000111DB901CA01611571058105910569F79A
:103B1000D801C7010197A109B1096E010894C11C20
:103B2000D11CC80ED91E16C0F60140814A3010F4CF
:103B3000405D01C0495C50E060E070E0C50120E0FC
:103B400030E055D00894E108F10801091109089402
:103B5000C108D108E114F1040105110529F7A09667
:103B60000FB6F894DEBF0FBECDBFCF91DF911F918E
:103B70000F91FF90EF90DF90CF90BF90AF909F900C
:103B80008F907F906F9008952115310549F4DC01E5
:103B9000ED91FC910190F081E02D642F199508952D
:103BA00072CF9A01AB0160E070E0EECF9A01462F30
:103BB00050E060E070E0E8CF0F931F93CF93DF9366
:103BC0008C01EB010AC02196FA01449150E060E0BB
:103BD00070E0C80120E030E0D7DFAE01FE01849143
:103BE000882389F7DF91CF911F910F910895EF926C
:103BF000FF920F931F93CF93DF93EC017A018B0118
:103C00002115310541F4E881F9810190F081E02D21
:103C1000642F199519C02A303105A9F477FF0FC018
:103C20004DE250E060E070E020E030E0E0DF109531
:103C30000095F094E094E11CF11C011D111DCE01D2
:103C4000B801A7012AE01FDFDF91CF911F910F91EB
:103C5000FF90EF9008959A01FB01AF01662757FD91
:103C60006095762FC4CF9A01462F50E060E070E057
:103C7000BECFCF93DF93EC014DE050E060E070E009
:103C800020E030E0B4DFCE014AE050E060E070E0D8
:103C900020E030E0ACDFDF91CF910895CF93DF9348
:103CA000EC0172DFCE01E5DFDF91CF910895CF9374
:103CB000DF93EC019A01AB0160E070E065DFCE01BB
:103CC000D8DFDF91CF910895CF93DF93EC019A0174
:103CD000462F50E060E070E057DFCE01CADFDF9191
:103CE000CF910895CF93DF93EC01C5DECE01C1DF04
:103CF000DF91CF910895CF93DF93EC0178DFCE0170
:103D0000B8DFDF91CF910895CF93DF93EC019A0153
:103D1000CB01AC01662757FD6095762FCE0167DF9A
:103D2000CE01A7DFDF91CF910895CF93DF93EC0110
:103D30009A01462F50E060E070E059DFCE0199DF34
:103D4000DF91CF9108959F92AF92BF92CF92DF9271
:103D5000EF92FF920F931F93CF93DF93EC017A01C1
:103D60008B01D22ECB01BA0120E030E0A9010F94E3
:103D7000E82287FF0CC0CE014DE250E060E070E029
:103D800020E030E034DF17FB109517F91095CC24B4
:103D900050E040E030E02FE311C0DA01F9016B2F71
:103DA000742F8F2F922F20E030E040E251E40F94E7
:103DB000EF22562F472F382F292FC394CD1468F3A5
:103DC000C801B701DA01F9012B2F342F4F2F5E2FD5
:103DD0000F946D225B01F82E092F7B2D0F945C232D
:103DE000C62EE72E182F992E0F9488239B01AC0125
:103DF0006A2D7B2D8F2D902F0F946C225B01F82E56
:103E0000092FCE014C2D5E2D612F792D2AE030E057
:103E1000BBDEDD2081F1CE016EEA72E02CDE2BC02C
:103E20006A2D7B2D8F2D902F20E030E040E251E471
:103E30000F941B25C62EB72EA82E992E0F9457230C
:103E40007B010027F7FC0095102FCE01B801A701D8
:103E50002AE030E0CCDEC801B7010F948A239B0131
:103E6000AC016C2D7B2D8A2D992D0F946C225B015A
:103E7000F82E092FDA94DD2099F6DF91CF911F916A
:103E80000F91FF90EF90DF90CF90BF90AF909F90F9
:103E9000089559CFCF93DF93EC0155DFCE01E9DED2
:103EA000DF91CF910895282F30E0A90155954795CE
:103EB00040654CBD80FD03C091E0863009F490E080
:103EC0009DBD08958FEF8EBD0DB407FEFDCF8EB55D
:103ED00008958EBD0DB407FEFDCF089545B121E0D4
:103EE00030E0FC01008002C0220F331F0A94E2F789
:103EF000422B45B90895CF93DF93EC018A81D3DF3C
:103F000025B181E090E0088002C0880F991F0A94D3
:103F1000E2F78095822385B9DF91CF910895CF9301
:103F2000DF93EC019A012150304041155105C9F051
:103F30008FEF8EBDFB0180E090E04FEF07C00DB426
:103F400007FEFDCF5EB551934EBD019682179307D4
:103F5000B0F30DB407FEFDCF8EB5620F731FFB01EA
:103F60008083B0DFAFDFCE01B9DFDF91CF9108955D
:103F7000FC01673020F086E1818380E00895628350
:103F800081E008950F931F93CF93DF93EB010E947D
:103F9000F5578B0107C00E94F557601B710B6C171A
:103FA0007D0728F48FDF8F3FB1F781E001C080E00B
:103FB000DF91CF911F910F910895AF92BF92CF9251
:103FC000DF92EF92FF921F93CF93DF93EC01162FB6
:103FD00059016A0190DFCE016CE271E0D3DF812FDD
:103FE000806477DF28E1E22EF12CD601C5010E2C8A
:103FF00004C0B695A795979587950A94D2F769DF7F
:1040000088EF9FEFE80EF91E98EFE9169FEFF9068B
:1040100061F7112321F0183021F08FEF03C085E9FB
:1040200001C087E856DF10E04DDF8B8387FF02C0B9
:104030001150D1F7DF91CF911F91FF90EF90DF905A
:10404000CF90BF90AF900895CF92DF92EF92FF9202
:104050001F93CF93DF93EC01162F69017A0167E379
:1040600020E030E0A901A9DFCE01612FA701960170
:10407000A4DFDF91CF911F91FF90EF90DF90CF9061
:104080000895BF92CF92DF92EF92FF920F931F930A
:10409000CF93DF93EC01B62E1C82198248830E94D5
:1040A000F5576B0124B181E090E0088002C0880FD1
:1040B000991F0A94E2F7282B24B9CE010FDF239829
:1040C00084B1866084B9209A289A85E08A83EBDEE1
:1040D0001AE08FEFFEDE1150E1F70AC00E94F5579B
:1040E0006C197D0987E0613D780710F081E04BC0D5
:1040F000CE0160E020E030E0A9015FDF182F8B8364
:10410000813061F7CE0168E02AEA31E040E050E01A
:1041100054DF82FF02C01C830BC014E0D3DE8B830C
:104120001150E1F78A3A11F082E02DC082E08C83D1
:104130008C81823031F4E12CF12C012D30E4132FED
:104140000EC0EE24FF2487010AC00E94F5576C19A7
:104150007D0987E0613D780710F088E014C0CE014A
:1041600069E2A801970170DF8B83882371F78C8146
:104170008230B1F4CE016AE320E030E0A9011DDF16
:10418000882329F086E08983CE01A8DE14C09ADE58
:10419000807C803C11F483E08C8394DE93DE92DE9D
:1041A000CE019CDE8B2D873018F086E1898303C019
:1041B000BA8281E001C080E0DF91CF911F910F9121
:1041C000FF90EF90DF90CF90BF9008950F931F93D3
:1041D000CF93DF93EC010E94F5578B010AC00E9438
:1041E000F557601B710B81E06D32780710F08FE09E
:1041F00007C068DE8B838F3F91F38E3F31F08DE0F7
:104200008983CE016BDE80E001C081E0DF91CF9138
:104210001F910F9108950F931F93CF93DF93EC019C
:104220008A0120E030E0A901C8DE882319F08EE081
:1042300089830BC0CE01CADF882339F0CE01B801D3
:1042400040E150E06CDE81E003C0CE0147DE80E05B
:10425000DF91CF911F910F910895AB0169E0DBCF02
:10426000DF93CF93CDB7DEB760970FB6F894DEBF7C
:104270000FBECDBFBE016F5F7F4FEFDF882319F008
:104280009B8581E096FF80E060960FB6F894DEBFD4
:104290000FBECDBFCF91DF9108956F927F928F9225
:1042A0009F92AF92BF92CF92DF92EF92FF920F93C5
:1042B0001F93DF93CF93CDB7DEB760970FB6F89417
:1042C000DEBF0FBECDBF7C015A016B013801490131
:1042D000BE016F5F7F4FC1DF882309F452C02B8579
:1042E00026FD1DC0D401C3010196A11DB11D8A295F
:1042F0009B29AC29BD292F73220F3C85331F3327FF
:10430000331F232B30E040E050E082239323A4238B
:10431000B5230097A105B10511F08BE02BC0F70183
:104320008481833071F059E0AA0CBB1CCC1CDD1CCD
:104330005A95D1F749E0660C771C881C991C4A9560
:10434000D1F7C70160E2A601950137DE882379F431
:10435000C70161E2A401930130DE882341F4C70163
:1043600066E220E030E0A90128DE882311F18AE02E
:1043700001C08CE0F701818304C0C701AFDD81E09B
:1043800003C0C701ABDD80E060960FB6F894DEBFD6
:104390000FBECDBFCF91DF911F910F91FF90EF9096
:1043A000DF90CF90BF90AF909F908F907F906F9055
:1043B0000895C70160E177E2E5DD8823D1F2DDCF22
:1043C0000F931F93DF93CF93CDB7DEB760970FB6F0
:1043D000F894DEBF0FBECDBF8C01BE016F5F7F4F73
:1043E0003CDF882309F45FC08981807C81F52F81BF
:1043F0002370922F990F990F80E0288530E0220FCB
:10440000331F220F331F282B392B898582958695E0
:104410008695837090E0282B392B2F5F3F4F40E02B
:1044200050E08E818F7090E007976A856370660F09
:104430007B85771F7727771F672B860F911D04C019
:10444000220F331F441F551F8A95D2F72FC0803487
:1044500039F528852695269530E040E050E0A90101
:10446000332722278A8590E0A0E0B0E0282B392B63
:104470004A2B5B2B998580E0AA2797FDA095BA2F40
:10448000282B392B4A2B5B2B2F5F3F4F4F4F5F4F12
:104490006AE0220F331F441F551F6A95D1F706C0EB
:1044A00089E0F801818320E030E0A901B901CA0167
:1044B00060960FB6F894DEBF0FBECDBFCF91DF91EF
:1044C0001F910F910895CF92DF92EF92FF920F9379
:1044D0001F93CF93DF93EC017A018B0169018C81EB
:1044E000833039F0F9E0EE0CFF1C001F111FFA9524
:1044F000D1F7CE0161E1A80197015FDD882319F0B2
:1045000083E089830BC0CE0161DE882339F0CE01C0
:10451000B60140E052E003DD81E003C0CE01DEDC05
:1045200080E0DF91CF911F910F91FF90EF90DF908E
:10453000CF900895CF93DF93EC016EBDE42FF52F5C
:1045400080E090E00DB407FEFDCF20812EBD0DB4BC
:1045500007FEFDCF21812EBD0296329622E08030EB
:10456000920781F70DB407FEFDCF8FEFB2DC8FEF1E
:10457000B0DCA8DC8B838F71853031F081E18983D9
:10458000CE01ACDC80E001C081E0DF91CF910895E5
:104590000F931F93CF93DF93EC018B01ACDCCE0123
:1045A00068E572E0EFDC882351F0CE016CEFA801E2
:1045B000C1DF882321F0CE0191DC81E005C083E1D9
:1045C0008983CE018BDC80E0DF91CF911F910F9129
:1045D0000895CF92DF92EF92FF920F931F93CF93A4
:1045E000DF93EC017A018B0169018C81833039F012
:1045F000A9E0EE0CFF1C001F111FAA95D1F7CE01F8
:1046000068E1A8019701D9DC882311F084E01AC081
:10461000CE016EEFA6018EDF8823A9F0CE0168E5FA
:1046200072E0B0DC882311F485E10CC0CE016DE0AE
:1046300020E030E0A901C1DC882319F443DC8823A1
:1046400071F084E18983CE0149DC80E0DF91CF9174
:104650001F910F91FF90EF90DF90CF900895CE01C2
:104660003DDC81E0F3CFCF92DF92EF92FF920F9388
:104670001F93CF93DF93EC016A017B01A90198019D
:1046800067E1E2DC882311F087E012C08C8183307F
:1046900039F0B9E0CC0CDD1CEE1CFF1CBA95D1F74B
:1046A000CE0169E1A701960188DC882331F085E01D
:1046B0008983CE0113DC80E003C0CE010FDC81E0F2
:1046C000DF91CF911F910F91FF90EF90DF90CF90EE
:1046D0000895CF93DF93EC010EDCCE0168E572E024
:1046E00051DC882361F08DEFF4DBCE0168E572E0E8
:1046F00049DC882321F0CE01F1DB81E005C080E1B7
:104700008983CE01EBDB80E0DF91CF9108950F9399
:104710001F93CF93DF93EC018B0141E00E942E3F6A
:10472000882331F4CE01B80140E00E942E3F01C041
:1047300081E0DF91CF911F910F9108952EEB32E030
:10474000FC01318320832581222311F00C94052E56
:1047500008950F931F93CF93DF938C01EC01A396E1
:10476000D093910EC093900ECE010E94052EB801F9
:104770006B5F7F4FCE0159D4DF91CF911F910F9185
:1047800008950F931F93DF93CF93CDB7DEB76D9747
:104790000FB6F894DEBF0FBECDBF8C018EEB92E05A
:1047A0009A8389831B821E82FB0180818F3239F4B8
:1047B0008181882321F4C801CCDF082F43C0CE01BA
:1047C000019641E00E94BA348823D9F18E8182306B
:1047D000C0F19B81F80195A39C8196A39D8197A32D
:1047E00080A78F819885A985BA8581A792A7A3A75D
:1047F000B4A78B859C85AD85BE8585A796A7A7A701
:10480000B0AB8F859889A989BA8981AB92ABA3ABEC
:10481000B4AB8B8985AB8C899D89AE89BF8986AB0A
:1048200097ABA0AFB1AF888D998DAA8DBB8D82AFAC
:1048300093AFA4AFB5AF8C8D9D8D97AF86AF01E0E0
:1048400001C000E0CE01019679DF802F6D960FB692
:10485000F894DEBF0FBECDBFCF91DF911F910F91B6
:104860000895CF93DF93EC018981882361F08FE66F
:1048700092E09CD180E39EE0698140E150E096D9CE
:1048800080E39EE0F6D9DF91CF910895EADFFFCF74
:104890000F931F93CF93DF93EC018B0187E692E098
:1048A00085D180E39EE0B8011DDACE01DADFDF9129
:1048B000CF911F910F910895EBDFFFCF0F931F93BF
:1048C000CF93DF93EC018B018FE592E06FD1C801AC
:1048D00071D1CE01C6DFDF91CF911F910F91089565
:1048E000EDDFFFCF83960C94CA34EF92FF92CF9303
:1048F000DF93EC017E019F2DC4DB882349F0CE01BC
:104900000596BE0104DF882319F0CE0122DF01C025
:1049100080E0DF91CF91FF90EF900895CF93DF93E8
:10492000EC018981882361F088E392E043D1898199
:10493000813019F488E092E03DD1CE0192DF0FC0C2
:104940008C8D882319F48BEE91E008C088A588230C
:1049500019F480ED91E002C080EC91E02BD1DF9161
:10496000CF910895DBDFFFCF462F839660E37EE093
:1049700020E00C947531839620E00C947531FF9201
:104980000F931F93DF93CF93CDB7DEB76D970FB61D
:10499000F894DEBF0FBECDBFFB01242F6EEB72E09B
:1049A0007A8369831B821E82BC016D5D7F4F8E01FD
:1049B0000F5F1F4FC801AF010E94FE35F82EC801DE
:1049C000BDDE8F2D6D960FB6F894DEBF0FBECDBF46
:1049D000CF91DF911F910F91FF90089583960C94D2
:1049E0008834CF92DF92EF92FF920F931F93DF9361
:1049F000CF93CDB7DEB76D970FB6F894DEBF0FBE7D
:104A0000CDBF6C017A018EEB92E09A8389831B8281
:104A10001E828E010F5F1F4FC80141E00E94BA3411
:104A2000882349F0B6016D5D7F4FC801A7010E9440
:104A3000D636082F01C000E0CE0101967FDE802F20
:104A40006D960FB6F894DEBF0FBECDBFCF91DF914C
:104A50001F910F91FF90EF90DF90CF9008950F93EB
:104A60001F93DF93CF93CDB7DEB76D970FB6F89452
:104A7000DEBF0FBECDBF8EEB92E09A8389831B828F
:104A80001E828E010F5F1F4FC80141E00E94BA34A1
:104A9000882329F0C8010E94822F082F01C000E05E
:104AA000CE0101964BDE802F6D960FB6F894DEBFD7
:104AB0000FBECDBFCF91DF911F910F910895CF927F
:104AC000DF92EF92FF920F931F93DF93CF93CDB7B7
:104AD000DEB76D970FB6F894DEBF0FBECDBF69018C
:104AE0007A018EEB92E09A8389831B821E828E016B
:104AF0000F5F1F4FC80142E00E94BA34882339F08B
:104B0000C801B701A6010E94B42E082F01C000E021
:104B1000CE01019613DE802F6D960FB6F894DEBF9E
:104B20000FBECDBFCF91DF911F910F91FF90EF90FE
:104B3000DF90CF900895DF93CF930F920F92CDB770
:104B4000DEB78091C3109091C4109E012F5F3F4F3C
:104B5000009719F4275C304102C0281B390B3A83B7
:104B6000298389819A810F900F90CF91DF910895C9
:104B70000F931F93CF93DF938C01EB0105C0C80106
:104B800040E050E013D82196FE0164916623B9F706
:104B9000DF91CF911F910F910895CF93DF93EC0197
:104BA000E7DFCE0166D8DF91CF910895BC0180E3A5
:104BB0009EE0DECFBC0180E39EE0EFCF1F93CF935A
:104BC000DF93EC01162F6A3020F460E340E050E000
:104BD0004AD8CE01612F4AE050E00E94D61DDF91F5
:104BE000CF911F9108950F931F930FEF1FEF2FEF9A
:104BF0003FE00E948C3C1F910F910895CF93DF936B
:104C0000EC019C012A5F3F4F8B8D9C8D41E050E071
:104C100060E070E00E942A3D8823A1F08F89988D82
:104C2000A98DBA8D0097A105B10571F48E819F8180
:104C3000A885B9858F8B988FA98FBA8F8B81806853
:104C40008B8302C080E001C081E0DF91CF910895A5
:104C5000DF92EF92FF920F931F93CF93DF93EC01BC
:104C60008B899C89AD89BE89803E2FEF92072FE109
:104C7000A20720E0B20708F06FC0CE01BFDF882393
:104C800009F46AC00E941A3B882309F465C0EB8DC1
:104C9000FC8DEE80FF80088519858EEF9FEFAFEFCA
:104CA000BFEFE80EF91E0A1F1B1F058404C0EE0C9F
:104CB000FF1C001F111F0A94D2F786859785A089D3
:104CC000B189E80EF91E0A1F1B1F81E0809398101E
:104CD000E092C402F092C5020093C6021093C7028C
:104CE00080E092E0E6E9FEE0DF019C011D922150A8
:104CF0003040E1F7DD24D39410C0B801A7014D0D79
:104D0000511D611D711D809196109091971026E99B
:104D10003EE05FDC882301F1D394EB8DFC8D848130
:104D2000D81658F320E032E040E050E0058404C09B
:104D3000220F331F441F551F0A94D2F78B899C8979
:104D4000AD89BE89820F931FA41FB51F8B8B9C8BCF
:104D5000AD8BBE8B81E001C080E0DF91CF911F91D0
:104D60000F91FF90EF90DF900895CF93DF93EC01C8
:104D7000462F8E859F85A889B989BC01CD010E94E7
:104D8000573B882351F02A8930E085E0220F331FFA
:104D90008A95E1F72A56314F02C020E030E0C90180
:104DA000DF91CF9108956F927F928F929F92AF92F1
:104DB000BF92CF92DF92EF92FF920F931F93DF93F8
:104DC000CF9300D00F92CDB7DEB78C014B013A01E3
:104DD000FC01C788D08CE18CF28CC114D104E104B1
:104DE000F10421F47EC06C017D0104C05E010894D1
:104DF000A11CB11CF801838D948DB701A60195010A
:104E00000E94993B882309F46CC089819A81AB8107
:104E1000BC81A70196012F5F3F4F4F4F5F4F821715
:104E20009307A407B507F9F2F801638D748DFB01B0
:104E30002789203149F4883FFFEF9F07F0E0AF0753
:104E4000F0E0BF0750F44DC0883F2FEF92072FEFDF
:104E5000A2072FE0B20708F444C0F8018789908DBB
:104E6000A18DB28D0297A109B109FB01058404C08F
:104E7000880F991FAA1FBB1F0A94D2F72685378572
:104E800040895189820F931FA41FB51FF4018083AD
:104E90009183A283B383FB0186859785A089B1891D
:104EA0000197A109B1092481820F911DA11DB11D96
:104EB000A70196012250304040405040058404C074
:104EC000220F331F441F551F0A94D2F7820F931FDE
:104ED000A41FB51FF30180839183A283B38381E074
:104EE00001C080E00F900F900F900F90CF91DF9155
:104EF0001F910F91FF90EF90DF90CF90BF90AF90F8
:104F00009F908F907F906F900895E82FF92F90E0F9
:104F100080E02EE23081303269F0983029F4DB01F4
:104F2000A80FB11D2C938F5FDB01A80FB11D30813D
:104F30003C938F5F9F5F31969B3061F7680F711DC7
:104F4000FB0110820895CF93DF93EB01FC012581D3
:104F5000222379F02250223020F48FE288831982B4
:104F600006C060E002DF009721F0BE01CEDF81E0E5
:104F700001C080E0DF91CF910895CF93DF93FC01D2
:104F8000EB012285338544855585288339834A83FF
:104F90005B8386819781A085B1858C839D83AE8359
:104FA000BF83DF91CF910895CF93DF93EA01FB0197
:104FB0002BE030E231932150E9F7A82FB92F30E0F0
:104FC00047E01CC04A3069F138E04AE017C0E217F8
:104FD00041F1FC010196E491EE23C9F7431708F172
:104FE0002132F8F02F37E8F4FB01E30FF11D822F97
:104FF00081568A3108F4205220833F5F9A2F8B2FED
:105000002D91222339F02F3229F02E32D9F283E864
:1050100092E0DFCF9883898381E0FB019081903219
:1050200009F480E0DF91CF9108950F931F93CF9300
:10503000DF93EC018B018D81882309F040C0FB01D7
:105040008789803109F041C082E08D831F8A188EE4
:10505000198E1A8E808D918DA0E0B0E025E0880F2A
:10506000991FAA1FBB1F2A95D1F78B8B9C8BAD8BE9
:10507000BE8B13C083E08D83F801428D538D648D08
:10508000758D4F8B588F698F7A8F9E012D5E3F4FA4
:10509000C8010E94193C882391F01C8F0B8F81E07E
:1050A0008B831E821F82188619861A861B861C8691
:1050B0001D861E861F86188A198A1A8A01C080E0FA
:1050C000DF91CF911F910F9108958032C1F7D2CF18
:1050D000AF92BF92CF92DF92EF92FF920F931F9306
:1050E000CF93DF938C017B01D42EA22EEB01BB2446
:1050F000CC248881803289F08B2D883039F4C80126
:105100006EE240E050E00E94331EC394C801688103
:1051100040E050E00E94D61DC394B3942196EB2D3D
:10512000EB3039F7F70183858871803161F4AA206B
:1051300051F0C8016FE202C0C80160E240E050E0F7
:105140000E94331EC394CD14B8F3DF91CF911F9109
:105150000F91FF90EF90DF90CF90BF90AF900895A8
:10516000FC01362F242F80E39EE0BF01432FB0CFF8
:105170000F931F93CF93DF93EC018B01672F77275A
:1051800066956454784F4AE050E00E94D11DCE01EC
:105190006DE240E050E00E94331EB80135E07695A4
:1051A00067953A95E1F76F70CE0108DDCE016DE2AB
:1051B00040E050E00E94331E602F6F71CE01FEDC94
:1051C000DF91CF911F910F910895BC0180E39EE084
:1051D000CFCF0F931F93CF93DF93EC018B01612F00
:1051E000669566956695EADCCE016AE340E050E09C
:1051F0000E94331EB80155E0769567955A95E1F700
:105200006F73CE01DBDCCE016AE340E050E00E9428
:10521000331E602F6F71660FCE01D0DCDF91CF910E
:105220001F910F910895BC0180E39EE0D2CF0F93B0
:105230001F93DF93CF93CDB7DEB72D970FB6F894BA
:10524000DEBF0FBECDBF8E010F5F1F4FB8017BDEEB
:10525000882339F080E39EE0B8010E943B1D81E085
:1052600001C080E02D960FB6F894DEBF0FBECDBF13
:10527000CF91DF911F910F9108952F923F924F92FE
:105280005F926F927F928F929F92AF92BF92CF92D6
:10529000DF92EF92FF920F931F93DF93CF9300D093
:1052A0000F92CDB7DEB79C838B832A01DC01159664
:1052B0008C911597882309F4D4C013968C91139779
:1052C00080FFCFC0E8C02C014E185F08862E972EB5
:1052D0007201EB81FC813696FA83E983212CF2E09E
:1052E0003F2EB9C0AB81BC811A962D913D914D9155
:1052F0005C911D97EFEF6E2EE1E07E2E622273220D
:1053000015966C91159759016A0179E0D694C79466
:10531000B794A7947A95D1F75B968D919C915C9701
:10532000623051F4FC01428D538D648D758D4A0DB0
:105330005B1D6C1D7D1D4EC0DC0114960C911497F5
:1053400001500A216114710409F50023F9F42115B3
:1053500031054105510559F4EB81FC818789908D18
:10536000A18DB28D86839783A087B1870FC0AB8153
:10537000BC8116964D915D916D917C911997298113
:105380003A810E94993B882309F46BC0AB81BC81B0
:105390005B96ED91FC915C9716964D915D916D91A8
:1053A0007C9119974250504060407040058404C081
:1053B000440F551F661F771F0A94D2F7868597857D
:1053C000A089B189480F591F6A1F7B1F400F511DCB
:1053D000611D711DC1018619970987018E159F05F1
:1053E00008F48C01B2E000301B0709F06EC0809118
:1053F000C4029091C502A091C602B091C70248179D
:1054000059076A077B0709F460C080919610909154
:105410009710940158D8882349F423C093012A5641
:10542000314FC401B901A8010F940422800E911ECE
:10543000980140E050E0EB81FC8182859385A48552
:10544000B585820F931FA41FB51F82879387A487FA
:10545000B587E01AF10AE114F10409F043CF920193
:1054600002C02FEF3FEFC9010F900F900F900F90E8
:10547000CF91DF911F910F91FF90EF90DF90CF9030
:10548000BF90AF909F908F907F906F905F904F9064
:105490003F902F900895EB81FC8183899489A589A1
:1054A000B689E284F384048515855A01CC24DD2471
:1054B0009C01AD012E193F09400B510BA216B306FA
:1054C000C406D50608F0FFCE01CFCB01BA0140E0FB
:1054D0000E94573B882309F0A1CFC3CFDF93CF931E
:1054E0000F92CDB7DEB7BE016F5F7F4F41E050E056
:1054F000C4DE8130910519F4298130E002C02FEF1C
:105500003FEFC9010F90CF91DF910895AF92BF9205
:10551000CF92DF92EF92FF920F931F93CF93DF937F
:10552000EC01EA84FB840C851D85AE80BF80C884B5
:10553000D984D4DF9C0197FD08C0EA86FB860C87DE
:105540001D87AE82BF82C886D986C901DF91CF91FF
:105550001F910F91FF90EF90DF90CF90BF90AF9091
:105560000895AF92BF92CF92DF92EF92FF920F9386
:105570001F93DF93CF93CDB7DEB7A0970FB6F89404
:10558000DEBF0FBECDBF6C018B01B42EA22E7E01FB
:105590000894E11CF11CC601B70140E250E06DDE49
:1055A0008032910509F089C08981882309F485C07A
:1055B000853E89F38E3279F38C8583FDECCFEE2422
:1055C00007C0C80160E240E050E00E94331EE3944F
:1055D000EA14B8F37E010894E11CF11CAA24CC243F
:1055E000F7018081803291F0FA2DF83039F4C8014A
:1055F0006EE240E050E00E94331EC394C801F70100
:10560000608140E050E00E94D61DC394A3940894AA
:10561000E11CF11CFA2DFB3019F78C858871803163
:1056200039F4C8016FE240E050E00E94331EC39499
:10563000EB2CFF24C70183709070009759F007C0CE
:10564000C80160E240E050E00E94331EC3948C2DFC
:105650008E30B0F3E0FE14C0C80160E240E050E0DC
:105660000E94331E698D7A8DC80182DDC80160E217
:1056700040E050E00E94331E6F89788DC801A9DD9B
:105680008C858871803189F0E1FE0FC0C80160E22D
:1056900040E050E00E94331E4D8D5E8D6F8D78A1ED
:1056A000C8012AE030E00E94C41DC8010E94391ED2
:1056B0008C85887121F481E003C080E001C082E024
:1056C000A0960FB6F894DEBF0FBECDBFCF91DF918D
:1056D0001F910F91FF90EF90DF90CF90BF90AF9010
:1056E00008956F927F928F929F92AF92BF92CF92C6
:1056F000DF92EF92FF920F931F93DF93CF93CDB77B
:10570000DEB7A0970FB6F894DEBF0FBECDBF4C0139
:105710007B013A01590100E010E06E010894C11CC0
:10572000D11C16C0C401B60140E250E0A6DD8032B3
:10573000910509F048C08981882309F444C0853E59
:1057400089F38E3279F38C8583FDECCF0F5F1F4F89
:10575000601671063CF78C8590E088719070FE01B0
:10576000319630E020E05EE24191403241F0A22FDC
:10577000BB27A7FDB095AE0DBF1D4C932F5F3730F3
:1057800051F4009741F4A22FBB27A7FDB095AE0DB1
:10579000BF1D5C932F5F3F5F3B3031F78D8D9E8D3A
:1057A000AF8DB8A1F50180839183A283B383E22FEB
:1057B000FF27E7FDF095EE0DFF1D10828C858871A7
:1057C00021F481E003C080E001C082E0A0960FB622
:1057D000F894DEBF0FBECDBFCF91DF911F910F9127
:1057E000FF90EF90DF90CF90BF90AF909F908F9001
:1057F0007F906F9008952F923F924F925F926F9299
:105800007F928F929F92AF92BF92CF92DF92EF9250
:10581000FF920F931F93DF93CF930F92CDB7DEB715
:105820002C014B011A015901CC24CA94DC2CEE2422
:10583000FF243E010894611C711C13C0F401EE0D9D
:10584000FF1D6083A114B10419F46A3049F41DC02E
:10585000C50170E00F941422009711F016C0870163
:10586000780187010F5F1F4F0215130554F5C20120
:10587000B30141E050E001DD6C0181E0C816D104C4
:1058800001F569816D30D1F6EACFF401E00FF11F27
:10589000108202C00FEF1FEFC8010F90CF91DF9170
:1058A0001F910F91FF90EF90DF90CF90BF90AF903E
:1058B0009F908F907F906F905F904F903F902F9030
:1058C0000895D7FCE7CF8701E0CF0F931F93CF93C5
:1058D000DF938C01EB01FC018581823018F1828518
:1058E0009385A485B5858F719070A070B070009776
:1058F000A105B105B9F4C801BE0140E250E0BDDC2C
:105900008032910519F0009769F40EC088818823D0
:1059100059F0853E81F38E3271F38B8583FDEBCF99
:1059200080E203C08FEF01C080E0DF91CF911F9133
:105930000F910895EF92FF920F931F93CF93DF93F0
:10594000EC018D81823038F1EA84FB840C851D8561
:10595000CE01C4DD97FD1FC08A859B85AC85BD85C2
:105960004F96A11DB11D8A879B87AC87BD87D80143
:10597000C70115E0B695A795979587951A95D1F724
:105980008F70282F30E0A5E0220F331FAA95E1F792
:105990002A56314F02C020E030E0C901DF91CF919B
:1059A0001F910F91FF90EF9008958F929F92AF9269
:1059B000BF92CF92DF92EF92FF920F931F93CF93FC
:1059C000DF93EC015A016B012D81222309F477C08A
:1059D0008B899C89AD89BE8984179507A607B7076F
:1059E00008F46DC07AC0A114B104C104D10449F413
:1059F0001E821F82188619861A861B861C861D86A3
:105A00005CC04A855B856C857D85EB8DFC8D25852D
:105A100030E0275F3F4FDB01CA010197A109B109BF
:105A2000022E04C0B695A795979587950A94D2F74C
:105A3000860175010894E108F1080109110904C003
:105A400016950795F794E7942A95D2F7E816F90684
:105A50000A071B0728F0411551056105710549F436
:105A60008F89988DA98DBA8D8E839F83A887B987DA
:105A700016C0E81AF90A0A0B1B0B11C04E815F8190
:105A8000688579858B8D9C8D94010E94993B089443
:105A9000E108F10801091109882331F410C086E0FA
:105AA000882E912C8C0E9D1EE114F1040105110528
:105AB00029F7AA86BB86CC86DD8681E001C080E01E
:105AC000DF91CF911F910F91FF90EF90DF90CF90DA
:105AD000BF90AF909F908F900895223009F083CFB0
