:020000023000CC
:10E000000D9472F00D9493F00D9493F00D9493F0A1
:10E010000D9493F00D9493F00D9493F00D9493F070
:10E020000D9493F00D9493F00D9493F00D9493F060
:10E030000D9493F00D9493F00D9493F00D9493F050
:10E040000D9493F00D9493F00D9493F00D9493F040
:10E050000D9493F00D9493F00D9493F00D9493F030
:10E060000D9493F00D9493F00D9493F00D9493F020
:10E070000D9493F00D9493F00D9493F00D9493F010
:10E080000D9493F00D9493F00D9493F00D9493F000
:10E090000D9493F00D9493F00D9493F00D9493F0F0
:10E0A0000D9493F00D9493F00D9493F00D9493F0E0
:10E0B0000D9493F00D9493F00D9493F00D9493F0D0
:10E0C0000D9493F00D9493F00D9493F00D9493F0C0
:10E0D0000D9493F00D9493F00D9493F00D9493F0B0
:10E0E0000D9493F011241FBECFEFD1E2DEBFCDBF60
:10E0F00001E00CBF12E0A0E0B2E0E0E0FAEE03E0E5
:10E100000BBF02C007900D92AE34B107D9F713E0F0
:10E11000AEE4B2E001C01D92A635B107E1F70F945D
:10E1200047F10D94FEF40D9400F0EE27FF270994BB
:10E130000895282F2595259525952595205D8F7087
:10E140008A3074F0895A9091C00095FFFCCF2093DB
:10E15000C6009091C00095FFFCCF8093C600089543
:10E16000805DF1CF9091C00095FFFCCF8093C600F9
:10E17000089580E090E0DC012091C00027FD14C0EC
:10E18000019B03C00196A11DB11D813221EA9207B6
:10E1900027E0A20720E0B20778F3EE27FF270994D3
:10E1A0002091C00027FFECCF8091C60008950F9406
:10E1B000B9F09091C00095FFFCCF8093C6008136E6
:10E1C00024F480330CF080530895875508951F93ED
:10E1D0000F94D7F0182F0F94D7F01295107F810F5E
:10E1E0001F910895882349F081509091C00097FFB6
:10E1F000FCCF9091C6008823B9F708951F93182F7C
:10E200000F94B9F0803249F080914E028F5F809375
:10E210004E028F30C1F01F9108958091C00085FF9C
:10E22000FCCF84E18093C6008091C00085FFFCCFC5
:10E230001093C6008091C00085FFFCCF80E18093E1
:10E24000C6001F910895EE27FF2709941F91089596
:10E250000F94B9F0803241F080914E028F5F80932D
:10E260004E028F3081F008958091C00085FFFCCF71
:10E2700084E18093C6008091C00085FFFCCF80E1DF
:10E280008093C6000895EE27FF27099408959F9272
:10E29000AF92BF92CF92DF92EF92FF920F931F93B4
:10E2A000DF93CF9300D000D0CDB7DEB7000010923F
:10E2B000C50080E18093C4001092C00086E0809386
:10E2C000C20088E18093C10011B88FEF82B96898CD
:10E2D000709A8091C00085FFFCCF84E18093C600D6
:10E2E0008091C00085FFFCCF80E18093C600A4E14F
:10E2F000BA2E99249394F0E1AF2E0F94B9F08033A5
:10E30000B9F1813309F443C0803409F482C0813407
:10E3100009F495C0823479F1853409F484C08035DC
:10E3200039F1823529F1813519F1853509F499C022
:10E33000863509F4B0C0843609F4BDC0843709F4C9
:10E3400030C1853709F4C4C1863709F486C08132EB
:10E3500009F4E2C180914E028F5F80934E028F30AC
:10E3600061F6EE27FF2709940F94B9F0803349F640
:10E370000F9428F1C2CF94E18091C00087FFFCCFB9
:10E380008091C6009150C1F70F9428F1B6CF0F9439
:10E39000B9F08032F9F68091C00085FFFCCFB092D1
:10E3A000C6008091C00085FFFCCF81E48093C60049
:10E3B0008091C00085FFFCCFA6E5A093C6008091A8
:10E3C000C00085FFFCCFB2E5B093C6008091C000CD
:10E3D00085FFFCCFE0E2E093C6008091C00085FF9E
:10E3E000FCCFF9E4F093C6008091C00085FFFCCF1C
:10E3F00083E58093C6008091C00085FFFCCFA0E537
:10E40000A093C6008091C00085FFFCCFA092C600FB
:10E4100074CF0F94B9F0863808F4AACF0F94B9F0EE
:10E420000F9428F16ACF95E08091C00087FFFCCF60
:10E430008091C6009150C1F70F9428F15ECF0F94E0
:10E44000B9F0803809F41EC1813809F43DC1823821
:10E4500009F481C1883909F4A0C080E00F94FEF06E
:10E460004CCF0F94B9F080934F020F94B9F0809382
:10E47000500280914F0290915002009709F078CF9E
:10E4800080914C02823009F46AC1882309F070CF70
:10E4900090924C026DCF0F94B9F0803309F407C10C
:10E4A00092E08091C00087FFFCCF8091C600992345
:10E4B000A1F29150F6CF0F94B9F0809352030F94CC
:10E4C000B9F080935103809155038E7F809355035B
:10E4D0000F94B9F0853429F48091550381608093BD
:10E4E000550380915103909152030097A1F0E1E50B
:10E4F000EE2EE2E0FE2E00E010E00F94B9F0F701FE
:10E5000081937F010F5F1F4F8091510390915203C0
:10E510000817190790F30F94B9F0803209F01ACF59
:10E520008091550380FF2AC180914F029091500243
:10E53000880F991F9093500280934F0220915103AE
:10E540003091520321153105E9F061E5E62E62E0D4
:10E55000F62E00E010E0D7016D917D010F94F0F4EC
:10E5600080914F02909150020196909350028093B7
:10E570004F020F5F1F4F209151033091520302173A
:10E58000130748F38091C00085FFFCCFB092C6000E
:10E590008091C00085FFFCCF39CF83E00F94FEF05F
:10E5A000ACCE0F94B9F0809352030F94B9F08093DE
:10E5B000510380914F029091500297FDD9C0209154
:10E5C00055032D7F20935503880F991F9093500278
:10E5D00080934F020F94B9F0853409F4C3C0809141
:10E5E00055038E7F809355030F94B9F0803209F064
:10E5F00084CE8091C00085FFFCCFB092C600C09051
:10E600005103D0905203C114D10431F1EE24FF2400
:10E6100000914F021091500220915503322F31701A
:10E6200022703323F1F0C8012E833D830F94E8F468
:10E630003D812E819091C00095FFFCCF8093C60054
:10E640000F5F1F4F1093500200934F020894E11C7C
:10E65000F11CEC14FD0428F38091C00085FFFCCF71
:10E66000D5CE222399F4F80194918091C00085FFC2
:10E67000FCCF9093C6000F5F1F4F10935002009382
:10E680004F02E4CF82E00F94FEF037CEC801A0E045
:10E69000B0E080509040AF4FBF4FABBFFC018791BF
:10E6A0009091C00095FFFCCF8093C600E4CF0F94FB
:10E6B000B9F00F94B9F0182F0F94B9F0112309F4A1
:10E6C000E2C0113009F4DBC081E00F94FEF015CEFA
:10E6D0000F94B9F0803209F03DCE8091C00085FFE3
:10E6E000FCCFB092C6008091C00085FFFCCFFEE158
:10E6F000F093C6008091C00085FFFCCF88E980932D
:10E70000C6008091C00085FFFCCF9092C60080912A
:10E71000C00085FFFCCF7ACE0F94B9F0813209F0AA
:10E72000ECCD0F94B9F0813209F0E7CD109253038C
:10E7300080E0E82FF0E0E050FE4F9081992309F44B
:10E74000A6C02091C00025FFFCCF9093C6008F5F2C
:10E7500080935303EECF80E10F94FEF0CECD109264
:10E760004C0206CE809155038160809355033CCFC7
:10E770002091550322602093550326CF80915002AB
:10E7800087FD72C080914C02813009F469C01092FB
:10E790005403809154038BBF80914F02909150029B
:10E7A000880F991F9093500280934F0280915103DC
:10E7B00080FF09C08091510390915203019690937C
:10E7C000520380935103F894F999FECF1127E091F9
:10E7D0004F02F0915002C1E5D2E080915103909137
:10E7E0005203103091F40091570001700130D9F3B9
:10E7F00003E000935700E895009157000170013045
:10E80000D9F301E100935700E89509901990009120
:10E81000570001700130D9F301E000935700E895EB
:10E820001395103898F011270091570001700130AE
:10E83000D9F305E000935700E89500915700017067
:10E840000130D9F301E100935700E8953296029721
:10E8500009F0C7CF103011F00296E5CF112492CE07
:10E86000B2E0B093540395CF80914C02813019F0FF
:10E87000909254038ECFE3E0E09354038ACF88E96B
:10E880000F94FEF03ACD8EE10F94FEF036CD3AE0D3
:10E89000A32E2DE0B22E9AE3C92E80E2E82E0DE3DE
:10E8A0008091C00085FFFCCFA092C6008091C0007F
:10E8B00085FFFCCFB092C6008091C00085FFFCCFE1
:10E8C000C092C6008091C00085FFFCCFE092C600D8
:10E8D0000F94B9F09091C00095FFFCCF8093C600D3
:10E8E0008237B1F18737A1F0853759F0823609F4C4
:10E8F0004CC08A36A9F6EE27FF270994D1CF809322
:10E90000C6000F94B9F09091C00095FFFCCFF7CFEF
:10E910000F94B9F09091C00095FFFCCF8093C60092
:10E920000F94E7F0982E0F94E7F0182F0F94B9F09A
:10E930009091C00095FFFCCF8093C6000F94E7F044
:10E940009C821B82EB81FC81E10FF11D8083A8CFAB
:10E950000F94B9F09091C00095FFFCCF8093C60052
:10E960000F94E7F0182F0F94E7F09091C00095FFF7
:10E97000FCCF0093C6001A831982E981FA81E80F5F
:10E98000F11D80810F9499F08BCF8091C00085FF9D
:10E99000FCCF82E68093C6008091C00085FFFCCF4B
:10E9A00085E78093C6008091C00085FFFCCF83E798
:10E9B0008093C60080E885BF1092740010927500A5
:10E9C000E0E0F1E181913097E9F7E0E0F1E1FACFA1
:10E9D000F999FECF92BD81BDF89A992780B5089527
:10E9E000262FF999FECF1FBA92BD81BD20BD0FB66B
:10E9F000F894FA9AF99A0FBE01960895F894FFCF09
:10EA000041546D656761424F4F54202F204172641D
:10EA100075696E6F204D65676132353630202D2067
:10EA20002843292041726475696E6F204C4C432045
:10EA30006D6F646966696564206279204D4C53206E
:0EEA40002D203130303530370A0D00800200B5
:040000033000E000E9
:00000001FF
