:100000000C94331D0C94641D0C94641D0C94641D9D
:100010000C94641D0C94A7B80D944E380D942236A0
:100020000D94F7350C94641D0D942F2B0D94A7356A
:100030000C94641D0C94641D0C94641D0C94641D3C
:100040000C94641D0C94641D0C94641D0C94641D2C
:100050000C94641D0C94641D0C94641D0C94C05E7F
:100060000C94641D0C94DA1D0C94641D0C94641D96
:100070000C94641D0C94641D0C94641D0C94641DFC
:100080000C94641D0C94641D0C94641D0C94717686
:100090000C94CCC70C94641D0C94641D0C94641DCA
:1000A0000C94641D0C94641D0C94641D0C94641DCC
:1000B0000C94641D0C94641D0C94641D0C94641DBC
:1000C0000C94641D0C94641D0C94641D0C94151EFA
:1000D0000C94641D0C94641D0C94501E0C94641DAF
:1000E0000C94641D036EDB363D9A9999993DABAA39
:1000F000AA2A3E000000803F072C7AA5BA6CC59062
:10010000DA3B9365FC8BBC53F810FD3C5692834D53
:10011000BD879D3AB63DCBC9BF5BBE73DA0FC93F01
:1001200005A84CCDB2D44EB93836A9020C50B991BD
:100130008688083CA6AAAA2ABE000000803F076362
:100140004236B79BD8A71A39685618AEBAAB558C49
:100150001D3CB7CC5763BD6DEDFD753EF617723192
:10016000BF000000803F08000000BE922449123EFC
:10017000ABAAAA2ABECDCCCC4C3E00000080BEABC0
:10018000AAAAAA3E00000000BF000000803F0000B5
:10019000000000084178D3BB4387D1133D190E3CC2
:1001A000C3BD4282AD2B3E68EC8276BED98FE1A9F9
:1001B0003E4C80EFFFBE01C4FF7F3F000000000007
:1001C0005344206572726F72436F64653A203058F1
:1001D000006572726F723A20006572726F723A2017
:1001E0000043616E27742061636365737320534419
:1001F00020636172642E20446F206E6F74207265DC
:10020000666F726D61742E004E6F20636172642C94
:100210002077726F6E6720636869702073656C6504
:1002200063742070696E2C206F72205350492070C7
:10023000726F626C656D3F00496E76616C69642017
:10024000666F726D61742C207265666F726D617479
:100250002053442E0043616E2774206F70656E201A
:10026000726F6F74206469726563746F72792E00A7
:100270004E6F206572726F7220666F756E642E000D
:100280007C3C3E5E2B3D3F2F5B5D3B2C2A225C007D
:100290000D0A0066616C7365007472756500747296
:1002A00075650066616C73650042494720464C5491
:1002B000000000090A02080B0C0D070603040100E8
:1002C000000000000000000000000000000000002E
:1002D00000000000000000000000000000100F0EF1
:1002E000000000000000000000000000000000000E
:1002F000000000000000000102102020080810206B
:1003000040102040800201020108040201010204A1
:100310000810204080804020100804020180040260
:1003200001804020100804020108040201010204B7
:1003300008102040800102040810204080050505B7
:1003400005070508080808020202020A0A0808044C
:10035000040404010101010101010103030303037A
:10036000030303040707070C0C0C0C0C0C0C0C0209
:1003700002020206060606060606060B0B0B0B0B10
:100380000B0B0B000020002300260029002C002F5F
:1003900000320000010000030106010901000022F3
:1003A00000250028002B002E00310034000201003F
:1003B00000050108010B0100002100240027002A8C
:1003C000002D003000330001010000040107010A84
:1003D00001000000000000000010101010100010BC
:1003E0000050500000000000000050F850F850008D
:1003F000002078A07028F8200000C8D0202058984D
:10040000006090A0789098E8002020000000000094
:10041000001020202020201000201010101010208C
:100420000020A87070A8200000002020F8202000E4
:10043000000000000000202000000000F800000084
:100440000000000000000020000000081020408094
:100450000070D8888888D87000E02020202020F8FC
:1004600000708808102040F80070880870088870B4
:10047000001030505090F81000F08080F00808F024
:1004800000384080F088887000F808101020202084
:10049000007088887088887000708888780810E0FC
:1004A00000000020000020000000002000002020AC
:1004B00000001860C0601800000000F800F800009C
:1004C0000000C0301830C0000070880810200020E4
:1004D000007088B8A8B88060002070D888F8888834
:1004E00000F08888F88888F00070888080808870A4
:1004F00000E09088888890E000F88080F88080F89C
:1005000000F88080F88080800070888098888870EB
:1005100000888888F8888888007020202020207033
:100520000038080808088870008890A0C0A090884B
:1005300000808080808080F80088D8F8A88888882B
:100540000088C8C8A89898880070D8888888D8700B
:1005500000F08888F08080800070D88888D8701873
:1005600000F08888F0A090880070888070088870FB
:1005700000F8202020202020008888888888887023
:1005800000888888505020200088A8A8A8A8D850A3
:10059000008850202050888800885050202020203B
:1005A00000F80810204080F8006040404040406063
:1005B00000000080402010080060202020202060E3
:1005C000003048000000000000000000000000F8BB
:1005D00000202000000000000000007008F898E8EB
:1005E000008080B0C888C8B0000000708880887023
:1005F00000080868988898680000007088F880787B
:1006000000182020F82020200000788888780870C2
:10061000008080B0C888888800200060202020707A
:10062000001000301010507000808090A0C0A0908A
:1006300000C0404040404030000000F8A8A8A8A8F2
:10064000000000B0C8888888000000708888887022
:10065000000000F088F080800000007888780808AA
:10066000000000B0C880808000000078807008F032
:10067000004040F040404030000000888888986882
:10068000000000888850502000000088A8A8F8507A
:100690000000008850205088000000885020204032
:1006A000000000F8102040F8003828380000000052
:1006B0000020202020202020002070F82020202052
:1006C000002060F868280808002030F8B0A080807A
:1006D00000000000000000000010101010100010BA
:1006E0000050500000000000000050F850F850008A
:1006F0000020F880F808F8200000C8D02020589882
:10070000006090A0789098E8002020000000000091
:100710000010202020202010002010101010102089
:10072000000020F82050000000002020F8202000C9
:10073000000000000000202000000000F800000081
:100740000000000000000020000000081020408091
:100750000000F888888888F8000030101010101009
:100760000000F808F88080F80000F808380808F859
:1007700000008888F80808080000F880F80808F8E1
:100780000000F880F88888F80000F80808080808D1
:100790000000F888F88888F80000F888F808080849
:1007A00000000020000020000000002000002020A9
:1007B0000000102040201000000000F800F80000A9
:1007C00000004020102040000000F80808380020F9
:1007D0000000F888B8A8B8000000F888F888888871
:1007E0000000F088F88888F00000F880808080F8A9
:1007F0000000F088888888F00000F880E08080F8A9
:100800000000F880E08080800000F880B88888F8D8
:1008100000008888F88888880000F820202020F8C8
:1008200000000808080888F800008890E090888890
:1008300000008080808080F8000088D8A8888888A0
:10084000000088C8A89888880000F888888888F8F8
:100850000000F088F88080800000F88888A8F820E0
:100860000000F088F89088880000F880F80808F800
:100870000000F8202020202000008888888888F840
:1008800000008888888850200000888888A8D88838
:10089000000088502020508800008888F820202000
:1008A0000000F810204080F80000604040404060A8
:1008B0000000008040201008000060202020206000
:1008C000002050000000000000000000000000F8C0
:1008D0000020200000000000000000F888F8888850
:1008E000000000F888F088F8000000F8808080F8A8
:1008F000000000F0888888F0000000F880E080F8B0
:10090000000000F880E08080000000F880B888F8DF
:100910000000008888F8888800000020202020201F
:1009200000000008080888F80000008890E090881F
:1009300000000080808080F8000000F8A8A8A8A827
:10094000000000F888888888000000F8888888F807
:10095000000000F888F88080000000F888A8F820DF
:10096000000000F888F89088000000F880F808F887
:10097000000000F82020202000000088888888F8E7
:100980000000008888885020000000A8A8A8A8F8C7
:10099000000000885020508800000088502020204F
:1009A000000000F8102040F800382838000000004F
:1009B0000020202020202020002070F8202020204F
:1009C000002060F868280808002030F8B0A0808077
:1009D00000007E0003FFC007FFE00FC3F00F00F030
:1009E0001E00781E00783C003C3C003C3C003C78FB
:1009F000001E78001E78001E78001E78001E780009
:100A00001E78001E78001E78001E78001E78001EDA
:100A100078001E3C003C3C003C3C003C1E00781E24
:100A200000780F00F00FC3F007FFE003FFC0007E67
:100A30000000000000FC000FFC003FFC003F3C00F9
:100A4000303C00003C00003C00003C00003C00004A
:100A50003C00003C00003C00003C00003C00003C2E
:100A600000003C00003C00003C00003C00003C005A
:100A7000003C00003C00003C00003C00003C00004A
:100A80003C00003C00003C001FFFF81FFFF81FFF68
:100A9000F803FC003FFF807FFFC07E07E07001F09D
:100AA0004000F00000780000780000780000780036
:100AB00000780000F80000F80001F00001F00003E9
:100AC000E00007C0000FC0001F80003F00007E0054
:100AD00000FC0001F80003F00007E0000FC0001F59
:100AE00080003F00007E00007FFFF87FFFF87FFF5F
:100AF000F807FE003FFF803FFFE03C03F02001F0DD
:100B00000000F8000078000078000078000078000D
:100B100000F00000F00003E003FFC003FF0003FF4C
:100B2000C00003F00000F800007800007C00003CEA
:100B300000003C00003C00003C00003C00007C4009
:100B400000786000F87C07F07FFFE03FFF8007FC43
:100B500000000000000FC0000FC0001FC0003FC019
:100B6000003BC0007BC000F3C000E3C001E3C00352
:100B7000C3C00383C00783C00F03C00E03C01E039E
:100B8000C03C03C03803C07803C0F003C0F003C00A
:100B9000FFFFFCFFFFFCFFFFFC0003C00003C000E1
:100BA00003C00003C00003C00003C00003C0000373
:100BB000C00000003FFFE03FFFE03FFFE03C0000DF
:100BC0003C00003C00003C00003C00003C00003CBD
:100BD00000003FFC003FFF003FFFC0380FE0200354
:100BE000E00001F00000F0000078000078000078DC
:100BF0000000780000780000780000780000F00025
:100C000001F04003E0780FE07FFFC07FFF001FF896
:100C100000003FE000FFF803FFF807E0380F80080E
:100C20000F00001E00001E00003C00003C00003CC5
:100C30000000787F0079FFC07BFFF07FC1F87F0064
:100C40007C7E003C7E003C7C001E7C001E7C001EE6
:100C50007C001E3C001E3C001E3C001E1E003C1E74
:100C6000003C0F00780FC1F807FFF001FFC0007FC4
:100C7000000000007FFFF87FFFF87FFFF80000F022
:100C80000000F00001F00001E00003E00003C000FC
:100C900003C00007C0000780000F80000F00000F96
:100CA00000001E00001E00003E00003C00003C0052
:100CB00000780000780000F80000F00000F000016B
:100CC000E00001E00003E00003C00003C000078073
:100CD0000000FF0003FFE00FFFF01F81F81E007807
:100CE0003E007C3C003C3C003C3C003C3C003C1E4C
:100CF00000781E00780F81F007FFE001FF8007FFFA
:100D0000E01F81F81E00783C003C7C003E78001E0D
:100D100078001E78001E78001E78001E7C003E3C85
:100D2000003C3E007C1F81F80FFFF007FFE000FF52
:100D30000000FE0003FF800FFFE01F83F01E00F0A5
:100D40003C00783C007878003C78003C78003C78A7
:100D5000003E78003E78003E78003E3C007E3C003D
:100D60007E3E00FE1F83FE0FFFDE03FF9E00FE1E81
:100D700000003C00003C00003C00007800007800CF
:100D800000F01001F01C07E01FFFC01FFF0007FC70
:100D900000000000000000000010101010100010F3
:100DA0000050500000000000005050F850F8505023
:100DB000002078A07028F02000C0C81020409818AB
:100DC000006090A040A890680060204000000000F3
:100DD0000010204040402010004020101010204003
:100DE000000020A870A8200000002020F82020008B
:100DF000000000000060204000000000F80000003B
:100E0000000000000000606000000008102040802A
:100E100000708898A8C8887000206020202020706A
:100E200000708808102040F800F8102070088870C2
:100E30000010305090F8101000F880F0080888700A
:100E400000304080F088887000F808102040404052
:100E500000708888708888700070888878081060B2
:100E60000000606000606000000060600060204082
:100E70000010204080402010000000F800F8000022
:100E80000080402010204080007088081020002042
:100E9000007088B8A8B880700070888888F8888842
:100EA00000F08888F08888F00070888080808870E2
:100EB00000E09088888890E000F88080F08080F8DA
:100EC00000F88080F080808000708880B888887802
:100ED00000888888F888888800702020202020706A
:100EE0000038101010109060008890A0C0A090886A
:100EF00000808080808080F80088D8A8A8888888B2
:100F0000008888C8A8988888007088888888887031
:100F100000F08888F08080800070888888A89068B9
:100F200000F08888F0A0908800788080700808F031
:100F300000F8202020202020008888888888887059
:100F4000008888888888502000888888A8A8A850A9
:100F50000088885020508888008888885020202069
:100F600000F80810204080F8007040404040407079
:100F70000000008040201008007010101010107049
:100F8000002050880000000000000000000000F871
:100F90000030201000000000000000700878887801
:100FA000008080B0C88888F0000000708080887061
:100FB00000080868988888780000007088F88070B9
:100FC00000304840F04040400000007088F8087051
:100FD000008080B0C88888880020006020202070B1
:100FE000001000301010906000808090A0C0A09091
:100FF0000060202020202070000000D0A8A8888851
:10100000000000B0C8888888000000708888887058
:10101000000000F088F080800000006898780808E0
:10102000000000B0C880808000000070807008F070
:101030000040E040404048300000008888889868C0
:1010400000000088888850200000008888A8A850E8
:1010500000000088502050880000008888780870C0
:10106000000000F8102040F80010281000000000D8
:101070000020202020202020002070F82020202088
:10108000002060F868280808002030F8B0A08080B0
:101090000057616974206F6E20475053007E2063B3
:1010A000616E63656C005363616E6E696E67206686
:1010B000696C65007E2063616E63656C002F504F24
:1010C000492F004F70656E20504F4920646972208F
:1010D0006661696C6564004572726F720047657481
:1010E00020504F492066696C656E616D65206661B0
:1010F000696C6564004572726F72004F70656E2096
:10110000504F492066696C65206661696C656400B2
:101110004572726F720072656164202533692525FE
:10112000004174206C656173742025692F33006E53
:10113000656172627920706F696E7420666F756E7A
:1011400064004E6F206E656172627920706F696E07
:101150007420666F756E64004372656174696E67B2
:10116000204E6176692066696C65002530396C75A2
:101170002C2530396C752C302C25732563002F4EAF
:101180004156492F4E415649392E534D46004F7016
:10119000656E2077726974652D66696C652066617D
:1011A000696C6564004572726F72002364417574E6
:1011B0006F67656E65726174656420504F49730A8C
:1011C0000057726974652077726974652D66696C61
:1011D00065206661696C6564004572726F720057C4
:1011E000726974652077726974652D66696C652013
:1011F0006661696C6564004572726F720056657253
:101200007920736F72727920746F2074656C6C0032
:10121000796F752C2062757420492068617665208D
:10122000746F200073776974636820746F20504F67
:1012300049206D6F64652E00546F20726573756D63
:101240006520796F757220747261636B0072656FCF
:1012500070656E204E6176692066696C6500616E0E
:10126000642073656C65637420706F696E7400250B
:10127000326900253269007E204F4B0052756E6E38
:10128000696E6720557064617465006F6E2041540B
:101290003332385000746F2074726967676572204A
:1012A00072657365740056617220636865636B20B4
:1012B0006661696C656400436865636B696E67208D
:1012C0005661723A2050617373656400416B746FAC
:1012D00072656E20696E6974202E2E2E20446F6E0A
:1012E0006500436865636B696E6720636F6E6E654A
:1012F0006374696F6E004641494C4544005452592D
:10130000494E472031393230302042415544004F58
:101310004B004241534943205345545550004F4BD5
:10132000005245545259494E4700436865636B6902
:101330006E6720636F6E6E656374696F6E004F4BEE
:10134000004641494C45440044414D4E004F4B003E
:1013500041637469766174696E6720726573706F3A
:101360006E736573004F4B0053657474696E67202C
:1013700050494E20436F6465004F4B0044656163E4
:101380007469766174696E6720726573706F6E73CD
:1013900065004F4B006661696C65642C20686D6D5B
:1013A0006D004154423F256300426C696E6B65726B
:1013B00020696E697420646F6E6500426C696E6BA3
:1013C0006572206661696C656400436C6F636B20B5
:1013D000696E697420646F6E6500204279746520BF
:1013E000686561702066726565006F70656E207358
:1013F0007562646972202F636F6E6669672066612B
:10140000696C656400235468697320697320616E98
:10141000206175746F2D67656E65726174656420F7
:1014200066696C652066726F6D20284D6F6E446131
:10143000792920006F70656E20737562646972206F
:101440002F636F6E666967206661696C656400234F
:101450005468697320697320616E206175746F2D03
:1014600067656E6572617465642066696C65206687
:10147000726F6D20284D6F6E4461792920006F7066
:10148000656E20737562646972202F636F6E666982
:1014900067206661696C656400235468697320691C
:1014A0007320616E206175746F2D67656E65726162
:1014B0007465642066696C652066726F6D20284DC6
:1014C0006F6E446179292000737461727475703D88
:1014D00000626C696E6B65723D00626C696E6B6573
:1014E000725F686967683D006675656C5F626C690C
:1014F0006E6B5F73746172743D006675656C5F62DC
:101500006C696E6B5F667265713D007265696665D8
:101510006E5F756D66616E673D006770735F7461C5
:101520006B656F7665723D00726566726573685FA4
:1015300063796C653D006163746976655F6E6176A1
:10154000695F66696C653D006E6176695F616374B1
:101550006976653D006E6176695F706F696E743D96
:1015600000646973705F70686173653D00646973DE
:10157000705F7265663D006D6F64655F747269705F
:101580003D0073746F726167655F747269703D00CE
:10159000736B696E5F66696C653D006F696C5F6453
:1015A0006973743D00647A5F666C6173683D0064C2
:1015B0007A5F666C6173685F656E3D00647A5F6D2B
:1015C000696E3D00647A5F6D61783D006F696C5FA4
:1015D0006D696E3D006F696C5F6D61783D0077618C
:1015E0007465725F6D696E3D0077617465725F6DE1
:1015F00061783D006B6D685F6D696E3D006B6D6875
:101600005F6D61783D007267625F6F75745F7374C0
:10161000617469635F723D007267625F6F75745FCA
:101620007374617469635F673D007267625F6F75B1
:10163000745F7374617469635F623D007267625FB7
:101640006F75745F647A5F73746172745F723D006A
:101650007267625F6F75745F647A5F7374617274CE
:101660005F673D007267625F6F75745F647A5F7376
:10167000746172745F623D007267625F6F75745F60
:10168000647A5F656E645F723D007267625F6F755A
:10169000745F647A5F656E645F673D007267625F66
:1016A0006F75745F647A5F656E645F623D00726738
:1016B000625F6F75745F6B6D685F73746172745F86
:1016C000723D007267625F6F75745F6B6D685F7308
:1016D000746172745F673D007267625F6F75745FFB
:1016E0006B6D685F73746172745F623D00726762F4
:1016F0005F6F75745F6B6D685F656E645F723D00F0
:101700007267625F6F75745F6B6D685F656E645F53
:10171000673D007267625F6F75745F6B6D685F65D0
:101720006E645F623D007267625F6F75745F6F69C0
:101730006C5F73746172745F723D007267625F6F99
:1017400075745F6F696C5F73746172745F673D007D
:101750007267625F6F75745F6F696C5F73746172DB
:10176000745F623D007267625F6F75745F6F696C72
:101770005F656E645F723D007267625F6F75745F74
:101780006F696C5F656E645F673D007267625F6F73
:1017900075745F6F696C5F656E645F623D00726750
:1017A000625F6F75745F77617465725F7374617285
:1017B000745F723D007267625F6F75745F7761740A
:1017C00065725F73746172745F673D007267625F18
:1017D0006F75745F77617465725F73746172745F43
:1017E000623D007267625F6F75745F7761746572E6
:1017F0005F656E645F723D007267625F6F75745FF4
:1018000077617465725F656E645F673D00726762E1
:101810005F6F75745F77617465725F656E645F6238
:101820003D006C65645F6D6F64653D007267625F6B
:10183000666C6173685F723D007267625F666C61BF
:1018400073685F673D007267625F666C6173685FB3
:10185000623D0077617465725F7761726E696E6771
:101860003D006F696C5F7761726E696E673D006203
:10187000745F70696E3D0073656E736F725F736F36
:10188000757263653D0043414E5F747970653D003C
:101890004750535F666F726D61743D004C545F72C8
:1018A00065616C74696D653D00504F495F6163749B
:1018B0006976653D00505F686967686C3D005265F8
:1018C0006164696E673A2000202E2E2E20006F7012
:1018D000656E20737562646972202F636F6E66692E
:1018E00067206661696C6564004D616C6C6F632094
:1018F0006661696C6564004D616C6C6F6320666144
:10190000696C65640070617273655F636F6E6669B0
:10191000672065727A6575677465204665686C65D1
:1019200072636F646520002E0D0A45696E676162FF
:1019300065207761723A0070617273655F746578D3
:10194000747265706C6163656D656E742065727A22
:101950006575677465204665686C6572636F64655C
:1019600020002E2045696E67616265207761723ABA
:1019700000446F6E650021212046696C65206F7000
:10198000656E206661696C6564202121002121203B
:1019900046696C65206F70656E206661696C656470
:1019A000202121004D616C6C6F63206661696C655C
:1019B0006400737461727475700061637469766534
:1019C0005F6E6176695F66696C65006E6176695FFE
:1019D000616374697665006E6176695F706F696EC8
:1019E0007400646973705F70686173650064697323
:1019F000705F72656600736B696E5F66696C650027
:101A00006F696C5F6469737400626C696E6B657298
:101A100000626C696E6B65725F6869676800667505
:101A2000656C5F626C696E6B5F7374617274006683
:101A300075656C5F626C696E6B5F66726571007272
:101A4000656966656E5F756D66616E670067707368
:101A50005F74616B656F766572007265667265733F
:101A6000685F63796C65006D6F64655F747269703F
:101A70000073746F726167655F74726970006F697B
:101A80006C5F7769646765742E78006F696C5F7747
:101A900069646765742E79006F696C5F7769646744
:101AA00065742E73796D626F6C006F696C5F776916
:101AB000646765742E666F6E740077617465725F1B
:101AC0007769646765742E780077617465725F77F3
:101AD00069646765742E790077617465725F7769F0
:101AE000646765742E73796D626F6C0077617465DD
:101AF000725F7769646765742E666F6E74006169E2
:101B0000725F7769646765742E78006169725F77C8
:101B100069646765742E79006169725F77696467CB
:101B200065742E73796D626F6C006169725F77699D
:101B3000646765742E666F6E74006B6D685F77699D
:101B4000646765742E78006B6D685F77696467659C
:101B5000742E79006B6D685F7769646765742E66B3
:101B60006F6E74006B6D68636861725F776964673C
:101B700065742E78006B6D68636861725F77696465
:101B80006765742E79006B6D68636861725F776951
:101B9000646765742E666F6E74006172726F775F32
:101BA0007769646765742E78006172726F775F770A
:101BB00069646765742E7900647A5F776964676524
:101BC000742E7800647A5F7769646765742E790093
:101BD000647A5F7769646765742E666F6E740067F8
:101BE00070735F7769646765742E78006770735FE0
:101BF0007769646765742E79006770735F776964CD
:101C00006765742E666F6E74006770735F776964C2
:101C10006765742E73796D626F6C00616464696EC0
:101C2000666F5F7769646765742E780061646469C4
:101C30006E666F5F7769646765742E7900616464AE
:101C4000696E666F5F7769646765742E666F6E7420
:101C500000616464696E666F325F7769646765749A
:101C60002E7800616464696E666F325F77696467BD
:101C700065742E7900616464696E666F325F77699E
:101C8000646765742E666F6E7400636C6F636B5F60
:101C90007769646765742E7800636C6F636B5F7738
:101CA00069646765742E7900636C6F636B5F776935
:101CB000646765742E73796D626F6C00636C6F631B
:101CC0006B5F7769646765742E666F6E7400676515
:101CD00061725F7769646765742E78006765617209
:101CE0005F7769646765742E7900676561725F77F5
:101CF00069646765742E666F6E74006675656C5FE7
:101D00007769646765742E78006675656C5F7769BE
:101D1000646765742E79006675656C5F77696467C2
:101D200065742E73796D626F6C006675656C5F7794
:101D300069646765742E666F6E74006465666175AC
:101D40006C745F666F6E7400647A5F666C61736852
:101D500000647A5F666C6173685F656E00776174BA
:101D600065725F7761726E696E67006F696C5F772D
:101D700061726E696E6700647A5F6D696E00647A85
:101D80005F6D6178006F696C5F6D696E006F696C83
:101D90005F6D61780077617465725F6D696E007761
:101DA000617465725F6D6178006B6D685F6D696EFF
:101DB000006B6D685F6D6178007267625F666C6171
:101DC00073685F72007267625F666C6173685F67F9
:101DD000007267625F666C6173685F62007267625F
:101DE0005F6F75745F7374617469635F72007267AB
:101DF000625F6F75745F7374617469635F670072AB
:101E000067625F6F75745F7374617469635F6200AA
:101E10007267625F6F75745F6F696C5F7374617214
:101E2000745F72007267625F6F75745F6F696C5F79
:101E300073746172745F67007267625F6F75745F5D
:101E40006F696C5F73746172745F62007267625F66
:101E50006F75745F6F696C5F656E645F7200726747
:101E6000625F6F75745F6F696C5F656E645F67005A
:101E70007267625F6F75745F6F696C5F656E645FD8
:101E800062007267625F6F75745F77617465725F1D
:101E900073746172745F72007267625F6F75745FF2
:101EA00077617465725F73746172745F67007267E3
:101EB000625F6F75745F77617465725F737461726E
:101EC000745F62007267625F6F75745F77617465DB
:101ED000725F656E645F72007267625F6F75745FD8
:101EE00077617465725F656E645F67007267625FD9
:101EF0006F75745F77617465725F656E645F6200B1
:101F00007267625F6F75745F6B6D685F7374617227
:101F1000745F72007267625F6F75745F6B6D685F8C
:101F200073746172745F67007267625F6F75745F6C
:101F30006B6D685F73746172745F62007267625F79
:101F40006F75745F6B6D685F656E645F720072675A
:101F5000625F6F75745F6B6D685F656E645F67006D
:101F60007267625F6F75745F6B6D685F656E645FEB
:101F700062007267625F6F75745F647A5F73746129
:101F800072745F72007267625F6F75745F647A5F0C
:101F900073746172745F67007267625F6F75745FFC
:101FA000647A5F73746172745F62007267625F6FFC
:101FB00075745F647A5F656E645F72007267625FFA
:101FC0006F75745F647A5F656E645F6700726762E5
:101FD0005F6F75745F647A5F656E645F62006C65E5
:101FE000645F6D6F64650062745F70696E00736535
:101FF0006E736F725F736F757263650043414E5FFE
:1020000074797065004750535F666F726D6174003C
:102010004C545F7265616C74696D6500504F495F27
:1020200061637469766500505F686967686C004D2C
:10203000616C6C6F63206661696C6564007E206210
:1020400061636B20202020202020206E6578742082
:102050007F0066616C7363686520616E7A61686C8D
:1020600020616E206B6F6D6D6174610044697370E7
:102070006C617920696E6974202E2E2E200021213A
:10208000205741524E494E472021210053442061A0
:102090006363657373206661696C6564006368657A
:1020A000636B2074686520436172642100212120E4
:1020B0005741524E494E4720212100446F6E650022
:1020C000445A20696E697420646F6E6500445A201A
:1020D0006661696C6564006675656C206661696C33
:1020E00065640067656172206661696C65640047BC
:1020F000656172004F6C642056616C75653A0044EE
:102100006F6E742073686966742121204472697649
:10211000650066617374657220616E6420736C6F14
:10212000776572007E2063616E63656C20202020DD
:1021300020202020736176650056616C75653A0039
:1021400047505320696E697420646F6E6500245097
:102150004D544B3232302C313030302A31460D0A5A
:102160000024504D544B3331342C302C312C302C36
:10217000312C302C302C302C302C302C302C302C7E
:10218000302C302C302C302C302C302A32380D0AA8
:102190000024504D544B3232302C3130302A3246EC
:1021A0000D0A0024504D544B3331342C302C312C3B
:1021B000302C352C302C302C302C302C302C302C3A
:1021C000302C302C302C302C302C302C302A324318
:1021D0000D0A0024504D544B3331342C302C312C0B
:1021E000302C312C302C302C302C302C302C302C0E
:1021F000302C302C302C302C302C302C302A3238F3
:102200000D0A0024504D544B3235312C31393230C7
:10221000302A32320D0A004D616C6C6F63206661AA
:10222000696C6564006F70656E20737562646972B5
:10223000202F636F6E666967206661696C65640054
:102240004E4156492F48414E4E4F5645522E5353FC
:1022500054004E4156492F54454D502E535354006F
:10226000536563746F7220726561642066726F6D6E
:102270002066696C65206661696C656400457272F0
:102280006F7200536563746F7220726561642066BB
:10229000726F6D2066696C65206661696C656400AB
:1022A0004572726F72004E6F2047505300706C651C
:1022B0006173652077616974005245414459205427
:1022C0004F2052414345007370656564207570006E
:1022D00044656C6179002B2D2D3A2D2D2E2D2D006E
:1022E00042657374204C61700043616C632E4265DB
:1022F0007374002D2D3A2D2D2E2D2D005365632046
:1023000030310030303A30302E3030002D004B4D1F
:1023100048004E004E4156492F54454D502E5353C0
:10232000540046696C6520636F756C64206E6F7431
:10233000206265207772697474656E004572726FF1
:10234000720046696C6520636F756C64206E6F74F3
:10235000206265207772697474656E004572726FD1
:1023600072004E4156492F54454D502E5353540040
:1023700047657420536563746F72732066726F6D66
:102380002066696C65206661696C656400457272DF
:102390006F7200526163652046696C6520636F75DA
:1023A0006C64206E6F742062652077726974746546
:1023B0006E004572726F7200536563746F722072A3
:1023C0006561642066726F6D2066696C6520666168
:1023D000696C6564004572726F72006E6F204750C1
:1023E0005300536563746F723A004750532053692A
:1023F000676E616C3A00496E7465727370616365F3
:102400003A002D20202020006261642020006F6BA4
:1024100020202000676F6F642000202020202D20C6
:10242000202020202F202020202D202020202000B0
:102430002D20202020006E6F20475053007E206208
:1024400061636B007F20746F207365742073656314
:10245000746F7220656E64007E20746F20736574E3
:102460002066696E697368206C696E650046696CE8
:102470006520636F756C64206E6F742062652072D6
:10248000656164004572726F7200546865206375FF
:102490007272656E742073656C6563746564206622
:1024A000696C6520697320656D7074792C20726584
:1024B000636F726420736F6D6520736563746F72F0
:1024C0007320666972737400456D70747920666953
:1024D0006C650047657420536563746F7273206682
:1024E000726F6D2066696C65206661696C65640059
:1024F0004572726F72004E4156492F48414E4E4F01
:102500005645522E535354003D3D3D205370656552
:10251000646F696E6F203D3D3D0076322E322D3066
:102520003030372D673837326463386200204857BF
:102530003A003D3D3D2053657475702066696E69B3
:1025400073686564203D3D3D004D616C6C6F632098
:102550006661696C65642033006A2F742F812F8B4C
:102560002F9A2FA82FB22FBE2FCB2FD52FDF2FECD6
:102570002FFC2F0C30173025302730293052696757
:102580006874206E6F772C206F6E6C79206F6E658B
:102590002066696C657320697320757365642E20ED
:1025A0004865726520697320736F6D65206D616782
:1025B0006963206E656564656400544F444F004450
:1025C0006F20796F75207265616C6C792077616E10
:1025D0007420746F20636C65617220616C6C206D77
:1025E00061726B7320616E64207265636F72642028
:1025F0006E65773F00475053204D61726B657200E6
:102600004E6F20475053004E6F7468696E67207399
:10261000617665640046696E6973682D4C696E6504
:1026200000536176656400446F20796F7520726590
:10263000616C6C792077616E7420746F20726573A1
:10264000657420616C6C20736563746F72207469AB
:102650006D65733F005265736574207265636F72B8
:1026600064005361766564004576616C75617469D8
:102670006F6E206973206E6F742079657420696DA8
:10268000706C656D656E7465642E2048657265209A
:10269000697320736F6D65206D61676963206E6576
:1026A0006564656400544F444F003D204265737477
:1026B0002054696D65204D6F6465203D0043616C59
:1026C00063756C617465642074696D650052656141
:1026D0006C2074696D65002B30373043304C3057B7
:1026E0003059305B30663074303D204E617669671A
:1026F0006174696F6E203D004E617669205472618D
:10270000636B20506F696E746572004C6F6E673A30
:10271000202530356925303469004C6174693A20D0
:102720002530356925303469006F70656E2073750A
:1027300062646972202F636F6E66696720666169E3
:102740006C6564004E41564925692E534D46004E36
:1027500061766966696C65204E723A202569004E83
:1027600061766966696C65204E723A2025692F3959
:10277000004E6F206669727374206C696E65206309
:102780006F6D6D656E74004E61766966696C65206B
:102790004E723A2025692F390046696C65206E6FAC
:1027A0007420666F756E64003D2046696C65207309
:1027B000656C6563746F72203D007E206261636B9F
:1027C00020202020202073656C656374207F002FFB
:1027D000504F492F004F70656E20504F492064695B
:1027E00072206661696C6564004572726F7200499F
:1027F000742077696C6C2074616B6520736F6D65F4
:102800002074696D6520746F2067656E65726174F0
:10281000652061206E6176692066696C652066724C
:102820006F6D207468697320504F492E20436F6E7E
:1028300074696E75653F00504F49204E6176696737
:102840006174696F6E00506F696E7473207772697E
:102850007474656E003D20504F49207761726E6937
:102860006E67203D0082308B309830A030A830AAAF
:1028700030B830C730CD304750535F74696D650054
:102880004750535F64617465004750535F6C6F6ECF
:1028900067004750535F6C617469004750535F6134
:1028A0006C7469004750535F7370656564004750EE
:1028B000535F7361747300436F756E746572004388
:1028C000414E206973206E6F742061637469766570
:1028D0000043414E2044545320436F646573004EBF
:1028E0006F206572726F7273203A29004572726FA1
:1028F000722025692F25693A256325303469002522
:10290000632530346900434F4D4D204641494C45C5
:102910004400507265737320646F776E20666F7227
:10292000206D6F7265004164646974696F6E616CDB
:1029300020696E666F004164646974696F6E616CD2
:1029400020696E666F004164646974696F6E616CC2
:1029500020696E666F004B69636B696E6720746FE8
:102960002031306B00574149542033302073656368
:1029700000666F72207265736574005370656564DC
:102980006F696E6F00474E55202D204C6963656E50
:102990007365640048572076657273696F6E3A00FC
:1029A00076322E322D303030372D6738373264632F
:1029B000386200636F6E74616374206D65206174AA
:1029C000004B4B6F6F6C6C6A6A616140676D616947
:1029D0006C2E636F6D0054657472697300696E20AC
:1029E00074726962757420746F00416C6578656AF1
:1029F0002050616473636869746E6F77007E205144
:102A0000756974007F20676F20666F72206974009B
:102A1000D430DE30EC30F8300531103112311D3158
:102A20001F316F70656E20737562646972202F6349
:102A30006F6E666967206661696C656400534B4917
:102A40004E25692E535346004D616C6C6F632066B2
:102A500061696C6564203100536B696E66696C65F1
:102A6000204E723A2025692F38004E6F2066697219
:102A70007374206C696E6520636F6D6D656E740094
:102A80007F2050726576696577202D207F7F2053E7
:102A900061766500536B696E66696C65204E723AAB
:102AA0002025692F380046696C65206E6F7420669A
:102AB0006F756E6400534B494E25692E545854006F
:102AC000534B494E25692E53534600507265766923
:102AD00065770053617665640021312A312F3139E1
:102AE0003143315331623171317C3187318D3198CD
:102AF000319C31A131AC31B131B731BE31445A20B2
:102B0000466C6173686572005570203D2061637486
:102B100069766500446F776E203D20696E6163744D
:102B2000697665007F20746F2061646A7573742014
:102B30006C6576656C0053656C65637420746865BC
:102B40002052504D00666F722053686966746C693C
:102B5000676874007E20746F2061646A75737420E6
:102B6000636F6C6F72002533693030006163746984
:102B700076650061637469766500696E6163746986
:102B800076650053686966742D4C69676874000047
:102B9000C431D131DD31E731F631073209320B3240
:102BA0000D3253746174696320636F6C6F7200003F
:102BB0005370656564006B6D5C680052504D2A313E
:102BC00030300052504D004F696C00544D5000574A
:102BD0006174657200544D50003D205247422D41B2
:102BE0006374696F6E203D005374617469630046BD
:102BF0006F6C6C6F77696E6700537461636B005222
:102C00002D537461636B004368616E6765204254A5
:102C10002050494E006C65617665206D656E7520AB
:102C2000746F2073617665002025303169200020A3
:102C300025303169200020253031692000202530E1
:102C4000316920000F321B322832363241324F3286
:102C50005E326F327E3243616C69627261746520EC
:102C600047656172004368616E6765204765617200
:102C70002075702F646F776E00214B65657020643E
:102C8000726976696E6721007E20636F6E74696E6B
:102C90007565005361766564007361766564004311
:102CA000686F6F736520706861736500202530322E
:102CB0006920002025303269200043686F6F7365FA
:102CC00020726566205600202530326920002025BC
:102CD00030326920003D2047505320466F726D61AD
:102CE00074203D005265616461626C6500436F6DE4
:102CF00070726573736564003D2053656E736F7207
:102D000020736F75726365203D00416E616C6F6763
:102D10002053656E736F7273004175746F20646524
:102D2000746563740043414E2053656E736F727314
:102D3000007F20746F2073656C65637420747970F4
:102D400065003D2043414E204275732054797065E3
:102D5000203D00547269756D7068004F4244320026
:102D60002061637469766500696E61637469766574
:102D7000005570203D206163746976650042542DD2
:102D8000526573657400446F776E203D20696E61F3
:102D9000637469766500706F77657200536574754A
:102DA000702077617465720074656D70657261740E
:102DB000757265007761726E696E67206C65766505
:102DC0006C002533692C25697B430053657475704D
:102DD000206F696C0074656D7065726174757265E1
:102DE000007761726E696E67206C6576656C002590
:102DF00033692C25697B43004176673A2531306978
:102E0000206B6D2F680054696D653A20253032695A
:102E10003A253032693A2530326900547269703A85
:102E200025366C752C25303269206B6D004D61782C
:102E30003A25313069206B6D2F680053757265201B
:102E4000746F207265736574202225732220737459
:102E50006F72616765004164646564206675656CC6
:102E600020616D6F756E743A002532692C253069CA
:102E7000206C002532692C253069206C2F313030D0
:102E80006B6D00416C6C204675656C0073746F72DD
:102E900065616765732072657365746564008E3261
:102EA0009C329D329E32AC32BB32CB32D932E332CD
:102EB000F0324D616C6C6F63206661696C656420F3
:102EC00032004D656E7520696E697420646F6E65A1
:102ED00000536176656400215344204552524F529D
:102EE00021004D696E696D616C2076616C7565734A
:102EF000004D6178696D616C2076616C7565730059
:102F000052656420477265656E20426C756500529B
:102F1000656420477265656E20426C756500526578
:102F200064202020477265656E202020426C756504
:102F3000005361766520746F20534420636172648E
:102F4000004F4B004641494C454420212100696E09
:102F50006163746976650061637469766500000079
:102F60000000007E20736176650053706565646FB4
:102F7000696E6F00537072696E742D436C6F636B72
:102F8000004C61702D54696D657200546F75722D1F
:102F9000417373697374656E7400457874656E640B
:102FA000656420496E666F00437573746F6D697A4E
:102FB00065004261736963205365747570005472D3
:102FC000697020417667204D6178005265667565AD
:102FD0006C696E670052616365204D6F6465004CDB
:102FE0006F616420536563746F727300536574205E
:102FF0006E657720536563746F72730052657365F5
:1030000074206265737474696D6573004576616CD4
:10301000756174696F6E0042657374204C61702035
:1030200043616C63002D002D002D004E61766920F8
:103030006F6E2F6F66660053657420706F696E74D3
:103040006572005365742066696C6500504F4920B5
:1030500066696E646572002D002D0047505320771D
:1030600072697465730053435F504F4920737461F4
:103070007475730053435F504F49206F6E2F6F6616
:10308000660047505320696E666F0043414E2D42E3
:10309000555320445443730053656E736F7273002D
:1030A00053746570706572002D00546573742057F9
:1030B00061746368646F670053686F7720416E695D
:1030C0006D6174696F6E0041626F75740054657450
:1030D000726973004C6F616420536B696E004164C8
:1030E0006420696E666F206172656100536869666D
:1030F000742D4C696768740053706565646F2D4367
:103100006F6C6F72005247422D416374696F6E009D
:103110002D005365742042542050494E002D002D3F
:103120000044697374616E63650054696D650041A4
:103130007667205370656564004D61782053706533
:1031400065640044697374616E6365202620546968
:103150006D650044697374616E6365202620417655
:10316000670044697374616E63652026204D617841
:103170000054696D652026204176670054696D65AD
:103180002026204D617800546F74616C0046726F88
:103190006D2073746172740044617900546F7572AC
:1031A00000436861696E2F54697265004675656CED
:1031B000004F696C657200536169736F6E00426FF6
:1031C0006172640053746174696320636F6C6F7221
:1031D0000053706565642062617365640052504DF0
:1031E000206261736564004F696C2074656D7020A6
:1031F00062617365640057617465722074656D70F7
:10320000206261736564002D002D002D002D0047A4
:103210006561722063616C69622E0053706565643C
:103220002063616C69622E00446973706C6179205F
:1032300073657475700047505320466F726D6174EA
:103240000053656E736F7220736F75726365004211
:1032500054205265736574207374617465005761FE
:103260007465722074656D70207761726E2E004FE8
:10327000696C2074656D70207761726E2E004D61EF
:103280006E2E2075706461746520333238003D20E5
:103290004D61696E206D656E75203D0000003D201A
:1032A0004C61702D54696D6572203D003D204E616A
:1032B0007669676174696F6E203D003D20496E66D6
:1032C0006F726D6174696F6E203D003D20437573B0
:1032D000746F6D697A65203D003D2053657475708B
:1032E000203D003D2053746F72616765203D2000D2
:1032F000004F696C657220696E697420646F6E6539
:10330000006F696C6572206661696C656400526566
:1033100073657420696E697420646F6E652E205326
:1033200074617475733A2000506F77657220646F12
:10333000776E00415652207761746368646F67004E
:10334000425420636F6E6E6563740041546D333276
:103350003820646F776E21006572726F723A2000B8
:103360005344206572726F723A20002C0020646F03
:103370006E65005344207472793A002C0053656ED8
:10338000736F727320696E697420646F6E65005389
:10339000656E736F72732076616C75657320636CF4
:1033A0006561720043414E206175746F20646574DD
:1033B00065637400466F7263652043414E206D6FF4
:1033C000646500416E616C6F672073656E736F7228
:1033D000206D6F64650021212121205741524E4903
:1033E0004E472021212121005344206163636573EE
:1033F0007320737472616E6765002121212120574B
:1034000041524E494E472021212121002066616909
:103410006C757265730053656E736F722073696E9D
:10342000676C652072656164202E2E2E2000526527
:103430006164696E673A20636C6F636B202E2E2E79
:103440002000446F6E650D0A52656164696E673ACB
:1034500020475053202E2E2E2000446F6E650D0AFB
:1034600052656164696E673A204169722074656DC6
:1034700070202E2E2E2000446F6E650D0A5265615D
:1034800064696E673A204F696C2074656D70202EF8
:103490002E2E2000446F6E650D0A52656164696EC0
:1034A000673A2057617465722074656D70202E2E06
:1034B0002E2000446F6E650D0A52656164696E6767
:1034C0003A20566F6C7461676573202E2E2E200093
:1034D00020446F6E650D0A52656164696E673A201B
:1034E000436F6E74726F6C206C6967687473202E02
:1034F0002E2E200020446F6E650D0A53656E736F8B
:10350000722073696E676C652072656164202E2E6F
:103510002E20446F6E65003D3D3D2043414E20749A
:10352000696D6564206F7574203D3D3D0066616C7A
:103530006C696E67206261636B20746F20616E61DD
:103540006C6F672073656E736F7273003D3D3D2035
:1035500043414E2074696D6564206F7574203D3D54
:103560003D00566F6C74616765200053706565643B
:1035700020696E697420646F6E65007370656564A0
:103580006F206661696C6564004E6F20475053215F
:103590000053706565642075702100696E61637405
:1035A00069766500205761697420666F7220475004
:1035B00053205369676E616C200025326920736562
:1035C0006320746F2072756E2031737420623273C1
:1035D000006232732072756E6E696E6700623273BC
:1035E0002069646C65006572726F72206F70656E21
:1035F000206462006572726F72206F70656E207356
:103600005F6462006572726F722077726974652000
:10361000746F20735F646200706172736564202050
:103620002025376920504F497300735F646220681A
:10363000617320202025356920504F497300623284
:10364000732020253569206D2F2063613130206B78
:103650006D007332722020253569206D2F25366963
:10366000206D004E65617265737420504F492025AE
:103670003769206D00434F4E4649472F504F492E22
:1036800054585400434F4E4649472F504F495F4EC0
:103690002E54585400434F4E4649472F504F495FD0
:1036A0004E2E54585400456E67696E6520636F6CEA
:1036B0006400504F49207761726E696E6720253330
:1036C000696D004F696C2074656D70207761726E52
:1036D000696E670057617465722074656D7020773C
:1036E00061726E696E6700466C61736865723F0057
:1036F000566F6C746167652062656C6F772031313D
:10370000560043414E207761726E696E67004E6FBE
:1037100020475053004F696C2072656164206661D8
:10372000696C65640057617465722072656164201C
:103730006661696C656400526565642073656E73CB
:103740006F72206572726F7200534420616363650B
:103750007373206661696C6564002020202020203E
:103760002020202020202020202020202020202059
:1037700000202D202020202000202D2D2020202062
:10378000002533692E25697B43003C32307B432082
:103790002000202D202020202000202D2D20202042
:1037A00020002533692E25697B43003E3131307B73
:1037B0004320002533692E25697B43003C33307B51
:1037C000432020002532692E25697B43002533697B
:1037D000006B6D2F6800253369002533690025359E
:1037E0006920552F6D696E00253569006E6F204781
:1037F00050530025326900257320256C756B6D00D0
:1038000025732025692E25696B6D002573202530D1
:1038100032693A2530326900257320415647202508
:10382000696B6D2F68002573204D41582025696B09
:103830006D2F6800256C756B6D207C2025303269FA
:10384000680025692E25696B6D207C202530326942
:103850003A253032690025692E25696B6D207C2060
:1038600025696B6D2F680025692E25696B6D207C9D
:103870002025696B6D2F680025336968207C202521
:10388000696B6D2F6800253032693A253032692026
:103890007C2025696B6D2F680025336968207C20AA
:1038A00025696B6D2F6800253032693A2530326901
:1038B000207C2025696B6D2F68004552524F522C99
:1038C000302C302C303B0053706565646F2076617E
:1038D0006C75657320636C656172004D616C6C6F13
:1038E00063206661696C65640057616974206F6E5E
:1038F0002073746F700052454144590020202020ED
:1039000020202020202000504F533A0044454C41B5
:10391000593A0053544154453A00566D61783A0083
:10392000506F733A005461726765743A00456C6475
:1039300065663A0074656D70206661696C65640047
:1039400054656D7020696E697420646F6E652E0019
:10395000596F75206C6F6F7365004C2051756974D9
:1039600000522052657472790053706565646F6906
:103970006E6F00676F657320005465747269730021
:103980004E657874004C6576656C3A20004C696E23
:1039900065733A20000A0A003D3D3D3D3D204752F7
:1039A0004944203D3D3D3D3D003D3D3D3D3D2047A1
:1039B000524944203D3D3D3D3D000A0A005344200C
:1039C0007265626F6F742073756363657373667578
:1039D0006C2C207265626F6F74696E6720737065FE
:1039E00065646F2100506C6561736520636F6E7450
:1039F000616374004B4B6F6F6C6C6A6A6161406706
:103A00006D61696C2E636F6D00464151202331005A
:103A10004279654279652000506F77657220757034
:103A200020647572696E6720436C6F636B204D6F05
:103A3000646500566F6C7461676520696E697420F7
:103A4000646F6E6500000D94D4730D9480720D94B4
:103A5000E2710D94D5710D948F720D94DB71271D59
:103A60002B1D231D251D11241FBECFEFD1E2DEBF6C
:103A7000CDBF00E00CBF18E0A0E0B2E0E2EEFCEF4A
:103A800002E00BBF02C007900D92AC3EB107D9F720
:103A90001DE0ACEEB8E001C01D92A431B107E1F722
:103AA0001AE3C4E6DAE300E006C022970109FE014A
:103AB0000BBF0F945C7ECE35D10780E00807A9F7D5
:103AC0000F94B0720D94A2750C940000FC01228139
:103AD0003381F901E058FF4F8081918180589F4FD9
:103AE000F901EE57FF4F20813181821B930B60E873
:103AF00070E00D940C7EFC0182819381FC01EE57F5
:103B0000FF4F20813181FC01E058FF4F40815181FE
:103B10004217530731F0FC01E20FF31F208130E020
:103B200002C02FEF3FEFC9010895FC0122813381CC
:103B3000F901EE57FF4F80819181D901A058BF4F05
:103B40004D915C914817590769F0D901A80FB91F29
:103B50002C91019660E870E00F940C7E9183808335
:103B600030E002C02FEF3FEFC9010895FC018281D0
:103B70009381FC01E058FF4FDC01AE57BF4F8D91A0
:103B80009C91918380830895FC01A085B18521E0FB
:103B900030E0018802C0220F331F0A94E2F78C91B3
:103BA00090E082239323892BD1F30484F585E02DC3
:103BB000608308951F920F920FB60F9211242F93D6
:103BC0003F934F935F936F937F938F939F93AF93A5
:103BD000BF93EF93E091C6002091AD0A3091AE0AF9
:103BE000C901019660E870E00F940C7E4091AF0A25
:103BF0005091B00A8417950741F0D901A35DB54FE4
:103C0000EC939093AE0A8093AD0AEF91BF91AF9180
:103C10009F918F917F916F915F914F913F912F91E4
:103C20000F900FBE0F901F9018951F920F920FB616
:103C30000F9211242F933F934F935F936F937F9332
:103C40008F939F93AF93BF93EF93E091D600209112
:103C5000290A30912A0AC901019660E870E00F94A0
:103C60000C7E40912B0A50912C0A8417950741F045
:103C7000D901A755B64FEC9390932A0A8093290A4D
:103C8000EF91BF91AF919F918F917F916F915F91D4
:103C90004F913F912F910F900FBE0F901F9018954D
:103CA0001F920F920FB60F9211242F933F934F93B1
:103CB0005F936F937F938F939F93AF93BF93EF9394
:103CC000E09136012091A5093091A609C90101961C
:103CD00060E870E00F940C7E4091A7095091A8090C
:103CE0008417950741F0D901AB5DB64FEC939093E3
:103CF000A6098093A509EF91BF91AF919F918F91F4
:103D00007F916F915F914F913F912F910F900FBED7
:103D10000F901F9018958F92AF92CF92DF92EF92F3
:103D2000FF920F931F93CF93DF93CDB7DEB7FC01C4
:103D300089EF92E091838083738362835583448308
:103D40003783268311870087F386E286D586C4866B
:103D5000A68687868E85808B8F85818B8889828BCE
:103D6000DF91CF911F910F91FF90EF90DF90CF9057
:103D7000AF908F9008957F928F929F92AF92BF9253
:103D8000CF92DF92EF92FF920F931F93CF93DF9327
:103D9000EC014A015B01413482E05807610571057D
:103DA0000CF06EC060E874E88EE190E0A50194012B
:103DB0000F941F7E69017A0181E0C81AD108E108D9
:103DC000F108F694E794D794C794A70196012F5F62
:103DD0003F4F4F4F5F4FE4E0220F331F441F551FEB
:103DE000EA95D1F760E074E284EF90E00F941F7ED3
:103DF0000FEF10E0AFEFB0E00F94C67DA501940186
:103E00000F941F7E021B130B722E1016110614F452
:103E1000709401C0739460E079E08DE390E0A501B7
:103E200094010F941F7E2150310941095109569583
:103E30004795379527952F5F3F4F4F4F5F4F63E073
:103E4000220F331F441F551F6A95D1F760E074E2BB
:103E500084EF90E00F941F7E0FEF10E0AFEFB0E023
:103E60000F94C67DA50194010F941F7E021B130BB6
:103E70001016110614F4209501C02F5F2715E8F4E1
:103E8000E885F98581E090E00A8802C0880F991FD3
:103E90000A94E2F7808360E079E08DE390E0A50189
:103EA00094010F941F7E2150310941095109569503
:103EB000479537952795C90104C0E885F985108293
:103EC000C601EC81FD819083EE81FF818083EA85CC
:103ED000FB85408181E090E09C010E8402C0220FAE
:103EE000331F0A94E2F7422B4083EA85FB85408129
:103EF0009C010F8402C0220F331F0A94E2F7422B69
:103F00004083EA85FB852081088802C0880F991FBD
:103F10000A94E2F7282B2083DF91CF911F910F9114
:103F2000FF90EF90DF90CF90BF90AF909F908F90D9
:103F30007F900895FC01A285B3854C9181E090E0CB
:103F40009C01068402C0220F331F0A94E2F72095D9
:103F500024232C93A285B3854C919C01078402C035
:103F6000220F331F0A94E2F7209524232C93A28575
:103F7000B3852C91008802C0880F991F0A94E2F73C
:103F8000809582238C930895FC01108211820895FC
:103F9000589A599AE9EBF0E080818E7F8083808186
:103FA0008D7F808388E48093B80084E48093BC0094
:103FB00008951092BC0008957093D60A6093D50AB4
:103FC00020E431E0629FC001639F900D729F900DCD
:103FD00011249093D40A8093D30A0895611102C0EA
:103FE00088E401C08CE08093B8000895662319F03E
:103FF000589A599A08955898599808958091D90ACD
:1040000008953091D90A2091D70A231B2093D80A0A
:10401000311104C01092D80A80E0089531503093D5
:10402000D90AFC01E20FF11D828108954F925F923F
:104030006F927F928F929F92AF92BF92CF92DF92B8
:10404000EF92FF920F931F930E940A5F4B015C0156
:104050004090D30A5090D40A612C712C84EA80934A
:10406000BC00C12CD12C76011FC0009709F10E9421
:104070000A5F681979098A099B092091D50A30914C
:10408000D60A890120E030E06017710782079307A4
:1040900068F5D701C601840D951DA61DB71D892B96
:1040A0008A2B8B2B19F129C08091D50A9091D60AC1
:1040B0002091BC0027FFD9CF8091B900887F88303C
:1040C00099F08091B900887F8031E9F40DC080912A
:1040D000B900887F1092BC0094E49093BC0019C092
:1040E0008091B900887F15C080E013C01092BC0099
:1040F00084E48093BC0081E00CC081E0C81AD10840
:10410000E108F108D1CF8091B900887F883341F769
:10411000DECF1F910F91FF90EF90DF90CF90BF9077
:10412000AF909F908F907F906F905F904F90089589
:104130004F925F926F927F928F929F92AF92BF92B7
:10414000CF92DF92EF92FF920F931F93F62E0E9471
:104150000A5F4B015C014090D30A5090D40A612C55
:10416000712CFF2039F084EC8093BC00C12CD12C41
:10417000760121C084E8F8CF009709F10E940A5F18
:10418000681979098A099B092091D50A3091D60AC4
:10419000890120E030E0601771078207930728F556
:1041A000D701C601840D951DA61DB71D892B8A2B2D
:1041B0008B2BD9F021C08091D50A9091D60A2091FD
:1041C000BC0027FFD9CF8091B900887F883349F49C
:1041D0008091B900887F1092BC0094E49093BC0059
:1041E00011C08091B900887F0DC01092BC0084E49A
:1041F0008093BC0081E006C081E0C81AD108E108C4
:10420000F108D9CF1F910F91FF90EF90DF90CF90E1
:10421000BF90AF909F908F907F906F905F904F90E6
:1042200008954F925F926F927F928F929F92AF927A
:10423000BF92CF92DF92EF92FF920F931F930E9453
:104240000A5F4B015C014090D30A5090D40A612C64
:10425000712C84E98093BC00C12CD12C76011FC045
:10426000009709F10E940A5F681979098A099B0978
:104270002091D50A3091D60A890120E030E06017FC
:10428000710782079307A8F4D701C601840D951D15
:10429000A61DB71D892B8A2B8B2B59F011C080913D
:1042A000D50A9091D60A2091BC0024FDD9CF80E098
:1042B0000DC01092BC0084E48093BC0081E006C075
:1042C00081E0C81AD108E108F108E9CF1F910F91E8
:1042D000FF90EF90DF90CF90BF90AF909F908F9026
:1042E0007F906F905F904F9008954F925F926F9282
:1042F0007F928F929F92AF92BF92CF92DF92EF9276
:10430000FF920F931F93CF93DF93EC016093BB0059
:104310000E940A5F4B015C014090D30A5090D40A7E
:10432000612C712C84E88093BC00C12CD12C7601C7
:104330001FC0009709F10E940A5F681979098A096C
:104340009B092091D50A3091D60A890120E030E0FE
:10435000601771078207930758F5D701C601840DCE
:10436000951DA61DB71D892B8A2B8B2B09F127C004
:104370008091D50A9091D60A2091BC0027FFD9CF11
:104380008091B900887F883289F01091B900187F38
:104390008091B900887F803319F4CE0142DF15C0C7
:1043A0001092BC0084E48093BC000FC010E00DC0EC
:1043B0001092BC0084E48093BC0011E006C081E050
:1043C000C81AD108E108F108D3CF812FDF91CF912E
:1043D0001F910F91FF90EF90DF90CF90BF90AF9023
:1043E0009F908F907F906F905F904F9008954F9225
:1043F0005F926F927F928F929F92AF92BF92CF9275
:10440000DF92EF92FF920F931F93CF93DF93EC0114
:104410006093BB000E940A5F4B015C014090D30A8D
:104420005090D40A612C712C84E88093BC00C12C7C
:10443000D12C76011FC0009709F10E940A5F68190C
:1044400079098A099B092091D50A3091D60A8901F8
:1044500020E030E0601771078207930730F5D7013D
:10446000C601840D951DA61DB71D892B8A2B8B2B8C
:10447000E1F022C08091D50A9091D60A2091BC002B
:1044800027FFD9CF8091B900887F883161F0809172
:10449000B900887F8034B1F406C08091B900887F6C
:1044A0008834C9F41EC010E01EC01092BC0084E421
:1044B0008093BC0011E017C081E0C81AD108E10860
:1044C000F108D8CF1091B900187F8091B900887F8A
:1044D000803219F706C01092BC0084E48093BC00BF
:1044E00002C0CE019EDE812FDF91CF911F910F91EF
:1044F000FF90EF90DF90CF90BF90AF909F908F9004
:104500007F906F905F904F900895DF92EF92FF92AF
:104510000F931F93CF93DF93EC01F62EE42ED22E50
:104520001092D90A1092D80A211102C0DD24D39426
:104530008D2D815089831882CE0178DD8883811189
:104540005AC0FF0C6F2DCE0152DF8883882329F0DB
:10455000813009F050C082E04EC06E2DCE01C5DE24
:104560008883882329F0813009F045C083E043C067
:10457000CE015CDD8883882329F0813009F03BC0BF
:1045800084E039C06F2D6F5FCE0131DF88838111E8
:1045900003C0780110E004C0813069F585E02BC0CC
:1045A0008981181317C060E0CE01C2DD8883813095
:1045B00011F486E020C08835F1F48091BB00F7014A
:1045C00081937F011F5F1093D90A1093D70A1D11A1
:1045D000E7CF09C061E0CE01ABDD8883813049F3CC
:1045E000803559F308C0CE011CDE8883882319F07A
:1045F000813009F487E0DF91CF911F910F91FF90F7
:10460000EF90DF900895AF92BF92DF92EF92FF920A
:104610000F931F93CF93DF931F92CDB7DEB75C014B
:10462000E42ED22EF32E1092D90A1092D80A4111FC
:1046300002C0EE24E3948E2D8150F5018183108217
:10464000C5016983F3DCF5018083698181113FC075
:10465000660F6F5FC501CBDEF5018083811104C059
:104660000D2D1F2DF12C04C0813089F585E02FC060
:10467000F5018181F81218C060E0C50159DDF5012E
:104680008083813011F486E022C0883501F5809165
:10469000BB00F80181938F01F394F092D90AF09254
:1046A000D70AFE10E5CF0AC061E0C50141DDF50182
:1046B0008083813041F3803551F309C0C501B1DDFC
:1046C000F5018083882319F0813009F487E00F9089
:1046D000DF91CF911F910F91FF90EF90DF90BF90EE
:1046E000AF900895EF92FF920F931F93CF93DF93B4
:1046F000EC01162F042FF22E1092D90A1092D80A2C
:10470000211102C0FF24F3948F2D815089831882D8
:10471000CE018CDC8883811163C0110F612FCE0123
:1047200066DE8883882329F0813009F059C082E051
:1047300057C0602FCE01D9DD8883882329F08130CE
:1047400009F04EC083E04CC0CE0170DC8883882322
:1047500029F0813009F044C084E042C0612F6F5FCE
:10476000CE0145DE8883882329F18130C9F585E0B3
:1047700037C060E0CE01DCDC8883813011F486E054
:104780002FC0883569F58091BB00FE01E00FF11F55
:104790008283E394E092D90AE092D70A0F5F1F4F19
:1047A0000BC061E0CE01C4DC8883813041F38035E9
:1047B00051F316C000E010E0E02E0F1560F4003257
:1047C000110529F408C0813059F487E009C08981B6
:1047D0000813E7CFCECFCE0124DD88838111F3CF3C
:1047E000DF91CF911F910F91FF90EF9008957ACFB5
:1047F000CF92DF92EF92FF920F931F93CF93DF93AD
:104800001F92CDB7DEB76C01F42E1092D90A109228
:10481000D80A411102C0FF24F3948F2D8150F60174
:1048200081831082C601698301DCF601808369817E
:10483000811141C0660F6F5FC601D9DDF60180832B
:10484000882359F18130B9F585E035C0F6018181C1
:10485000E81219C060E0C6016BDCF601808381308C
:1048600011F486E028C0883531F58091BB00F6014F
:10487000E00FF11F8283E394E092D90AE092D70A15
:104880000F5F1F4F0CC061E0C60152DCF601808350
:10489000813039F3803549F30EC000E010E0E02E9E
:1048A0000F15A0F2C601BDDCF6018083882319F044
:1048B000813009F487E00F90DF91CF911F910F9124
:1048C000FF90EF90DF90CF90089592CFAF92BF927C
:1048D000DF92EF92FF920F931F93CF93DF931F927C
:1048E000CDB7DEB75C01F42E122FD32EFC0110825F
:1048F00069839CDBF5018083698181112FC0660F7C
:10490000C50175DDF5018083882321F0813031F503
:1049100082E024C06F2DC501E8DCF50180838111A0
:1049200003C0E12EFD2C0DC08130C1F483E016C020
:10493000F70161917F01C501D8DCF5018083811108
:10494000F3CF8E2D811B801798F3C5016ADCF5012A
:104950008083882319F0813009F487E00F90DF917C
:10496000CF911F910F91FF90EF90DF90BF90AF908C
:1049700008950F93CF93DF93EC01F901019000208C
:10498000E9F73197E21BF30B18820E2F9FDF888324
:10499000DF91CF910F910895EF92FF920F931F93A4
:1049A000CF93DF931F92CDB7DEB77C01042F122F78
:1049B000FC01108269833ADBF701808369818111F0
:1049C00026C0660FC70113DDF7018083882321F01D
:1049D0008130E9F482E01BC0602FC70186DCF7015B
:1049E0008083882321F0813091F483E010C0612F0F
:1049F000C7017BDCF70180838111F5CFC70111DC92
:104A0000F7018083882319F0813009F487E00F9043
:104A1000DF91CF911F910F91FF90EF900895BCCF40
:104A2000EF92FF921F93CF93DF931F92CDB7DEB724
:104A30007C01142FFC0110826983F8DAF70180836E
:104A4000698181111FC0660FC701D1DCF701808326
:104A5000882321F08130B1F482E014C0612FC701B6
:104A600044DCF7018083882321F0813059F483E00E
:104A700009C0C701D6DBF7018083882319F0813094
:104A800009F487E00F90DF91CF911F91FF90EF9095
:104A90000895C6CFEF92FF920F931F93CF93DF93AA
:104AA000EC010091D50A1091D60A80E590E0909330
:104AB000D60A8093D50A80E094E69093D40A809336
:104AC000D30A6BE173E082E199E0EAD182E199E0F7
:104AD00093D1F12CE12C1882CE01A8DA88838111C0
:104AE00005C06F2D660FCE0182DC88838881882304
:104AF00029F08130A1F46EE373E01BC067E773E037
:104B000082E199E070D062E973E082E199E06BD0D4
:104B100040E150E06F2D82E199E0A8D1E394CE010D
:104B200080DBF39480E8F812D6CFE11005C066E987
:104B300073E082E199E0B4D11093D60A0093D50ACC
:104B4000DF91CF911F910F91FF90EF900895ECEBC3
:104B5000F0E0108284E4808308950F931F93CF9335
:104B6000DF938C01EB0108C0D801ED91FC9101901D
:104B7000F081E02DC801199569916111F5CFDF91A0
:104B8000CF911F910F910895EF92FF920F931F9372
:104B9000CF93DF937C01EB018A01060F171F09C039
:104BA0006991D701ED91FC910190F081E02DC70151
:104BB0001995C017D107A1F7DF91CF911F910F91E0
:104BC000FF90EF900895DC01ED91FC910190F08150
:104BD000E02D642F1994DC01ED91FC910190F0819E
:104BE000E02D642F1994DC01ED91FC910280F3819A
:104BF000E02D19944F925F926F927F928F929F92C5
:104C0000AF92BF92CF92DF92EF92FF920F931F93DA
:104C1000CF93DF93CDB7DEB7A0970FB6F894DEBF82
:104C20000FBECDBF8C014115510561057105D9F449
:104C300040E350E060E070E0A0960FB6F894DEBF6D
:104C40000FBECDBFDF91CF911F910F91FF90EF90DD
:104C5000DF90CF90BF90AF909F908F907F906F909C
:104C60005F904F90B8CFEE24E394F12CEC0EFD1E34
:104C7000812C912C5401422E512C612C712CCB0192
:104C8000BA01A30192010F941F7EFA01D7016D931F
:104C90007D01BFEF8B1A9B0AAB0ABB0AA901BF01BA
:104CA000411551056105710551F7CC24CA94DC2CDE
:104CB0007601C80CD91CEA1CFB1C19C0E1E0F0E02D
:104CC000EC0FFD1FEC0DFD1D8081482F8A3010F484
:104CD000405D01C0495C50E060E070E020E030E001
:104CE000C80132D081E0C81AD108E108F108AFEF5D
:104CF000CA16DA06EA06FA0609F7A0960FB6F8947D
:104D0000DEBF0FBECDBFDF91CF911F910F91FF90FE
:104D1000EF90DF90CF90BF90AF909F908F907F905B
:104D20006F905F904F9008952115310509F44BCF96
:104D300061CF9A01AB0160E070E0F6CF9A01462F97
:104D400050E060E070E0F0CFCF92DF92EF92FF9200
:104D5000CF93DF93EC016A017B012115310539F412
:104D6000DF91CF91FF90EF90DF90CF9034CF2A303A
:104D7000310591F477FF0FC020E030E04DE250E0C4
:104D800060E070E0E1DFF094E094D094C094C11C46
:104D9000D11CE11CF11C2AE0B701A601CE01DF9174
:104DA000CF91FF90EF90DF90CF9024CF9A01AB018D
:104DB000662757FD6095762FC7CF9A01462F50E0A2
:104DC00060E070E0C1CF0F931F93CF93DF938C010E
:104DD000EB0108C02196FA01449150E060E070E0D8
:104DE000C801F1DEAE01FE0184918111F3CFDF91A4
:104DF000CF911F910F910895CF93DF93EC014DE078
:104E000050E060E070E0E7DE4AE050E060E070E033
:104E1000CE01DF91CF91DFCECF93DF93EC0184DF22
:104E2000CE01DF91CF91E8CFCF93DF93EC018CDF00
:104E3000CE01DF91CF91E0CFCF93DF93EC019A01C8
:104E4000AB0160E070E070DFCE01DF91CF91D4CF95
:104E5000CF93DF93EC019A01AB01662757FD609574
:104E6000762F72DFCE01DF91CF91C6CFCF93DF9344
:104E7000EC019A01462F50E060E070E055DFCE0172
:104E8000DF91CF91B9CFCF93DF93EC019A01462FF9
:104E900050E060E070E058DFCE01DF91CF91ACCF01
:104EA000CF93DF93EC019FDECE01DF91CF91A4CFB2
:104EB0009F92AF92BF92CF92DF92EF92FF920F93A9
:104EC0001F93CF93DF93EC016A017B01122F20E047
:104ED00030E0A901C701B6010F94F17687FF0AC03F
:104EE0004DE250E060E070E0CE0175DEF7FAF0943C
:104EF000F7F8F09400E060E070E080E09FE307C026
:104F000020E030E040E251E40F94F8760F5F0113A7
:104F1000F7CF262F372F482F592FC701B6010F94EF
:104F20007676962EA72EB82EC92E0F946577D62E9C
:104F3000E72EF82E092F0F9491779B01AC01692D74
:104F40007A2D8B2D9C2D0F947576C62EB72EA82EFC
:104F5000992E2AE04D2D5E2D6F2D702FCE014ADE49
:104F6000112391F167EA73E0CE013DDE2DC020E010
:104F700030E040E251E46C2D7B2D8A2D992D0F9469
:104F80002479962EA72EB82E092F902F0F94607794
:104F90006B01EE24D7FCE094FE2C2AE030E0B70150
:104FA000A601CE01D1DEC701B6010F9493779B0114
:104FB000AC01692D7A2D8B2D902F0F947576C62E0E
:104FC000B72EA82E992E11501111D1CFDF91CF916C
:104FD0001F910F91FF90EF90DF90CF90BF90AF9017
:104FE0009F90089565CFCF93DF93EC0161DFCE01F1
:104FF000DF91CF9101CF8EBD0DB407FEFDCF089597
:105000008FEFF9DF8EB5089561E0FC0184810C9487
:10501000DC6060E0FC0184810C94DC60CF93DF9362
:10502000EC018E818823C1F08FEF8EBD4FEF04C05D
:105030000DB407FEFDCF4EBD8F8198859C012F5F7B
:105040003F4F38872F838130924090F30DB407FE95
:10505000FDCFCE01D9DF1E82DF91CF9108950F934E
:105060001F93CF93DF931F92CDB7DEB78C01698377
:10507000D5DF6981F80161870F90DF91CF911F9192
:105080000F910895673028F026E1FC01258380E028
:1050900008958DB560FD02C0663011F48E7F01C0A9
:1050A00081608DBD8CB58C7F8CBD9CB562FF02C0CC
:1050B00082E001C080E066956170692B682B6CBD51
:1050C00081E008950F931F93CF93DF93EB010E942C
:1050D0000A5F8B0195DF8F3F49F00E940A5F601BDA
:1050E000710B6C177D07B0F380E001C081E0DF91A8
:1050F000CF911F910F910895CF92DF92FF920F935E
:105100001F93CF93DF9300D01F92CDB7DEB76C0112
:10511000F62E29833A834B835C8380DFC60179DFD7
:105120006CE271E0C601CEDF8F2D806464DF08E1A0
:1051300010E05C814B813A812981DA01C901002E9E
:1051400004C0B695A795979587950A94D2F72983B9
:105150003A834B835C834FDF0850110929813A81E0
:105160004B815C81083F8FEF180739F7FF2029F04A
:10517000E8E0FE1621F08FEF03C085E901C087E863
:105180003ADF10E03DDFF601828787FF04C01F3F52
:1051900011F01F5FF7CF0F900F900F900F90DF91DE
:1051A000CF911F910F91FF90DF90CF900895BF9204
:1051B000CF92DF92EF92FF920F931F93CF93DF93E3
:1051C000EC01B62E1B8619861E821D824C830E941E
:1051D0000A5F8B0161E08C810E94BD60CE0114DF0B
:1051E00060E082E30E94BD6061E083E30E94BD60F5
:1051F00061E084E30E94BD6061E085E30E94BD60E0
:1052000083E58CBD8DB58E7F8DBD2AE0F22E8FEFAC
:10521000F2DEFA94E1F7CE01FCDE09C00E940A5FDB
:10522000601B710B613D774010F081E052C020E0BF
:1052300030E0A90160E0CE015FDFF82E8A8781E0CF
:10524000F812ECCF2AEA31E040E050E068E0CE010D
:1052500053DF82FF02C0FB860CC094E0F92ED0DE43
:105260008A87FA94E1F78A3A11F082E032C082E04C
:105270008B878B85823031F4C12CD12CE12C80E4DA
:10528000F82E0DC0C12CD12C760109C00E940A5FF6
:10529000601B710B613D774010F088E01AC020E080
:1052A00030E0A90167E3CE0127DFA701960169E29B
:1052B000CE0122DF8A878111E9CF8B858230A1F46C
:1052C00020E030E0A9016AE3CE0116DF882319F05F
:1052D00086E08D8317C094DE807C803C11F483E0EF
:1052E0008B878EDE8DDE8CDECE018EDE6B2DCE01C9
:1052F000DF91CF911F910F91FF90EF90DF90CF90B2
:10530000BF90C0CECE0180DE80E0DF91CF911F91B3
:105310000F91FF90EF90DF90CF90BF9008950F9383
:105320001F93CF93DF93EC010E940A5F8B0109C0AA
:105330000E940A5F601B710B6D32714010F08FE0AC
:1053400007C05EDE8A878F3F99F38E3F31F08DE094
:105350008D83CE0159DE80E001C081E0DF91CF91E5
:105360001F910F910895EF92FF920F931F93CF9388
:10537000DF93EC017A0120E030E0A901BDDE882353
:1053800019F08EE08D8318C0CE01C9DF8823A1F00B
:105390008701E12CF12C34DEF80181938F01FFEFBE
:1053A000EF1AFF0A80E1E816F104A9F729DE28DEEA
:1053B000CE012ADE81E003C0CE0126DE80E0DF914F
:1053C000CF911F910F91FF90EF900895CF93DF93AE
:1053D000CDB7DEB760970FB6F894DEBF0FBECDBF76
:1053E000AE014F5F5F4F69E0BEDF882329F08B85F8
:1053F00086FB882780F901C080E060960FB6F8949C
:10540000DEBF0FBECDBFDF91CF910895AF92BF92A7
:10541000CF92DF92EF92FF920F931F93CF93DF9380
:1054200000D01F92CDB7DEB75C01680179014983D6
:105430005A836B837C83CADF49815A816B817C816B
:10544000811102C08BE02AC0F5018385833071F0A1
:1054500039E0440F551F661F771F3A95D1F7E9E0F1
:10546000CC0CDD1CEE1CFF1CEA95D1F79A01AB01B8
:1054700060E2C50141DE81111CC0A701960161E215
:10548000C5013ADE811115C020E030E0A90166E2D5
:10549000C50132DE81110DC00EC08CE0F50185839F
:1054A00004C0C501B1DD81E00DC0C501ADDD80E006
:1054B00009C08AE0F3CF60E177E2C50103DE88230B
:1054C00061F3EFCF0F900F900F900F90DF91CF917E
:1054D0001F910F91FF90EF90DF90CF90BF90AF9012
:1054E00008950F931F93CF93DF93CDB7DEB76097E7
:1054F0000FB6F894DEBF0FBECDBF8C01AE014F5F7B
:105500005F4F69E030DF882309F456C08981807CD1
:1055100069F52F812370922F990F990F80E00885EC
:1055200024E0029F80011124082B192B8985829584
:10553000869586958370082B0F5F1F4F20E030E023
:105540004A854370440F8B8587FB882780F9482B59
:105550008E818F7090E0840F911D079704C0000F1B
:10556000111F221F331F8A95D2F729C0803409F5F5
:1055700008850695069510E020E030E09801112797
:1055800000278A85082B998580E0AA2797FDA0959A
:10559000BA2F082B192B2A2B3B2B0F5F1F4F2F4F96
:1055A0003F4FAAE0000F111F221F331FAA95D1F70A
:1055B00006C089E0F801858300E010E09801B80199
:1055C000C90160960FB6F894DEBF0FBECDBFDF9164
:1055D000CF911F910F910895CF92DF92EF92FF929A
:1055E0000F931F93CF93DF93EC0169010115110510
:1055F00009F472C0C801820F931F8130924008F0F5
:105600006DC08E81882371F088819981AA81BB81C8
:10561000481759076A077B0729F48F819885C816B0
:10562000D90608F5488359836A837B838B85833049
:1056300039F0B9E0440F551F661F771FBA95D1F7AF
:105640009A01AB0161E1CE0157DD882319F083E0B7
:105650008D8344C0CE0163DE882309F43FC01886E1
:105660001F8281E08E838FEF8EBD2FEF09C00DB4B6
:1056700007FEFDCF2EBD8F819885019698878F8379
:105680008F8198858C159D0590F3C8010197F701CE
:105690004FEF06C00DB407FEFDCF2EB521934EBDD2
:1056A0009F012E193F0928173907A0F30DB407FEF3
:1056B000FDCF2EB5F701E80FF91F20838F81988564
:1056C000800F911F98878F832985222319F08115D8
:1056D000924010F0CE01A2DC81E003C0CE0194DC48
:1056E00080E0DF91CF911F910F91FF90EF90DF90BD
:1056F000CF900895EF92FF920F931F93790100E0EE
:1057000012E020E030E068DF1F910F91FF90EF90F2
:105710000895CF93DF93EC016EBD20E030E00DB42F
:1057200007FEFDCFFA01E20FF31F80818EBD0DB49D
:1057300007FEFDCF81818EBD2E5F3F4F211582E098
:10574000380769F70DB407FEFDCF8FEF54DC8FEFFC
:1057500052DC56DC8A878F71853031F081E18D8390
:10576000CE0152DC80E001C081E0DF91CF9108954D
:105770000F931F93CF93DF93EC018B0168E572E0E9
:10578000A1DC882341F0A8016CEFCE01DF91CF911D
:105790001F910F91BECF83E18D83CE0135DC80E078
:1057A000DF91CF911F910F9108950F931F93CF9386
:1057B000DF93EC0189018B85833039F089E0440F58
:1057C000551F661F771F8A95D1F79A01AB0168E1D3
:1057D000CE0192DC882311F084E023C0A8016EEF93
:1057E000CE0197DF8823A1F068E572E0CE016ADC84
:1057F000811102C085E115C020E030E0A9016DE013
:10580000CE017ADC81110CC0FBDB811109C004C020
:10581000CE01FADB80E007C0CE01F6DB81E003C0F9
:1058200084E18D83F5CFDF91CF911F910F91089582
:105830008F929F92AF92BF92CF92DF92EF92FF92A0
:105840000F931F93CF93DF93EC016A017B01480113
:10585000590120E030E0A90167E34EDCA501940185
:1058600067E1CE0149DC882311F087E012C08B8507
:10587000833039F099E0CC0CDD1CEE1CFF1C9A95AE
:10588000D1F7A701960169E1CE0136DC882331F01A
:1058900085E08D83CE01B8DB80E001C081E0DF913F
:1058A000CF911F910F91FF90EF90DF90CF90BF901D
:1058B000AF909F908F900895CF93DF93EC0168E5B0
:1058C00072E000DC882361F08DEF95DB68E572E023
:1058D000CE01F8DB882321F0CE0196DB81E005C004
:1058E00080E18D83CE0190DB80E0DF91CF91089540
:1058F0000F931F93CF93DF938C01EC01AA96D09363
:10590000DF0AC093DE0ACE010E948836B801645FC8
:105910007F4FCE01DF91CF911F910F9129C40F933B
:105920001F93CF93DF93CDB7DEB76D970FB6F89483
:10593000DEBF0FBECDBF8C0187EB93E09A838983D6
:105940001B821E82FB0180818F3239F4818181119B
:1059500004C0C801CDDF182F4CC041E0CE01019634
:105960000E94313D882309F443C08E81823008F4BF
:105970003FC09B81F80194A79C8195A79D8196A724
:1059800087A78F819885A985BA8580AB91ABA2AB9B
:10599000B3AB8B859C85AD85BE8584AB95ABA6AB43
:1059A000B7AB8F859889A989BA8980AF91AFA2AF2B
:1059B000B3AF8B8984AFFD964C895D896E897F89F1
:1059C0004083518362837383F801EF5BFF4F488DFF
:1059D000598D6A8D7B8D4083518362837383F80177
:1059E000EB5BFF4F8C8D9D8D9183808311E001C017
:1059F00010E0CE0101960F949472812F6D960FB630
:105A0000F894DEBF0FBECDBFDF91CF911F910F91F4
:105A10000895CF93DF93EC018D81882371F080ECA2
:105A200091E082D140E150E06D8182E199E086D938
:105A300082E199E0DF91CF91DFC9DF91CF910895A5
:105A4000E8DFFFCF0F931F93CF93DF931F921F9237
:105A5000CDB7DEB78C0181ED91E069837A8364D1A3
:105A600069817A8182E199E01BDAC8010F900F9079
:105A7000DF91CF911F910F91CCCFE4DFFFCF0F9338
:105A80001F93CF93DF93EC018B0189ED91E04CD113
:105A9000C8014ED1CE01DF91CF911F910F91B9CFA7
:105AA000EEDFFFCF8A960C94413D0F931F93CF9367
:105AB000DF93EC017CDB8823B9F08E01045F1F4F7C
:105AC00041E0BE01C8010E944C47882331F0CE015D
:105AD000DF91CF911F910F910BCF40E0BE01C80124
