:100000000C94021C0C94331C0C94331C0C94331C65
:100010000C94331C0C942DB40D94B4380D945E36AE
:100020000D9432360C94331C0D94192B0D94E1353C
:100030000C94331C0C94331C0C94331C0C94331C04
:100040000C94331C0C94331C0C94331C0C94331CF4
:100050000C94331C0C94331C0C94331C0C942D5DA9
:100060000C94331C0C94A91C0C94331C0C94331C5E
:100070000C94331C0C94331C0C94331C0C94331CC4
:100080000C94331C0C94331C0C94331C0C941E7570
:100090000C94E3C20C94331C0C94331C0C94331C4E
:1000A0000C94331C0C94331C0C94331C0C94331C94
:1000B0000C94331C0C94331C0C94331C0C94331C84
:1000C0000C94331C0C94331C0C94331C0C94E41CC3
:1000D0000C94331C0C94331C0C941F1D0C94331C77
:1000E0000C94331C036EDB363D9A9999993DABAA6B
:1000F000AA2A3E000000803F072C7AA5BA6CC59062
:10010000DA3B9365FC8BBC53F810FD3C5692834D53
:10011000BD879D3AB63DCBC9BF5BBE73DA0FC93F01
:1001200005A84CCDB2D44EB93836A9020C50B991BD
:100130008688083CA6AAAA2ABE000000803F076362
:100140004236B79BD8A71A39685618AEBAAB558C49
:100150001D3CB7CC5763BD6DEDFD753EF617723192
:10016000BF000000803F08000000BE922449123EFC
:10017000ABAAAA2ABECDCCCC4C3E00000080BEABC0
:10018000AAAAAA3E00000000BF000000803F0000B5
:10019000000000084178D3BB4387D1133D190E3CC2
:1001A000C3BD4282AD2B3E68EC8276BED98FE1A9F9
:1001B0003E4C80EFFFBE01C4FF7F3F000000000007
:1001C0005344206572726F72436F64653A203058F1
:1001D000006572726F723A20006572726F723A2017
:1001E0000043616E27742061636365737320534419
:1001F00020636172642E20446F206E6F74207265DC
:10020000666F726D61742E004E6F20636172642C94
:100210002077726F6E6720636869702073656C6504
:1002200063742070696E2C206F72205350492070C7
:10023000726F626C656D3F00496E76616C69642017
:10024000666F726D61742C207265666F726D617479
:100250002053442E0043616E2774206F70656E201A
:10026000726F6F74206469726563746F72792E00A7
:100270004E6F206572726F7220666F756E642E000D
:100280007C3C3E5E2B3D3F2F5B5D3B2C2A225C007D
:100290000D0A0066616C7365007472756500747296
:1002A00075650066616C73650042494720464C5491
:1002B000000000090A02080B0C0D070603040100E8
:1002C000000000000000000000000000000000002E
:1002D00000000000000000000000000000100F0EF1
:1002E000000000000000000000000000000000000E
:1002F000000000000000000102102020080810206B
:1003000040102040800201020108040201010204A1
:100310000810204080804020100804020180040260
:1003200001804020100804020108040201010204B7
:1003300008102040800102040810204080050505B7
:1003400005070508080808020202020A0A0808044C
:10035000040404010101010101010103030303037A
:10036000030303040707070C0C0C0C0C0C0C0C0209
:1003700002020206060606060606060B0B0B0B0B10
:100380000B0B0B000020002300260029002C002F5F
:1003900000320000010000030106010901000022F3
:1003A00000250028002B002E00310034000201003F
:1003B00000050108010B0100002100240027002A8C
:1003C000002D003000330001010000040107010A84
:1003D00001000000000000000010101010100010BC
:1003E0000050500000000000000050F850F850008D
:1003F000002078A07028F8200000C8D0202058984D
:10040000006090A0789098E8002020000000000094
:10041000001020202020201000201010101010208C
:100420000020A87070A8200000002020F8202000E4
:10043000000000000000202000000000F800000084
:100440000000000000000020000000081020408094
:100450000070D8888888D87000E02020202020F8FC
:1004600000708808102040F80070880870088870B4
:10047000001030505090F81000F08080F00808F024
:1004800000384080F088887000F808101020202084
:10049000007088887088887000708888780810E0FC
:1004A00000000020000020000000002000002020AC
:1004B00000001860C0601800000000F800F800009C
:1004C0000000C0301830C0000070880810200020E4
:1004D000007088B8A8B88060002070D888F8888834
:1004E00000F08888F88888F00070888080808870A4
:1004F00000E09088888890E000F88080F88080F89C
:1005000000F88080F88080800070888098888870EB
:1005100000888888F8888888007020202020207033
:100520000038080808088870008890A0C0A090884B
:1005300000808080808080F80088D8F8A88888882B
:100540000088C8C8A89898880070D8888888D8700B
:1005500000F08888F08080800070D88888D8701873
:1005600000F08888F0A090880070888070088870FB
:1005700000F8202020202020008888888888887023
:1005800000888888505020200088A8A8A8A8D850A3
:10059000008850202050888800885050202020203B
:1005A00000F80810204080F8006040404040406063
:1005B00000000080402010080060202020202060E3
:1005C000003048000000000000000000000000F8BB
:1005D00000202000000000000000007008F898E8EB
:1005E000008080B0C888C8B0000000708880887023
:1005F00000080868988898680000007088F880787B
:1006000000182020F82020200000788888780870C2
:10061000008080B0C888888800200060202020707A
:10062000001000301010507000808090A0C0A0908A
:1006300000C0404040404030000000F8A8A8A8A8F2
:10064000000000B0C8888888000000708888887022
:10065000000000F088F080800000007888780808AA
:10066000000000B0C880808000000078807008F032
:10067000004040F040404030000000888888986882
:10068000000000888850502000000088A8A8F8507A
:100690000000008850205088000000885020204032
:1006A000000000F8102040F8003828380000000052
:1006B0000020202020202020002070F82020202052
:1006C000002060F868280808002030F8B0A080807A
:1006D00000000000000000000010101010100010BA
:1006E0000050500000000000000050F850F850008A
:1006F0000020F880F808F8200000C8D02020589882
:10070000006090A0789098E8002020000000000091
:100710000010202020202010002010101010102089
:10072000000020F82050000000002020F8202000C9
:10073000000000000000202000000000F800000081
:100740000000000000000020000000081020408091
:100750000000F888888888F8000030101010101009
:100760000000F808F88080F80000F808380808F859
:1007700000008888F80808080000F880F80808F8E1
:100780000000F880F88888F80000F80808080808D1
:100790000000F888F88888F80000F888F808080849
:1007A00000000020000020000000002000002020A9
:1007B0000000102040201000000000F800F80000A9
:1007C00000004020102040000000F80808380020F9
:1007D0000000F888B8A8B8000000F888F888888871
:1007E0000000F088F88888F00000F880808080F8A9
:1007F0000000F088888888F00000F880E08080F8A9
:100800000000F880E08080800000F880B88888F8D8
:1008100000008888F88888880000F820202020F8C8
:1008200000000808080888F800008890E090888890
:1008300000008080808080F8000088D8A8888888A0
:10084000000088C8A89888880000F888888888F8F8
:100850000000F088F88080800000F88888A8F820E0
:100860000000F088F89088880000F880F80808F800
:100870000000F8202020202000008888888888F840
:1008800000008888888850200000888888A8D88838
:10089000000088502020508800008888F820202000
:1008A0000000F810204080F80000604040404060A8
:1008B0000000008040201008000060202020206000
:1008C000002050000000000000000000000000F8C0
:1008D0000020200000000000000000F888F8888850
:1008E000000000F888F088F8000000F8808080F8A8
:1008F000000000F0888888F0000000F880E080F8B0
:10090000000000F880E08080000000F880B888F8DF
:100910000000008888F8888800000020202020201F
:1009200000000008080888F80000008890E090881F
:1009300000000080808080F8000000F8A8A8A8A827
:10094000000000F888888888000000F8888888F807
:10095000000000F888F88080000000F888A8F820DF
:10096000000000F888F89088000000F880F808F887
:10097000000000F82020202000000088888888F8E7
:100980000000008888885020000000A8A8A8A8F8C7
:10099000000000885020508800000088502020204F
:1009A000000000F8102040F800382838000000004F
:1009B0000020202020202020002070F8202020204F
:1009C000002060F868280808002030F8B0A0808077
:1009D00000007E0003FFC007FFE00FC3F00F00F030
:1009E0001E00781E00783C003C3C003C3C003C78FB
:1009F000001E78001E78001E78001E78001E780009
:100A00001E78001E78001E78001E78001E78001EDA
:100A100078001E3C003C3C003C3C003C1E00781E24
:100A200000780F00F00FC3F007FFE003FFC0007E67
:100A30000000000000FC000FFC003FFC003F3C00F9
:100A4000303C00003C00003C00003C00003C00004A
:100A50003C00003C00003C00003C00003C00003C2E
:100A600000003C00003C00003C00003C00003C005A
:100A7000003C00003C00003C00003C00003C00004A
:100A80003C00003C00003C001FFFF81FFFF81FFF68
:100A9000F803FC003FFF807FFFC07E07E07001F09D
:100AA0004000F00000780000780000780000780036
:100AB00000780000F80000F80001F00001F00003E9
:100AC000E00007C0000FC0001F80003F00007E0054
:100AD00000FC0001F80003F00007E0000FC0001F59
:100AE00080003F00007E00007FFFF87FFFF87FFF5F
:100AF000F807FE003FFF803FFFE03C03F02001F0DD
:100B00000000F8000078000078000078000078000D
:100B100000F00000F00003E003FFC003FF0003FF4C
:100B2000C00003F00000F800007800007C00003CEA
:100B300000003C00003C00003C00003C00007C4009
:100B400000786000F87C07F07FFFE03FFF8007FC43
:100B500000000000000FC0000FC0001FC0003FC019
:100B6000003BC0007BC000F3C000E3C001E3C00352
:100B7000C3C00383C00783C00F03C00E03C01E039E
:100B8000C03C03C03803C07803C0F003C0F003C00A
:100B9000FFFFFCFFFFFCFFFFFC0003C00003C000E1
:100BA00003C00003C00003C00003C00003C0000373
:100BB000C00000003FFFE03FFFE03FFFE03C0000DF
:100BC0003C00003C00003C00003C00003C00003CBD
:100BD00000003FFC003FFF003FFFC0380FE0200354
:100BE000E00001F00000F0000078000078000078DC
:100BF0000000780000780000780000780000F00025
:100C000001F04003E0780FE07FFFC07FFF001FF896
:100C100000003FE000FFF803FFF807E0380F80080E
:100C20000F00001E00001E00003C00003C00003CC5
:100C30000000787F0079FFC07BFFF07FC1F87F0064
:100C40007C7E003C7E003C7C001E7C001E7C001EE6
:100C50007C001E3C001E3C001E3C001E1E003C1E74
:100C6000003C0F00780FC1F807FFF001FFC0007FC4
:100C7000000000007FFFF87FFFF87FFFF80000F022
:100C80000000F00001F00001E00003E00003C000FC
:100C900003C00007C0000780000F80000F00000F96
:100CA00000001E00001E00003E00003C00003C0052
:100CB00000780000780000F80000F00000F000016B
:100CC000E00001E00003E00003C00003C000078073
:100CD0000000FF0003FFE00FFFF01F81F81E007807
:100CE0003E007C3C003C3C003C3C003C3C003C1E4C
:100CF00000781E00780F81F007FFE001FF8007FFFA
:100D0000E01F81F81E00783C003C7C003E78001E0D
:100D100078001E78001E78001E78001E7C003E3C85
:100D2000003C3E007C1F81F80FFFF007FFE000FF52
:100D30000000FE0003FF800FFFE01F83F01E00F0A5
:100D40003C00783C007878003C78003C78003C78A7
:100D5000003E78003E78003E78003E3C007E3C003D
:100D60007E3E00FE1F83FE0FFFDE03FF9E00FE1E81
:100D700000003C00003C00003C00007800007800CF
:100D800000F01001F01C07E01FFFC01FFF0007FC70
:100D900000000000000000000010101010100010F3
:100DA0000050500000000000005050F850F8505023
:100DB000002078A07028F02000C0C81020409818AB
:100DC000006090A040A890680060204000000000F3
:100DD0000010204040402010004020101010204003
:100DE000000020A870A8200000002020F82020008B
:100DF000000000000060204000000000F80000003B
:100E0000000000000000606000000008102040802A
:100E100000708898A8C8887000206020202020706A
:100E200000708808102040F800F8102070088870C2
:100E30000010305090F8101000F880F0080888700A
:100E400000304080F088887000F808102040404052
:100E500000708888708888700070888878081060B2
:100E60000000606000606000000060600060204082
:100E70000010204080402010000000F800F8000022
:100E80000080402010204080007088081020002042
:100E9000007088B8A8B880700070888888F8888842
:100EA00000F08888F08888F00070888080808870E2
:100EB00000E09088888890E000F88080F08080F8DA
:100EC00000F88080F080808000708880B888887802
:100ED00000888888F888888800702020202020706A
:100EE0000038101010109060008890A0C0A090886A
:100EF00000808080808080F80088D8A8A8888888B2
:100F0000008888C8A8988888007088888888887031
:100F100000F08888F08080800070888888A89068B9
:100F200000F08888F0A0908800788080700808F031
:100F300000F8202020202020008888888888887059
:100F4000008888888888502000888888A8A8A850A9
:100F50000088885020508888008888885020202069
:100F600000F80810204080F8007040404040407079
:100F70000000008040201008007010101010107049
:100F8000002050880000000000000000000000F871
:100F90000030201000000000000000700878887801
:100FA000008080B0C88888F0000000708080887061
:100FB00000080868988888780000007088F88070B9
:100FC00000304840F04040400000007088F8087051
:100FD000008080B0C88888880020006020202070B1
:100FE000001000301010906000808090A0C0A09091
:100FF0000060202020202070000000D0A8A8888851
:10100000000000B0C8888888000000708888887058
:10101000000000F088F080800000006898780808E0
:10102000000000B0C880808000000070807008F070
:101030000040E040404048300000008888889868C0
:1010400000000088888850200000008888A8A850E8
:1010500000000088502050880000008888780870C0
:10106000000000F8102040F80010281000000000D8
:101070000020202020202020002070F82020202088
:10108000002060F868280808002030F8B0A08080B0
:101090000057616974206F6E20475053007E2063B3
:1010A000616E63656C005363616E6E696E67206686
:1010B000696C65007E2063616E63656C002F504F24
:1010C000492F004F70656E20504F4920646972208F
:1010D0006661696C6564004572726F720047657481
:1010E00020504F492066696C656E616D65206661B0
:1010F000696C6564004572726F72004F70656E2096
:10110000504F492066696C65206661696C656400B2
:101110004572726F720072656164202533692525FE
:10112000004174206C656173742025692F33006E53
:10113000656172627920706F696E7420666F756E7A
:1011400064004E6F206E656172627920706F696E07
:101150007420666F756E64004372656174696E67B2
:10116000204E6176692066696C65002530396C75A2
:101170002C2530396C752C302C25732563002F4EAF
:101180004156492F4E415649392E534D46004F7016
:10119000656E2077726974652D66696C652066617D
:1011A000696C6564004572726F72002364417574E6
:1011B0006F67656E65726174656420504F49730A8C
:1011C0000057726974652077726974652D66696C61
:1011D00065206661696C6564004572726F720057C4
:1011E000726974652077726974652D66696C652013
:1011F0006661696C6564004572726F720056657253
:101200007920736F72727920746F2074656C6C0032
:10121000796F752C2062757420492068617665208D
:10122000746F200073776974636820746F20504F67
:1012300049206D6F64652E00546F20726573756D63
:101240006520796F757220747261636B0072656FCF
:1012500070656E204E6176692066696C6500616E0E
:10126000642073656C65637420706F696E7400250B
:10127000326900253269007E204F4B0052756E6E38
:10128000696E6720557064617465006F6E2041540B
:101290003332385000746F2074726967676572204A
:1012A00072657365740056617220636865636B20B4
:1012B0006661696C656400436865636B696E67208D
:1012C0005661723A2050617373656400416B746FAC
:1012D00072656E20696E6974202E2E2E20446F6E0A
:1012E0006500436865636B696E6720636F6E6E654A
:1012F0006374696F6E004641494C4544005452592D
:10130000494E472031393230302042415544004F58
:101310004B004241534943205345545550004F4BD5
:10132000005245545259494E4700436865636B6902
:101330006E6720636F6E6E656374696F6E004F4BEE
:10134000004641494C45440044414D4E004F4B003E
:1013500041637469766174696E6720726573706F3A
:101360006E736573004F4B0053657474696E67202C
:1013700050494E20436F6465004F4B0044656163E4
:101380007469766174696E6720726573706F6E73CD
:1013900065004F4B006661696C65642C20686D6D5B
:1013A0006D00426C696E6B657220696E69742064B1
:1013B0006F6E6500426C696E6B6572206661696C68
:1013C000656400436C6F636B20696E697420646FA1
:1013D0006E650020427974652068656170206672D0
:1013E0006565006F70656E20737562646972202F89
:1013F000636F6E666967206661696C65640023547B
:1014000068697320697320616E206175746F2D6740
:10141000656E6572617465642066696C65206672CC
:101420006F6D20284D6F6E4461792920006F7065C3
:101430006E20737562646972202F636F6E666967D0
:10144000206661696C656400235468697320697360
:1014500020616E206175746F2D67656E65726174B1
:1014600065642066696C652066726F6D20284D6F1B
:101470006E4461792920006F70656E207375626417
:101480006972202F636F6E666967206661696C659B
:101490006400235468697320697320616E2061754C
:1014A000746F2D67656E6572617465642066696C22
:1014B000652066726F6D20284D6F6E44617929201A
:1014C00000737461727475703D00626C696E6B6557
:1014D000723D00626C696E6B65725F686967683D3A
:1014E000006675656C5F626C696E6B5F73746172C8
:1014F000743D006675656C5F626C696E6B5F6672E9
:1015000065713D0072656966656E5F756D66616ED9
:10151000673D006770735F74616B656F7665723DE0
:1015200000726566726573685F63796C653D006122
:1015300063746976655F6E6176695F66696C653D47
:10154000006E6176695F6163746976653D006E6106
:1015500076695F706F696E743D00646973705F7067
:10156000686173653D00646973705F7265663D0014
:101570006D6F64655F747269703D0073746F726142
:1015800067655F747269703D00736B696E5F666951
:101590006C653D006F696C5F646973743D00647ACB
:1015A0005F666C6173683D00647A5F666C61736846
:1015B0005F656E3D00647A5F6D696E3D00647A5FC1
:1015C0006D61783D006F696C5F6D696E3D006F699C
:1015D0006C5F6D61783D0077617465725F6D696EF7
:1015E0003D0077617465725F6D61783D006B6D6879
:1015F0005F6D696E3D006B6D685F6D61783D007277
:1016000067625F6F75745F7374617469635F723D65
:10161000007267625F6F75745F7374617469635F92
:10162000673D007267625F6F75745F7374617469A0
:10163000635F623D007267625F6F75745F647A5FBB
:1016400073746172745F723D007267625F6F75746C
:101650005F647A5F73746172745F673D0072676282
:101660005F6F75745F647A5F73746172745F623DFB
:10167000007267625F6F75745F647A5F656E645F46
:10168000723D007267625F6F75745F647A5F656E4A
:10169000645F673D007267625F6F75745F647A5F55
:1016A000656E645F623D007267625F6F75745F6B49
:1016B0006D685F73746172745F723D007267625F20
:1016C0006F75745F6B6D685F73746172745F673D93
:1016D000007267625F6F75745F6B6D685F737461D2
:1016E00072745F623D007267625F6F75745F6B6DED
:1016F000685F656E645F723D007267625F6F7574EC
:101700005F6B6D685F656E645F673D007267625F07
:101710006F75745F6B6D685F656E645F623D0072CC
:1017200067625F6F75745F6F696C5F737461727409
:101730005F723D007267625F6F75745F6F696C5FA7
:1017400073746172745F673D007267625F6F757476
:101750005F6F696C5F73746172745F623D00726782
:10176000625F6F75745F6F696C5F656E645F723D19
:10177000007267625F6F75745F6F696C5F656E643E
:101780005F673D007267625F6F75745F6F696C5F62
:10179000656E645F623D007267625F6F75745F774C
:1017A000617465725F73746172745F723D00726719
:1017B000625F6F75745F77617465725F7374617275
:1017C000745F673D007267625F6F75745F77617405
:1017D00065725F73746172745F623D007267625F0D
:1017E0006F75745F77617465725F656E645F723D7B
:1017F000007267625F6F75745F77617465725F65B1
:101800006E645F673D007267625F6F75745F7761DA
:101810007465725F656E645F623D006C65645F6DE8
:101820006F64653D007267625F666C6173685F72CA
:101830003D007267625F666C6173685F673D00724E
:1018400067625F666C6173685F623D0077617465B3
:10185000725F7761726E696E673D006F696C5F776A
:1018600061726E696E673D0062745F70696E3D0003
:1018700073656E736F725F736F757263653D00435E
:10188000414E5F747970653D004750535F666F72DB
:101890006D61743D004C545F7265616C74696D6577
:1018A0003D00504F495F6163746976653D00526544
:1018B0006164696E673A2000202E2E2E20006F7022
:1018C000656E20737562646972202F636F6E66693E
:1018D00067206661696C6564004D616C6C6F6320A4
:1018E0006661696C6564004D616C6C6F6320666154
:1018F000696C65640070617273655F636F6E6669C1
:10190000672065727A6575677465204665686C65E1
:1019100072636F646520002E0D0A45696E6761620F
:1019200065207761723A0070617273655F746578E3
:10193000747265706C6163656D656E742065727A32
:101940006575677465204665686C6572636F64656C
:1019500020002E2045696E67616265207761723ACA
:1019600000446F6E650021212046696C65206F7010
:10197000656E206661696C6564202121002121204B
:1019800046696C65206F70656E206661696C656480
:10199000202121004D616C6C6F63206661696C656C
:1019A0006400737461727475700061637469766544
:1019B0005F6E6176695F66696C65006E6176695F0E
:1019C000616374697665006E6176695F706F696ED8
:1019D0007400646973705F70686173650064697333
:1019E000705F72656600736B696E5F66696C650037
:1019F0006F696C5F6469737400626C696E6B6572A9
:101A000000626C696E6B65725F6869676800667515
:101A1000656C5F626C696E6B5F7374617274006693
:101A200075656C5F626C696E6B5F66726571007282
:101A3000656966656E5F756D66616E670067707378
:101A40005F74616B656F766572007265667265734F
:101A5000685F63796C65006D6F64655F747269704F
:101A60000073746F726167655F74726970006F698B
:101A70006C5F7769646765742E78006F696C5F7757
:101A800069646765742E79006F696C5F7769646754
:101A900065742E73796D626F6C006F696C5F776926
:101AA000646765742E666F6E740077617465725F2B
:101AB0007769646765742E780077617465725F7703
:101AC00069646765742E790077617465725F776900
:101AD000646765742E73796D626F6C0077617465ED
:101AE000725F7769646765742E666F6E74006169F2
:101AF000725F7769646765742E78006169725F77D9
:101B000069646765742E79006169725F77696467DB
:101B100065742E73796D626F6C006169725F7769AD
:101B2000646765742E666F6E74006B6D685F7769AD
:101B3000646765742E78006B6D685F7769646765AC
:101B4000742E79006B6D685F7769646765742E66C3
:101B50006F6E74006B6D68636861725F776964674C
:101B600065742E78006B6D68636861725F77696475
:101B70006765742E79006B6D68636861725F776961
:101B8000646765742E666F6E74006172726F775F42
:101B90007769646765742E78006172726F775F771A
:101BA00069646765742E7900647A5F776964676534
:101BB000742E7800647A5F7769646765742E7900A3
:101BC000647A5F7769646765742E666F6E74006708
:101BD00070735F7769646765742E78006770735FF0
:101BE0007769646765742E79006770735F776964DD
:101BF0006765742E666F6E74006770735F776964D3
:101C00006765742E73796D626F6C00616464696ED0
:101C1000666F5F7769646765742E780061646469D4
:101C20006E666F5F7769646765742E7900616464BE
:101C3000696E666F5F7769646765742E666F6E7430
:101C400000616464696E666F325F776964676574AA
:101C50002E7800616464696E666F325F77696467CD
:101C600065742E7900616464696E666F325F7769AE
:101C7000646765742E666F6E7400636C6F636B5F70
:101C80007769646765742E7800636C6F636B5F7748
:101C900069646765742E7900636C6F636B5F776945
:101CA000646765742E73796D626F6C00636C6F632B
:101CB0006B5F7769646765742E666F6E7400676525
:101CC00061725F7769646765742E78006765617219
:101CD0005F7769646765742E7900676561725F7705
:101CE00069646765742E666F6E74006675656C5FF7
:101CF0007769646765742E78006675656C5F7769CF
:101D0000646765742E79006675656C5F77696467D2
:101D100065742E73796D626F6C006675656C5F77A4
:101D200069646765742E666F6E74006465666175BC
:101D30006C745F666F6E7400647A5F666C61736862
:101D400000647A5F666C6173685F656E00776174CA
:101D500065725F7761726E696E67006F696C5F773D
:101D600061726E696E6700647A5F6D696E00647A95
:101D70005F6D6178006F696C5F6D696E006F696C93
:101D80005F6D61780077617465725F6D696E007771
:101D9000617465725F6D6178006B6D685F6D696E0F
:101DA000006B6D685F6D6178007267625F666C6181
:101DB00073685F72007267625F666C6173685F6709
:101DC000007267625F666C6173685F62007267626F
:101DD0005F6F75745F7374617469635F72007267BB
:101DE000625F6F75745F7374617469635F670072BB
:101DF00067625F6F75745F7374617469635F6200BB
:101E00007267625F6F75745F6F696C5F7374617224
:101E1000745F72007267625F6F75745F6F696C5F89
:101E200073746172745F67007267625F6F75745F6D
:101E30006F696C5F73746172745F62007267625F76
:101E40006F75745F6F696C5F656E645F7200726757
:101E5000625F6F75745F6F696C5F656E645F67006A
:101E60007267625F6F75745F6F696C5F656E645FE8
:101E700062007267625F6F75745F77617465725F2D
:101E800073746172745F72007267625F6F75745F02
:101E900077617465725F73746172745F67007267F3
:101EA000625F6F75745F77617465725F737461727E
:101EB000745F62007267625F6F75745F77617465EB
:101EC000725F656E645F72007267625F6F75745FE8
:101ED00077617465725F656E645F67007267625FE9
:101EE0006F75745F77617465725F656E645F6200C1
:101EF0007267625F6F75745F6B6D685F7374617238
:101F0000745F72007267625F6F75745F6B6D685F9C
:101F100073746172745F67007267625F6F75745F7C
:101F20006B6D685F73746172745F62007267625F89
:101F30006F75745F6B6D685F656E645F720072676A
:101F4000625F6F75745F6B6D685F656E645F67007D
:101F50007267625F6F75745F6B6D685F656E645FFB
:101F600062007267625F6F75745F647A5F73746139
:101F700072745F72007267625F6F75745F647A5F1C
:101F800073746172745F67007267625F6F75745F0C
:101F9000647A5F73746172745F62007267625F6F0C
:101FA00075745F647A5F656E645F72007267625F0A
:101FB0006F75745F647A5F656E645F6700726762F5
:101FC0005F6F75745F647A5F656E645F62006C65F5
:101FD000645F6D6F64650062745F70696E00736545
:101FE0006E736F725F736F757263650043414E5F0E
:101FF00074797065004750535F666F726D6174004D
:102000004C545F7265616C74696D6500504F495F37
:10201000616374697665004D616C6C6F6320666105
:10202000696C6564007E206261636B202020202043
:102030002020206E657874207F0066616C73636871
:102040006520616E7A61686C20616E206B6F6D6DCA
:1020500061746100446973706C617920696E6974A0
:10206000202E2E2E20002121205741524E494E472E
:1020700020212100534420616363657373206661EE
:10208000696C656400636865636B207468652043F0
:1020900061726421002121205741524E494E472050
:1020A000212100446F6E6500445A20696E697420D6
:1020B000646F6E6500445A206661696C65640066F1
:1020C00075656C206661696C656400676561722086
:1020D0006661696C65640047656172004F6C6420DD
:1020E00056616C75653A00446F6E7420736869665A
:1020F000742121204472697665006661737465728B
:1021000020616E6420736C6F776572007E2063615E
:102110006E63656C2020202020202020736176656E
:102120000056616C75653A0047505320696E6974BA
:1021300020646F6E650024504D544B3232302C3188
:102140003030302A31460D0A0024504D544B333183
:10215000342C302C312C302C312C302C302C302C99
:10216000302C302C302C302C302C302C302C302C8F
:10217000302C302A32380D0A0024504D544B323264
:10218000302C3130302A32460D0A0024504D544B49
:102190003331342C302C312C302C352C302C302C4D
:1021A000302C302C302C302C302C302C302C302C4F
:1021B000302C302C302A32430D0A0024504D544B21
:1021C0003331342C302C312C302C312C302C302C21
:1021D000302C302C302C302C302C302C302C302C1F
:1021E000302C302C302A32380D0A0024504D544BFC
:1021F0003235312C3131353230302A31460D0A003A
:1022000024504D544B3235312C393630302A313749
:102210000D0A004D616C6C6F63206661696C6564CA
:10222000006F70656E20737562646972202F636F32
:102230006E666967206661696C6564004E41564947
:102240002F48414E4E4F5645522E535354004E4147
:1022500056492F54454D502E5353540053656374C3
:102260006F7220726561642066726F6D2066696CA2
:1022700065206661696C6564004572726F72005317
:102280006563746F7220726561642066726F6D2081
:1022900066696C65206661696C6564004572726F81
:1022A00072004E6F2047505300706C65617365205B
:1022B0007761697400524541445920544F2052417E
:1022C00043450073706565642075700044656C61FA
:1022D00079002B2D2D3A2D2D2E2D2D004265737456
:1022E000204C61700043616C632E42657374002D55
:1022F0002D3A2D2D2E2D2D005365632030310030C9
:10230000303A30302E3030002D004B4D48004E001A
:102310004E4156492F54454D502E53535400466953
:102320006C6520636F756C64206E6F74206265202D
:102330007772697474656E004572726F72004669D7
:102340006C6520636F756C64206E6F74206265200D
:102350007772697474656E004572726F72004E41D7
:1023600056492F54454D502E535354004765742001
:10237000536563746F72732066726F6D2066696C4B
:1023800065206661696C6564004572726F72005207
:102390006163652046696C6520636F756C64206EAF
:1023A0006F74206265207772697474656E0045727F
:1023B000726F7200536563746F722072656164207E
:1023C00066726F6D2066696C65206661696C656414
:1023D000004572726F72006E6F2047505300536554
:1023E00063746F723A00475053205369676E616C93
:1023F0003A00496E74657273706163653A002D200E
:10240000202020006261642020006F6B20202000CB
:10241000676F6F642000202020202D2020202020A6
:102420002F202020202D2020202020002D202020A3
:1024300020006E6F20475053007E206261636B0066
:102440007F20746F2073657420736563746F7220CE
:10245000656E64007E20746F207365742066696EFB
:10246000697368206C696E650046696C6520636FEE
:10247000756C64206E6F7420626520726561640003
:102480004572726F72005468652063757272656E72
:10249000742073656C65637465642066696C65207F
:1024A000697320656D7074792C207265636F726436
:1024B00020736F6D6520736563746F727320666936
:1024C00072737400456D7074792066696C6500479D
:1024D000657420536563746F72732066726F6D202C
:1024E00066696C65206661696C6564004572726F2F
:1024F00072004E4156492F48414E4E4F5645522E7E
:10250000535354003D3D3D2053706565646F696EC3
:102510006F203D3D3D0053706565646F696E6F5F70
:1025200076322E312D3136362D67373231336562B2
:1025300064002048573A003D3D3D20536574757056
:102540002066696E6973686564203D3D3D004D619C
:102550006C6C6F63206661696C6564203300CA2D02
:10256000D72DE72DF92D062E172E242E332E432E90
:10257000502E622E712E7D2E8D2E922E972EA52EF0
:10258000B62E5570203D20616374697665004E61FA
:102590007669676174696F6E00446F776E203D20C5
:1025A000696E616374697665004E61766920547264
:1025B00061636B20506F696E746572006F70656E39
:1025C00020737562646972202F636F6E666967207D
:1025D0006661696C6564004E6F2066697273742071
:1025E0006C696E6520636F6D6D656E740046696C15
:1025F00065206E6F7420666F756E6400506F696E33
:102600007473207772697474656E003D2046696C3E
:10261000652073656C6563746F72203D007E206277
:1026200061636B20202020202073656C656374201B
:102630007F002F504F492F004F70656E20504F493B
:1026400020646972206661696C6564004572726F0E
:10265000720049742077696C6C2074616B6520731B
:102660006F6D652074696D6520746F2067656E6598
:10267000726174652061206E6176692066696C659F
:102680002066726F6D207468697320504F492E2048
:10269000436F6E74696E75653F00504F49204E61FF
:1026A0007669676174696F6E00504F492077617277
:1026B0006E696E670061637469766500696E616357
:1026C00074697665007E207361766500C72ED42E0E
:1026D000E42EF72E0A2F182F292F2E2F332F526971
:1026E000676874206E6F772C206F6E6C79206F6E28
:1026F000652066696C657320697320757365642E47
:10270000204865726520697320736F6D65206D6167
:10271000676963206E656564656400544F444F00CB
:10272000446F20796F75207265616C6C79207761D8
:102730006E7420746F20636C65617220616C6C2014
:102740006D61726B7320616E64207265636F726479
:10275000206E65773F00475053204D61726B657264
:10276000004E6F20475053004E6F7468696E6720AB
:1027700073617665640046696E6973682D4C696E95
:102780006500536176656400446F20796F7520722F
:1027900065616C6C792077616E7420746F2072654E
:1027A00073657420616C6C20736563746F72207440
:1027B000696D65733F005265736574207265636F60
:1027C0007264005361766564004576616C7561746E
:1027D000696F6E206973206E6F742079657420694B
:1027E0006D706C656D656E7465642E2048657265EC
:1027F00020697320736F6D65206D61676963206E5A
:10280000656564656400544F444F004265737420ED
:1028100054696D65204D6F64650063616C63756C10
:10282000617465642074696D65005265616C207423
:10283000696D65007E207361766500382F442F54E2
:102840002F5F2F6A2F6F2F802F922F9B2F47505370
:102850005F74696D65004750535F6461746500473C
:1028600050535F6C6F6E67004750535F6C617469C3
:10287000004750535F616C7469004750535F737039
:10288000656564004750535F7361747300436F75EF
:102890006E7465720043414E206973206E6F742020
:1028A0006163746976650043414E2044545320436C
:1028B0006F646573004E6F206572726F7273203A99
:1028C0002900434F4D4D204641494C45440050722C
:1028D00065737320646F776E20666F72206D6F7200
:1028E00065004164646974696F6E616C20696E662D
:1028F0006F004164646974696F6E616C20696E6613
:102900006F004164646974696F6E616C20696E6602
:102910006F004B69636B696E6720746F20366B00C4
:10292000574149542033302073656300666F72202D
:1029300072657365740053706565646F696E6F00CE
:10294000474E55202D204C6963656E7365640048C1
:10295000572076657273696F6E3A005370656564CF
:102960006F696E6F5F76322E312D3136362D6737B7
:1029700032313365626400636F6E74616374206D1D
:1029800065206174004B4B6F6F6C6C6A6A616140CB
:10299000676D61696C2E636F6D0054657472697345
:1029A00000696E2074726962757420746F00416CE6
:1029B0006578656A2050616473636869746E6F77C7
:1029C000004C2051756974005220676F20666F7249
:1029D00020697400A52FB22FC32FD22FE22FE72F2B
:1029E000EC2FFA2FFF2F6F70656E2073756264698C
:1029F00072202F636F6E666967206661696C65641B
:102A0000004D616C6C6F63206661696C6564203198
:102A1000004E6F206669727374206C696E65206366
:102A20006F6D6D656E740046696C65206E6F742005
:102A3000666F756E640050726576696577005361E4
:102A4000766564000430103018302530323045305F
:102A500057306930773085308B3096309A309F30E0
:102A6000AA30AF30B530BC30445A20466C61736830
:102A70006572005570203D2061637469766500447D
:102A80006F776E203D20696E6163746976650074AE
:102A90006F2061646A757374206C6576656C005391
:102AA000656C656374207468652052504D00666FD4
:102AB000722053686966746C6967687400746F206B
:102AC00061646A75737420636F6C6F720061637404
:102AD0006976650061637469766500696E61637427
:102AE0006976650053686966742D4C69676874007F
:102AF00000C230D230E130EE300031143119311ED5
:102B000031233153746174696320636F6C6F720099
:102B1000005370656564006B6D5C680052504D2A0F
:102B20003130300052504D004F696C00544D500010
:102B3000576174657200544D50004368616E67655B
:102B40002042542050494E006C65617665206D65C9
:102B50006E7520746F2073617665002831373147B8
:102B60003158316631773189319D31AF3143616CF4
:102B70006962726174652047656172004368616EC5
:102B8000676520476561722075702F646F776E00EE
:102B9000214B6565702064726976696E672100203B
:102BA00020636F6E74696E756500536176656400AD
:102BB00073617665640043686F6F73652070686148
:102BC00073650043686F6F736520726566205600F9
:102BD00047505320466F726D617400436F6D707281
:102BE0006573736564005265616461626C65007E43
:102BF00020736176650053656E736F7220736F7515
:102C0000726365206D6F646500416E616C6F672053
:102C100053656E736F7273004175746F20646574D1
:102C20006563740043414E2053656E736F72730089
:102C3000746F2073656C65637420747970650043EC
:102C4000414E204275732054797065005472697545
:102C50006D7068004F42443200746F207361766576
:102C6000005570203D206163746976650042542DE3
:102C7000526573657400446F776E203D20696E6104
:102C8000637469766500706F77657200536574755B
:102C9000702077617465720074656D70657261741F
:102CA000757265007761726E696E67206C65766516
:102CB0006C005365747570206F696C0074656D707D
:102CC00065726174757265007761726E696E6720F6
:102CD0006C6576656C004164646564206675656C3E
:102CE00020616D6F756E743A00416C6C204675659D
:102CF0006C0073746F7265616765732072657365CC
:102D00007465640058206E6F202020202020202031
:102D100020202020796573205800C231D031D13174
:102D2000D231E131EF31FF310D32173224324D61B2
:102D30006C6C6F63206661696C65642032004D6560
:102D40006E7520696E697420646F6E6500536176DC
:102D5000656400215344204552524F5221004D6971
:102D60006E696D616C2076616C756573004D61787C
:102D7000696D616C2076616C7565730052656420C5
:102D8000477265656E20426C756500526564204728
:102D90007265656E20426C75650052656420202066
:102DA000477265656E202020426C75650053617620
:102DB0006520746F2053442063617264004F4B00A0
:102DC0004641494C454420212100312E2053706555
:102DD00065646F696E6F00322E20537072696E7475
:102DE0002D436C6F636B00332E20546F75722D4131
:102DF0007373697374656E7400342E204C61702D8A
:102E000054696D657200352E20457874656E646571
:102E10006420496E666F00362E20437573746F6DA3
:102E2000697A6500372E20426173696320536574A7
:102E3000757000382E205472697020417667204DDD
:102E4000617800392E2052656675656C696E670081
:102E5000312E2053686F7720696E2053706565644A
:102E60006F00322E2053657420706F696E74657226
:102E700000332E205365742066696C6500342E2063
:102E8000436865636B2077726974657300352E2023
:102E90002D00362E202D00372E20504F49206669F8
:102EA0006E64657200382E2053435F504F49207383
:102EB000746174757300392E2053435F504F49205D
:102EC0006F6E2F6F666600312E2052616365204D54
:102ED0006F646500322E204C6F616420536563740B
:102EE0006F727300332E20536574206E6577205304
:102EF0006563746F727300342E205265736574209D
:102F00006265737474696D657300352E2045766152
:102F10006C756174696F6E00362E20426573742083
:102F20004C61702043616C6300372E202D00382ED9
:102F3000202D00392E202D00312E2047505320699E
:102F40006E666F00322E2043414E2D425553204471
:102F500054437300332E2053656E736F72730034C5
:102F60002E205374657070657200352E202D00364A
:102F70002E2054657374205761746368646F670012
:102F8000372E2053686F7720416E696D6174696FC9
:102F90006E00382E2041626F757400392E20546502
:102FA0007472697300312E204C6F616420536B6919
:102FB0006E00322E2041646420696E666F2061725B
:102FC000656100332E2053686966742D4C6967680B
:102FD0007400342E2053706565646F2D436F6C6FE1
:102FE0007200352E202D00362E202D00372E205336
:102FF00065742042542050494E00382E202D00394F
:103000002E202D00312E2044697374616E6365009B
:10301000322E2054696D6500332E2041766720538F
:103020007065656400342E204D61782053706565AD
:103030006400352E2044697374616E636520262018
:1030400054696D6500362E2044697374616E636542
:1030500020262041766700372E2044697374616E04
:1030600063652026204D617800382E2054696D65F7
:1030700020262041766700392E2054696D65202670
:10308000204D617800546F74616C0046726F6D2042
:1030900073746172740044617900546F75720043F7
:1030A0006861696E2F54697265004675656C004FE2
:1030B000696C657200536169736F6E00426F617273
:1030C0006400312E2053746174696320636F6C6FE8
:1030D0007200322E205370656564206261736564EE
:1030E00000332E2052504D20626173656400342EEF
:1030F000204F696C2074656D702062617365640097
:10310000352E2057617465722074656D7020626180
:1031100073656400362E202D00372E202D00382EAA
:10312000202D00392E202D00312E20476561722080
:1031300063616C69622E00322E20537065656420D5
:1031400063616C69622E00332E20446973706C6178
:103150007920736574757000342E204750532046D3
:103160006F726D617400352E2053656E736F72201F
:10317000736F7572636500362E204254205265735A
:10318000657420737461746500372E20576174650F
:10319000722074656D70207761726E2E00382E205B
:1031A0004F696C2074656D70207761726E2E0039E6
:1031B0002E204D616E2E207570646174652033324F
:1031C00038003D204D61696E206D656E75203D00B3
:1031D00000003D204E617669676174696F6E203D25
:1031E000003D204C61702D54696D6572203D003D9D
:1031F00020496E666F726D6174696F6E203D003D8F
:1032000020437573746F6D697A65203D003D2053CE
:1032100065747570203D003D2053746F7261676561
:10322000203D2000004F696C657220696E69742032
:10323000646F6E65006F696C6572206661696C65AC
:103240006400526573657420696E697420646F6EE2
:10325000652E205374617475733A2000506F776542
:103260007220646F776E00415652207761746368F4
:10327000646F6700425420636F6E6E656374004133
:10328000546D33323820646F776E21006572726F2F
:10329000723A20005344206572726F723A20002CFB
:1032A0000020646F6E65005344207472793A002CDC
:1032B0000053656E736F727320696E697420646F5A
:1032C0006E650053656E736F72732076616C756501
:1032D0007320636C6561720043414E206175746FA9
:1032E0002064657465637400466F726365204341B2
:1032F0004E206D6F646500416E616C6F6720736571
:103300006E736F72206D6F6465002121212120573B
:1033100041524E494E472021212121005344206132
:10332000636365737320737472616E676500212136
:103330002121205741524E494E4720212121210071
:10334000206661696C757265730053656E736F7288
:103350002073696E676C652072656164202E2E2E65
:10336000200052656164696E673A20636C6F636B1D
:10337000202E2E2E2000446F6E650D0A526561646A
:10338000696E673A20475053202E2E2E2000446F3E
:103390006E650D0A52656164696E673A2041697213
:1033A0002074656D70202E2E2E2000446F6E650DEA
:1033B0000A52656164696E673A204F696C207465D2
:1033C0006D70202E2E2E2000446F6E650D0A526502
:1033D0006164696E673A2057617465722074656D27
:1033E00070202E2E2E2000446F6E650D0A526561EE
:1033F00064696E673A20566F6C7461676573202E3E
:103400002E2E200020446F6E650D0A52656164699E
:103410006E673A20436F6E74726F6C206C696768D8
:103420007473202E2E2E200020446F6E650D0A53DB
:10343000656E736F722073696E676C65207265616B
:1034400064202E2E2E20446F6E65003D3D3D2043AE
:10345000414E2074696D6564206F7574203D3D3D5B
:103460000066616C6C696E67206261636B20746FCB
:1034700020616E616C6F672073656E736F7273008D
:103480003D3D3D2043414E2074696D6564206F755C
:1034900074203D3D3D00566F6C746167652000539C
:1034A0007065656420696E697420646F6E65007371
:1034B000706565646F206661696C6564004E6F209D
:1034C0004750532100537065656420757021006971
:1034D0006E61637469766500205761697420666F58
:1034E0007220475053205369676E616C200025326B
:1034F000692073656320746F2072756E2031737458
:1035000020623273006232732072756E6E696E676C
:10351000006232732069646C65006572726F72209C
:103520006F70656E206462006572726F72206F70DA
:10353000656E20735F6462006572726F72207772CD
:1035400069746520746F20735F64620070617273C8
:10355000656420202025376920504F497300735F30
:1035600064622068617320202025356920504F490E
:103570007300623273202020253569206D2F207E54
:103580003130206B6D007332722020253569206D3B
:103590002F253669206D004E656172657374205069
:1035A0004F4920253769206D00434F4E4649472F2C
:1035B000504F492E54585400434F4E4649472F50C0
:1035C0004F495F4E2E54585400434F4E4649472FA3
:1035D000504F495F4E2E54585400456E67696E65D2
:1035E00020636F6C6400504F49207761726E696E82
:1035F00067202533696D004F696C2074656D7020FC
:103600007761726E696E67005761746572207465C8
:103610006D70207761726E696E6700466C617368C9
:1036200065723F00566F6C746167652062656C6FF0
:1036300077203131560043414E207761726E696EBA
:1036400067004E6F20475053004F696C20726561D0
:1036500064206661696C65640057617465722072EC
:10366000656164206661696C65640052656564200B
:1036700073656E736F72206572726F7200534420AF
:10368000616363657373206661696C656400202003
:10369000202020202020202020202020202020202A
:1036A00020202020006B6D2F680053706565646FCB
:1036B0002076616C75657320636C656172004D6185
:1036C0006C6C6F63206661696C6564005761697436
:1036D000206F6E2073746F70005245414459002072
:1036E00020202020202020202000504F533A00444A
:1036F000454C41593A0053544154453A0074656D64
:1037000070206661696C65640054656D7020696E37
:10371000697420646F6E652E00596F75206C6F6F31
:103720007365004C205175697400522052657472A3
:10373000790053706565646F696E6F00676F6573BC
:103740002000546574726973004E657874004C658E
:1037500076656C3A20004C696E65733A20000A0A5F
:10376000003D3D3D3D3D2047524944203D3D3D3DCE
:103770003D003D3D3D3D3D2047524944203D3D3DBE
:103780003D3D000A0A005344207265626F6F742049
:103790007375636365737366756C2C207265626FF5
:1037A0006F74696E672073706565646F210042797C
:1037B000654279652000506F7765722075702064CE
:1037C0007572696E6720436C6F636B204D6F646523
:1037D00000566F6C7461676520696E697420646F50
:1037E0006E6500000D94A36E0D944F6D0D94B16C39
:1037F0000D94A46C0D945E6D0D94AA6CF61BFA1BCF
:10380000F21BF41B11241FBECFEFD1E2DEBFCDBFF0
:1038100000E00CBF1AE0A0E0B2E0E0E8F2EF02E066
:103820000BBF02C007900D92A436B107D9F71EE076
:10383000A4E6BAE001C01D92AD38B107E1F717E385
:10384000C2E0D8E300E006C022970109FE010BBFE9
:103850000F942B79CC3FD10780E00807A9F70F948C
:103860007F6D0D9471700C940000FC0122813381F6
:10387000F901E058FF4F8081918180589F4FF901F5
:10388000EE57FF4F20813181821B930B60E870E07F
:103890000D94DB78FC0182819381FC01EE57FF4F90
:1038A00020813181FC01E058FF4F40815181421756
:1038B000530731F0FC01E20FF31F208130E002C01A
:1038C0002FEF3FEFC9010895FC0122813381F901F7
:1038D000EE57FF4F80819181D901A058BF4F4D9184
:1038E0005C914817590769F0D901A80FB91F2C91AD
:1038F000019660E870E00F94DB789183808330E07C
:1039000002C02FEF3FEFC9010895FC01828193812E
:10391000FC01E058FF4FDC01AE57BF4F8D919C91E9
:10392000918380830895FC01A085B18521E030E07A
:10393000018802C0220F331F0A94E2F78C9190E0B5
:1039400082239323892BD1F30484F585E02D6083B2
:1039500008951F920F920FB60F9211242F933F9349
:103960004F935F936F937F938F939F93AF93BF9387
:10397000EF93E091C6002091250C3091260CC901EF
:10398000019660E870E00F94DB784091270C50912D
:10399000280C8417950741F0D901AB55B44FEC932F
:1039A0009093260C8093250CEF91BF91AF919F913E
:1039B0008F917F916F915F914F913F912F910F90D8
:1039C0000FBE0F901F9018951F920F920FB60F9277
:1039D00011242F933F934F935F936F937F938F9314
:1039E0009F93AF93BF93EF93E091D6002091A10BEB
:1039F0003091A20BC901019660E870E00F94DB786A
:103A00004091A30B5091A40B8417950741F0D90165
:103A1000AF5DB44FEC939093A20B8093A10BEF9109
:103A2000BF91AF919F918F917F916F915F914F91D6
:103A30003F912F910F900FBE0F901F9018951F92DE
:103A40000F920FB60F9211242F933F934F935F93D2
:103A50006F937F938F939F93AF93BF93EF93E09177
:103A6000360120911D0B30911E0BC901019660E8B3
:103A700070E00F94DB7840911F0B5091200B84175E
:103A8000950741F0D901A356B54FEC9390931E0BC7
:103A900080931D0BEF91BF91AF919F918F917F917B
:103AA0006F915F914F913F912F910F900FBE0F90AB
:103AB0001F9018958F92AF92CF92DF92EF92FF9264
:103AC0000F931F93CF93DF93CDB7DEB7FC0183EF46
:103AD00092E0918380837383628355834483378329
:103AE000268311870087F386E286D586C486A6865C
:103AF00087868E85808B8F85818B8889828BDF91ED
:103B0000CF911F910F91FF90EF90DF90CF90AF90EA
:103B10008F9008957F928F929F92AF92BF92CF9293
:103B2000DF92EF92FF920F931F93CF93DF93EC01FD
:103B30004A015B01413482E05807610571050CF0D0
:103B40006EC060E874E88EE190E0A50194010F94E6
:103B5000EE7869017A0181E0C81AD108E108F1081C
:103B6000F694E794D794C794A70196012F5F3F4F2F
:103B70004F4F5F4FE4E0220F331F441F551FEA955C
:103B8000D1F760E074E284EF90E00F94EE780FEFED
:103B900010E0AFEFB0E00F949578A50194010F9479
:103BA000EE78021B130B722E1016110614F470948B
:103BB00001C0739460E079E08DE390E0A501940189
:103BC0000F94EE78215031094109510956954795D6
:103BD000379527952F5F3F4F4F4F5F4F63E0220F81
:103BE000331F441F551F6A95D1F760E074E284EFDC
:103BF00090E00F94EE780FEF10E0AFEFB0E00F948D
:103C00009578A50194010F94EE78021B130B101602
:103C1000110614F4209501C02F5F2715E8F4E885FC
:103C2000F98581E090E00A8802C0880F991F0A9404
:103C3000E2F7808360E079E08DE390E0A5019401F4
:103C40000F94EE7821503109410951095695479555
:103C500037952795C90104C0E885F9851082C6010A
:103C6000EC81FD819083EE81FF818083EA85FB8575
:103C7000408181E090E09C010E8402C0220F331F3E
:103C80000A94E2F7422B4083EA85FB8540819C0140
:103C90000F8402C0220F331F0A94E2F7422B4083A5
:103CA000EA85FB852081088802C0880F991F0A9445
:103CB000E2F7282B2083DF91CF911F910F91FF9086
:103CC000EF90DF90CF90BF90AF909F908F907F90BC
:103CD0000895FC01A285B3854C9181E090E09C01A0
:103CE000068402C0220F331F0A94E2F72095242392
:103CF0002C93A285B3854C919C01078402C0220FAE
:103D0000331F0A94E2F7209524232C93A285B385D0
:103D10002C91008802C0880F991F0A94E2F78095C1
:103D200082238C930895FC01108211820895589A81
:103D3000599AE9EBF0E080818E7F808380818D7FCE
:103D4000808388E48093B80084E48093BC00089565
:103D50001092BC00089570934E0C60934D0C20E4BB
:103D600031E0629FC001639F900D729F900D1124FE
:103D700090934C0C80934B0C0895611102C088E421
:103D800001C08CE08093B8000895662319F0589A1A
:103D9000599A08955898599808958091510C08950A
:103DA0003091510C20914F0C231B2093500C31115A
:103DB00004C01092500C80E0089531503093510CA3
:103DC000FC01E20FF11D828108954F925F926F9284
:103DD0007F928F929F92AF92BF92CF92DF92EF929B
:103DE000FF920F931F930E94775D4B015C014090FF
:103DF0004B0C50904C0C612C712C84EA8093BC00CD
:103E0000C12CD12C76011FC0009709F10E94775D6B
:103E1000681979098A099B0940914D0C50914E0C03
:103E20008A0120E030E0601771078207930768F588
:103E3000D701C601840D951DA61DB71D892B8A2BA0
:103E40008B2B19F129C080914D0C90914E0C209133
:103E5000BC0027FFD9CF8091B900887F883099F0C6
:103E60008091B900887F8031E9F40DC08091B9005C
:103E7000887F1092BC0094E49093BC0019C080919C
:103E8000B900887F15C080E013C01092BC0084E4A4
:103E90008093BC0081E00CC081E0C81AD108E10821
:103EA000F108D1CF8091B900887F883341F7DECF08
:103EB0001F910F91FF90EF90DF90CF90BF90AF9048
:103EC0009F908F907F906F905F904F9008954F924A
:103ED0005F926F927F928F929F92AF92BF92CF929A
:103EE000DF92EF92FF920F931F93F62E0E94775D61
:103EF0004B015C0140904B0C50904C0C612C712C90
:103F0000FF2039F084EC8093BC00C12CD12C7601C9
:103F100021C084E8F8CF009709F10E94775D681905
:103F200079098A099B0940914D0C50914E0C8A01E8
:103F300020E030E0601771078207930728F5D7016A
:103F4000C601840D951DA61DB71D892B8A2B8B2BB1
:103F5000D9F021C080914D0C90914E0C2091BC0065
:103F600027FFD9CF8091B900887F883349F48091A9
:103F7000B900887F1092BC0094E49093BC0011C0FB
:103F80008091B900887F0DC01092BC0084E48093BA
:103F9000BC0081E006C081E0C81AD108E108F10840
:103FA000D9CF1F910F91FF90EF90DF90CF90BF90EE
:103FB000AF909F908F907F906F905F904F900895FB
:103FC0004F925F926F927F928F929F92AF92BF9229
:103FD000CF92DF92EF92FF920F931F930E94775D33
:103FE0004B015C0140904B0C50904C0C612C712C9F
:103FF00084E98093BC00C12CD12C76011FC00097AE
:1040000009F10E94775D681979098A099B09409135
:104010004D0C50914E0C8A0120E030E06017710782
:1040200082079307A8F4D701C601840D951DA61D2C
:10403000B71D892B8A2B8B2B59F011C080914D0C09
:1040400090914E0C2091BC0024FDD9CF80E00DC092
:104050001092BC0084E48093BC0081E006C081E043
:10406000C81AD108E108F108E9CF1F910F91FF901C
:10407000EF90DF90CF90BF90AF909F908F907F9008
:104080006F905F904F9008954F925F926F927F92E2
:104090008F929F92AF92BF92CF92DF92EF92FF9258
:1040A0000F931F93CF93DF93EC016093BB000E94AB
:1040B000775D4B015C0140904B0C50904C0C612C97
:1040C000712C84E88093BC00C12CD12C76011EC0D9
:1040D000009701F10E94775D681979098A099B09A7
:1040E00000914D0C10914E0C20E030E060177107EC
:1040F0008207930758F5B701A601440D551D661DAB
:10410000771D452B462B472B09F127C080914D0C7D
:1041100090914E0C2091BC0027FFDACF8091B9001E
:10412000887F883289F01091B900187F8091B9009A
:10413000887F803319F4CE0143DF15C01092BC0094
:1041400084E48093BC000FC010E00DC01092BC004E
:1041500084E48093BC0011E006C081E0C81AD10855
:10416000E108F108D3CF812FDF91CF911F910F91FB
:10417000FF90EF90DF90CF90BF90AF909F908F9087
:104180007F906F905F904F9008954F925F926F92E3
:104190007F928F929F92AF92BF92CF92DF92EF92D7
:1041A000FF920F931F93CF93DF93EC016093BB00BB
:1041B0000E94775D4B015C0140904B0C50904C0C81
:1041C000612C712C84E88093BC00C12CD12C760129
:1041D0001EC0009701F10E94775D681979098A096C
:1041E0009B0900914D0C10914E0C20E030E06017BF
:1041F00071078207930730F5B701A601440D551DDD
:10420000661D771D452B462B472BE1F022C0809180
:104210004D0C90914E0C2091BC0027FFDACF80917D
:10422000B900887F883161F08091B900887F80343F
:10423000B1F406C08091B900887F8834C9F41EC0EB
:1042400010E01EC01092BC0084E48093BC0011E01A
:1042500017C081E0C81AD108E108F108D8CF109141
:10426000B900187F8091B900887F803219F706C0A5
:104270001092BC0084E48093BC0002C0CE01A0DE9A
:10428000812FDF91CF911F910F91FF90EF90DF90E1
:10429000CF90BF90AF909F908F907F906F905F90E6
:1042A0004F900895DF92EF92FF920F931F93CF9359
:1042B000DF93EC01F62EE42ED22E1092510C1092C8
:1042C000500C211102C0DD24D3948D2D815089839F
:1042D0001882CE017ADD888381115AC0FF0C6F2DC0
:1042E000CE0153DF8883882329F0813009F050C044
:1042F00082E04EC06E2DCE01C7DE8883882329F070
:10430000813009F045C083E043C0CE015EDD888383
:10431000882329F0813009F03BC084E039C06F2D3B
:104320006F5FCE0132DF8883811103C0780110E016
:1043300004C0813069F585E02BC08981181317C04E
:1043400060E0CE01C4DD8883813011F486E020C0B6
:104350008835F1F48091BB00F70181937F011F5FE5
:104360001093510C10934F0C1D11E7CF09C061E061
:10437000CE01ADDD8883813049F3803559F308C023
:10438000CE011EDE8883882319F0813009F487E08E
:10439000DF91CF911F910F91FF90EF90DF900895E3
:1043A000AF92BF92DF92EF92FF920F931F93CF9342
:1043B000DF931F92CDB7DEB75C01E42ED22EF32E31
:1043C0001092510C1092500C411102C0EE24E39453
:1043D0008E2D8150F50181831082C5016983F5DC42
:1043E000F5018083698181113FC0660F6F5FC50150
:1043F000CCDEF5018083811104C00D2D1F2DF12C21
:1044000004C0813089F585E02FC0F5018181F81263
:1044100018C060E0C5015BDDF5018083813011F4D7
:1044200086E022C0883501F58091BB00F8018193B8
:104430008F01F394F092510CF0924F0CFE10E5CFE7
:104440000AC061E0C50143DDF5018083813041F39D
:10445000803551F309C0C501B3DDF50180838823A0
:1044600019F0813009F487E00F90DF91CF911F910F
:104470000F91FF90EF90DF90BF90AF900895EF9273
:10448000FF920F931F93CF93DF93EC01162F042F0E
:10449000F22E1092510C1092500C211102C0FF24E8
:1044A000F3948F2D815089831882CE018EDC88830E
:1044B000811163C0110F612FCE0167DE88838823CD
:1044C00029F0813009F059C082E057C0602FCE0139
:1044D000DBDD8883882329F0813009F04EC083E03A
:1044E0004CC0CE0172DC8883882329F0813009F02A
:1044F00044C084E042C0612F6F5FCE0146DE8883F6
:10450000882329F18130C9F585E037C060E0CE010C
:10451000DEDC8883813011F486E02FC0883569F5B0
:104520008091BB00FE01E00FF11F8283E394E092D3
:10453000510CE0924F0C0F5F1F4F0BC061E0CE019A
:10454000C6DC8883813041F3803551F316C000E02A
:1045500010E0E02E0F1560F40032110529F408C0B8
:10456000813059F487E009C089810813E7CFCECFA5
:10457000CE0126DD88838111F3CFDF91CF911F918A
:104580000F91FF90EF9008957ACFCF92DF92EF9244
:10459000FF920F931F93CF93DF931F92CDB7DEB798
:1045A0006C01F42E1092510C1092500C411102C06B
:1045B000FF24F3948F2D8150F60181831082C60170
:1045C000698303DCF60180836981811141C0660F34
:1045D0006F5FC601DADDF6018083882359F18130EF
:1045E000B9F585E035C0F6018181E81219C060E0B7
:1045F000C6016DDCF6018083813011F486E028C0AD
:10460000883531F58091BB00F601E00FF11F828300
:10461000E394E092510CE0924F0C0F5F1F4F0CC0DF
:1046200061E0C60154DCF6018083813039F38035C6
:1046300049F30EC000E010E0E02E0F15A0F2C60115
:10464000BFDCF6018083882319F0813009F487E00C
:104650000F90DF91CF911F910F91FF90EF90DF901E
:10466000CF90089592CFAF92BF92DF92EF92FF92D8
:104670000F931F93CF93DF931F92CDB7DEB75C01EB
:10468000F42E122FD32EFC01108269839EDBF501DC
:104690008083698181112FC0660FC50176DDF50128
:1046A0008083882321F0813031F582E024C06F2D92
:1046B000C501EADCF5018083811103C0E12EFD2CE8
:1046C0000DC08130C1F483E016C0F70161917F0114
:1046D000C501DADCF50180838111F3CF8E2D811BBA
:1046E000801798F3C5016CDCF5018083882319F0ED
:1046F000813009F487E00F90DF91CF911F910F91E6
:10470000FF90EF90DF90BF90AF9008950F93CF93FD
:10471000DF93EC01F90101900020E9F73197E21BEA
:10472000F30B18820E2F9FDF8883DF91CF910F91BB
:104730000895EF92FF920F931F93CF93DF931F92F1
:10474000CDB7DEB77C01042F122FFC0110826983E4
:104750003CDBF70180836981811126C0660FC701A8
:1047600014DDF7018083882321F08130E9F482E0B1
:104770001BC0602FC70188DCF7018083882321F0EC
:10478000813091F483E010C0612FC7017DDCF70117
:1047900080838111F5CFC70113DCF7018083882363
:1047A00019F0813009F487E00F90DF91CF911F91CC
:1047B0000F91FF90EF900895BCCFEF92FF921F935F
:1047C000CF93DF931F92CDB7DEB77C01142FFC018E
:1047D00010826983FADAF7018083698181111FC031
:1047E000660FC701D2DCF7018083882321F0813076
:1047F000B1F482E014C0612FC70146DCF701808369
:10480000882321F0813059F483E009C0C701D8DB47
:10481000F7018083882319F0813009F487E00F9035
:10482000DF91CF911F91FF90EF900895C6CFEF9247
:10483000FF920F931F93CF93DF93EC0100914D0CE8
:1048400010914E0C80E590E090934E0C80934D0CAF
:1048500080E094E690934C0C80934B0C65E173E000
:104860008AE89AE0E1D18AE89AE08AD1F12CE12C39
:104870001882CE01AADA8883811105C06F2D660FD8
:10488000CE0183DC88838881882329F08130A1F4DC
:1048900068E373E01BC061E773E08AE89AE070D0D8
:1048A0006CE873E08AE89AE06BD040E150E06F2D4D
:1048B0008AE89AE09FD1E394CE0182DBF39480E80A
:1048C000F812D6CFE11005C060E973E08AE89AE0FB
:1048D000ABD110934E0C00934D0CDF91CF911F91F3
:1048E0000F91FF90EF900895ECEBF0E0108284E4DC
:1048F000808308950F931F93CF93DF938C01EB0177
:1049000008C0D801ED91FC910190F081E02DC80123
:10491000199569916111F5CFDF91CF911F910F9199
:104920000895EF92FF920F931F93CF93DF937C0133
:10493000EB018A01060F171F09C06991D701ED919C
:10494000FC910190F081E02DC7011995C017D107A6
:10495000A1F7DF91CF911F910F91FF90EF900895F4
:10496000DC01ED91FC910190F081E02D642F199410
:10497000DC01ED91FC910190F081E02D642F199400
:10498000DC01ED91FC910280F381E02D19946F928E
:104990007F928F929F92AF92BF92CF92DF92EF92CF
:1049A000FF920F931F93CF93DF93CDB7DEB7A097FE
:1049B0000FB6F894DEBF0FBECDBF8C014115510577
:1049C00061057105C9F440E350E060E070E0A09635
:1049D0000FB6F894DEBF0FBECDBFDF91CF911F9110
:1049E0000F91FF90EF90DF90CF90BF90AF909F908E
:1049F0008F907F906F90BCCF66246394712C6C0E67
:104A00007D1EC12CD12C7601822E912CA12CB12C93
:104A1000CB01BA01A50194010F94EE78FA01D301FC
:104A20006D933D01BFEFCB1ADB0AEB0AFB0AA9012C
:104A3000BF01411551056105710551F781E0C81AA3
:104A4000D108E108F10819C0E1E0F0E0EC0FFD1F2A
:104A5000EC0DFD1D8081482F8A3010F4405D01C0AF
:104A6000495C50E060E070E020E030E0C80130D008
:104A7000A1E0CA1AD108E108F108BFEFCB16DB06A6
:104A8000EB06FB0609F7A0960FB6F894DEBF0FBE43
:104A9000CDBFDF91CF911F910F91FF90EF90DF90ED
:104AA000CF90BF90AF909F908F907F906F90089520
:104AB0002115310509F454CF6ACF9A01AB0160E0AA
:104AC00070E0F6CF9A01462F50E060E070E0F0CF42
:104AD000CF92DF92EF92FF92CF93DF93EC016A01C6
:104AE0007B012115310539F4DF91CF91FF90EF90D3
:104AF000DF90CF903DCF2A30310591F477FF0FC082
:104B000020E030E04DE250E060E070E0E1DFF09462
:104B1000E094D094C094C11CD11CE11CF11C2AE08B
:104B2000B701A601CE01DF91CF91FF90EF90DF900A
:104B3000CF902DCF9A01AB01662757FD6095762F58
:104B4000C7CF9A01462F50E060E070E0C1CF0F93CD
:104B50001F93CF93DF938C01EB0108C02196FA01DC
:104B6000449150E060E070E0C801FADEAE01FE0161
:104B700084918111F3CFDF91CF911F910F9108950F
:104B8000CF93DF93EC014DE050E060E070E0F0DEA9
:104B90004AE050E060E070E0CE01DF91CF91E8CED6
:104BA000CF93DF93EC0184DFCE01DF91CF91E8CF8B
:104BB000CF93DF93EC018CDFCE01DF91CF91E0CF7B
:104BC000CF93DF93EC019A01AB0160E070E070DFFE
:104BD000CE01DF91CF91D4CFCF93DF93EC019A0137
:104BE000AB01662757FD6095762F72DFCE01DF910E
:104BF000CF91C6CFCF93DF93EC019A01462F50E0BF
:104C000060E070E055DFCE01DF91CF91B9CFCF9357
:104C1000DF93EC019A01462F50E060E070E058DF2E
:104C2000CE01DF91CF91ACCFCF93DF93EC01A8DE23
:104C3000CE01DF91CF91A4CF8F929F92AF92BF927E
:104C4000CF92DF92EF92FF920F931F93CF93DF9358
:104C50008C014A015B01C22F20E030E0A901C501AF
:104C6000B4010F94C07187FF0AC04DE250E060E0CC
:104C700070E0C8017DDEB7FAB094B7F8B094D0E028
:104C800060E070E080E09FE307C020E030E040E2B9
:104C900051E40F94C771DF5FDC13F7CF262F372F56
:104CA000482F592FC501B4010F944571D62EE72E18
:104CB000F82ED92F0F943472962EA72EB82EC92E07
:104CC0000F9460729B01AC016D2D7E2D8F2D9D2F59
:104CD0000F944471D62FF72EE82ED92E2AE0492DB5
:104CE0005A2D6B2D7C2DC80152DECC2389F16BEC43
:104CF00078E0C80145DE2CC020E030E040E251E41D
:104D00006D2F7F2D8E2D9D2D0F94F3734B015C0124
:104D1000792D9B2D0F942F726B01EE24D7FCE0941C
:104D2000FE2C2AE030E0B701A601C801D1DEC701A0
:104D3000B6010F9462729B01AC01682D792D8A2D0A
:104D40009B2D0F944471D62FF72EE82ED92EC150EB
:104D5000C111D2CFDF91CF911F910F91FF90EF90B2
:104D6000DF90CF90BF90AF909F908F90089564CFC9
:104D7000CF93DF93EC0160DFCE01DF91CF9100CFC5
:104D80008EBD0DB407FEFDCF08958FEFF9DF8EB510
:104D9000089561E0FC0184810C94495F60E0FC01AE
:104DA00084810C94495FCF93DF93EC018E8188233B
:104DB000C1F08FEF8EBD4FEF04C00DB407FEFDCFE5
:104DC0004EBD8F8198859C012F5F3F4F38872F8381
:104DD0008130924090F30DB407FEFDCFCE01D9DFB4
:104DE0001E82DF91CF9108950F931F93CF93DF938E
:104DF0001F92CDB7DEB78C016983D5DF6981F801D9
:104E000061870F90DF91CF911F910F9108956730C7
:104E100028F026E1FC01258380E008958DB560FD32
:104E200002C0663011F48E7F01C081608DBD8CB5EB
:104E30008C7F8CBD9CB562FF02C082E001C080E027
:104E400066956170692B682B6CBD81E008950F93A6
:104E50001F93CF93DF93EB010E94775D8B0195DF6A
:104E60008F3F49F00E94775D601B710B6C177D07C7
:104E7000B0F380E001C081E0DF91CF911F910F91ED
:104E80000895CF92DF92FF920F931F93CF93DF93FA
:104E900000D01F92CDB7DEB76C01F62E29833A837E
:104EA0004B835C8380DFC60179DF6CE271E0C60171
:104EB000CEDF8F2D806464DF08E110E05C814B81E0
:104EC0003A812981DA01C901002E04C0B695A7955F
:104ED000979587950A94D2F729833A834B835C830D
:104EE0004FDF0850110929813A814B815C81083FCD
:104EF0008FEF180739F7FF2029F0E8E0FE1621F0C0
:104F00008FEF03C085E901C087E83ADF10E03DDF9D
:104F1000F601828787FF04C01F3F11F01F5FF7CFA4
:104F20000F900F900F900F90DF91CF911F910F91E5
:104F3000FF90DF90CF900895BF92CF92DF92EF92D3
:104F4000FF920F931F93CF93DF93EC01B62E1B8636
:104F500019861E821D824C830E94775D8B0161E061
:104F60008C810E942A5FCE0114DF60E082E30E9400
:104F70002A5F61E083E30E942A5F61E084E30E948C
:104F80002A5F61E085E30E942A5F83E58CBD8DB5D1
:104F90008E7F8DBD2AE0F22E8FEFF2DEFA94E1F7DC
:104FA000CE01FCDE09C00E94775D601B710B613D84
:104FB000774010F081E052C020E030E0A90160E0CD
:104FC000CE015FDFF82E8A8781E0F812ECCF2AEA63
:104FD00031E040E050E068E0CE0153DF82FF02C0E4
:104FE000FB860CC094E0F92ED0DE8A87FA94E1F7B4
:104FF0008A3A11F082E032C082E08B878B85823062
:1050000031F4C12CD12CE12C80E4F82E0DC0C12C40
:10501000D12C760109C00E94775D601B710B613D48
:10502000774010F088E01AC020E030E0A90167E383
:10503000CE0127DFA701960169E2CE0122DF8A8730
:105040008111E9CF8B858230A1F420E030E0A90105
:105050006AE3CE0116DF882319F086E08D8317C03E
:1050600094DE807C803C11F483E08B878EDE8DDEC5
:105070008CDECE018EDE6B2DCE01DF91CF911F91A4
:105080000F91FF90EF90DF90CF90BF90C0CECE01F8
:1050900080DE80E0DF91CF911F910F91FF90EF9024
:1050A000DF90CF90BF9008950F931F93CF93DF931E
:1050B000EC010E94775D8B0109C00E94775D601B47
:1050C000710B6D32714010F08FE007C05EDE8A8791
:1050D0008F3F99F38E3F31F08DE08D83CE0159DE05
:1050E00080E001C081E0DF91CF911F910F91089581
:1050F000EF92FF920F931F93CF93DF93EC017A010E
:1051000020E030E0A901BDDE882319F08EE08D8318
:1051100018C0CE01C9DF8823A1F08701E12CF12C52
:1051200034DEF80181938F01FFEFEF1AFF0A80E16F
:10513000E816F104A9F729DE28DECE012ADE81E097
:1051400003C0CE0126DE80E0DF91CF911F910F9149
:10515000FF90EF900895CF93DF93CDB7DEB76097C0
:105160000FB6F894DEBF0FBECDBFAE014F5F5F4FED
:1051700069E0BEDF882329F08B8586FB882780F9CC
:1051800001C080E060960FB6F894DEBF0FBECDBFC1
:10519000DF91CF910895AF92BF92CF92DF92EF92BD
:1051A000FF920F931F93CF93DF9300D01F92CDB741
:1051B000DEB75C016801790149835A836B837C8384
:1051C000CADF49815A816B817C81811102C08BE0E9
:1051D0002AC0F5018385833071F039E0440F551FF3
:1051E000661F771F3A95D1F7E9E0CC0CDD1CEE1C69
:1051F000FF1CEA95D1F79A01AB0160E2C50141DEDF
:1052000081111CC0A701960161E2C5013ADE81113E
:1052100015C020E030E0A90166E2C50132DE81114F
:105220000DC00EC08CE0F501858304C0C501B1DD61
:1052300081E00DC0C501ADDD80E009C08AE0F3CF9B
:1052400060E177E2C50103DE882361F3EFCF0F90C1
:105250000F900F900F90DF91CF911F910F91FF90C2
:10526000EF90DF90CF90BF90AF9008950F931F9372
:10527000CF93DF93CDB7DEB760970FB6F894DEBF5C
:105280000FBECDBF8C01AE014F5F5F4F69E030DFD5
:10529000882309F457C08981807C71F58F818370E0
:1052A000382F330F330F20E0888544E0849FC001FE
:1052B0001124822B932B29852295269526952370E0
:1052C000822B8C010F5F1F4F20E030E04A85437036
:1052D000440F8B8587FB882780F9482B8E818F7040
:1052E00090E0840F911D079704C0000F111F221F2B
:1052F000331F8A95D2F729C0803409F508850695B1
:10530000069510E020E030E09801112700278A85FB
:10531000082B998580E0AA2797FDA095BA2F082B26
:10532000192B2A2B3B2B0F5F1F4F2F4F3F4FAAE00C
:10533000000F111F221F331FAA95D1F706C089E065
:10534000F801858300E010E09801B801C90160967A
:105350000FB6F894DEBF0FBECDBFDF91CF911F9186
:105360000F9108958F929F92AF92BF92CF92DF924A
:10537000EF92FF920F931F93CF93DF93EC015901AC
:1053800047010115110509F472C0C801820F931F6E
:105390008130924008F06DC08E81882371F0C88002
:1053A000D980EA80FB804C155D056E057F0529F4E8
:1053B0008F819885A816B90608F5488359836A83B2
:1053C0007B838B85833039F0B9E0440F551F661F0E
:1053D000771FBA95D1F79A01AB0161E1CE0151DD9A
:1053E000882319F083E08D8344C0CE015DDE8823DD
:1053F00009F43FC018861F8281E08E838FEF8EBD37
:105400002FEF09C00DB407FEFDCF2EBD8F8198850B
:10541000019698878F838F8198858A159B0590F3D5
:10542000C8010197F4014FEF06C00DB407FEFDCF90
:105430002EB521934EBD9F01281939092817390728
:10544000A0F30DB407FEFDCF2EB5F401E80FF91F50
:1054500020838F819885800F911F98878F8329855E
:10546000222319F08115924010F0CE019CDC81E0DE
:1054700003C0CE018EDC80E0DF91CF911F910F91B0
:10548000FF90EF90DF90CF90BF90AF909F908F9064
:105490000895EF92FF920F931F93790100E012E0BD
:1054A00020E030E05FDF1F910F91FF90EF900895B3
:1054B000CF93DF93EC016EBD20E030E00DB407FE2A
:1054C000FDCFFA01E20FF31F80818EBD0DB407FE00
:1054D000FDCF81818EBD2E5F3F4F211582E03807C1
:1054E00069F70DB407FEFDCF8FEF4ADC8FEF48DC84
:1054F0004CDC8A878F71853031F081E18D83CE015C
:1055000048DC80E001C081E0DF91CF9108950F93E6
:105510001F93CF93DF93EC018B0168E572E097DC7A
:10552000882341F0A8016CEFCE01DF91CF911F914C
:105530000F91BECF83E18D83CE012BDC80E0DF9124
:10554000CF911F910F9108950F931F93CF93DF93E6
:10555000EC0189018B85833039F089E0440F551FB8
:10556000661F771F8A95D1F79A01AB0168E1CE01DA
:1055700088DC882311F084E023C0A8016EEFCE01FF
:1055800097DF8823A1F068E572E0CE0160DC81112D
:1055900002C085E115C020E030E0A9016DE0CE0138
:1055A00070DC81110CC0F1DB811109C004C0CE0197
:1055B000F0DB80E007C0CE01ECDB81E003C084E1DA
:1055C0008D83F5CFDF91CF911F910F9108958F9229
:1055D0009F92AF92BF92CF92DF92EF92FF920F9382
:1055E0001F93CF93DF93EC016A017B0148015901BE
:1055F00020E030E0A90167E344DCA501940167E104
:10560000CE013FDC882311F087E012C08B85833008
:1056100039F099E0CC0CDD1CEE1CFF1C9A95D1F7FB
:10562000A701960169E1CE012CDC882331F085E0E9
:105630008D83CE01AEDB80E001C081E0DF91CF91B0
:105640001F910F91FF90EF90DF90CF90BF90AF90A0
:105650009F908F900895CF93DF93EC0168E572E0FF
:10566000F6DB882361F08DEF8BDB68E572E0CE011D
:10567000EEDB882321F0CE018CDB81E005C080E1E8
:105680008D83CE0186DB80E0DF91CF9108950F936B
:105690001F93CF93DF938C01EC01AA96D093570C04
:1056A000C093560CCE010E945035B801645F7F4F05
:1056B000CE01DF91CF911F910F912DC40F931F93B6
:1056C000CF93DF93CDB7DEB76D970FB6F894DEBFFB
:1056D0000FBECDBF8C018FEA93E09A8389831B8232
:1056E0001E82FB0180818F3239F48181811104C0D7
:1056F000C801CDDF182F4CC041E0CE0101960E94B9
:10570000033C882309F443C08E81823008F43FC0F3
:105710009B81F80194A79C8195A79D8196A787A757
:105720004F81588569857A8540AB51AB62AB73ABCD
:105730004B855C856D857E8544AB55AB66AB77ABA1
:105740004F85588969897A8940AF51AF62AF73AF8D
:105750008B8984AFFD964C895D896E897F894083F2
:10576000518362837383F801EF5BFF4F488D598D3E
:105770006A8D7B8D4083518362837383F801EB5B79
:10578000FF4F8C8D9D8D9183808311E001C010E0CF
:10579000CE0101960F94636D812F6D960FB6F8942C
:1057A000DEBF0FBECDBFDF91CF911F910F91089546
:1057B000CF93DF93EC018D81882371F080EC91E031
:1057C00082D140E150E06D818AE89AE07BD98AE895
:1057D0009AE0DF91CF91D4C9DF91CF910895E8DFAE
:1057E000FFCF0F931F93CF93DF931F921F92CDB7DD
:1057F000DEB78C0181ED91E069837A8364D16981A0
:105800007A818AE89AE010DAC8010F900F90DF9150
:10581000CF911F910F91CCCFE4DFFFCF0F931F9358
:10582000CF93DF93EC018B0189ED91E04CD1C8015E
:105830004ED1CE01DF91CF911F910F91B9CFEEDF05
:10584000FFCF8A960C94133C0F931F93CF93DF9353
:10585000EC0172DB8823B9F08E01045F1F4F41E039
:10586000BE01C8010E941446882331F0CE01DF91A9
:10587000CF911F910F910BCF40E0BE01C8010E9454
:1058800014468111F3CF80E0DF91CF911F910F91EA
:105890000895CF93DF93EC018D81882369F081EE29
:1058A00091E015D18D81813019F488E092E00FD11B
:1058B000CE01DF91CF917CCF8BA1811103C088E312
:1058C00092E008C08FA5811103C085E592E002C077
:1058D00080E792E0DF91CF91FAC0DBDFFFCF462F68
:1058E00020E06AE87AE08A960C94D13820E08A9623
:1058F0000C94D1381F93CF93DF93CDB7DEB76D975C
:105900000FB6F894DEBF0FBECDBF242FEFEAF3E051
:10591000FA83E9831B821E828A96AB01BC01CE0109
:1059200001960E944F3D182FCE0101960F94636D92
:10593000812F6D960FB6F894DEBF0FBECDBFDF91FD
:10594000CF911F9108958A960C94D53BEF92FF92C8
:105950000F931F93CF93DF93CDB7DEB76D970FB63D
:10596000F894DEBF0FBECDBF8C017A018FEA93E0C1
:105970009A8389831B821E8241E0CE0101960E9498
:10598000033C882351F0B801665D7F4FA701CE012B
:1059900001960E941D3E182F01C010E0CE01019615
:1059A0000F94636D812F6D960FB6F894DEBF0FBE16
:1059B000CDBFDF91CF911F910F91FF90EF90089590
:1059C0001F93CF93DF93CDB7DEB76D970FB6F894E3
:1059D000DEBF0FBECDBF8FEA93E09A8389831B821F
:1059E0001E8241E0CE0101960E94033C882331F0E3
:1059F000CE0101960E94CB36182F01C010E0CE01D7
:105A000001960F94636D812F6D960FB6F894DEBFEB
:105A10000FBECDBFDF91CF911F910895CF92DF923E
:105A2000EF92FF92CF93DF93CDB7DEB76D970FB6AE
:105A3000F894DEBF0FBECDBF69017A018FEA93E013
:105A40009A8389831B821E8242E0CE0101960E94C6
:105A5000033C882341F0B701A601CE0101960E94C4
:105A6000F535F82E01C0F12CCE0101960F94636D2F
:105A70008F2D6D960FB6F894DEBF0FBECDBFDF91B0
:105A8000CF91FF90EF90DF90CF9008950F931F93E9
:105A9000CF93DF938C01EB0105C040E050E0C801DB
:105AA00011D82196FE0164916111F7CFDF91CF915A
:105AB0001F910F910895CF93DF93EC01E7DFCE01A3
:105AC000DF91CF915DC8BC018AE89AE0DFCFBC01CD
:105AD0008AE89AE0F0CF1F93CF93DF93EC01162F63
