:100000000C9460150C9491150C9491150C94911509
:100010000C9491150C9479970C946EF20C9431F029
:100020000C9405F00C9491150C9422E70C94C9EFF4
:100030000C9491150C9491150C9491150C949115A8
:100040000C9491150C9491150C9491150C94911598
:100050000C9491150C9491150C9491150C949B553E
:100060000C9491150C9407160C9491150C94911501
:100070000C9491150C9491150C9491150C94911568
:100080000C9491150C9491150C9491150C94ED5FB2
:100090000C94EBA30C9491150C9491150C94911560
:1000A0000C9491150C9491150C9491150C94911538
:1000B0000C9491150C9491150C9491150C94911528
:1000C0000C9491150C9491150C9491150C94421666
:1000D0000C9491150C9491150C947D160C9491151B
:1000E0000C949115036EDB363D9A9999993DABAA14
:1000F000AA2A3E000000803F072C7AA5BA6CC59062
:10010000DA3B9365FC8BBC53F810FD3C5692834D53
:10011000BD879D3AB63DCBC9BF5BBE73DA0FC93F01
:1001200005A84CCDB2D44EB93836A9020C50B991BD
:100130008688083CA6AAAA2ABE000000803F076362
:100140004236B79BD8A71A39685618AEBAAB558C49
:100150001D3CB7CC5763BD6DEDFD753EF617723192
:10016000BF000000803F08000000BE922449123EFC
:10017000ABAAAA2ABECDCCCC4C3E00000080BEABC0
:10018000AAAAAA3E00000000BF000000803F0000B5
:10019000000000084178D3BB4387D1133D190E3CC2
:1001A000C3BD4282AD2B3E68EC8276BED98FE1A9F9
:1001B0003E4C80EFFFBE01C4FF7F3F000000000007
:1001C0005344206572726F72436F64653A203058F1
:1001D000006572726F723A20006572726F723A2017
:1001E0000043616E27742061636365737320534419
:1001F00020636172642E20446F206E6F74207265DC
:10020000666F726D61742E004E6F20636172642C94
:100210002077726F6E6720636869702073656C6504
:1002200063742070696E2C206F72205350492070C7
:10023000726F626C656D3F00496E76616C69642017
:10024000666F726D61742C207265666F726D617479
:100250002053442E0043616E2774206F70656E201A
:10026000726F6F74206469726563746F72792E00A7
:100270004E6F206572726F7220666F756E642E000D
:100280007C3C3E5E2B3D3F2F5B5D3B2C2A225C007D
:100290000D0A0066616C7365007472756500747296
:1002A00075650066616C73650042494720464C5491
:1002B000000000090A02080B0C0D070603040100E8
:1002C000000000000000000000000000000000002E
:1002D00000000000000000000000000000100F0EF1
:1002E000000000000000000000000000000000000E
:1002F000000000000000000102102020080810206B
:1003000040102040800201020108040201010204A1
:100310000810204080804020100804020180040260
:1003200001804020100804020108040201010204B7
:1003300008102040800102040810204080050505B7
:1003400005070508080808020202020A0A0808044C
:10035000040404010101010101010103030303037A
:10036000030303040707070C0C0C0C0C0C0C0C0209
:1003700002020206060606060606060B0B0B0B0B10
:100380000B0B0B000020002300260029002C002F5F
:1003900000320000010000030106010901000022F3
:1003A00000250028002B002E00310034000201003F
:1003B00000050108010B0100002100240027002A8C
:1003C000002D003000330001010000040107010A84
:1003D00001000000000000000010101010100010BC
:1003E0000050500000000000000050F850F850008D
:1003F000002078A07028F8200000C8D0202058984D
:10040000006090A0789098E8002020000000000094
:10041000001020202020201000201010101010208C
:100420000020A87070A8200000002020F8202000E4
:10043000000000000000202000000000F800000084
:100440000000000000000020000000081020408094
:100450000070D8888888D87000E02020202020F8FC
:1004600000708808102040F80070880870088870B4
:10047000001030505090F81000F08080F00808F024
:1004800000384080F088887000F808101020202084
:10049000007088887088887000708888780810E0FC
:1004A00000000020000020000000002000002020AC
:1004B00000001860C0601800000000F800F800009C
:1004C0000000C0301830C0000070880810200020E4
:1004D000007088B8A8B88060002070D888F8888834
:1004E00000F08888F88888F00070888080808870A4
:1004F00000E09088888890E000F88080F88080F89C
:1005000000F88080F88080800070888098888870EB
:1005100000888888F8888888007020202020207033
:100520000038080808088870008890A0C0A090884B
:1005300000808080808080F80088D8F8A88888882B
:100540000088C8C8A89898880070D8888888D8700B
:1005500000F08888F08080800070D88888D8701873
:1005600000F08888F0A090880070888070088870FB
:1005700000F8202020202020008888888888887023
:1005800000888888505020200088A8A8A8A8D850A3
:10059000008850202050888800885050202020203B
:1005A00000F80810204080F8006040404040406063
:1005B00000000080402010080060202020202060E3
:1005C000003048000000000000000000000000F8BB
:1005D00000202000000000000000007008F898E8EB
:1005E000008080B0C888C8B0000000708880887023
:1005F00000080868988898680000007088F880787B
:1006000000182020F82020200000788888780870C2
:10061000008080B0C888888800200060202020707A
:10062000001000301010507000808090A0C0A0908A
:1006300000C0404040404030000000F8A8A8A8A8F2
:10064000000000B0C8888888000000708888887022
:10065000000000F088F080800000007888780808AA
:10066000000000B0C880808000000078807008F032
:10067000004040F040404030000000888888986882
:10068000000000888850502000000088A8A8F8507A
:100690000000008850205088000000885020204032
:1006A000000000F8102040F8003828380000000052
:1006B0000020202020202020002070F82020202052
:1006C000002060F868280808002030F8B0A080807A
:1006D00000000000000000000010101010100010BA
:1006E0000050500000000000000050F850F850008A
:1006F0000020F880F808F8200000C8D02020589882
:10070000006090A0789098E8002020000000000091
:100710000010202020202010002010101010102089
:10072000000020F82050000000002020F8202000C9
:10073000000000000000202000000000F800000081
:100740000000000000000020000000081020408091
:100750000000F888888888F8000030101010101009
:100760000000F808F88080F80000F808380808F859
:1007700000008888F80808080000F880F80808F8E1
:100780000000F880F88888F80000F80808080808D1
:100790000000F888F88888F80000F888F808080849
:1007A00000000020000020000000002000002020A9
:1007B0000000102040201000000000F800F80000A9
:1007C00000004020102040000000F80808380020F9
:1007D0000000F888B8A8B8000000F888F888888871
:1007E0000000F088F88888F00000F880808080F8A9
:1007F0000000F088888888F00000F880E08080F8A9
:100800000000F880E08080800000F880B88888F8D8
:1008100000008888F88888880000F820202020F8C8
:1008200000000808080888F800008890E090888890
:1008300000008080808080F8000088D8A8888888A0
:10084000000088C8A89888880000F888888888F8F8
:100850000000F088F88080800000F88888A8F820E0
:100860000000F088F89088880000F880F80808F800
:100870000000F8202020202000008888888888F840
:1008800000008888888850200000888888A8D88838
:10089000000088502020508800008888F820202000
:1008A0000000F810204080F80000604040404060A8
:1008B0000000008040201008000060202020206000
:1008C000002050000000000000000000000000F8C0
:1008D0000020200000000000000000F888F8888850
:1008E000000000F888F088F8000000F8808080F8A8
:1008F000000000F0888888F0000000F880E080F8B0
:10090000000000F880E08080000000F880B888F8DF
:100910000000008888F8888800000020202020201F
:1009200000000008080888F80000008890E090881F
:1009300000000080808080F8000000F8A8A8A8A827
:10094000000000F888888888000000F8888888F807
:10095000000000F888F88080000000F888A8F820DF
:10096000000000F888F89088000000F880F808F887
:10097000000000F82020202000000088888888F8E7
:100980000000008888885020000000A8A8A8A8F8C7
:10099000000000885020508800000088502020204F
:1009A000000000F8102040F800382838000000004F
:1009B0000020202020202020002070F8202020204F
:1009C000002060F868280808002030F8B0A0808077
:1009D00000007E0003FFC007FFE00FC3F00F00F030
:1009E0001E00781E00783C003C3C003C3C003C78FB
:1009F000001E78001E78001E78001E78001E780009
:100A00001E78001E78001E78001E78001E78001EDA
:100A100078001E3C003C3C003C3C003C1E00781E24
:100A200000780F00F00FC3F007FFE003FFC0007E67
:100A30000000000000FC000FFC003FFC003F3C00F9
:100A4000303C00003C00003C00003C00003C00004A
:100A50003C00003C00003C00003C00003C00003C2E
:100A600000003C00003C00003C00003C00003C005A
:100A7000003C00003C00003C00003C00003C00004A
:100A80003C00003C00003C001FFFF81FFFF81FFF68
:100A9000F803FC003FFF807FFFC07E07E07001F09D
:100AA0004000F00000780000780000780000780036
:100AB00000780000F80000F80001F00001F00003E9
:100AC000E00007C0000FC0001F80003F00007E0054
:100AD00000FC0001F80003F00007E0000FC0001F59
:100AE00080003F00007E00007FFFF87FFFF87FFF5F
:100AF000F807FE003FFF803FFFE03C03F02001F0DD
:100B00000000F8000078000078000078000078000D
:100B100000F00000F00003E003FFC003FF0003FF4C
:100B2000C00003F00000F800007800007C00003CEA
:100B300000003C00003C00003C00003C00007C4009
:100B400000786000F87C07F07FFFE03FFF8007FC43
:100B500000000000000FC0000FC0001FC0003FC019
:100B6000003BC0007BC000F3C000E3C001E3C00352
:100B7000C3C00383C00783C00F03C00E03C01E039E
:100B8000C03C03C03803C07803C0F003C0F003C00A
:100B9000FFFFFCFFFFFCFFFFFC0003C00003C000E1
:100BA00003C00003C00003C00003C00003C0000373
:100BB000C00000003FFFE03FFFE03FFFE03C0000DF
:100BC0003C00003C00003C00003C00003C00003CBD
:100BD00000003FFC003FFF003FFFC0380FE0200354
:100BE000E00001F00000F0000078000078000078DC
:100BF0000000780000780000780000780000F00025
:100C000001F04003E0780FE07FFFC07FFF001FF896
:100C100000003FE000FFF803FFF807E0380F80080E
:100C20000F00001E00001E00003C00003C00003CC5
:100C30000000787F0079FFC07BFFF07FC1F87F0064
:100C40007C7E003C7E003C7C001E7C001E7C001EE6
:100C50007C001E3C001E3C001E3C001E1E003C1E74
:100C6000003C0F00780FC1F807FFF001FFC0007FC4
:100C7000000000007FFFF87FFFF87FFFF80000F022
:100C80000000F00001F00001E00003E00003C000FC
:100C900003C00007C0000780000F80000F00000F96
:100CA00000001E00001E00003E00003C00003C0052
:100CB00000780000780000F80000F00000F000016B
:100CC000E00001E00003E00003C00003C000078073
:100CD0000000FF0003FFE00FFFF01F81F81E007807
:100CE0003E007C3C003C3C003C3C003C3C003C1E4C
:100CF00000781E00780F81F007FFE001FF8007FFFA
:100D0000E01F81F81E00783C003C7C003E78001E0D
:100D100078001E78001E78001E78001E7C003E3C85
:100D2000003C3E007C1F81F80FFFF007FFE000FF52
:100D30000000FE0003FF800FFFE01F83F01E00F0A5
:100D40003C00783C007878003C78003C78003C78A7
:100D5000003E78003E78003E78003E3C007E3C003D
:100D60007E3E00FE1F83FE0FFFDE03FF9E00FE1E81
:100D700000003C00003C00003C00007800007800CF
:100D800000F01001F01C07E01FFFC01FFF0007FC70
:100D900000000000000000000010101010100010F3
:100DA0000050500000000000005050F850F8505023
:100DB000002078A07028F02000C0C81020409818AB
:100DC000006090A040A890680060204000000000F3
:100DD0000010204040402010004020101010204003
:100DE000000020A870A8200000002020F82020008B
:100DF000000000000060204000000000F80000003B
:100E0000000000000000606000000008102040802A
:100E100000708898A8C8887000206020202020706A
:100E200000708808102040F800F8102070088870C2
:100E30000010305090F8101000F880F0080888700A
:100E400000304080F088887000F808102040404052
:100E500000708888708888700070888878081060B2
:100E60000000606000606000000060600060204082
:100E70000010204080402010000000F800F8000022
:100E80000080402010204080007088081020002042
:100E9000007088B8A8B880700070888888F8888842
:100EA00000F08888F08888F00070888080808870E2
:100EB00000E09088888890E000F88080F08080F8DA
:100EC00000F88080F080808000708880B888887802
:100ED00000888888F888888800702020202020706A
:100EE0000038101010109060008890A0C0A090886A
:100EF00000808080808080F80088D8A8A8888888B2
:100F0000008888C8A8988888007088888888887031
:100F100000F08888F08080800070888888A89068B9
:100F200000F08888F0A0908800788080700808F031
:100F300000F8202020202020008888888888887059
:100F4000008888888888502000888888A8A8A850A9
:100F50000088885020508888008888885020202069
:100F600000F80810204080F8007040404040407079
:100F70000000008040201008007010101010107049
:100F8000002050880000000000000000000000F871
:100F90000030201000000000000000700878887801
:100FA000008080B0C88888F0000000708080887061
:100FB00000080868988888780000007088F88070B9
:100FC00000304840F04040400000007088F8087051
:100FD000008080B0C88888880020006020202070B1
:100FE000001000301010906000808090A0C0A09091
:100FF0000060202020202070000000D0A8A8888851
:10100000000000B0C8888888000000708888887058
:10101000000000F088F080800000006898780808E0
:10102000000000B0C880808000000070807008F070
:101030000040E040404048300000008888889868C0
:1010400000000088888850200000008888A8A850E8
:1010500000000088502050880000008888780870C0
:10106000000000F8102040F80010281000000000D8
:101070000020202020202020002070F82020202088
:10108000002060F868280808002030F8B0A08080B0
:101090000052756E6E696E672055706461746500EC
:1010A0006F6E2041543332385000566172206368AD
:1010B00065636B206661696C656400436865636B9A
:1010C000696E67205661723A2050617373656400DF
:1010D000416B746F72656E20696E6974202E2E2EBE
:1010E00020446F6E6500436865636B696E672063BB
:1010F0006F6E6E656374696F6E004641494C45447E
:1011000000545259494E4720313932303020424143
:101110005544004F4B0042415349432053455455D9
:1011200050004F4B005245545259494E47004368B6
:1011300065636B696E6720636F6E6E656374696F5C
:101140006E004F4B004641494C45440044414D4ED2
:10115000004F4B0041637469766174696E67207259
:101160006573706F6E736573004F4B0053657474D5
:10117000696E672050494E20436F6465004F4B00F5
:10118000446561637469766174696E672072657322
:10119000706F6E7365004F4B006661696C65642CFF
:1011A00020686D6D6D00426C696E6B657220696EB2
:1011B000697420646F6E6500426C696E6B657220A5
:1011C0006661696C656400436C6F636B20696E696E
:1011D0007420646F6E6500204279746520686561D3
:1011E000702066726565006F70656E20737562644D
:1011F0006972202F636F6E666967206661696C652E
:101200006400235468697320697320616E206175DE
:10121000746F2D67656E6572617465642066696CB4
:10122000652066726F6D20284D6F6E4461792920AC
:10123000006F70656E20737562646972202F636F32
:101240006E666967206661696C656400235468692D
:101250007320697320616E206175746F2D67656EF0
:101260006572617465642066696C652066726F6D75
:1012700020284D6F6E4461792920006F70656E20C3
:10128000737562646972202F636F6E66696720668A
:1012900061696C6564006F70656E20737562646966
:1012A00072202F636F6E666967206661696C656482
:1012B00000235468697320697320616E206175741E
:1012C0006F2D67656E6572617465642066696C6513
:1012D0002066726F6D20284D6F6E44617929200061
:1012E000737461727475703D00626C696E6B6572C7
:1012F0003D00626C696E6B65725F686967683D008E
:101300006675656C5F626C696E6B5F737461727435
:101310003D006675656C5F626C696E6B5F667265D9
:10132000713D0072656966656E5F756D66616E67B9
:101330003D006770735F74616B656F7665723D0029
:10134000726566726573685F63796C653D006163A1
:10135000746976655F6E6176695F66696C653D008C
:101360006D6F64655F747269703D0073746F726154
:1013700067655F747269703D00736B696E5F666963
:101380006C653D006F696C5F646973743D00647ADD
:101390005F666C6173683D00647A5F666C61736858
:1013A0005F656E3D00647A5F6D696E3D00647A5FD3
:1013B0006D61783D006F696C5F6D696E3D006F69AE
:1013C0006C5F6D61783D0077617465725F6D696E09
:1013D0003D0077617465725F6D61783D006B6D688B
:1013E0005F6D696E3D006B6D685F6D61783D007289
:1013F00067625F6F75745F7374617469635F723D78
:10140000007267625F6F75745F7374617469635FA4
:10141000673D007267625F6F75745F7374617469B2
:10142000635F623D007267625F6F75745F647A5FCD
:1014300073746172745F723D007267625F6F75747E
:101440005F647A5F73746172745F673D0072676294
:101450005F6F75745F647A5F73746172745F623D0D
:10146000007267625F6F75745F647A5F656E645F58
:10147000723D007267625F6F75745F647A5F656E5C
:10148000645F673D007267625F6F75745F647A5F67
:10149000656E645F623D007267625F6F75745F6B5B
:1014A0006D685F73746172745F723D007267625F32
:1014B0006F75745F6B6D685F73746172745F673DA5
:1014C000007267625F6F75745F6B6D685F737461E4
:1014D00072745F623D007267625F6F75745F6B6DFF
:1014E000685F656E645F723D007267625F6F7574FE
:1014F0005F6B6D685F656E645F673D007267625F1A
:101500006F75745F6B6D685F656E645F623D0072DE
:1015100067625F6F75745F6F696C5F73746172741B
:101520005F723D007267625F6F75745F6F696C5FB9
:1015300073746172745F673D007267625F6F757488
:101540005F6F696C5F73746172745F623D00726794
:10155000625F6F75745F6F696C5F656E645F723D2B
:10156000007267625F6F75745F6F696C5F656E6450
:101570005F673D007267625F6F75745F6F696C5F74
:10158000656E645F623D007267625F6F75745F775E
:10159000617465725F73746172745F723D0072672B
:1015A000625F6F75745F77617465725F7374617287
:1015B000745F673D007267625F6F75745F77617417
:1015C00065725F73746172745F623D007267625F1F
:1015D0006F75745F77617465725F656E645F723D8D
:1015E000007267625F6F75745F77617465725F65C3
:1015F0006E645F673D007267625F6F75745F7761ED
:101600007465725F656E645F623D006C65645F6DFA
:101610006F64653D007267625F666C6173685F72DC
:101620003D007267625F666C6173685F673D007260
:1016300067625F666C6173685F623D0077617465C5
:10164000725F7761726E696E673D006F696C5F777C
:1016500061726E696E673D0062745F70696E3D0015
:1016600052656164696E673A2000202E2E2E20009C
:101670006F70656E20737562646972202F636F6E80
:10168000666967206661696C6564004D616C6C6FAA
:1016900063206661696C656400446F6E650021219A
:1016A0002046696C65206F70656E206661696C65A7
:1016B000642021210021212046696C65206F70651E
:1016C0006E206661696C6564202121004D616C6C3F
:1016D0006F63206661696C65640073746172747510
:1016E00070006163746976655F6E6176695F6669D3
:1016F0006C6500736B696E5F66696C65006F696C21
:101700005F6469737400626C696E6B657200626C11
:10171000696E6B65725F68696768006675656C5FA6
:10172000626C696E6B5F7374617274006675656C70
:101730005F626C696E6B5F66726571007265696687
:10174000656E5F756D66616E67006770735F74616B
:101750006B656F76657200726566726573685F634C
:10176000796C65006D6F64655F7472697000737485
:101770006F726167655F74726970006F696C5F7723
:1017800069646765742E78006F696C5F7769646758
:1017900065742E79006F696C5F7769646765742E74
:1017A00073796D626F6C006F696C5F7769646765F0
:1017B000742E666F6E740077617465725F7769640A
:1017C0006765742E780077617465725F7769646706
:1017D00065742E790077617465725F7769646765F7
:1017E000742E73796D626F6C0077617465725F77C8
:1017F00069646765742E666F6E74006169725F77E5
:1018000069646765742E78006169725F77696467DF
:1018100065742E79006169725F7769646765742EFB
:1018200073796D626F6C006169725F776964676577
:10183000742E666F6E74006B6D685F7769646765A0
:10184000742E78006B6D685F7769646765742E79B4
:10185000006B6D685F7769646765742E666F6E7480
:10186000006B6D68636861725F7769646765742E89
:1018700078006B6D68636861725F7769646765742F
:101880002E79006B6D68636861725F776964676564
:10189000742E666F6E74006172726F775F77696421
:1018A0006765742E78006172726F775F776964671D
:1018B00065742E7900647A5F7769646765742E7841
:1018C00000647A5F7769646765742E7900647A5F73
:1018D0007769646765742E666F6E74006770735FF6
:1018E0007769646765742E78006770735F776964E1
:1018F0006765742E79006770735F776964676574D4
:101900002E666F6E7400616464696E666F5F7769DE
:10191000646765742E7800616464696E666F5F77D2
:1019200069646765742E7900616464696E666F5FCF
:101930007769646765742E666F6E740061646469AC
:101940006E666F325F7769646765742E78006164D4
:1019500064696E666F325F7769646765742E7900BB
:10196000616464696E666F325F7769646765742E5F
:10197000666F6E7400636C6F636B5F776964676535
:10198000742E7800636C6F636B5F7769646765744E
:101990002E7900636C6F636B5F7769646765742E83
:1019A00073796D626F6C00636C6F636B5F776964F2
:1019B0006765742E666F6E7400676561725F776924
:1019C000646765742E7800676561725F7769646724
:1019D00065742E7900676561725F77696467657405
:1019E0002E666F6E74006675656C5F7769646765F7
:1019F000742E78006675656C5F7769646765742E10
:101A000079006675656C5F7769646765742E7379B4
:101A10006D626F6C006675656C5F7769646765748D
:101A20002E666F6E740064656661756C745F666FB8
:101A30006E7400647A5F666C61736800647A5F66D6
:101A40006C6173685F656E0077617465725F776162
:101A5000726E696E67006F696C5F7761726E696E36
:101A60006700647A5F6D696E00647A5F6D6178000B
:101A70006F696C5F6D696E006F696C5F6D61780096
:101A800077617465725F6D696E0077617465725F0E
:101A90006D6178006B6D685F6D696E006B6D685F7E
:101AA0006D6178007267625F666C6173685F720077
:101AB0007267625F666C6173685F67007267625F1E
:101AC000666C6173685F62007267625F6F75745FF6
:101AD0007374617469635F72007267625F6F7574BB
:101AE0005F7374617469635F67007267625F6F75CB
:101AF000745F7374617469635F62007267625F6FC1
:101B000075745F6F696C5F73746172745F72007279
:101B100067625F6F75745F6F696C5F737461727415
:101B20005F67007267625F6F75745F6F696C5F7388
:101B3000746172745F62007267625F6F75745F6F69
:101B4000696C5F656E645F72007267625F6F757467
:101B50005F6F696C5F656E645F67007267625F6F7D
:101B600075745F6F696C5F656E645F620072676257
:101B70005F6F75745F77617465725F73746172749F
:101B80005F72007267625F6F75745F776174657210
:101B90005F73746172745F67007267625F6F757400
:101BA0005F77617465725F73746172745F620072F3
:101BB00067625F6F75745F77617465725F656E648D
:101BC0005F72007267625F6F75745F7761746572D0
:101BD0005F656E645F67007267625F6F75745F77E1
:101BE000617465725F656E645F62007267625F6FE9
:101BF00075745F6B6D685F73746172745F7200728D
:101C000067625F6F75745F6B6D685F737461727428
:101C10005F67007267625F6F75745F6B6D685F739B
:101C2000746172745F62007267625F6F75745F6B7C
:101C30006D685F656E645F72007267625F6F757476
:101C40005F6B6D685F656E645F67007267625F6F90
:101C500075745F6B6D685F656E645F62007267626A
:101C60005F6F75745F647A5F73746172745F720022
:101C70007267625F6F75745F647A5F7374617274A8
:101C80005F67007267625F6F75745F647A5F737419
:101C90006172745F62007267625F6F75745F647A0D
:101CA0005F656E645F72007267625F6F75745F6418
:101CB0007A5F656E645F67007267625F6F75745FFD
:101CC000647A5F656E645F62006C65645F6D6F640B
:101CD000650062745F70696E004C61646520454503
:101CE00050524F4D2E2E2E2000446F6E65004D61D8
:101CF0006C6C6F63206661696C65640066616C730F
:101D000063686520616E7A61686C20616E206B6F1C
:101D10006D6D61746100446973706C617920696EE6
:101D20006974202E2E2E20002121205741524E4929
:101D30004E47202121005344206163636573732063
:101D40006661696C656400636865636B20746865CF
:101D5000204361726421002121205741524E494E97
:101D60004720212100446F6E6500445A2066616956
:101D70006C6564006675656C206661696C656400FD
:101D800067656172206661696C65640047656172B0
:101D9000004F6C642056616C75653A00446F6E7438
:101DA0002073686966742121204472697665006633
:101DB000617374657220616E6420736C6F776572F5
:101DC000007E2063616E63656C202020202020202F
:101DD00020736176650056616C75653A0047505313
:101DE00020696E697420646F6E65004D616C6C6F64
:101DF00063206661696C6564006F70656E20737541
:101E000062646972202F636F6E666967206661691C
:101E10006C6564004D616C6C6F63206661696C6514
:101E200064003D3D3D2053706565646F696E6F20B1
:101E30003D3D3D0076302E352D312D6762363466BE
:101E4000626130002048573A003D3D3D20536574A3
:101E500075702066696E6973686564203D3D3D005C
:101E60004D616C6C6F63206661696C656420330042
:101E70008D239A23AA23BC23C123D223DF23EE235D
:101E8000FE230B241D242C24382448244D245224C2
:101E900057245C245570203D206163746976650089
:101EA0004E617669676174696F6E00446F776E206A
:101EB0003D20696E616374697665004E61766920C4
:101EC000547261636B20506F696E746572004E6F5F
:101ED000206669727374206C696E6520636F6D6D26
:101EE000656E740046696C65206E6F7420666F7550
:101EF0006E6400506F696E747320777269747465D4
:101F00006E006124722483248E2499249E24AF249D
:101F1000C124CA244750535F74696D65004750530C
:101F20005F64617465004750535F6C6F6E67004774
:101F300050535F6C617469004750535F616C746902
:101F4000004750535F7370656564004750535F737B
:101F500061747300436F756E7465720041646469E7
:101F600074696F6E616C20696E666F0041646469AC
:101F700074696F6E616C20696E666F0057414954D9
:101F80002033302073656300666F7220726573655D
:101F9000740053706565646F696E6F00474E55201D
:101FA0002D204C6963656E73656400485720766523
:101FB0007273696F6E3A0076302E352D312D67625F
:101FC00036346662613000636F6E74616374206DD5
:101FD00065206174004B4B6F6F6C6C6A6A61614085
:101FE000676D61696C2E636F6D00546574726973FF
:101FF00000696E2074726962757420746F00416CA0
:102000006578656A2050616473636869746E6F7780
:10201000004C2051756974005220676F20666F7202
:1020200020697400D424E124F22401251125162509
:102030001B2529252E254D616C6C6F632066616917
:102040006C65642031004E6F206669727374206C79
:10205000696E6520636F6D6D656E740046696C65B1
:10206000206E6F7420666F756E64005072657669BD
:102070006577005361766564005361766520746FFF
:102080002053442063617264004F4B0033253F2589
:10209000472554256125742586259825A625B42530
:1020A000BA25C725CB25D025DB25E025E625ED255E
:1020B000445A20466C6173686572005570203D205B
:1020C00061637469766500446F776E203D20696EA8
:1020D00061637469766500746F2061646A757374F6
:1020E000206C6576656C0053656C6563742074685C
:1020F000652052504D00666F722053686966746C9B
:102100006967687400746F2061646A757374206312
:102110006F6C6F72006163746976650061637469E6
:10212000766500696E6163746976650053686966F7
:10213000742D4C696768740000F325032612261F6E
:1021400026312645264A264F265426537461746943
:102150006320636F6C6F7200005370656564006B81
:102160006D680052504D2A3130300052504D004FB2
:10217000696C00544D5000576174657200544D50A5
:10218000005361766520746F20534420636172644C
:10219000004F4B004368616E6765204254205049F0
:1021A0004E006C65617665206D656E7520746F20DC
:1021B0007361766500592668267826892699269EB9
:1021C00026B026C426D62643616C696272617465A6
:1021D0002047656172004368616E676520476561ED
:1021E000722075702F646F776E00214B65657020CB
:1021F00064726976696E6721002020636F6E74696E
:102200006E75650053617665640073617665640080
:1022100043686F6F73652070686173650043686F12
:102220006F736520726566205600546865206D6581
:102230006D6F727900686173206265656E207265EA
:10224000736574005570203D206163746976650084
:1022500042542D526573657400446F776E203D20A3
:10226000696E61637469766500706F77657200539B
:10227000617665640053657475702077617465726A
:102280000074656D70657261747572650077617256
:102290006E696E67206C6576656C00536176656467
:1022A000005365747570206F696C0074656D70659E
:1022B000726174757265007761726E696E67206C09
:1022C0006576656C004164646564206675656C20A4
:1022D000616D6F756E743A00416C6C204675656C6B
:1022E0000073746F726561676573207265736574DE
:1022F00065640058206E6F202020202020202020A0
:10230000202020796573205800DB26E926EA26EB99
:1023100026FA26FB260B271927232730274D616C29
:102320006C6F63206661696C65642032005361766E
:10233000656400215344204552524F5221004D699B
:102340006E696D616C2076616C756573004D6178A6
:10235000696D616C2076616C7565730052656420EF
:10236000477265656E20426C756500526564204752
:102370007265656E20426C75650052656420202090
:10238000477265656E202020426C756500312E20F5
:1023900053706565646F696E6F00322E20537072E2
:1023A000696E7420636C6F636B00332E20546F75FD
:1023B000722D417373697374656E7400342E202D11
:1023C00000352E20457874656E64656420696E66FC
:1023D0006F00362E20437573746F6D697A65003710
:1023E0002E20426173696320536574757000382E26
:1023F000205472697020417667204D617800392E33
:102400002052656675656C696E6700312E205368D1
:102410006F7720696E2053706565646F00322E20DF
:1024200053657420706F696E74657200332E20538B
:1024300065742066696C6500342E20436865636BA3
:102440002077726974657300352E202D00362E209A
:102450002D00372E202D00382E202D00392E202D36
:1024600000312E2047505320696E666F7320312F44
:102470003200322E2047505320696E666F7320322F
:102480002F3200332E2053656E736F727300342E1B
:10249000205374657070657200352E202D00362E25
:1024A0002054657374205761746368646F670037E4
:1024B0002E2053686F7720416E696D6174696F6E6D
:1024C00000382E2041626F757400392E20546574D7
:1024D00072697300312E204C6F616420536B696EFA
:1024E00000322E2041646420696E666F206172653F
:1024F0006100332E2053686966742D4C69676874D7
:1025000000342E2053706565646F2D436F6C6F72BD
:1025100000352E202D00362E202D00372E2053651D
:10252000742042542050494E00382E202D00392E60
:10253000202D00312E2044697374616E6365003272
:102540002E2054696D6500332E204176672053702C
:1025500065656400342E204D617820537065656494
:1025600000352E2044697374616E63652026205403
:10257000696D6500362E2044697374616E63652051
:10258000262041766700372E2044697374616E639C
:10259000652026204D617800382E2054696D652015
:1025A000262041766700392E2054696D652026204B
:1025B0004D617800546F74616C004E6F6E5065729F
:1025C0006D616E656E740044617900546F757200C0
:1025D000436861696E2F54697265004675656C00C9
:1025E0004F696C657200536169736F6E00426F6171
:1025F000726400312E2053746174696320636F6CC0
:102600006F7200322E2053706565642062617365BD
:102610006400332E2052504D206261736564003493
:102620002E204F696C2074656D7020626173656443
:1026300000352E2057617465722074656D702062BC
:102640006173656400362E202D00372E202D003852
:102650002E202D00392E202D00312E20476561724D
:102660002063616C69622E00322E205370656564B0
:102670002063616C69622E00332E20446973706C94
:10268000617920736574757000342E20526573650E
:1026900074206D656D6F727900352E202D00362EF9
:1026A0002042542052657365742073746174650010
:1026B000372E2057617465722074656D70207761C4
:1026C000726E2E00382E204F696C2074656D70205C
:1026D0007761726E2E00392E202D003D204D6169EC
:1026E0006E206D656E75203D0000003D204E6176C8
:1026F00069676174696F6E203D00003D20496E6618
:102700006F726D6174696F6E203D003D204375737B
:10271000746F6D697A65203D003D20536574757056
:10272000203D003D2053746F72616765203D20009D
:10273000004F696C657220696E697420646F6E6504
:10274000006F696C6572206661696C656400526532
:1027500073657420696E697420646F6E652E2053F2
:10276000746174757320006572726F723A20005341
:1027700044206572726F723A20002C0053656E73AC
:102780006F727320696E697420646F6E65005365A3
:102790006E736F72732076616C75657320636C6500
:1027A00061720021212121205741524E494E47207C
:1027B00021212121005344206163636573732073D9
:1027C0007472616E67650021212121205741524EAC
:1027D000494E47202121212100206661696C7572D4
:1027E00065730053656E736F722073696E676C65F5
:1027F0002072656164202E2E2E200052656164696E
:102800006E673A20636C6F636B202E2E2E2000447F
:102810006F6E650D0A52656164696E673A204750B4
:1028200053202E2E2E2000446F6E650D0A526561D6
:1028300064696E673A204169722074656D70202E5C
:102840002E2E2000446F6E650D0A52656164696E1C
:10285000673A204F696C2074656D70202E2E2E20F3
:1028600000446F6E650D0A52656164696E673A20B7
:1028700057617465722074656D70202E2E2E2000B5
:10288000446F6E650D0A52656164696E673A205641
:102890006F6C7461676573202E2E2E200020446FAC
:1028A0006E650D0A52656164696E673A20436F6E0A
:1028B00074726F6C206C6967687473202E2E2E20E2
:1028C0000020446F6E650D0A53656E736F7220733E
:1028D000696E676C652072656164202E2E2E20441F
:1028E0006F6E6500566F6C7461676520005370658C
:1028F000656420696E697420646F6E65007370652D
:1029000065646F206661696C6564004E6F20475096
:10291000532100537065656420757021006B6D2F25
:1029200068004D6F746F72206E6F6368206B616C0E
:1029300074006F696C2074656D70207761726E69C8
:102940006E670077617465722074656D70207761C1
:10295000726E696E6700426C696E6B657220766597
:102960007267657373656E00566F6C74616765207E
:1029700062656C6F7720313156004E6F204750539F
:10298000004F696C2072656164206661696C6564E2
:102990000057617465722072656164206661696CBC
:1029A000656400526565642073656E736F7220659F
:1029B00072726F72005344206163636573732066A3
:1029C00061696C65640020202020202020202020C8
:1029D000202020202020202020202020005370654F
:1029E00065646F2076616C75657320636C656172D8
:1029F000004D616C6C6F63206661696C65640050AA
:102A00004F533A0044454C41593A005354415445C0
:102A10003A0074656D70206661696C656400596F79
:102A200075206C6F6F7365004C205175697400528E
:102A30002052657472790053706565646F696E6FBA
:102A400000676F65732000546574726973004E658A
:102A50007874004C6576656C3A20004C696E65733D
:102A60003A20005344207265626F6F74207375635F
:102A70006365737366756C2C207265626F6F746921
:102A80006E672073706565646F21004279654279D5
:102A9000652000566F6C7461676520696E697420EB
:102AA000646F6E6500000D944D1E0D94FE1C0D9418
:102AB000601C0D94531C0D94591C57155315551536
:102AC00011241FBECFEFD1E2DEBFCDBF00E00CBFAF
:102AD0001BE0A0E0B2E0EEE2F1E502E00BBF02C0D5
:102AE00007900D92A832B107D9F71FE0A8E2BBE02A
:102AF00001C01D92AF3CB107E1F71AE2CEEBDAE27A
:102B000000E006C022970109FE010BBF0F94822846
:102B1000CA3BD10780E00807A9F70F94791D0D94EF
:102B200005200C940000FC0122813381F901E0585A
:102B3000FF4F8081918180589F4FF901EE57FF4FE1
:102B400020813181821B930B60E870E00D94322864
:102B5000FC0182819381FC01EE57FF4F208131817E
:102B6000FC01E058FF4F408151814217530731F07B
:102B7000FC01E20FF31F208130E002C02FEF3FEF96
:102B8000C9010895FC0122813381F901EE57FF4FFD
:102B900080819181D901A058BF4F4D915C91481718
:102BA000590769F0D901A80FB91F2C91019660E867
:102BB00070E00F9432289183808330E002C02FEFC1
:102BC0003FEFC9010895FC0182819381FC01E05827
:102BD000FF4FDC01AE57BF4F8D919C919183808355
:102BE0000895FC01A085B18521E030E0018802C094
:102BF000220F331F0A94E2F78C9190E082239323F3
:102C0000892BD1F30484F585E02D608308951F920C
:102C10000F920FB60F9211242F933F934F935F9310
:102C20006F937F938F939F93AF93BF93EF93E091B5
:102C3000C60020916D0D30916E0DC901019660E8BE
:102C400070E00F94322840916F0D5091700D8417F1
:102C5000950741F0D901A351B34FEC9390936E0DBA
:102C600080936D0DEF91BF91AF919F918F917F9167
:102C70006F915F914F913F912F910F900FBE0F90E9
:102C80001F9018951F920F920FB60F9211242F9339
:102C90003F934F935F936F937F938F939F93AF93E4
:102CA000BF93EF93E091D6002091650C3091660CB4
:102CB000C901019660E870E00F9432284091670CDA
:102CC0005091680C8417950741F0D901AB51B44F6E
:102CD000EC939093660C8093650CEF91BF91AF914C
:102CE0009F918F917F916F915F914F913F912F9124
:102CF0000F900FBE0F901F9018951F920F920FB656
:102D00000F9211242F933F934F935F936F937F9371
:102D10008F939F93AF93BF93EF93E09136012091F0
:102D2000E10B3091E20BC901019660E870E00F946D
:102D300032284091E30B5091E40B8417950741F042
:102D4000D901AF59B44FEC939093E20B8093E10B10
:102D5000EF91BF91AF919F918F917F916F915F9113
:102D60004F913F912F910F900FBE0F901F9018958C
:102D70008F92AF92CF92DF92EF92FF920F931F93B9
:102D8000CF93DF93CDB7DEB7FC018DEE92E0918358
:102D900080837383628355834483378326831187BB
:102DA0000087F386E286D586C486A68687868E85CA
:102DB000808B8F85818B8889828BDF91CF911F914A
:102DC0000F91FF90EF90DF90CF90AF908F9008958C
:102DD0007F928F929F92AF92BF92CF92DF92EF92AB
:102DE000FF920F931F93CF93DF93EC014A015B0196
:102DF000413482E05807610571050CF06EC060E84F
:102E000074E88EE190E0A50194010F9445286901D2
:102E10007A0181E0C81AD108E108F108F694E79434
:102E2000D794C794A70196012F5F3F4F4F4F5F4F35
:102E3000E4E0220F331F441F551FEA95D1F760E0ED
:102E400074E284EF90E00F9445280FEF10E0AFEFAD
:102E5000B0E00F94F927A50194010F944528021BB7
:102E6000130B722E1016110614F4709401C0739493
:102E700060E079E08DE390E0A50194010F9445288E
:102E800021503109410951095695479537952795A4
:102E90002F5F3F4F4F4F5F4F63E0220F331F441FA1
:102EA000551F6A95D1F760E074E284EF90E00F94CB
:102EB00045280FEF10E0AFEFB0E00F94F927A50120
:102EC00094010F944528021B130B1016110614F4DD
:102ED000209501C02F5F2715E8F4E885F98581E08A
:102EE00090E00A8802C0880F991F0A94E2F7808355
:102EF00060E079E08DE390E0A50194010F9445280E
:102F00002150310941095109569547953795279523
:102F1000C90104C0E885F9851082C601EC81FD81F4
:102F20009083EE81FF818083EA85FB85408181E08B
:102F300090E09C010E8402C0220F331F0A94E2F736
:102F4000422B4083EA85FB8540819C010F8402C0AF
:102F5000220F331F0A94E2F7422B4083EA85FB8558
:102F60002081088802C0880F991F0A94E2F7282B55
:102F70002083DF91CF911F910F91FF90EF90DF9011
:102F8000CF90BF90AF909F908F907F900895FC015D
:102F9000A285B3854C9181E090E09C01068402C03B
:102FA000220F331F0A94E2F7209524232C93A28545
:102FB000B3854C919C01078402C0220F331F0A94F1
:102FC000E2F7209524232C93A285B3852C910088C9
:102FD00002C0880F991F0A94E2F7809582238C9390
:102FE00008950895589A599AE9EBF0E080818E7F10
:102FF000808380818D7F808388E48093B80084E41F
:103000008093BC0008951092BC0008957093940DB5
:103010006093930D0895611102C088E401C08CE0B3
:103020008093B8000895662319F0589A599A089524
:103030005898599808958091970D08953091970D5B
:103040002091950D231B2093960D311104C01092F1
:10305000960D80E0089531503093970DFC01E20FFA
:10306000F11D82810895CF92DF92EF92FF920F932C
:103070001F930E94E5556B017C0184EA8093BC009C
:103080001BC00097E9F00E94E5556C197D098E0977
:103090009F094091930D5091940D8A0120E030E0FA
:1030A000601771078207930738F01092BC0084E420
:1030B0008093BC0081E028C08091930D9091940D85
:1030C0002091BC0027FFDDCF8091B900887F883038
:1030D00099F08091B900887F803181F40DC0809192
:1030E000B900887F1092BC0094E49093BC000CC09F
:1030F0008091B900887F08C080E006C08091B90047
:10310000887F8833A9F7EBCF1F910F91FF90EF9045
:10311000DF90CF900895CF92DF92EF92FF920F93BE
:103120001F93CF93C62F0E94E5556B017C01CC23E2
:1031300011F084EC01C084E88093BC001BC00097B0
:10314000E9F00E94E5556C197D098E099F094091AF
:10315000930D5091940D8A0120E030E060177107C3
:103160008207930738F01092BC0084E48093BC007F
:1031700081E019C08091930D9091940D2091BC0035
:1031800027FFDDCF8091B900887F883349F4809193
:10319000B900887F1092BC0094E49093BC0003C0F7
:1031A0008091B900887FCF911F910F91FF90EF9090
:1031B000DF90CF900895CF92DF92EF92FF920F931E
:1031C0001F930E94E5556B017C0184E98093BC004C
:1031D0001BC00097E9F00E94E5556C197D098E0926
:1031E0009F094091930D5091940D8A0120E030E0A9
:1031F000601771078207930738F01092BC0084E4CF
:103200008093BC0081E009C08091930D9091940D52
:103210002091BC0024FDDDCF80E01F910F91FF9035
:10322000EF90DF90CF900895CF92DF92EF92FF92D0
:103230000F931F93CF93DF93EC016093BB000E9429
:10324000E5556B017C0184E88093BC001AC00097AF
:10325000E1F00E94E5556C197D098E099F090091E6
:10326000930D1091940D20E030E0601771078207F4
:10327000930738F01092BC0084E48093BC0011E006
:103280001FC08091930D9091940D2091BC0027FF59
:10329000DECF8091B900887F883289F01091B90023
:1032A000187F8091B900887F803319F4CE0183DFC5
:1032B00007C01092BC0084E48093BC0001C010E001
:1032C000812FDF91CF911F910F91FF90EF90DF90B1
:1032D000CF900895CF92DF92EF92FF920F931F93BA
:1032E000CF93DF93EC016093BB000E94E5556B0127
:1032F0007C0184E88093BC001AC00097E1F00E9432
:10330000E5556C197D098E099F090091930D109167
:10331000940D20E030E0601771078207930738F0C2
:103320001092BC0084E48093BC0011E02BC080911B
:10333000930D9091940D2091BC0027FFDECF8091DA
:10334000B900887F883161F08091B900887F80342E
:1033500049F406C08091B900887F883471F40AC0AE
:1033600010E010C01091B900187F8091B900887FDB
:10337000803281F7CE011FDF05C01092BC0084E4CB
:103380008093BC00812FDF91CF911F910F91FF900F
:10339000EF90DF90CF900895DF92EF92FF920F931E
:1033A0001F93CF93DF93EC01F62EE42ED22E1092D2
:1033B000970D1092960D211102C0DD24D3948D2D0E
:1033C000815089831882CE014EDE888381115AC0D4
:1033D000FF0C6F2DCE017EDF8883882329F081309A
:1033E00009F050C082E04EC06E2DCE011DDF8883F3
:1033F000882329F0813009F045C083E043C0CE0125
:1034000032DE8883882329F0813009F03BC084E0D4
:1034100039C06F2D6F5FCE015DDF8883811103C0DE
:10342000780110E004C0813069F585E02BC0898106
:10343000181317C060E0CE016EDE8883813011F46E
:1034400086E020C08835F1F48091BB00F7018193BC
:103450007F011F5F1093970D1093950D1D11E7CFFE
:1034600009C061E0CE0157DE8883813049F38035A1
:1034700059F308C0CE019FDE8883882319F081307C
:1034800009F487E0DF91CF911F910F91FF90EF90AA
:10349000DF900895AF92BF92DF92EF92FF920F9369
:1034A0001F93CF93DF931F92CDB7DEB75C01E42E5D
:1034B000D22EF32E1092970D1092960D411102C04C
:1034C000EE24E3948E2D8150F50181831082C50195
:1034D0006983C9DDF5018083698181113FC0660F71
:1034E0006F5FC501F7DEF5018083811104C00D2DEA
:1034F0001F2DF12C04C0813089F585E02FC0F50126
:103500008181F81218C060E0C50105DEF5018083F5
:10351000813011F486E022C0883501F58091BB002E
:10352000F80181938F01F394F092970DF092950D2D
:10353000FE10E5CF0AC061E0C501EDDDF501808335
:10354000813041F3803551F309C0C50134DEF50106
:103550008083882319F0813009F487E00F90DF9190
:10356000CF911F910F91FF90EF90DF90BF90AF90A0
:103570000895EF92FF920F931F93CF93DF93EC0187
:10358000162F042FF22E1092970D1092960D2111E6
:1035900002C0FF24F3948F2D815089831882CE01BD
:1035A00062DD888381115DC0110F612FCE0192DE33
:1035B0008883882329F0813009F053C082E051C00C
:1035C000602FCE0131DE8883882329F0813009F015
:1035D00048C083E046C0CE0146DD8883882329F0B9
:1035E000813009F03EC084E03CC0612F6F5FCE01A6
:1035F00071DE8883882341F1813099F585E031C0FF
:103600008981E81218C060E0CE0185DD88838130B1
:1036100011F486E026C0883521F58091BB00FE01BB
:10362000E00FF11F8283E394E092970DE092950DF5
:103630000F5F1F4F0BC061E0CE016DDD88838130CD
:1036400041F3803551F30DC000E010E0E02E0F157E
:10365000B8F2CE01B0DD8883882319F0813009F4F7
:1036600087E0DF91CF911F910F91FF90EF90089528
:1036700080CFCF92DF92EF92FF920F931F93CF9361
:10368000DF931F92CDB7DEB76C01F42E1092970D29
:103690001092960D411102C0FF24F3948F2D81509A
:1036A000F60181831082C6016983DDDCF601808327
:1036B0006981811141C0660F6F5FC6010BDEF601A3
:1036C0008083882359F18130B9F585E035C0F60152
:1036D0008181E81219C060E0C6011DDDF60180831A
:1036E000813011F486E028C0883531F58091BB0027
:1036F000F601E00FF11F8283E394E092970DE092D0
:10370000950D0F5F1F4F0CC061E0C60104DDF6018F
:103710008083813039F3803549F30EC000E010E03A
:10372000E02E0F15A0F2C60146DDF6018083882346
:1037300019F0813009F487E00F90DF91CF911F914C
:103740000F91FF90EF90DF90CF90089592CFAF92BE
:10375000BF92DF92EF92FF920F931F93CF93DF936D
:103760001F92CDB7DEB75C01F42E122FD32EFC01D1
:103770001082698378DCF5018083698181112FC013
:10378000660FC501A7DDF5018083882321F0813014
:1037900031F582E024C06F2DC50146DDF50180833F
:1037A000811103C0E12EFD2C0DC08130C1F483E0F6
:1037B00016C0F70161917F01C50136DDF5018083F7
:1037C0008111F3CF8E2D811B801798F3C501F3DC97
:1037D000F5018083882319F0813009F487E00F9088
:1037E000DF91CF911F910F91FF90EF90DF90BF90ED
:1037F000AF9008950F93CF93DF93EC01F9010190FF
:103800000020E9F73197E21BF30B18820E2F9FDFA0
:103810008883DF91CF910F910895EF92FF920F93DC
:103820001F93CF93DF931F92CDB7DEB77C01042F98
:10383000122FFC011082698316DCF70180836981F5
:10384000811126C0660FC70145DDF70180838823FB
:1038500021F08130E9F482E01BC0602FC701E4DC75
:10386000F7018083882321F0813091F483E010C038
:10387000612FC701D9DCF70180838111F5CFC70122
:103880009ADCF7018083882319F0813009F487E0FE
:103890000F90DF91CF911F910F91FF90EF900895BE
:1038A000BCCFEF92FF921F93CF93DF931F92CDB7C0
:1038B000DEB77C01142FFC0110826983D4DBF70191
:1038C0008083698181111FC0660FC70103DDF70185
:1038D0008083882321F08130B1F482E014C0612F0D
:1038E000C701A2DCF7018083882321F0813059F4DD
:1038F00083E009C0C7015FDCF7018083882319F0EA
:10390000813009F487E00F90DF91CF911F91FF90F4
:10391000EF900895C6CFEF92FF920F931F93CF932E
:10392000DF93EC010091930D1091940D80E590E0F0
:103930009093940D8093930D6FE073E08EE49BE081
:10394000E1D18EE49BE08AD1F12CE12C1882CE01EA
:103950008ADB8883811105C06F2D660FCE01BADC2A
:1039600088838881882329F08130A1F462E373E0A1
:103970001BC06BE673E08EE49BE070D066E873E0FA
:103980008EE49BE06BD040E150E06F2D8EE49BE035
:103990009FD1E394CE010FDCF39480E8F812D6CFE8
:1039A000E11005C06AE873E08EE49BE0ABD11093B0
:1039B000940D0093930DDF91CF911F910F91FF9084
:1039C000EF900895ECEBF0E0108284E4808308959A
:1039D0000F931F93CF93DF938C01EB0108C0D801A5
:1039E000ED91FC910190F081E02DC801199569914C
:1039F0006111F5CFDF91CF911F910F910895EF9253
:103A0000FF920F931F93CF93DF937C01EB018A0109
:103A1000060F171F09C06991D701ED91FC91019024
:103A2000F081E02DC7011995C017D107A1F7DF91EB
:103A3000CF911F910F91FF90EF900895DC01ED91D0
:103A4000FC910190F081E02D642F1994DC01ED913F
:103A5000FC910190F081E02D642F1994DC01ED912F
:103A6000FC910280F381E02D19946F927F928F92E6
:103A70009F92AF92BF92CF92DF92EF92FF920F93FD
:103A80001F93CF93DF93CDB7DEB7A0970FB6F8940F
:103A9000DEBF0FBECDBF8C0141155105610571051B
:103AA000C9F440E350E060E070E0A0960FB6F894EF
:103AB000DEBF0FBECDBFDF91CF911F910F91FF9061
:103AC000EF90DF90CF90BF90AF909F908F907F90BE
:103AD0006F90BCCF66246394712C6C0E7D1EC12C3C
:103AE000D12C7601822E912CA12CB12CCB01BA01C4
:103AF000A50194010F944528FA01D3016D933D016E
:103B0000BFEFCB1ADB0AEB0AFB0AA901BF01411583
:103B100051056105710551F781E0C81AD108E10826
:103B2000F10819C0E1E0F0E0EC0FFD1FEC0DFD1D08
:103B30008081482F8A3010F4405D01C0495C50E01C
:103B400060E070E020E030E0C80130D0A1E0CA1AA7
:103B5000D108E108F108BFEFCB16DB06EB06FB0648
:103B600009F7A0960FB6F894DEBF0FBECDBFDF9168
:103B7000CF911F910F91FF90EF90DF90CF90BF906A
:103B8000AF909F908F907F906F9008952115310591
:103B900009F454CF6ACF9A01AB0160E070E0F6CF30
:103BA0009A01462F50E060E070E0F0CFCF92DF92B4
:103BB000EF92FF92CF93DF93EC016A017B01211515
:103BC000310539F4DF91CF91FF90EF90DF90CF90E6
:103BD0003DCF2A30310591F477FF0FC020E030E06F
:103BE0004DE250E060E070E0E1DFF094E094D094CA
:103BF000C094C11CD11CE11CF11C2AE0B701A60134
:103C0000CE01DF91CF91FF90EF90DF90CF902DCF3D
:103C10009A01AB01662757FD6095762FC7CF9A01B1
:103C2000462F50E060E070E0C1CF0F931F93CF9319
:103C3000DF938C01EB0108C02196FA01449150E01A
:103C400060E070E0C801FADEAE01FE0184918111EE
:103C5000F3CFDF91CF911F910F910895CF93DF9311
:103C6000EC014DE050E060E070E0F0DE4AE050E052
:103C700060E070E0CE01DF91CF91E8CECF93DF938B
:103C8000EC0184DFCE01DF91CF91E8CFCF93DF93BA
:103C9000EC018CDFCE01DF91CF91E0CFCF93DF93AA
:103CA000EC019A01AB0160E070E070DFCE01DF91C2
:103CB000CF91D4CFCF93DF93EC019A01AB0166276C
:103CC00057FD6095762F72DFCE01DF91CF91C6CF81
:103CD000CF93DF93EC019A01462F50E060E070E053
:103CE00055DFCE01DF91CF91B9CFCF93DF93EC01B8
:103CF0009A01462F50E060E070E058DFCE01DF917E
:103D0000CF91ACCFCF93DF93EC01A8DECE01DF9152
:103D1000CF91A4CF8F929F92AF92BF92CF92DF921A
:103D2000EF92FF920F931F93CF93DF938C014A0181
:103D30005B01C22F20E030E0A901C501B4010F945E
:103D4000242187FF0AC04DE250E060E070E0C80126
:103D50007DDEB7FAB094B7F8B094D0E060E070E0E0
:103D600080E09FE307C020E030E040E251E40F94A0
:103D70002B21DF5FDC13F7CF262F372F482F592F4A
:103D8000C501B4010F94A920D62EE72EF82ED92F05
:103D90000F949821962EA72EB82EC92E0F94C421C9
:103DA0009B01AC016D2D7E2D8F2D9D2F0F94A82092
:103DB000D62FF72EE82ED92E2AE0492D5A2D6B2D1D
:103DC0007C2DC80152DECC2389F164E17BE0C8017F
:103DD00045DE2CC020E030E040E251E46D2F7F2D25
:103DE0008E2D9D2D0F9457234B015C01792D9B2D1A
:103DF0000F9493216B01EE24D7FCE094FE2C2AE073
:103E000030E0B701A601C801D1DEC701B6010F94A9
:103E1000C6219B01AC01682D792D8A2D9B2D0F9415
:103E2000A820D62FF72EE82ED92EC150C111D2CFFF
:103E3000DF91CF911F910F91FF90EF90DF90CF9086
:103E4000BF90AF909F908F90089564CFCF93DF93F2
:103E5000EC0160DFCE01DF91CF9100CF8EBD0DB4BC
:103E600007FEFDCF08958FEFF9DF8EB5089561E06D
:103E7000FC0184810C94B75760E0FC0184810C94B0
:103E8000B757CF93DF93EC018E818823C1F08FEF7A
:103E90008EBD4FEF04C00DB407FEFDCF4EBD8F8128
:103EA00098859C012F5F3F4F38872F838130924048
:103EB00090F30DB407FEFDCFCE01D9DF1E82DF9156
:103EC000CF9108950F931F93CF93DF931F92CDB798
:103ED000DEB78C016983D5DF6981F80161870F90B6
:103EE000DF91CF911F910F910895673028F026E15F
:103EF000FC01258380E008958DB560FD02C0663029
:103F000011F48E7F01C081608DBD8CB58C7F8CBD1E
:103F10009CB562FF02C082E001C080E066956170DE
:103F2000692B682B6CBD81E008950F931F93CF938D
:103F3000DF93EB010E94E5558B0195DF8F3F49F040
:103F40000E94E555601B710B6C177D07B0F380E094
:103F500001C081E0DF91CF911F910F910895CF9221
:103F6000DF92FF920F931F93CF93DF9300D01F92A6
:103F7000CDB7DEB76C01F62E29833A834B835C8381
:103F800080DFC60179DF6CE271E0C601CEDF8F2DE4
:103F9000806464DF08E110E05C814B813A81298113
:103FA000DA01C901002E04C0B695A79597958795AB
:103FB0000A94D2F729833A834B835C834FDF0850FE
:103FC000110929813A814B815C81083F8FEF1807E5
:103FD00039F7FF2029F0E8E0FE1621F08FEF03C04B
:103FE00085E901C087E83ADF10E03DDFF60182870E
:103FF00087FF04C01F3F11F01F5FF7CF0F900F9096
:104000000F900F90DF91CF911F910F91FF90DF9054
:10401000CF900895BF92CF92DF92EF92FF920F93CD
:104020001F93CF93DF93EC01B62E1B8619861E8259
:104030001D824C830E94E5558B0161E08C810E94BA
:104040009857CE0114DF60E082E30E94985761E048
:1040500083E30E94985761E084E30E94985761E0EF
:1040600085E30E94985783E58CBD8DB58E7F8DBD0D
:104070002AE0F22E8FEFF2DEFA94E1F7CE01FCDEB9
:1040800009C00E94E555601B710B613D774010F03F
:1040900081E052C020E030E0A90160E0CE015FDFA6
:1040A000F82E8A8781E0F812ECCF2AEA31E040E06E
:1040B00050E068E0CE0153DF82FF02C0FB860CC0F7
:1040C00094E0F92ED0DE8A87FA94E1F78A3A11F06B
:1040D00082E032C082E08B878B85823031F4C12C44
:1040E000D12CE12C80E4F82E0DC0C12CD12C76010E
:1040F00009C00E94E555601B710B613D774010F0CF
:1041000088E01AC020E030E0A90167E3CE0127DF94
:10411000A701960169E2CE0122DF8A878111E9CFEA
:104120008B858230A1F420E030E0A9016AE3CE0162
:1041300016DF882319F086E08D8317C094DE807C1B
:10414000803C11F483E08B878EDE8DDE8CDECE0129
:104150008EDE6B2DCE01DF91CF911F910F91FF90DD
:10416000EF90DF90CF90BF90C0CECE0180DE80E098
:10417000DF91CF911F910F91FF90EF90DF90CF9043
:10418000BF9008950F931F93CF93DF93EC010E948C
:10419000E5558B0109C00E94E555601B710B6D321E
:1041A000714010F08FE007C05EDE8A878F3F99F381
:1041B0008E3F31F08DE08D83CE0159DE80E001C06D
:1041C00081E0DF91CF911F910F910895EF92FF92BF
:1041D0000F931F93CF93DF93EC017A0120E030E03F
:1041E000A901BDDE882319F08EE08D8318C0CE01B1
:1041F000C9DF8823A1F08701E12CF12C34DEF8011E
:1042000081938F01FFEFEF1AFF0A80E1E816F104B6
:10421000A9F729DE28DECE012ADE81E003C0CE0127
:1042200026DE80E0DF91CF911F910F91FF90EF90FC
:104230000895CF93DF93CDB7DEB760970FB6F894AC
:10424000DEBF0FBECDBFAE014F5F5F4F69E0BEDF87
:10425000882329F08B8586FB882780F901C080E0C0
:1042600060960FB6F894DEBF0FBECDBFDF91CF9141
:104270000895AF92BF92CF92DF92EF92FF920F9389
:104280001F93CF93DF9300D01F92CDB7DEB75C01B1
:104290006801790149835A836B837C83CADF498132
:1042A0005A816B817C81811102C08BE02AC0F501AB
:1042B0008385833071F039E0440F551F661F771FE7
:1042C0003A95D1F7E9E0CC0CDD1CEE1CFF1CEA9519
:1042D000D1F79A01AB0160E2C50141DE81111CC03A
:1042E000A701960161E2C5013ADE811115C020E007
:1042F00030E0A90166E2C50132DE81110DC00EC0B9
:104300008CE0F501858304C0C501B1DD81E00DC0FD
:10431000C501ADDD80E009C08AE0F3CF60E177E25E
:10432000C50103DE882361F3EFCF0F900F900F904C
:104330000F90DF91CF911F910F91FF90EF90DF9041
:10434000CF90BF90AF9008950F931F93CF93DF93BB
:10435000CDB7DEB760970FB6F894DEBF0FBECDBF06
:104360008C01AE014F5F5F4F69E030DF882309F4B5
:1043700057C08981807C71F58F818370382F330F0E
:10438000330F20E0888544E0849FC0011124822BF4
:10439000932B29852295269526952370822B8C01B7
:1043A0000F5F1F4F20E030E04A854370440F8B853C
:1043B00087FB882780F9482B8E818F7090E0840FCF
:1043C000911D079704C0000F111F221F331F8A95EC
:1043D000D2F729C0803409F508850695069510E0C6
:1043E00020E030E09801112700278A85082B998565
:1043F00080E0AA2797FDA095BA2F082B192B2A2B0E
:104400003B2B0F5F1F4F2F4F3F4FAAE0000F111F95
:10441000221F331FAA95D1F706C089E0F8018583D2
:1044200000E010E09801B801C90160960FB6F89459
:10443000DEBF0FBECDBFDF91CF911F910F910895C9
:104440008F929F92AF92BF92CF92DF92EF92FF92A4
:104450000F931F93CF93DF93EC015901470101158F
:10446000110509F472C0C801820F931F8130924078
:1044700008F06DC08E81882371F0C880D980EA80F1
:10448000FB804C155D056E057F0529F48F819885AD
:10449000A816B90608F5488359836A837B838B8500
:1044A000833039F0B9E0440F551F661F771FBA9566
:1044B000D1F79A01AB0161E1CE0151DD882319F0FA
:1044C00083E08D8344C0CE015DDE882309F43FC0C4
:1044D00018861F8281E08E838FEF8EBD2FEF09C07B
:1044E0000DB407FEFDCF2EBD8F819885019698876C
:1044F0008F838F8198858A159B0590F3C80101975A
:10450000F4014FEF06C00DB407FEFDCF2EB5219389
:104510004EBD9F012819390928173907A0F30DB49A
:1045200007FEFDCF2EB5F401E80FF91F20838F8120
:104530009885800F911F98878F832985222319F0F2
:104540008115924010F0CE019CDC81E003C0CE01C9
:104550008EDC80E0DF91CF911F910F91FF90EF9063
:10456000DF90CF90BF90AF909F908F900895EF9283
:10457000FF920F931F93790100E012E020E030E0FA
:104580005FDF1F910F91FF90EF900895CF93DF931E
:10459000EC016EBD20E030E00DB407FEFDCFFA0166
:1045A000E20FF31F80818EBD0DB407FEFDCF818128
:1045B0008EBD2E5F3F4F211582E0380769F70DB49D
:1045C00007FEFDCF8FEF4ADC8FEF48DC4CDC8A879B
:1045D0008F71853031F081E18D83CE0148DC80E040
:1045E00001C081E0DF91CF9108950F931F93CF9386
:1045F000DF93EC018B0168E572E097DC882341F0E2
:10460000A8016CEFCE01DF91CF911F910F91BECF2A
:1046100083E18D83CE012BDC80E0DF91CF911F9170
:104620000F9108950F931F93CF93DF93EC018901AE
:104630008B85833039F089E0440F551F661F771F43
:104640008A95D1F79A01AB0168E1CE0188DC882315
:1046500011F084E023C0A8016EEFCE0197DF88231C
:10466000A1F068E572E0CE0160DC811102C085E155
:1046700015C020E030E0A9016DE0CE0170DC8111B1
:104680000CC0F1DB811109C004C0CE01F0DB80E079
:1046900007C0CE01ECDB81E003C084E18D83F5CF60
:1046A000DF91CF911F910F9108958F929F92AF92BA
:1046B000BF92CF92DF92EF92FF920F931F93CF930F
:1046C000DF93EC016A017B014801590120E030E0F1
:1046D000A90167E344DCA501940167E1CE013FDC59
:1046E000882311F087E012C08B85833039F099E080
:1046F000CC0CDD1CEE1CFF1C9A95D1F7A70196018E
:1047000069E1CE012CDC882331F085E08D83CE0178
:10471000AEDB80E001C081E0DF91CF911F910F916E
:10472000FF90EF90DF90CF90BF90AF909F908F90D1
:104730000895CF93DF93EC0168E572E0F6DB882300
:1047400061F08DEF8BDB68E572E0CE01EEDB882354
:1047500021F0CE018CDB81E005C080E18D83CE01AC
:1047600086DB80E0DF91CF9108950F931F93CF9365
:10477000DF938C01EC01AA96D0939D0DC0939C0D04
:10478000CE010E94BA2DB801645F7F4FCE01DF9148
:10479000CF911F910F912DC40F931F93CF93DF9350
:1047A000CDB7DEB76D970FB6F894DEBF0FBECDBFA5
:1047B0008C0189EA93E09A8389831B821E82FB0124
:1047C00080818F3239F48181811104C0C801CDDF2D
:1047D000182F4CC041E0CE0101960E946D34882311
:1047E00009F443C08E81823008F43FC09B81F801F8
:1047F00094A79C8195A79D8196A787A74F815885EF
:1048000069857A8540AB51AB62AB73AB4B855C85F8
:104810006D857E8544AB55AB66AB77AB4F855889CC
:1048200069897A8940AF51AF62AF73AF8B8984AF2A
:10483000FD964C895D896E897F89408351836283AF
:104840007383F801EF5BFF4F488D598D6A8D7B8D27
:104850004083518362837383F801EB5BFF4F8C8D40
:104860009D8D9183808311E001C010E0CE010196FF
:104870000F940D1D812F6D960FB6F894DEBF0FBEFD
:10488000CDBFDF91CF911F910F910895CF93DF930B
:10489000EC018D81882371F080EC91E082D140E1C0
:1048A00050E06D818EE49BE07BD98EE49BE0DF914C
:1048B000CF91D4C9DF91CF910895E8DFFFCF0F9357
:1048C0001F93CF93DF931F921F92CDB7DEB78C015A
:1048D00081ED91E069837A8364D169817A818EE484
:1048E0009BE010DAC8010F900F90DF91CF911F91DC
:1048F0000F91CCCFE4DFFFCF0F931F93CF93DF93C4
:10490000EC018B0189ED91E04CD1C8014ED1CE0173
:10491000DF91CF911F910F91B9CFEEDFFFCF8A9634
:104920000C947D340F931F93CF93DF93EC0172DBD4
:104930008823B9F08E01045F1F4F41E0BE01C8011A
:104940000E947E3E882331F0CE01DF91CF911F91EE
:104950000F910BCF40E0BE01C8010E947E3E811145
:10496000F3CF80E0DF91CF911F910F910895CF9306
:10497000DF93EC018D81882369F081EE91E015D100
:104980008D81813019F488E092E00FD1CE01DF9162
:10499000CF917CCF8BA1811103C088E392E008C046
:1049A0008FA5811103C085E592E002C080E792E007
:1049B000DF91CF91FAC0DBDFFFCF462F20E06EE41E
:1049C0007BE08A960C943B3120E08A960C943B3134
:1049D0001F93CF93DF93CDB7DEB76D970FB6F894E3
:1049E000DEBF0FBECDBF242FE9EAF3E0FA83E983EF
:1049F0001B821E828A96AB01BC01CE0101960E94E9
:104A0000B935182FCE0101960F940D1D812F6D968B
:104A10000FB6F894DEBF0FBECDBFDF91CF911F91CF
:104A200008958A960C943F34EF92FF920F931F9350
:104A3000CF93DF93CDB7DEB76D970FB6F894DEBF97
:104A40000FBECDBF8C017A0189EA93E09A838983F6
:104A50001B821E8241E0CE0101960E946D348823A4
:104A600051F0B801665D7F4FA701CE0101960E940B
:104A70008736182F01C010E0CE0101960F940D1D4E
:104A8000812F6D960FB6F894DEBF0FBECDBFDF91BC
:104A9000CF911F910F91FF90EF9008951F93CF93A7
:104AA000DF93CDB7DEB76D970FB6F894DEBF0FBEBC
:104AB000CDBF89EA93E09A8389831B821E8241E0FD
:104AC000CE0101960E946D34882331F0CE0101960B
:104AD0000E94352F182F01C010E0CE0101960F94CF
:104AE0000D1D812F6D960FB6F894DEBF0FBECDBFA2
:104AF000DF91CF911F910895CF92DF92EF92FF92B5
:104B0000CF93DF93CDB7DEB76D970FB6F894DEBFC6
:104B10000FBECDBF69017A0189EA93E09A83898348
:104B20001B821E8242E0CE0101960E946D348823D2
:104B300041F0B701A601CE0101960E945F2EF82E2A
:104B400001C0F12CCE0101960F940D1D8F2D6D9695
:104B50000FB6F894DEBF0FBECDBFDF91CF91FF90AF
:104B6000EF90DF90CF9008950F931F93CF93DF9333
:104B70008C01EB0105C040E050E0C80111D821963E
:104B8000FE0164916111F7CFDF91CF911F910F91D9
:104B90000895CF93DF93EC01E7DFCE01DF91CF9152
:104BA0005DC8BC018EE49BE0DFCFBC018EE49BE0DE
:104BB000F0CF1F93CF93DF93EC01162F6A3020F4D0
:104BC00040E050E060E32BD84AE050E0612FCE0196
:104BD000DF91CF911F910C94D01DCF93DF93EC0107
:104BE0009C012A5F3F4F41E050E060E070E08B8D18
:104BF0009C8D0E948D3C8823A1F04F89588D698D32
:104C00007A8D452B462B472B71F44E815F81688549
:104C100079854F8B588F698F7A8F8B8180688B83D2
:104C200002C080E001C081E0DF91CF910895CF9272
:104C3000DF92EF92FF921F93CF93DF93EC014B89AA
:104C40005C896D897E89403E5F4F6F41710508F038
:104C50006BC0C3DF882309F467C00E94943A88239D
:104C600009F462C0EB8DFC8DCE80DF80E884F9848E
:104C700032E0C31AD108E108F108058404C0CC0C65
:104C8000DD1CEE1CFF1C0A94D2F74685578560890F
:104C90007189C40ED51EE61EF71E81E08093A20D19
:104CA000C0920002D0920102E0920202F09203024E
:104CB00080E092E0E5EAFDE0DF019C011D922150D9
:104CC0003040E1F711E010C0B701A601410F511DBE
:104CD000611D711D25EA3DE08091A30D9091A40D09
:104CE000A1DC882309F11F5FEB8DFC8D84811817EF
:104CF00058F3C12C82E0D82EE12CF12C058404C09D
:104D0000CC0CDD1CEE1CFF1C0A94D2F74B895C898D
:104D10006D897E894C0D5D1D6E1D7F1D4B8B5C8BDF
:104D20006D8B7E8B81E001C080E0DF91CF911F9180
:104D3000FF90EF90DF90CF900895CF93DF93EC0139
:104D4000462F6E857F85888999890E94CF3A88236E
:104D500041F02A8980E2289F900111242B55324F7F
:104D600002C020E030E0C901DF91CF9108956F9239
:104D70007F928F929F92AF92BF92CF92DF92EF92EB
:104D8000FF920F931F93CF93DF9300D01F92CDB765
:104D9000DEB73C014B015A01DC015796CD90DD9006
:104DA000ED90FC905A97C114D104E104F10409F488
:104DB00079C09E012F5F3F4FB701A601F301838D9C
:104DC000948D0E940E3B882309F46CC009811A81DE
:104DD0002B813C81B701A6014F5F5F4F6F4F7F4F23
:104DE000041715072607370709F459C0D3015B9646
:104DF0004D915C915C97FA018789803131F4083FCD
:104E00001F4F2105310538F44DC0083F1F4F2F4F6C
:104E10003F4008F447C0F3018789908DA18DB28D82
:104E20000297A109B109FA01058404C0880F991FEE
:104E3000AA1FBB1F0A94D2F70685178520893189DE
:104E4000800F911FA21FB31FF40180839183A2835F
:104E5000B383FA0186859785A089B1890197A10955
:104E6000B1092481820F911DA11DB11DF2E0CF1A5D
:104E7000D108E108F108FA01058404C0CC0CDD1C5E
:104E8000EE1CFF1C0A94D2F78C0D9D1DAE1DBF1D9C
:104E9000F50180839183A283B38381E004C068011C
:104EA000790187CF80E00F900F900F900F90DF91E6
:104EB000CF911F910F91FF90EF90DF90CF90BF9017
:104EC000AF909F908F907F906F900895FC0190E03D
:104ED00080E02EE23081303269F0983029F4DB0135
:104EE000A80FB11D2C938F5F3081DB01A80FB11D7E
:104EF0003C938F5F9F5F31969B3061F7FB01E80F1A
:104F0000F11D10820895CF93DF93EB01FC01258101
:104F1000211102C080E00EC02250223020F48FE226
:104F20008883198206C060E008DF009799F3BE010C
:104F3000CDDF81E0DF91CF910895CF93DF93FB0127
:104F4000DC011A964D915D916D917C911D97408386
:104F500051836283738316968D919D910D90BC91C0
:104F6000A02D84839583A683B783DF91CF91089585
:104F7000CF93FB0120E030E231932F5F2B30E1F73C
:104F8000DC0130E0C7E01CC0CA3051F138E0CAE0B3
:104F900017C0E21729F1FC010196E491E111F9CF64
:104FA000C317F0F02132E0F02F37D0F4FB01E30F0C
:104FB000F11D822F81568A3108F4205220833F5FF1
:104FC000CD012D91211109C0FA018083918381E0E7
:104FD000FB019081903259F403C02F3219F4F4CFC1
:104FE00080E005C02E3281F280E892E0D4CFCF91EC
:104FF00008950F931F93CF93DF93EC018B018D8165
:10500000882311F080E044C0FB018789803131F5AD
:1050100028C083E08D83F801428D538D648D758D9A
:105020004F8B588F698F7A8F9E012D5E3F4FC8013D
:105030000E948E3B882331F31C8F0B8F81E08B8382
:105040001E821F82188619861A861B861C861D865C
:105050001E861F86188A198A1A8A1AC0803291F60B
:10506000D8CF82E08D831F8A188E198E1A8EFB018D
:10507000408D518D60E070E095E0440F551F661F34
:10508000771F9A95D1F74B8B5C8B6D8B7E8BD4CF32
:10509000DF91CF911F910F910895AF92BF92CF9260
:1050A000DF92EF92FF920F931F93CF93DF93EC0168
:1050B0007B01B42EA22E8B01C12CD12CF801808152
:1050C000803291F0F8E0CF1207C040E050E06EE28D
:1050D000CE010E940F1ED39440E050E0F8016081A1
:1050E000CE010E94D01DD394C3940F5F1F4FFBE0ED
:1050F000CF12E4CFF70183858871803151F4A1107C
:105100000BC007C040E050E060E2CE010E940F1EDD
:10511000D394DB14B8F304C040E050E06FE2F5CF65
:10512000DF91CF911F910F91FF90EF90DF90CF9083
:10513000BF90AF900895242F462FBC018EE49BE0D2
:10514000ACCF0F931F93CF93DF93EC018B01672FAD
:10515000772766956454784F4AE050E00E94CB1D53
:1051600040E050E06DE2CE010E940F1EB80135E034
:10517000769567953A95E1F76F707727CE0119DD3F
:1051800040E050E06DE2CE010E940F1EB8016F7149
:105190007727CE01DF91CF911F910F910ACDBC01EE
:1051A0008EE49BE0CECF0F931F93CF93DF93EC0160
:1051B0008B01612F669566956695FBDC40E050E0BB
:1051C0006AE3CE010E940F1EB80145E0769567950F
:1051D0004A95E1F76F737727CE01EBDC40E050E0B2
:1051E0006AE3CE010E940F1E0F711127602F660F18
:1051F000CE01DF91CF911F910F91DBCCBC018EE4EA
:105200009BE0D1CFCF93DF93CDB7DEB72D970FB60D
:10521000F894DEBF0FBECDBFBE016F5F7F4F73DE60
:10522000882349F0BE016F5F7F4F8EE49BE00E94B0
:105230002E1D81E001C080E02D960FB6F894DEBFF0
:105240000FBECDBFDF91CF9108952F923F924F9225
:105250005F926F927F928F929F92AF92BF92CF9206
:10526000DF92EF92FF920F931F93CF93DF9300D0C3
:105270001F92CDB7DEB79C838B831A01DC01159694
:105280008C91811103C02FEF3FEFEDC0EB81FC81CA
:10529000838180FFF8CFBCC01601201A310A21019A
:1052A0005B018B819C8106969A838983ABC0AB811D
:1052B000BC811A960D911D912D913C911D97D9019C
:1052C000C8019170AA27BB273C01EB81FC81458175
:1052D0006801790159E0F694E794D794C7945A95F8
:1052E000D1F7838D948D423061F4DC015A966D9133
:1052F0007D918D919C915D976C0D7D1D8E1D9F1DE7
:105300004BC0FC0194809A949C206114710401F5B7
:1053100091101EC0012B022B032B59F4EB81FC8151
:105320008789908DA18DB28D86839783A087B18761
:105330000FC0AB81BC8116964D915D916D917C91B2
:10534000199729813A810E940E3B882309F49BCF4B
:10535000AB81BC815B96ED91FC915C9716966D914B
:105360007D918D919C9119976250710981099109E4
:10537000058404C0660F771F881F991F0A94D2F70F
:105380000685178520893189600F711F821F931F41
:10539000690D711D811D911D20E032E0261937092C
:1053A00072012415350508F47901E114B2E0FB0619
:1053B00009F053C0009100021091010220910202F5
:1053C000309103026017710782079307D9F545C032
:1053D000C3018B55924FA701BC01C5010F943F201B
:1053E000AE0CBF1CEB81FC810285138524853585BD
:1053F0000E0D1F1D211D311D028713872487358740
:105400004E185F084114510409F051CF91012BC08F
:10541000EB81FC81C388D488E588F68802851385F2
:10542000248535852A01612C712C46015701801A8B
:10543000910AA20AB30A481459046A047B0408F0CA
:105440002BCF2DCF9501AB01BC018091A30D909185
:10545000A40D8DD88111C4CF16CF40E00E94CF3A61
:105460008111B6CF10CFC9010F900F900F900F9000
:10547000DF91CF911F910F91FF90EF90DF90CF9030
:10548000BF90AF909F908F907F906F905F904F9064
:105490003F902F900895CF93DF931F92CDB7DEB743
:1054A00041E050E0BE016F5F7F4FCFDE019719F4FE
:1054B000298130E002C02FEF3FEFC9010F90DF914B
:1054C000CF9108958F929F92AF92BF92CF92DF9229
:1054D000EF92FF92CF93DF93EC018A849B84AC849C
:1054E000BD84CE80DF80E884F984D5DF9C0197FD00
:1054F00008C08A869B86AC86BD86CE82DF82E8861F
:10550000F986C901DF91CF91FF90EF90DF90CF90A6
:10551000BF90AF909F908F900895BF92CF92DF92EF
:10552000EF92FF920F931F93CF93DF93CDB7DEB728
:10553000A0970FB6F894DEBF0FBECDBF7C018B01E4
:10554000B42ED22E40E250E0BE016F5F7F4FC70104
:105550007CDE809709F079C08981882309F475C0C1
:10556000853E81F38E3271F38C8583FF09C0EACFCB
:1055700040E050E060E2C8010E940F1EF39401C0B9
:10558000F12CFD10F5CFEE24E394F12CEC0EFD1E72
:10559000C12CD12CF7018081803291F0F8E0CF123C
:1055A00007C040E050E06EE2C8010E940F1ED39495
:1055B00040E050E0F7016081C8010E94D01DD39403
:1055C000C394FFEFEF1AFF0A8BE0C812E3CF8C857C
:1055D0008871803139F440E050E06FE2C8010E94E8
:1055E0000F1ED3948B2D837051F4B0FE20C00BC0DE
:1055F00040E050E060E2C8010E940F1ED394EDE04D
:10560000ED15B0F7F2CF40E050E060E2C8010E9433
:105610000F1E698D7A8DC80194DD40E050E060E294
:10562000C8010E940F1E6F89788DC801BCDD8C8572
:105630008871803111F0B1FC0CC0C8010E942E1E8F
:105640008C85887121F481E014C080E012C082E072
:1056500010C040E050E060E2C8010E940F1E4D8D76
:105660005E8D6F8D78A12AE030E0C8010E94C61DD2
:10567000E4CFA0960FB6F894DEBF0FBECDBFDF918A
:10568000CF911F910F91FF90EF90DF90CF90BF903F
:1056900008958F929F92AF92BF92CF92DF92EF9236
:1056A000FF920F931F93CF93DF93CDB7DEB7A097F1
:1056B0000FB6F894DEBF0FBECDBF6C018B015A014F
:1056C0004901E12CF12C14C040E250E0BE016F5FB3
:1056D0007F4FC601BADD8097D1F589818823B9F162
:1056E000853E91F38E3281F38C8583FF34C0ECCFFD
:1056F000AE14BF044CF79C859871FE01319680E092
:1057000020E04EE23191303239F0D801A20FB11DC4
:1057100027FDBA953C932F5F873011F49923F9F058
:105720008F5F8B3079F78D8D9E8DAF8DB8A1F40191
:1057300080839183A283B383F801E20FF11D27FDDB
:10574000FA9510828C85887121F481E010C080E088
:105750000EC082E00CC0FFEFEF1AFF0AC9CFD801DC
:10576000A20FB11D27FDBA954C932F5FD9CFA096FC
:105770000FB6F894DEBF0FBECDBFDF91CF911F9162
:105780000F91FF90EF90DF90CF90BF90AF909F90E0
:105790008F9008954F925F926F927F928F929F9217
:1057A000AF92BF92CF92DF92EF92FF920F931F932F
:1057B000CF93DF931F92CDB7DEB73C015B012A0187
:1057C0004901CC24CA94DC2CE12CF12C13C0F50146
:1057D000EE0DFF1D60838114910419F46A3049F4C1
:1057E0001CC070E0C4010F944F20892B11F015C02C
:1057F0008701780187010F5F1F4F04151505CCF451
:1058000041E050E0BE016F5F7F4FC3011EDD6C01C0
:1058100081E0C816D10469F408C0F501E00FF11F5A
:1058200010820BC00FEF1FEF08C069816D3079F651
:10583000DFCFD7FCF7CF8701F0CFC8010F90DF9102
:10584000CF911F910F91FF90EF90DF90CF90BF907D
:10585000AF909F908F907F906F905F904F90089542
:105860000F931F93CF93DF938C01EB01FC01858194
:10587000823020F142855385648575854F715527A7
:1058800066277727452B462B472BC1F440E250E093
:10589000BE01C801DADC8032910521F0892B71F458
:1058A00080E00DC088818823D9F3853E79F38E325C
:1058B00069F38B8583FDEACF80E201C08FEFDF9132
:1058C000CF911F910F910895CF92DF92EF92FF92A7
:1058D000CF93DF93EC018D81823018F420E030E02B
:1058E00028C0CA84DB84EC84FD84E5E0F694E79468
:1058F000D794C794EA95D1F78FE0C822DD24EE242F
:10590000FF24CE01C8DD97FDE9CF4A855B856C8514
:105910007D85415E5F4F6F4F7F4F4A875B876C8706
:105920007D87960175E0220F331F7A95E1F72B559D
:10593000324FC901DF91CF91FF90EF90DF90CF9070
:1059400008958F929F92AF92BF92CF92DF92EF9283
:10595000FF920F931F93CF93DF93EC014A015B01FA
:105960002D81222309F475C08B899C89AD89BE895C
:1059700084179507A607B70708F46BC06CC081149D
:105980009104A104B10449F41E821F82188619866D
:105990001A861B861C861D865AC00A851B852C8587
:1059A0003D85EB8DFC8D858590E00996B901A801B8
:1059B0004150510961097109082E04C07695679517
:1059C000579547950A94D2F7CC24CA94DC2C7601DB
:1059D000C80CD91CEA1CFB1C04C0F694E794D794AD
:1059E000C7948A95D2F7C416D506E606F70620F0C6
:1059F000012B022B032B49F44F89588D698D7A8D29
:105A00004E835F836887798716C0C41AD50AE60A71
:105A1000F70A11C04E815F816885798598018B8D69
:105A20009C8D0E940E3B91E0C91AD108E108F10853
:105A3000811104C014C08E010A5F1F4FC114D1042C
:105A4000E104F10439F78A869B86AC86BD8681E045
:105A500006C080E004C0223009F091CFF4CFDF917E
:105A6000CF911F910F91FF90EF90DF90CF90BF905B
:105A7000AF909F908F900895FB014081518162818A
:105A80007381DC011A964D935D936D937C931D9702
:105A90004481558166817781FC0146835783608705
:105AA000718708950F931F93CF93DF93EC018D813E
:105AB0008823D9F18B8187FF32C061E0CE013DD9C7
:105AC0008C01009791F1FC018081853E71F18D81FF
:105AD000823040F44B895C896D897E89448F558F73
